:10000000000002207D210100E1210100BD1E010050
:10001000E1210100E1210100E121010000000000D7
:10002000000000000000000000000000E1F20000FD
:10003000E12101000000000081F30000E5F3000071
:10004000E1210100E1210100E1210100E1210100A4
:10005000E121010000000000E1210100E121010097
:10006000E1210100E1210100E1210100E121010084
:10007000E1210100E1210100E1210100E121010074
:10008000E1210100E1210100E1210100E121010064
:10009000E1210100E1210100E1210100E121010054
:1000A000E1210100E1210100E1210100E121010044
:1000B000E1210100E1210100E1210100E121010034
:1000C000CD0A0000E1210100E1210100E121010050
:1000D000E1210100E1210100E1210100E121010014
:1000E000E1210100E1210100E1210100E121010004
:1000F000E121010000000000E1210100E1210100F7
:10010000E1210100E1210100E1210100E1210100E3
:10011000E1210100E1210100E1210100E1210100D3
:10012000E1210100E1210100E1210100E1210100C3
:10013000E121010000000000E121010000000000B9
:10014000E1210100E121010041EB0000F1EA0000A2
:10015000E121010000000000E1210100E121010096
:10016000E1210100E1210100E1210100E121010083
:10017000E1210100E1210100E1210100E121010073
:10018000E1210100E1210100E12101000000000066
:10019000E1210100E1210100E1210100E121010053
:1001A000E1210100E1210100E12101000000000046
:1001B000E1210100E1210100000000000000000039
:1001C000000000000000000000000000000000002F
:1001D00000000000E1210100E1210100E121010016
:1001E000E1210100E1210100E1210100E121010003
:1001F000E121010010B5054C237833B9044B13B14C
:100200000448AFF300800123237010BD340A00209E
:1002100000000000848002000C4B43B10C480D49E3
:1002200010B5AFF300800C48036823B910BD0A482D
:10023000036833B97047094B002BF7D0BDE8104075
:100240001847064B002BF5D0184700BF00000000F0
:1002500084800200380A0020300A002000000000DC
:10026000154B002B08BF134B9D46A3F5803A002188
:100270008B460F461348144A121A1CF04FFC0F4BC2
:10028000002B00D098470E4B002B00D09847002041
:10029000002104000D000D48002802D00C4820F079
:1002A00095FA1BF02FFF2000290000F059FC1BF0ED
:1002B000DBFC00BF0000080000000220000000007E
:1002C00000000000340A0020E4BA0120CD0702003B
:1002D000D5190200044B9968DA688B58B3FA83F396
:1002E0005B098B50704700BF500A00207047000028
:1002F000012800D070474FF6FF739942FAD1064BA0
:10030000064A1A60002159609A600421D9601A6176
:1003100008225A61EEE700BF500A0020C0490040A1
:1003200082682AB108B5C168104611F02EF908BDDF
:100330007047000010B50446024B036011F0F6FA56
:10034000204610BDBC28020010B50446044B0360D3
:1003500011F0ECFA204612F015FF204610BD00BF48
:10036000BC28020070B582B004460F481CF092FC15
:1003700026464FF0FF33009300230122616C206B6F
:1003800011F0F2F8054610F0010F08D135F0010325
:10039000EED033685B69294630469847E8E7236822
:1003A0001B6920469847F1E7E828020070B582B043
:1003B00005460E4681B10023A3B9941B01940F2C6E
:1003C00013D82868012C19D0E4B9019B6B602A6806
:1003D0000021D15402B070BD914201D00123EBE75E
:1003E0000023E9E70A4812F0FDFE002201A9284691
:1003F00012F0D4FE2860019BAB60E2E796F9003072
:100400000370E2E7224631461CF08AFADDE700BFBE
:10041000242902002DE9F04186B004460F4690469B
:100420001E4602AB009329494FF000030A460A39E1
:100430006846FFF7BBFF43463A466946204611F03F
:10044000F3F904F14C05009802AB984201D012F088
:1004500099FE1F4B23602563012332461D4904F199
:10046000340011F029FA1C4B63630023E363236417
:10047000636484F84830194B2360284611F044F82F
:1004800019E0009802AB984201D012F07BFE11F007
:10049000ABFF204611F07EF911F0A6FF0C4B236054
:1004A00020460D4B40F8343F11F040FA204611F041
:1004B00071F911F099FF01236364226B2364E263F5
:1004C00084F84830204606B0BDE8F08112290200C9
:1004D000D028020014290200BC280200782902005A
:1004E00008B54FF6FF710120FFF702FF08BD0000BD
:1004F00010B50446084B40F84C3B10F0EFFF074B9B
:1005000023602046064B40F8343F11F00FFA204696
:1005100011F040F9204610BD78290200D0280200D1
:10052000BC28020010B504460A4B40F84C3B10F0C2
:10053000D5FF094B23602046084B40F8343F11F0AB
:10054000F5F9204611F026F9204612F01BFE204650
:1005500010BD00BF78290200D0280200BC2802008C
:1005600008B5062205490BF085F800B908BD044B13
:100570002422044904481CF02BFBF7E7B8290200A9
:10058000C0290200D8290200F829020038B5054622
:100590000C4611F0040F05D013783BB10849094807
:1005A0001CF016FB14F0F00F02D138BD0649F6E737
:1005B000281D03F061FA014604481CF009FBF4E72A
:1005C000382A0200902902009C790200A02902002A
:1005D00070B588B0054626481CF05CFB254B05939A
:1005E00003F1807307936FF07F4306930021084661
:1005F0000DF0F2FF05F130041F4B02931F4B0193E6
:100600000026009605AB06AA07A9204604F07CFA4E
:10061000204604F0A9F9204604F01AFB18491948AD
:1006200004F0D4F90BF074FA174920460BF00CF9DA
:100630000296164B0193502300930123144A154947
:1006400020460BF07DF9204601F02AFD124B3022A6
:1006500083F842230421996083F8432308229A6097
:1006600000F028FB686810F0C9F908B070BD00BF41
:10067000282A0200C0A8000195E50000ADE70000AF
:100680008D050000680A0020202A02006105000094
:100690003C2A0200442A020000E100E010B50446B2
:1006A000024B036011F076F8204610BD782A020054
:1006B00010B50446044B036011F06CF8204612F0AC
:1006C00061FD204610BD00BF782A020070B586B0DB
:1006D00004460D46164602AB009310494FF0000346
:1006E0000A460A396846FFF761FE33462A466946DC
:1006F000204611F099F8009802AB984201D012F010
:1007000041FD074B2360204606B070BD009802AB48
:10071000984201D012F036FD11F066FE562A020012
:10072000782A0200012800D070474FF6FF739942E3
:10073000FAD10A4B0A4A1A60002159609A600421D2
:10074000D9601A6108225A61064B074A1A603C2296
:100750005A60064A9A602C22DA60E5E7800A002097
:10076000C0490040700A00208049004040490040D4
:1007700010B5084C20460EF01DFDA3686268216884
:1007800005481CF025FA00F0D3F9014603481CF097
:100790001FFA10BD980A0020EC2A0200242B020048
:1007A0000F4B19695A698B58B3FA83F35B098B5065
:1007B0000C4B1A685B68D3584BB90021084B1A6878
:1007C0005B68D1508368013B836013B1704701219E
:1007D000F4E710B50446FFF7CBFF0523A36010BD77
:1007E000800A0020700A002010B50446024B036006
:1007F00011F09CF8204610BDE02A020010B5044616
:10080000044B036011F092F8204612F0BBFC204626
:1008100010BD00BFE02A020010B50446024B036081
:1008200010F0B8FF204610BDC82A020010B50446DB
:10083000044B036010F0AEFF204612F0A3FC2046EC
:1008400010BD00BFC82A020010B5044603481CF0C2
:1008500021FA606810F0D2F810BD00BF342B0200FE
:1008600008B504481CF016FA0122034B1A700FF069
:10087000E3FE08BD782B0200C8D2002030B587B057
:1008800005460C2011F092FD044601234FF47A72C4
:100890003E4911F011F83E4B23600523A360EC6044
:1008A0004FF0FF31204611F055F8302011F07EFD59
:1008B000044602AB009337494FF000030A460A3959
:1008C0006846FFF773FD03235A226946204610F05D
:1008D000ABFF009802AB984201D012F053FC2E4BB4
:1008E00023602E481CF0D6F92C60204610F01AFF29
:1008F000542011F05BFD04464FF4FA730222BE212E
:10090000FFF788FD0EE0009802AB984201D012F08C
:1009100039FC204612F036FC11F066FD204610F03E
:1009200039FFF6E76C6094F8483043B94FF0200384
:1009300083F31188BFF36F8FBFF34F8FFEE720461D
:1009400010F0F0FE4FF0FF3104F1340011F002F826
:10095000742011F02BFD04460122BE21FFF7B6FEE4
:10096000AC60204610F0DEFE07B030BD204612F02D
:1009700009FC11F039FDCCE7204612F003FC11F020
:1009800033FD204612F0FEFB11F02EFD4C2B020031
:10099000E02A0200622B0200C82A0200642B020037
:1009A00008B54FF6FF710120FFF7BCFE08BD00003F
:1009B0004FF08043DA6B22F47F02DA63DA6B42F4A1
:1009C000CC02DA631A6B42F04C521A631A6C42F092
:1009D0004C521A645A6C42F003025A64596D044A2C
:1009E0000A435A654FF0A87203F582439A62704732
:1009F0003333030070B54FF080435922C3F8002110
:100A00001622C3F800218822C3F80021D3F8003150
:100A1000002BF0D002F14022B832136823F0F0032B
:100A20001360012011F076F8012011F091F82048B0
:100A300011F0ACF911221F4B5A631F4E304611F0D2
:100A400071F81E4D284611F06DF81D4C204611F02E
:100A500069F800221146304611F002F800221146D2
:100A6000284610F0FDFF4FF4FC020021204610F054
:100A7000F7FF11F0B7FB4FF08044E36B23F47F03E3
:100A8000E363E36B43F4CC03E3630E4A136823F0A0
:100A90003F0343F015031360FFF78AFF0023C4F8F8
:100AA00000314FF4E131084811F0B2FA70BD00BFD7
:100AB00000B0710B00020040103D80570200805EC4
:100AC00005FE0B00C041004000000740064B9B683C
:100AD00013F0010F06D00122034B9A60034A1368FA
:100AE00001331360704700BF00000540B40A0020C6
:100AF00010B500220A4B1A600A4C0B4A4FF00061F5
:100B0000204611F069FA236843F000532360012264
:100B1000064B5A60236843F08043236010BD00BF3A
:100B2000B40A00200000054040420F0000E100E050
:100B3000014B1868704700BFB40A00204FF0200333
:100B400083F31188BFF36F8FBFF34F8FFEE74FF032
:100B5000200383F31188BFF36F8FBFF34F8FFEE73E
:100B600010B5FFF747FF102011F020FC04460023CA
:100B7000036043608360C360FFF780FE2046FFF799
:100B80006FFEFEE770B5B4B006467722274908A885
:100B90001BF0C6FE03AC264D0FCD0FC42B6824F806
:100BA000023B1B0C237023481CF012F833A930467B
:100BB0000CF02EFB20481CF06DF830460CF0BCF910
:100BC00068B11E481CF004F830460CF0B0F93398B8
:100BD0000DF012FC18481CF05DF834B070BD08A888
:100BE0001CF04EFE002400942346024608A930461D
:100BF0000CF090F9FFF79CFF0246114926A81CF063
:100C000063FA26A81CF03CFE00942346024626A95F
:100C100030460CF07FF903A81CF032FE0094234606
:100C2000024603A930460CF075F9CAE7482C0200C9
:100C3000C02C0200002C0200182C0200302C0200F4
:100C4000202C020010B582B00022114610200CF0BA
:100C500025F810B30446502200210CF093F8B8B9DF
:100C6000FF2120460CF0B4F80E481BF0B1FF01A99B
:100C700020460CF071F9019B002BF5D00A481CF0BE
:100C800009F80198FFF77EFF01980CF06BF8EBE78D
:100C900006481BF09DFF02B010BD05481BF098FFF1
:100CA000F9E700BFA82B0200C42B0200D02B0200E2
:100CB000E82B020000B583B0022300934FF4967333
:100CC0000022034903480EF0F2F803B05DF804FB7C
:100CD000450C0000A02B020070B504464389102B80
:100CE0000BD8324B1A8D01321A85DA8B0132DA8336
:100CF000204604F0C5F8002070BD0D46C37B1BB92B
:100D000091F83C300133C3736068C689837813F06F
:100D1000010F0BD0012B16D00622254902301BF003
:100D2000CFFD18B9637B43F008036373082E15D019
:100D3000B6F5C16F22D01D4B1A8D01321A85DA8BA0
:100D40000132DA83D4E7C378002BEFD103795E2B2D
:100D5000ECD1637B43F010036373E7E795F8393018
:100D600013F0080FC4D01021204604F03FF80028EB
:100D7000BED12946204602F081FBBCE795F8393008
:100D800013F0080FB4D01021204604F02FF838B12A
:100D9000064B5A8C01325A84DA8B0132DA83A7E788
:100DA0002946204601F054FCA5E700BF3C890120FC
:100DB000D42C02002DE9F04105460C4616461F468C
:100DC000BDF8180003F0DEFA80461021204604F03A
:100DD00008F8E0B96368A3F80E803A68C3F8022007
:100DE000BA88DA8032689A60B2889A8195F8383089
:100DF000062B06D00A4B40F233120A490A481BF070
:100E0000E7FEAB69214628469847BDE8F081074ACE
:100E10005389013353816FF00100BDE8F08100BFB9
:100E2000DC2C0200FC2C0200F82902003C89012085
:100E300043798B4203D04171002383710381704752
:100E400070B504460D461646831C442B07D8631C18
:100E50009BB2320A2A55A01CEE5480B270BD044BDE
:100E600040F2AE52034904481BF0B2FEEFE700BF68
:100E7000F42E0200142F0200F8290200F8B50446EF
:100E80000D4617461E4603440233442B06D8631C06
:100E90009BB22F55A01CEE5480B2F8BD034B40F21C
:100EA0009A52034903481BF093FEF0E7F42E020028
:100EB0003C2E0200F829020070B504460D46164685
:100EC000432803D8601C2E5580B270BD034B40F2FE
:100ED000A652034903481BF07BFEF3E7F42E020001
:100EE000802E0200F829020070B504460D46164611
:100EF000031D442B11D8631C9BB2320E2A55A21C31
:100F000092B2C6F30741E954E31C9BB2C6F3072132
:100F1000A954201DEE5480B270BD044B40F2B7526C
:100F2000034904481BF054FEE5E700BFF42E02001D
:100F3000B82E0200F82902002DE9F843002842D01B
:100F4000894615461F468046002945D04FF4207239
:100F50004FF49A71382003F0FDFF0646002879D03F
:100F60004389B3F59A7F40D3032D46D099F80630D4
:100F7000002B47D0394B1B68C9F8003074684FF418
:100F80009A72002120461BF0C9FD01232370637073
:100F900098F83830A370D9F8000003F0F8F96060D1
:100FA000082D0BD0042D09D0072D07D0032D08D113
:100FB00099F80530043BDBB2012B02D8D8F8043095
:100FC000E36000232BE0264B40F269722549264856
:100FD0001BF0FEFD00263DE0214B40F26A722349E2
:100FE00021481BF0F5FD002634E01D4B40F27272E3
:100FF0001F491D481BF0ECFDB6E799F80530032B9F
:10100000BCD1B3E70DF0D4FD144B1860B2E708EB88
:10101000030292F83210E218117701339BB2052BCC
:10102000F5D9632384F8EC306FF07D0284F8ED206D
:10103000532284F8EE2084F8EF30F0340123352277
:1010400021460020FFF71AFF2A462146FFF734FF0A
:1010500007B138803046BDE8F88300BFC00A0020E1
:10106000F42E02006C2D0200F82902008C2D0200E3
:10107000AC2D020010B5446A0023236263621A4B50
:10108000DB7813B1194BDB68A362174B1B79EBB10B
:10109000164B1B69E362144B5B79DBB1134B5B6945
:1010A00023630B69E361104B9B79CBB10F4B9869BC
:1010B00003F06DF920620123E3710B4BDB7923B15F
:1010C0000A4BD86903F063F9606210BDA36A5B083C
:1010D000E362E0E7A36AC3EBC303DB082363E0E753
:1010E0000023E371E9E700BFFCD30020DCD300203C
:1010F00038B5431C9BB2FF240C5403E05C1C002554
:10110000CD54A3B2432B08D8432BF7D903F1F001F8
:1011100089B2104603F0CAFF38BD13F0030FF3D1B4
:10112000F4E700002DE9F04184B08046456A0421CF
:101130002846FFF77DFE0DF10E03032229464046A7
:10114000FFF7FAFE002857D007464668F03602231C
:1011500039223146BDF80E00FFF790FEADF80E00C3
:10116000B8F830203146FFF76BFEADF80E000323D0
:1011700037223146FFF782FEADF80E0000240AE068
:10118000204B1A5D3146BDF80E00FFF795FEADF815
:101190000E000134E4B2022CF2D93A463146BDF8D1
:1011A0000E00FFF7A5FF184B1868CDF80080432309
:1011B000164A394608F056FE0446384603F060FEEB
:1011C000AB79FF2B01D00133AB71AB79092B16D86A
:1011D0009BB2C3EB431203EB8202D3009BB203F238
:1011E000F3130B4A82FB0312DB17C3EB62132B8151
:1011F000204604B0BDE8F0814FF0FF34E0E742F252
:101200001073ECE7102E0200B80A0020D43402005C
:10121000D34D621010B5446A6379012B05D00A2BB7
:1012200003D0052B01D0042B0BD1FFF77BFFA38A42
:10123000628A9B1A012B04DD03EBD373C3F34F03C4
:10124000238210BD2DE9F04184B08046466A032117
:101250003046FFF7EDFD0DF10E0303223146404607
:10126000FFF76AFE002869D007464568F03502237B
:1012700039222946BDF80E00FFF700FEADF80E003A
:101280004FF410722946FFF7DBFDADF80E00042382
:1012900032222946FFF7F2FD0446ADF80E00F06950
:1012A00003F075F8024629462046FFF71DFEADF80B
:1012B0000E00032337222946FFF7E0FDADF80E00AC
:1012C00000240AE0204B1A5D2946BDF80E00FFF706
:1012D000F3FDADF80E000134E4B2022CF2D93A4627
:1012E0002946BDF80E00FFF703FF184B1868CDF82C
:1012F00000804323164A394608F0B4FD04463846B8
:1013000003F0BEFDB379FF2B01D00133B371B37984
:10131000092B16D89BB2C3EB431203EB8202D30016
:101320009BB203F2F3130B4A82FB0312DB17C3EBEE
:1013300062133381204604B0BDE8F0814FF0FF34E2
:10134000E0E742F21073ECE7102E0200B80A00202A
:10135000D4340200D34D62102DE9F04184B000284E
:1013600050D00746456A002D56D001212846FFF788
:101370005FFD0DF10E03032229463846FFF7DCFD21
:101380008046002800F090804668F036022339221B
:101390003146BDF80E00FFF771FDADF80E003A8E34
:1013A0003146FFF74DFDADF80E00042332223146E1
:1013B000FFF764FD0446ADF80E00E86902F0E7FFB0
:1013C000024631462046FFF78FFDADF80E0004239C
:1013D00036223146FFF752FD0446ADF80E00A869EB
:1013E00002F0D5FF024631462046FFF77DFDADF8FD
:1013F0000E00032337223146FFF740FDADF80E0003
:1014000000241EE02B4B40F277122B492B481BF097
:10141000DFFB6FF00F0443E0264B40F279122849BE
:1014200026481BF0D5FB6FF0050439E0254B1A5D0B
:101430003146BDF80E00FFF73FFDADF80E00013458
:10144000E4B2022CF2D942463146BDF80E00FFF755
:101450004FFE1D4B18681D4B0193009743231C4AF8
:10146000414608F00DFC0446404603F009FDAB7907
:10147000FF2B01D00133AB71AA79052A17D80123BC
:101480009340C3EB431203EB8202D3009BB203F2FF
:10149000F313104A82FB0312DB17C3EB62132B8199
:1014A000204604B0BDE8F0814FF0FF34DFE74EF690
:1014B0006023ECE7F42E0200E82F0200F829020076
:1014C00004300200102E0200B80A0020D0340200BE
:1014D000D4340200D34D621070B5456A084B9B7836
:1014E0006BB10E46044600232B81064B986802F030
:1014F0004EFFA8613369EB612046FFF72DFF70BDF9
:10150000FCD30020DCD300202DE9F04184B0074655
:10151000456A0023EB6106212846FFF789FC0DF19F
:101520000E03012229463846FFF706FD00283AD06F
:1015300080464668F036022339223146BDF80E0057
:10154000FFF79CFCADF80E003A8E3146FFF778FCB1
:10155000ADF80E00032337223146FFF78FFCADF8BC
:101560000E0000240AE0204B1A5D3146BDF80E0043
:10157000FFF7A2FCADF80E000134E4B2022CF2D960
:1015800042463146BDF80E00FFF7B2FD174B186812
:10159000174B019300974323164A414608F070FB0E
:1015A000404603F06DFCAB79FF2B01D00133AB71EA
:1015B000AA79052A14D801239340C3EB431203EB05
:1015C0008202D3009BB203F2F3130B4A82FB031295
:1015D000DB17C3EB62132B81002004B0BDE8F08160
:1015E0004EF66023EFE700BF102E0200B80A00207D
:1015F000D0340200D4340200D34D62102DE9F04102
:1016000084B00746446A0C212046FFF711FC0DF117
:101610000E03042221463846FFF78EFC98B3064697
:101620004568F035042332222946BDF80E00FFF745
:1016300025FC8046ADF80E00E06902F0A8FE0246E7
:1016400029464046FFF750FCADF80E0032462946C9
:10165000FFF74EFD0D4B18680D4B01930097432388
:101660000C4A314608F00CFB0546304603F008FCF6
:10167000A379FF2B01D00133A371142323812846C2
:1016800004B0BDE8F0814FF0FF35F1E7B80A002063
:10169000D0340200D434020038B50546446A08212B
:1016A0002046FFF7C5FB002204F11C01284601F08B
:1016B000F7F8A379FF2B01D00133A3710123238114
:1016C00038BD000030B583B0002863D00546446AB9
:1016D000002C67D000236382A36AB3F1FF3F0ED0D2
:1016E0001E333D4AA2FB03235B09B3F5803F01D3C0
:1016F0004FF6FF739BB2A3820BB90123A382E36A67
:10170000B3F1FF3F10D01E33334AA2FB03235B0922
:10171000B3F5803F01D34FF6FF739BB263810BB9E2
:10172000012363816389E381236BB3F1FF3F10D011
:101730001E33294AA2FB03235B09B3F5803F01D383
:101740004FF6FF739BB2A3810BB90123A381A38939
:1017500023826289A3899A4202D30BB10023638159
:10176000E3793BB3236A0193636A00932BB9E3697E
:10177000019A134043F0807300930A212046FFF73B
:1017800057FB6B4601AA04F11C01284603F064F9DB
:1017900003B030BD114B40F21542114911481BF006
:1017A00017FAF5E70D4B40F217420F490D481BF0B1
:1017B0000FFAEDE7237F13F0800F02D1FF2301938F
:1017C000D2E7BF2B03D96FF07F430193CCE74FF6ED
:1017D000FF730193C8E700BF89888888F42E020050
:1017E000382D0200F8290200542D020010B50446DD
:1017F0000C21406AFFF71CFB04490B460A462046B1
:1018000003F02AF92046FFF77FFE10BDD034020016
:1018100010B50C4B1B7833B10A4A1378013BDBB28D
:1018200013703BB110BD084BFF22084908481BF05C
:10183000CFF9F1E7074C206808F0C0FB00232360D4
:10184000F0E700BFBC0A0020F42E0200EC2D0200DD
:10185000F8290200B80A002038B5174B1B780BBBDB
:10186000164B1B682BB1164BE522164916481BF088
:10187000AFF908F0CDFB114B1860C8B1437A43F0C3
:1018800020034372114D4422294608F09BF90B4C6A
:1018900043222946206808F039FB00220C492068C1
:1018A00008F078FB044A137801331370002038BD28
:1018B0004FF0FF3038BD00BFBC0A0020B80A00203E
:1018C000F42E0200142E0200F8290200D034020087
:1018D000651D0000C54B00221A605A6043892B2BFE
:1018E00040F222822DE9F04F87B00190B0F808B0A5
:1018F000039202924FF0F008019C0FE00023029344
:101900004FF0EC0B4FF06C08F6E7A8EB03081FFA5A
:1019100088F8ABEB030B1FFA8BFB246814B16389C7
:101920009845F2D2002C00F002826368009345468D
:1019300021E0236813B15B681B7837E0002335E0B2
:101940004FF0FF3700263346002A40F0368101353C
:10195000ADB263899D420ED3ED1AADB2ABEB030B72
:101960001FFA8BFB5D4580F0EB812468002C00F0B2
:10197000AA8163680093002C00F0AF815D4580F080
:10198000AC812846009B5A5DFF2A00F0A68105F134
:1019900002091FFA89F94D4500F2CC8129466B1CDA
:1019A0006689B342C5DA0130009B1B5C3B2A00F21A
:1019B000008101A050F822F041190000A91A00008E
:1019C000B31B0000C71A0000B31B0000B31B0000CC
:1019D000B31B0000B31B0000B31B0000B31B0000CF
:1019E000B31B0000B31B0000B31B0000B31B0000BF
:1019F000B31B0000B31B0000B31B0000B31B0000AF
:101A0000B31B0000B31B0000B31B0000B31B00009E
:101A1000B31B0000B31B0000B31B0000B31B00008E
:101A2000B31B0000B31B0000B31B0000B31B00007E
:101A3000B31B0000B31B0000B31B0000B31B00006E
:101A4000B31B0000B31B0000B31B0000B31B00005E
:101A5000B31B0000B31B0000B31B0000B31B00004E
:101A6000B31B0000B31B0000B31B0000B31B00003E
:101A7000B31B0000B31B0000B31B0000B31B00002E
:101A8000B31B0000E51A0000031B00003B1B000015
:101A9000591B0000B31B0000B31B0000B31B000068
:101AA000771B0000951B0000042B02D11E46062761
:101AB0004AE74F4B40F22E624E494F481BF088F8E0
:101AC0006FF00500F9E0032B02D9072704263BE756
:101AD000474B40F23362494947481BF079F86FF0B1
:101AE0000500EAE0042B02D11E4603272CE7404BF9
:101AF00040F241623F4940481BF06AF86FF0050030
:101B0000DBE0012B05D1B8F1F00F0CD11E46002708
:101B10001AE7374B40F24F62394937481BF058F803
:101B20006FF00500C9E0324B40F25162354932484E
:101B30001BF04EF86FF00500BFE0012B02D11E46EE
:101B4000012701E72A4B40F255622D492A481BF034
:101B50003FF86FF00500B0E0042B02D11E460227CB
:101B6000F2E6234B40F25962224923481BF030F839
:101B70006FF00500A1E0042B02D11E460427E3E626
:101B80001B4B40F25D621B491B481BF021F86FF0B4
:101B9000050092E0042B02D11E460527D4E6144B23
:101BA00040F26162134914481BF012F86FF005000F
:101BB00083E04FF0FF370026C6E619440231B1F545
:101BC000803F80F2BA801D44ADB20235ADB2002E26
:101BD0003FF4BFAE0023059339E0054B4FF4CF62CD
:101BE000094905481AF0F4FF33E000BFFCD3002098
:101BF000F42E0200502F0200F82902005C2F020090
:101C0000702F02007C2F0200942F02004FF0040A74
:101C10004B46524605A9204603F098FB82454AD11F
:101C2000042E2AD916F0030F1DD10122464BDA5596
:101C3000059802F0ACFB454B43F82700043EF6B292
:101C400009F104039BB299453AD801379946072F09
:101C5000C3D83D4BDB5D002B7FF47BAE032ED5D884
:101C60001FFA86FAD4E73A4B40F2816239493A4882
:101C70001AF0AEFF6FF005001FE0042E0CD0012E0D
:101C80000FD19DF81430059301222F4BDA55059A98
:101C90002E4B43F827205CE6059802F078FB059070
:101CA000F2E72B4B4FF4D2622C492B481AF090FFED
:101CB0006FF0050001E06FF0010007B0BDE8F08FA4
:101CC0006FF00100F9E7224B40F29D62244922485F
:101CD0001AF07EFF6FF00500EFE71B4B1B7853B146
:101CE0001A4B1B680021184A1170012B10D0022BCF
:101CF00011D0032B12D0029B002B7FF4FFAD039B6E
:101D000083B1029B03934FF06C0B4FF02C08F3E56B
:101D100001230293EFE701230393ECE701230393ED
:101D20000293E8E70020C8E76FF0010070476FF00A
:101D30000100C2E76FF00100BFE76FF00100BCE7F0
:101D40006FF00100B9E700BFFCD30020DCD3002016
:101D5000F42E0200A82F0200F8290200C02F020072
:101D6000D42F020070B51446364B5D686E6A526817
:101D70003EB133792BB163892B2B02D91378022B17
:101D800003D0204603F07CF870BD002395F838108E
:101D90008B420BD2052B09D8E91891F83200D118E3
:101DA000097F8842EDD10133DBB2EFE7506802F0E2
:101DB000EEFA33689842E4D131462046FFF78AFDB7
:101DC0000028DED1204B5B78002BDAD061681F4BF6
:101DD0001B79052B0AD0062B26D0022BD1D1737983
:101DE000062BCED12846FFF777FBCAE77379012B84
:101DF0000AD0033BDBB2022BC3D82846FFF73AF9DF
:101E00002846FFF75FFCBCE72846FFF733F995F853
:101E1000393013F0080F03D02846FFF73DFCB0E738
:101E20002846FFF74FFCACE77279032A05D0012A58
:101E300003D0042A01D0052ACFD12846FFF7D6FCCB
:101E40009FE700BF04D40020FCD30020DCD3002097
:101E500008B530B10246436A13B15879082808D052
:101E600008BD084B40F28B32074908481AF0B0FE13
:101E700008BD0968DB699942F2D11046FFF7BEFB45
:101E8000EEE700BFF42E0200A0550200F829020080
:101E90002DE9F04184B08046456A05212846FEF7C9
:101EA000C7FF0DF10E03032229464046FFF744F811
:101EB000002858D007464668F036022339223146BA
:101EC000BDF80E00FEF7DAFFADF80E00B8F83020CE
:101ED0003146FEF7B5FFADF80E0003233722314639
:101EE000FEF7CCFFADF80E0000240AE0214B1A5D8E
:101EF0003146BDF80E00FEF7DFFFADF80E000134ED
:101F0000E4B2022CF2D93A463146BDF80E00FFF792
:101F1000EFF8194B1868CDF80080432305F118023B
:101F2000394607F09FFF0446384602F0A9FFAB7917
:101F3000FF2B01D00133AB71AB79092B16D89BB2C3
:101F4000C3EB431203EB820213019BB203F2F313C0
:101F50000A4A82FB0312DB17C3EB62132B81204674
:101F600004B0BDE8F0814FF0FF34E0E744F62063B1
:101F7000ECE700BF102E0200B80A0020D34D62101B
:101F800010B5446A6379012B03D00A2B01D0052BCD
:101F90000BD1FFF77DFFA389628A9B1A012B04DD19
:101FA00003EBD373C3F34F03E38110BD88B1436ADE
:101FB0008BB15B790A2B08D0052B08D0042B02D0FB
:101FC0000020C0B270470120FBE70120F9E70120A3
:101FD000F7E7002070470020704700002DE9F0412E
:101FE00084B0446AFCB16379EBB10546A3690393FD
:101FF0000023A361E361236263622363E362A3625C
:10200000A38263822382E381FFF7D0FF70B9224964
:102010000B460A46284602F01FFD00212046FEF727
:1020200007FF237993BB04B0BDE8F0810DF10A03EB
:10203000072221462846FEF77FFF07460028E6D004
:102040004668F036042336223146BDF80A00FEF712
:1020500015FF8046ADF80A00039802F098F9024691
:1020600031464046FEF740FFADF80A003A46314699
:10207000FFF73EF8094B18680095432303AA394639
:1020800007F0F0FE384602F0FBFEC0E7FFF7C0FBAA
:1020900000232371C7E700BFD0340200B80A002034
:1020A00070B528B3044690F8393013F0010F29D0E9
:1020B000456A038EB3F5107F43D36DB32B7993BB81
:1020C0003422002128461AF029FDFFF7C5FB0646F9
:1020D00000283CD101232B7194F8393013F0040F00
:1020E00024D02046FFF710FA064620BB304670BDCC
:1020F000184B40F2E722184918481AF069FD6FF0B2
:102100000F06F3E7134B4FF43A72154913481AF0D0
:102110005FFD6FF00F06E9E7342002F06DFA054627
:1021200090B16062CCE7FFF773FBC9E70221284654
:10213000FEF77EFEDAE72046FFF750FF4FF0FF364E
:10214000D4E74FF0FF36D1E74FF0FF36CEE74FF040
:10215000FF36CBE7F42E0200A0550200F82902005A
:102160005430020010B5174B1C6806E02046FFF7FC
:1021700035FF2046FFF794FF246814B3636A002BF1
:10218000FAD05A79002AF7D0998A29B15A8A0132AD
:1021900092B25A829142E9D01A8A1AB1511E19821A
:1021A000012A0AD0DA89002AE6D0511ED981012AF3
:1021B000E2D12046FFF7E4FEDEE72046FFF72AF8EB
:1021C000DAE710BD3889012010B50446426A537918
:1021D0000C2B08D0062B06D0012B08D0082B12D0D0
:1021E000032B19D010BD2046FFF78EF910BD93794F
:1021F000052B02D8FFF7B0F810BDFFF7EFFE204621
:10220000FFF74EFF10BD9379012B02D9FFF75AFA61
:1022100010BDFFF741FA10BD9379012B02D9FFF7EA
:1022200073F9DFE7FFF70EF810BD000010B50B4B98
:102230001C6802E0012B0AD0246874B1626A002A8B
:10224000FAD01389012BF5D9013B1381F4E7013B47
:1022500013812046FFF7B8FFEEE710BD3889012053
:1022600010B5044600EB4002D300094AD05838B1FB
:1022700002F006FE04EB4402D3000021044AD150D0
:1022800004EB4404E200024B134400221A7510BD13
:10229000C40A00202DE9F04F83B04FF0000ECDF8B6
:1022A00004E0F2464FF00A0C7346E046E146E3468E
:1022B00003E075B9984601331BB2092B4EDC1C466E
:1022C00003EB4305EE00614D35442D7DB8F10A0F57
:1022D000EFD0002DEFD040B104EB4406F7005B4E89
:1022E0003E4476680768B7420ED0012D19D0012D03
:1022F000E1D904EB4404E500544C2C44648AA6451F
:10230000D9D8A6469946D6E7002A00F0978004EB74
:102310004406F7004D4E3E44B668B242E5D19846B9
:102320005EE004EB4406F500484E755955B104EBE8
:102330004404E50034462C44648AA245BBD8A24636
:102340009C46B8E704EB4404E500404C2C44648A06
:10235000019DA542AFD801949B46ACE711F0020F56
:102360006ED1B8F10A0F3FD014460646B8F1090FF6
:1023700017DDB9F1090F3DDC09EB4902D300334AFF
:10238000D358002B3ED0324B40F26D1231493248C7
:102390001AF01EFCC846B8F1090F37DC4046FFF7BB
:1023A0005FFFB8F1090F39DC454608EB4803DA0056
:1023B000264B13441B7D002B38D136B1316805EB19
:1023C0004503DA00214B13445960204A6B00581929
:1023D000C1001144002048822B44D9000A44946073
:1023E000404603B0BDE8F08F11F0010FBCD14FF0B3
:1023F000FF38F5E7BBF1090F06DDBCF1090F22DC60
:10240000E046C8E7C846C6E7D846C4E7104B40F2E6
:102410007F12124910481AF0DBFBBFE70C4B40F269
:1024200083120E490C481AF0D3FBBDE7084B40F26B
:1024300085120B4908481AF0CBFBBEE79846CFE758
:102440004FF0FF38CCE74FF0FF38C9E7C40A00204F
:102450007830020098300200F8290200B030020003
:10246000C4300200F0B583B005460C4616461F4640
:1024700090F83830062B06D0294B40F2A912294992
:1024800029481AF0A5FB002C3BD0206800283BD03F
:10249000294601F07DFA002839D1236803F0F003C2
:1024A000E02B37D02A4639462046FFF7F3FE0028B6
:1024B00025DB1E4C42001318D900671802233B7518
:1024C000BD600B460833234432685A60B2881A81D3
:1024D00000237B82675807B30024144A54504FF4FA
:1024E00000630093334605F1320239462846FEF771
:1024F00061FC384602F0C4FC204603B0F0BD40B297
:10250000FBE76FF00F00F8E76FF00F00F5E76FF0F3
:102510000F00F2E76FF00F00EFE70020EDE700BFDC
:102520007830020018320200F8290200C40A0020A4
:102530002DE9F04782B08946924698460B9D0746A2
:1025400000284DD04FF420721C21102002F002FD13
:10255000064600284CD043891B2B50D97468BDF81F
:10256000340001F00FFFE08097F83830062B06D0DA
:10257000274B40F26A42274927481AF029FBD8F82E
:102580000030A360B8F80430A3812B68C4F812307F
:10259000AB88E3820A9B1B68C4F80E300C9B1B6857
:1025A000A36100252570012363700823A370E570E3
:1025B000062323710423637140F6060300935346F8
:1025C0004A4631463846FEF7F5FB144A138B013371
:1025D0001383304602F054FC284602B0BDE8F08771
:1025E0000B4B40F257420E490B481AF0F1FAA9E79B
:1025F0000A4A938C013393844FF0FF30EDE7044B8C
:1026000040F26342074904481AF0E2FAA6E700BF25
:1026100078300200D4310200F82902003C89012000
:10262000A0550200A031020030B585B0034600F18C
:10263000320404330125039502910449019100936A
:1026400023462146FFF774FF05B030BD302D020050
:102650002DE9F04186B099B104460E4645682B88B5
:10266000B3F5807F14D02F4B1A8D01321A85DA8B87
:102670000132DA83204602F003FC06B0BDE8F081A7
:10268000294B40F28A22294929481AF0A1FAF4E795
:102690002B79062BE7D16B79042BE4D16B88082BBF
:1026A000E1D1204A538B01335383D5F80E30059383
:1026B000AF694B68C3B19F4214BF0027012705F1E2
:1026C00008089FB10123424605A93046FFF7CAFE1C
:1026D000EB88B3F5807F0BD0B3F5007F19D0114A9A
:1026E000938D0133938518E00027E8E70223EAE79A
:1026F0009FB106F13201331D0222039205AA029214
:10270000CDF8048000930B4642463046FFF710FF99
:1027100003E005A93046FFF79BFB204602F0B0FB23
:10272000ABE700BF3C89012078300200A0550200D1
:10273000F829020008B5024AFFF776FF08BD00BF7E
:10274000D42C020010B5002405E0042B1BD9204630
:10275000FFF786FD0134092C35DC04EB4403DA0075
:10276000194B13441A7D002AF4D063002344D80087
:10277000154901444B8A01339BB24B82B3F5967FD6
:10278000E5D2012AE1D0032A0DD0042A13D0012A70
:10279000E0D162002244D1000B4B0B44191D986814
:1027A000FFF7C8FFD6E704EB4403DA00064B1344F7
:1027B00004221A75CEE704EB4403DA00024B1344FB
:1027C00002221A75C6E710BDC40A002070B582B097
:1027D00005460E46144602EB4203DA002C4B134426
:1027E0001B7D012B19D904EB4403DA00284B134459
:1027F0001B7D022B19D004EB4404E3000833244A68
:1028000013444FF400620092043305F13202314662
:102810002846FEF7CFFA02B070BD1E4B40F2EF2201
:102820001D491E481AF0D4F9DDE7194B13445B8AA1
:10283000B3F58E7F19D8B3F5877FDCD3144A6300D4
:102840001819C1000846114408300244043204310A
:102850002846FFF7E9FE0028CDD104EB4403DA0057
:102860000B4B134403221A75C5E704EB4402D30053
:102870000749194404312846FFF75CFF0028BAD104
:1028800004EB4403DA00024B134403221A75B2E747
:10289000C40A00207830020010310200F82902003A
:1028A0002DE9F04383B006460C46174600F1320886
:1028B0000146206801F06CF8002840F0BC802368D5
:1028C00003F0F002E02A00F0B980002C00F0B9809B
:1028D000002B00F0B980324601212046FFF7DAFCD8
:1028E000051E2FDBABB27E2B33D8EDB205EB4503D3
:1028F000DA00574B13441B7D002B32D16A002A4467
:10290000D100534B0B444FF0010983F814909E60A3
:1029100005EB4503DA004E4B13441B7D23B3B9F19D
:10292000000F29D147B34FF0FF346FB305EB4503D8
:10293000DA00474B13441B7D012B2DD8012B3BD1D3
:102940003C4642E01FB1434A938C013393846CB2FE
:1029500032E0414B40F2C132404941481AF038F967
:10296000C3E74FF00009D3E73B4B40F2CF323D497C
:102970003B481AF02DF9D2E721463046FFF7DAFE40
:102980000446002FD1D117E0334B40F2E1323649F3
:1029900033481AF01DF9C9E7344B1D70134608334C
:1029A0002B4A13444FF400620092043342463946E6
:1029B0003046FEF7FFF90446204603B0BDE8F08339
:1029C000237B13F0400F29D1246874B162892389D5
:1029D0009A42F5D12368002BF2D01F4B40F2F1321E
:1029E00023491F481AF0F4F8EAE70023C3B13A4636
:1029F0004FF42071102002F099FD0746A7B105EBB6
:102A00004502D300124AD05808B102F039FA05EB5A
:102A10004505EB000E4AD7500024CDE70123E5E73A
:102A2000384602F09FFBE9E70A4A938C013393840E
:102A30004FF0FF34C0E76FF00F04BDE76FF00F04F5
:102A4000BAE76FF00F04B7E76FF00F04B4E700BF09
:102A5000C40A00203C890120783002004031020085
:102A6000F82902005031020078310200B40B002036
:102A700084310200F0B585B00E46154604460028A4
:102A800030D0002E36D0002D3CD02146286800F0F2
:102A90007FFF002840F08E802B6803F0F002E02AD0
:102AA00038D06268A1685A400A420AD09BB24FF6F9
:102AB000A962934205D0E368002B00F0878004F1FF
:102AC0000C05444B1A7802EB4203D900424B0B44ED
:102AD0001B7D012B66D9404B0B449B689C422FD039
:102AE000002240E03D4B40F21E323D493D481AF085
:102AF0006FF8C6E7394B40F21F323B4939481AF0AC
:102B000067F8C0E7354B4FF44872384935481AF03A
:102B10005FF8BAE701238DF8083000238DF80930FB
:102B20005E238DF80A306B7803F07F038DF80B304D
:102B3000AB788DF80C30EB788DF80D3002AB3AE0C5
:102B40002868254B0B445B68984201D000220AE0BC
:102B50002749CB8D0133CB8531462046FFF736FE22
:102B600032E00132D2B2092A1ED802EB4203D90068
:102B7000194B0B441B7D012BF3D9174B0B449B685E
:102B80009C42EED1296802EB4200C700124B3B4445
:102B90005B689942E5D10F4B1A7031462046FFF72A
:102BA00015FE11E00022DEE7324629462046FFF7F7
:102BB00077FE09E00F4B4FF40062009204F13202FD
:102BC00031462046FEF7F6F805B0F0BD6FF0030081
:102BD000FAE700BFB40B0020C40A002078300200DE
:102BE000A0550200F829020078310200F0300200FE
:102BF0003C890120D42C02002DE9F04186B0064624
:102C0000884617464FF420722421084602F0A2F9A4
:102C1000002844D005464389232B43D9D6F804E045
:102C20006C6884F800806770002323716371A3715E
:102C3000E3716F6873681E6858689968D3F80CC0B0
:102C4000BE60F8603961C7F814C01E695869996997
:102C5000BE61F8613962DEF80C3006A840F8043D28
:102C600000F0C4FB0746B8B10026A670E67069897B
:102C7000204601F081FC60800E4AB2F860300133DA
:102C8000A2F860300297012301930096FF2305AA62
:102C90003146284600F05AFE284602F0F1F806B008
:102CA000BDE8F081044B40F269120449044819F070
:102CB0008FFFB3E73C890120A8320200C83202002E
:102CC000F82902002DE9F04784B00546734AB2F8AE
:102CD00062300133A2F86230714B9E68347804F0A0
:102CE0000F04A400A7B2132F19D98A464389032BD6
:102CF00015D943681B78002B00F0CC80082B40F0DE
:102D0000BE80674B586900F0F003E02B24D0644B81
:102D1000196800F03DFEF8B92B89072B0BD828461F
:102D200002F0AEF85D4AB2F86A300133A2F86A30B8
:102D300004B0BDE8F087284601F024FCB0B904F1E6
:102D400010094946284602F04CF800284AD02B8941
:102D5000F91889B28B4213D9284602F091F84F4AEC
:102D6000B2F874300133A2F87430E1E7284602F07B
:102D700087F84A4AB2F868300133A2F86830D7E7DA
:102D80004FF42072102002F0E5F881460028E3D0CD
:102D9000428904F108039A4202D202F071F8DBE79B
:102DA00022463146406819F0BBFD2146484602F0F4
:102DB0001DF848B13B4BB6223B493C4819F008FF8F
:102DC000484602F05DF8C7E72946484602F028FA6F
:102DD00018B1484602F054F8BEE7284602F050F811
:102DE0004D4605E04946284602F000F800283BD150
:102DF000D5F804802146284601F0F3FF002849D188
:102E00006C68274B5A69E2601B692361002388F8CC
:102E10000030B8F802304FF6F77293422BD90933DD
:102E2000A8F802304FF0FF0984F808904FF000082E
:102E300084F80A8084F80B803946204601F09CFB18
:102E40006081164AB2F860300133A2F86030CDF8E4
:102E500008A001230193CDF800804B464246144957
:102E6000284600F073FD15E00E4BC72211490F48AC
:102E700019F0AEFE70E70833A8F80230D2E7074B2E
:102E8000B3F870200132A3F87020B3F86620013245
:102E9000A3F86620284601F0F3FF49E73C890120AA
:102EA00004D40020A83202003C320200F8290200BB
:102EB00018D400207432020008B50A460321FFF737
:102EC0009BFE08BD08B50A460B21FFF795FE08BD1D
:102ED00038B50446022905D80120608108B90123CC
:102EE000638138BD0D460BF063FEB0FBF5F305FBC7
:102EF000130080B2F1E7437A022B07D0012B00D0F8
:102F00007047438913B18AB29342F9D910B5044688
:102F1000FFF7DEFF0123637210BD000070B588B0BB
:102F200040F29444ADF81C400025ADF81E50094E07
:102F3000B6F878400134A6F878400424049407AC2D
:102F400003940293022301930095012300F0E4FC13
:102F500008B070BD3C8901202DE9F04383B00746DD
:102F600088461546284B1B6801934FF420720821B0
:102F7000382001F0EFFF00283FD00446466843891F
:102F8000072B12D97B680193162D16D0172D1DD053
:102F90004FF00009A5F11603DBB2012B1CD9204626
:102FA00001F06EFF03B0BDE8F083184B40F207322A
:102FB0001749184819F00CFEE4E708F10409D8F89D
:102FC00004307360012388F80830E3E7D8F8043050
:102FD0007360DFF84890DDE7357000237370B370DD
:102FE000F3700821304601F0C7FA70803B464A462C
:102FF00001A92046FFF792FFD1E7074AB2F88230D5
:103000000133A2F88230CDE7D03402001C34020034
:103010003C340200F82902003C890120B80B002052
:1030200008B54B7A012B00D008BD4A68074B1B68D6
:103030009A42F9D002234B72054AB2F8923001331A
:10304000A2F892301622FFF787FFEDE7BC0B0020B5
:103050003C890120034A044B1A6002F18072034B41
:103060001A607047E0000001BC0B0020B80B002084
:1030700010B5846A34B1246804E005212046FFF7C6
:103080003AFF2468002CF8D110BD806A28B142684C
:103090000B689A4201D00068F8E77047F8B505461A
:1030A0000E46876AFFF7F1FF044608B12046F8BDD7
:1030B0000A2001F06BFB04460028F7D086B1336884
:1030C00063600023638163722372237357B1326894
:1030D000104B1B689A4215D03B6823603C60E5E7C3
:1030E0000023EDE732680B4B1B689A4206D00A4B6F
:1030F00040F20D1209490A4819F06AFD00232360C5
:10310000AC62D3E7044B40F213120649044819F0AD
:103110005FFDE1E7BC0B00201C340200A433020079
:10312000F8290200D833020010B504460A49FFF717
:10313000B5FF60B102224272027B01320273236C3E
:1031400043B10122044920469847002010BD4FF0AA
:10315000FF3010BD002010BDBC0B0020F0B583B0C7
:1031600004460F461646514AB2F87A300133A2F8A7
:103170007A304189072919D94568284601F0FCF9B8
:10318000F0B931463846FFF780FF024610B32B787E
:10319000112B29D0162B7AD0444AB2F8843001334F
:1031A000A2F88430204601F06BFE07E001F068FED3
:1031B0003E4AB2F880300133A2F8803003B0F0BD4F
:1031C000204601F05DFE394AB2F87E300133A2F8A4
:1031D0007E30F3E7204601F053FE344AB2F87C30EB
:1031E0000133A2F87C30E9E73168314B1B68994222
:1031F00014D015F1040F43D06868002840D09942DC
:103200002FD0002A35D02949B1F888300133A1F8F0
:10321000883069781046FFF76EFEC3E715F1040F9A
:1032200002D068680028E4D16B785BB91F4AB2F815
:1032300086300133A2F886300A236B70BE6A6EB105
:1032400036680BE0194AB2F88A300133A2F88A30A6
:10325000F4E769783046FFF74EFE3668002EF8D165
:10326000A0E702A941F8040D3846FFF70EFF024619
:10327000C7E70E4AB2F87C300133A2F87C3091E700
:103280000A4AB2F884300133A2F884308AE7074949
:10329000B1F88C300133A1F88C30437A012B81D105
:1032A000002343810221417203727BE73C890120A4
:1032B000BC0B002070B50B6803F0F002E02A2FD1A0
:1032C00005460E46274A1268934233D090F83930AB
:1032D00013F0200F38D0FFF7E1FE044600283DD060
:1032E000437AC3B9037B2BB92B6C1BB10122314646
:1032F000284698471C4AB2F88E300133A2F88E3027
:10330000162221462846FFF727FE05212046FFF713
:10331000DFFD01236372237B01332373002070BD23
:10332000124B4FF4F8721249124819F051FC6FF029
:10333000050070BD0D4B40F2F1120F490D4819F018
:1033400047FC6FF0050070BD084B4FF4FA720B4953
:10335000084819F03DFC6FF0050070BD4FF0FF30DC
:1033600070BD00BFBC0B00203C8901201C34020052
:10337000F4320200F8290200303302006C330200FC
:1033800038B50B4B1D680FE0246864B16389002BCE
:10339000FAD0013B9BB26381002BF5D12146284630
:1033A000FFF73EFEF0E72D680DB1AC6AEDE738BDE2
:1033B0003889012008B590F8393013F0010F0DD08D
:1033C00043686BB1084A526993420BD001461046DC
:1033D00000F0DEFA08B1012008BD08BD002008BDDC
:1033E000002008BD012008BD04D4002010B40468EA
:1033F00004F0F003E02B02D01C4B1B6804E01C4BD4
:10340000186828BBF8E71B68A3B193F8392002F0CD
:1034100005010529F7D159680029F4D09868614061
:10342000014220D012F0020FEDD1DA689442EAD1C5
:1034300018460DE00F4A106868B190F8392002F084
:103440000502052A07D142682AB1E4B27F2C02D0D6
:103450005DF8044B70470849B1F856200132A1F8D5
:1034600056201846F4E71846F2E700BF38890120D5
:10347000C00B0020348901203C8901202DE9F8434C
:103480000446A24AB2F84A300133A2F84A304768EB
:103490003B781A09042A0FD001F0F2FC9B4BB3F8D9
:1034A0005C200132A3F85C20B3F84E200132A3F86F
:1034B0004E200020BDE8F8830E4603F00F039D0068
:1034C0001FFA85F9788800F05DFF804623899842CD
:1034D00017D36389994505D82389984502D8B9F14E
:1034E000130F13D8204601F0CBFC884BB3F85220C1
:1034F0000132A3F85220B3F84E200132A3F84E2037
:10350000D7E70146204601F0D1FDE2E749463846BB
:1035100001F032F8A8B93B697D4A5361F96811613D
:1035200003F0F003E02B1BD03046FFF743FF0028E9
:103530007CD1774B1B7D7F2B7BD0764BD3F80080E3
:1035400062E0204601F09CFC704BB3F85020013241
:10355000A3F85020B3F84E200132A3F84E20A8E77C
:1035600096F8393013F0200F37D101234FF00008BF
:10357000B8F1000F61D01BB1654B1869002867D105
:10358000B8F1000F78D0FB8823F0C0039BB233B1B1
:10359000204600F0C3FC044600288AD047685C4AF5
:1035A000C2F80080566097603B7803F00F039B00E1
:1035B00093812946204601F019FC7B7A013B102BB0
:1035C00000F28180DFE803F074797F7F7F6F7F7F77
:1035D0007F7F7F7F7F7F7F7F620002F11401304613
:1035E000FFF753FDF0B14A4B5A694B4B9A4202D058
:1035F0000123B046BCE7464B1B690BB10123F8E73A
:103600000023F6E7D8F80080B8F1000F08D0B045E5
:10361000F8D04046FFF7CEFE0028F3D00123A7E7FD
:103620000123A5E701234FF00008A1E7B0460123DD
:103630009EE701234FF000089AE77A7A112A9AD17F
:103640007A195288B2F5884F95D1B046002392E797
:10365000314600F09DF928B92D4B1B6903F0F003AA
:10366000E02B8DD1204601F00BFC284AB2F84E30F9
:103670000133A2F84E301CE7244AB2F84E30013331
:10368000A2F84E30204601F0FBFB12E731462046FF
:1036900006F088F91E4B00221A605A609A609A81DF
:1036A0001A615A6105E73146204604F073F9F1E7E3
:1036B00031462046FFF706FBECE7184A3146204624
:1036C000FFF74CFDE6E74146114B586900F060F901
:1036D00068B90F4B5B6903F0F003E02B07D0294674
:1036E000204601F0C8FB02212046FFF7E5FB074B0F
:1036F000B3F858200132A3F85820B3F84E20013215
:10370000A3F84E20204601F0BBFBC3E73C89012013
:1037100004D4002038890120E000000118D40020E2
:103720002DE9F04F85B00446019191469A469DF8E7
:1037300038709DF83C80BDF84850837B012B06D043
:103740006E4B4FF455726E496E4819F041FAB9F15B
:10375000000F00F0BA80002D00F09E80282D17D8B1
:10376000EE1CB6B226F00306B6B206F114031FFA39
:1037700083FB3146204601F034FB90B92A4611996B
:10378000606819F0CDF8B54214D300231D461DE042
:103790005D4AB2F85C300133A2F85C306FF005008E
:1037A00077E0594AB2F85C300133A2F85C306FF030
:1037B00001006EE06068721B0021284419F0AEF928
:1037C000E3E7626832F8132015440133B3EB560F78
:1037D000F7DB1421204601F004FB002860D1666865
:1037E0006389132B65D986F808A086F8098048EA12
:1037F0000A284FEA182343EA082815FA88F5D9F869
:103800000030336115FA83F505EB13454FEA9B034E
:1038100043F04003DBB23370777047EA03273B0A7B
:1038200043EA072715FA87F5208900F0ABFD708081
:1038300005440023B371F371344F388800F0A2FDC2
:10384000B08005443B8801333B80019B002B38D07E
:10385000019B1B68F360F26815FA82F303EB1242D6
:1038600093B203EB124303EB1343DB437381264A0A
:10387000B2F848300133A2F84830109B1B8E13B1C8
:103880002289934234D3109B5B694A4621461098A3
:10389000984705B0BDE8F08F4FF0140B002598E76E
:1038A000194AB2F85C300133A2F85C306FF00100C5
:1038B000EFE7124B40F289321549124819F088F9A6
:1038C00091E7144B1B68F360C5E76389132B06D996
:1038D00063681B690DF1100949F8043DC7E70A4AFE
:1038E000B2F85C300133A2F85C306FF00100D0E731
:1038F0004A461099204600F03FFCCAE7783402009F
:1039000094340200F82902003C890120C40B0020F5
:10391000A0340200D034020030B587B00C9C1546AC
:103920001AB109B10A6802B9211DBDF83820049204
:103930000D9A039202949DF82C2001929DF8282064
:1039400000922A46FFF7ECFE07B030BD10B586B0F6
:103950000024049403940A9C02949DF8244001944A
:103960009DF820400094FFF7D7FF06B010BD10B5BA
:1039700086B00024049403940A9C02949DF8244089
:1039800001949DF820400094FFF7CAFE06B010BDD8
:10399000431E13F1030F11D891F8393013F0020FC1
:1039A0000ED04B6898420DD08A68434013420BD129
:1039B000D24332EA000309D000207047012070474B
:1039C000002070470020704700207047012070479A
:1039D0002DE9F04383B0894603680DF1080E4EF8D7
:1039E000043D0F4600263046032838D800259EF8AF
:1039F0000040204BA3FB0413DB0803EB83084FEAD2
:103A0000480CA4EB0C04E4B2DBB28EF8003005F1F4
:103A1000010C5FFA8CF130340DF1080C654405F8A7
:103A2000084C0D46002BE2D14B1EDBB259B1741C81
:103A3000964219DA02A9CD1815F9085C3D702646A0
:103A400019460137F0E7731C964211DA2E243C70B8
:103A50000EF1010E0130C0B21E460137C4E700234B
:103A600007F8013C484600E0002003B0BDE8F083C1
:103A70000020FAE7CDCCCCCC08B510220149FFF7E5
:103A8000A7FF08BDC80B002038B504460C4B1B68C7
:103A9000834208D00D4651B123682B602146042093
:103AA00000F08EFE38BD0268054B1A60F6E7054B44
:103AB00040F245120449054819F08AF8ECE700BFC6
:103AC000DC0B0020F83502001C360200F829020049
:103AD0002DE9F84380468946814215D0B9F1000F9F
:103AE00009D0D9F80030984505D0354BAD2235497D
:103AF000354819F06DF8D8F8044063689A8852B1D7
:103B00000026D8F8044032E02D4BAB222F492E4836
:103B100019F05EF8E2E71B68C8F8043043466268B3
:103B200053F8081F5E689D68D868116056609560FC
:103B3000D0601969116101212046FFF7C3F92046C1
:103B400001F006FB0646B0F5803F03DA204601F09F
:103B500097F9D6E71A4BBC221D491B4819F038F8D3
:103B6000F4E73544AEB2204601F08AF93C4684B110
:103B700063681F68204601F0EBFA05463318B3F579
:103B8000803FEEDB0E4BCC2211490F4819F020F894
:103B9000E7E749464046FFF777FF0E4B1B889E42FA
:103BA00006D80C4A13889B1B13803046BDE8F88367
:103BB000034BD2220849044819F00AF8F1E700BF84
:103BC000F835020044360200F829020038360200B7
:103BD00058360200D80B0020783602002DE9F0415B
:103BE0000546884600262AE09A69D5F810C0624545
:103BF00010D1B3F80CC0AA8894450BD101E07146EE
:103C000018461A688AB19E46134683B1EA685F690E
:103C10009742E9D001340028F1D093F81FC0C27F49
:103C20009445EED871461846EBE77346EBE710B1C2
:103C3000FFF74EFF0644464508DA012C06DD054B2A
:103C40001B6800242146A6462046DEE73046BDE834
:103C5000F08100BFDC0B002010B5044620B12146E6
:103C6000052000F0ADFD10BD034B4FF43172034948
:103C7000034818F0ADFFF2E7F8350200A02D02006E
:103C8000F829020010B5044638B1606908B101F0A6
:103C9000F7F82046FFF7E0FF10BD044B40F2CE22BC
:103CA0000349044818F094FFEFE700BFF83502001D
:103CB0009C360200F82902002DE9F84380460F46A1
:103CC00091464C68608800F05DFB237803F00F0399
:103CD0009B009842C0F0A480C01A85B2E08800F032
:103CE00051FBC0F30C00C0007E680023337073707A
:103CF000B370F370B08005EB000E1FFA8EFEA6F8CD
:103D000006E0704500F29080D8F8041001251C46AA
:103D100036E0316064B3E2889042C0F089809B88CD
:103D20009E4500F289802760B3889A4200D0002522
:103D3000002937D0B9F1000F05D198F81E3013F0E3
:103D4000010F00F08980002D67D0D8F80430002BD7
:103D500060D058688388002B5ED13268002A44D036
:103D60005368F1889A8891423DD11A681E46F5E75A
:103D70009B889E4564D8C8F80470D9E719681C462A
:103D80000029D5D04B689A889042C2D390425BD02C
:103D9000D98888425CD3002CF0D0E1888A42EDD0EB
:103DA0000025EBE794B1E288B3889A4206D82760F1
:103DB000E288B3889A42BDD00025BBE7284B4FF478
:103DC000DB722849284818F003FFF0E7D8F80430E0
:103DD00033B1234B40F2BF122449234818F0F8FEB8
:103DE000C8F80470A6E71E460025B5B1864209D082
:103DF000336893B11A4B40F2E3121D491A4818F088
:103E0000E7FE0AE0164B40F2E1121A49164818F094
:103E1000DFFEEDE7002500E000252846BDE8F88339
:103E20004FF0FF30BDE8F8834FF0FF30BDE8F88376
:103E30004FF0FF30BDE8F8834FF0FF30BDE8F88366
:103E40004FF0FF30BDE8F8834FF0FF30BDE8F88356
:103E50004FF0FF30BDE8F8834846BDE8F88300BF67
:103E6000F83502006C350200F82902008C3502009A
:103E7000D4350200C435020008B5052000F086FCE8
:103E800008BD000070B505460E46042000F07EFC1B
:103E90000446B0B120220021204618F03FFE0F2337
:103EA000E377114B1A6822601C602A686E68A86864
:103EB000E968A260E660206161612A69A26120462A
:103EC00070BD31462846FFF789FE864206DD002C8C
:103ED000E0D1064A938F01339387F0E7042000F086
:103EE00055FC0446F3E700BFDC0B00203C890120B1
:103EF00038B5094B1868002404E005682146FFF72F
:103F0000E7FD284638B1C37F002BF6D0013BC377CD
:103F100004460068F6E738BDDC0B00202DE9F843C5
:103F200007468D4A538E0133538645682B7803F03C
:103F30000F03052B1DD1E88800F024FAC0F30C0014
:103F40004FEAC008688800F01DFA2B7803F00F03D1
:103F50009B00984212D3C61AB6B2384601F0F8F860
:103F600081467E4B1B8803440A2B12DC7C4B1C6869
:103F70001FE0B2F844300133A2F84430764AD38EC1
:103F80000133D386384600F07BFF00263046BDE87B
:103F9000F88301462846FFF721FE20B16F4B1B88AE
:103FA0004B440A2BE2DD6C4A938F01339387E5E79C
:103FB00024688CB16269EB689A42F9D1A2692B69D5
:103FC0009A42F5D1A289AB889A42F1D1624AB2F8FD
:103FD00046300133A2F84630002C52D0E88800F079
:103FE000D1F9C0F30C00002853D0ED8805F020056E
:103FF000002D0CBF012200220AD108EB06039BB260
:10400000984500F289804FF6EB718B4200F2848074
:1040100039462046FFF750FEB0F1FF3F7CD04F4BB2
:104020001A889144A3F800902DB94644A683A37F33
:1040300043F00103A377012840F08B80A08B14305C
:1040400063685E683568234653F8082FD3F804E0A8
:104050009F68D9683260C6F804E0B760F1601A69F9
:10406000326180B200F08EF970800023B371F37179
:10407000B372F3721421304600F07EFA70816668E4
:1040800025E049462846FFF7FDFE04460028ACD14E
:1040900074E7E08900F076F9C0F30C000028A4D0A2
:1040A0002A68D5F804E0A868E968A260C4F80CE0C2
:1040B000206161612A69A26197E76F68142128462F
:1040C00000F094FE2946304601F068F83D68002D66
:1040D000F3D1234B19688C4205D029B10B689C425F
:1040E00002D01946F9E700212046FFF7CDFC304603
:1040F00001F02EF80446194B1B88984204D8174A41
:1041000013881B1B138041E7164B40F29B22164974
:10411000164818F05DFDF2E79CB16368002B7FF450
:104120002DAF0F4B1B689C4206D00E4B40F2AB22CA
:104130000F490E4818F04CFD00212046FFF7A4FC63
:104140001CE7084B4FF42A720A49084818F040FD52
:10415000E3E700261AE700BF3C890120D80B0020C6
:10416000DC0B0020F835020024350200F82902009B
:104170004C350200403502002DE9F04F8BB005466A
:10418000079108920B8E143B21D4C3F3CF030693FF
:10419000D5F804B09BF8003003F00F03052B40F076
:1041A000DC806B89132B14D9BBF8060000F0EAF809
:1041B000C0F30C03059300F400530993B5F808A06D
:1041C000AAF1140A1FFA8AF91427002497E007338A
:1041D000DBE7654B4FF43F726449654818F0F8FC23
:1041E0006FF0050043E0604B40F2253261496048C2
:1041F00018F0EEFC99E05C4B40F22D325E495C48D1
:1042000018F0E6FC26E0FFF737FE804650B36B68F7
:104210003B4401940093034641222146002000F0D4
:10422000C3FD029030B3284600F09CFFC8F814503C
:10423000524BC8F810300299039800F0AFFF361BBC
:10424000B6B20EB12D680027EEB16B89DC1BA4B2AB
:104250009F42D0D8B44228BF3446002CD3D12D6819
:104260002746F1E7039800F00BFE4FF0FF300BB04C
:10427000BDE8F08F4046FFF7EFFC039800F000FE2A
:104280004FF0FF30F3E72744BFB2079B1B8E143B70
:10429000059AC2F30C00994501DC099B0BB140F46F
:1042A000005000F06FF8AAF80600049E06F1140012
:1042B00080B200F067F8AAF8020000238AF80A30FA
:1042C0008AF80B301421504600F056F9AAF80A007B
:1042D00007984369089ADDF80C8041469847284AB8
:1042E000138E01331386404600F0CAFDA9EB060386
:1042F0001FFA83F9059B069A13449BB20593B9F103
:10430000000F28D0069BDB009BB24B4528BF4B46D5
:1043100004934FF420721421102000F01BFE039030
:10432000F0B14389132B7FF65EAF039B5B68DBF82C
:104330000020DBF80460DBF80800DBF80C101A60E2
:104340005E609860D960DBF810201A61039BD3F897
:1043500004A0049E78E7002089E76FF0050086E757
:104360004FF0FF3083E700BFF8350200D834020079
:10437000F8290200F434020014350200853C0000E4
:104380003C890120030A43EA002080B270470302FF
:1043900003F47F0343EA0063020A02F47F421343FB
:1043A00043EA1060704770B404E0013A1BD0304615
:1043B0002946A4B1461C90F900404D1C91F90030EB
:1043C0009C42F2D044F02000A0F16101C9B2192949
:1043D00007D843F020039842E7D0012004E00020F2
:1043E00002E0012000E0002070BC7047F8B54B1ED1
:1043F000C51882EAE274A4EBE274012905D9002A07
:1044000008DB07460022C25417E000D0F8BD0023A5
:104410000370F8BD471C2D220270F3E7124A82FB9D
:104420000432E317C3EBA2031E4603EB83035A00D7
:10443000A31A303305F8013D34460CB1AF42EDD339
:104440003CB995F900303BB930233B7000237B70B9
:10445000F8BD00230370F8BD4218521B29463846A8
:1044600018F0F8FAD2E700BF6766666610B483B04A
:104470000023ADF8063010F0010407D0994208DDA2
:10448000431C02788DF80720013900E00346002222
:1044900005E00346FBE7188802440239023301298C
:1044A000F9DC002902DD1B788DF80630BDF8060026
:1044B000024490B200EB124290B200EB124024B1E1
:1044C00003029BB2C0F30720184380B203B05DF82B
:1044D000044B70472DE9F0410546884617461C46B7
:1044E000002600E02D689DB169896868FFF7BEFF6E
:1044F0000444A0B200EB14446B8913F0010FF1D017
:1045000086F0010623029BB2C4F307241C43E9E7AB
:1045100026B123029BB2C4F307241C434046FFF795
:1045200031FF04443846FFF72DFF204484B204EBEA
:104530001044A0B200EB1440C04380B2BDE8F0814B
:1045400010B51B681C0C14FA83F3029C246813FA40
:1045500084F303EB14439CB204EB13439CB204EBCF
:104560001343FFF7B7FF10BD10B582B0049C009451
:10457000FFF7E6FF02B010BD08B5FFF777FFC043B5
:1045800080B208BD70B505460026344600E02D68AF
:104590009DB169896868FFF769FF204484B204EB24
:1045A00010446B8913F0010FF1D086F0010623024D
:1045B0009BB2C4F307241C43E9E726B123029BB254
:1045C000C4F307241C43E04380B270BD08B501F07A
:1045D0001FF80AF067FC00F00DF800F0BDF800F0DD
:1045E000C1F905F0D3F901F0A7F8FEF733FD05F0A6
:1045F000F1F808BD7047704710B50AF0E9FC0446B1
:1046000068B1C31C23F00303984206D0064B4FF455
:1046100087720649064818F0DBFA204610BD0AF0FA
:104620005BFC0AF06CFCF8E7D0360200E8360200CA
:10463000F829020010B5044678B1E31C23F0030307
:104640009C4206D0094B4FF490720949094818F072
:10465000BFFA20460AF062FD10BD044B40F21F1263
:104660000549044818F0B4FAE7E700BFD036020065
:10467000B8360200F8290200A836020008B50AF090
:104680008BFD08BD70B505460AF026FC0646EB68B2
:104690001C68DCB122681A6014F0030F0ED12A687E
:1046A0009368013393602B689A68D9688A4200D96D
:1046B000DA6030460AF023FC204670BD074B40F21A
:1046C00019120749074818F083FAE8E72A6813889F
:1046D000013313800AF013FC002070BD2C37020058
:1046E00044370200F829020038B505460C4611F09F
:1046F000030F0DD10AF0F0FB2A689368013B936029
:10470000EB681B682360EB681C600AF0F8FB38BD9F
:10471000034B40F26D120349034818F059FAE9E7D8
:104720002C3702000C370200F8290200C36800226F
:104730001A608368033323F0030307E0C168096844
:104740001960C1680B6081880B440132C1888A42BC
:10475000F4DB03685960704738B500240EE0094B5C
:1047600053F824502846FFF7E1FF2A6804F130018E
:10477000054B03EB81035A600134A4B20D2CEED932
:1047800038BD00BF843802003C89012008B50D28DF
:1047900005D8074B53F82000FFF774FF08BD054B01
:1047A00040F257120449054818F012FA002008BDDB
:1047B000843802002C37020064380200F829020015
:1047C00008B50D2806D821B1064B53F82000FFF795
:1047D0008BFF08BD044B4FF4D5720449044818F010
:1047E000F7F908BD843802002C370200483802006F
:1047F000F82902006FF00B007047000070B50C68DC
:1048000083689C4214D016460D46044632B1A36814
:1048100033605DB12B68A360012070BD054B4FF480
:1048200004720549054818F0D3F9F0E70023F2E7D0
:10483000002070BDA439020060580200F82902006F
:1048400070B50C68C3689C4214D016460D460446E9
:1048500032B1E36833605DB12B68E360012070BD65
:10486000054B4FF414720549054818F0B1F9F0E70B
:104870000023F2E7002070BDA43902006058020056
:10488000F829020038B504460D4602F0B5F829466D
:10489000204605F0D1FB38BD38B50D46044630B191
:1048A00094F8393003F00502052A08D038BD0F4BC3
:1048B00040F26D320E490F4818F08AF9F0E715F012
:1048C000010FF3D06268002AF0D013F0080F08D16E
:1048D00094F8393013F0200FE8D02046FEF7C8FBDB
:1048E000E4E7211D2046FDF725FFF1E7A43902008A
:1048F000D8390200F829020070B582B00546164684
:104900000C46A9B1E6B122686B689A4222D002A98E
:1049100041F8042D33603046FFF7B4FFC4B123687B
:104920006B6001212846FFF7B7FF012002B070BD80
:10493000094B40F2CB120949094818F049F9E1E75F
:10494000054B4FF4E6720549054818F041F9DAE7DE
:104950000023E5E70020E9E7A439020060580200DF
:10496000F829020070470000014B1860704700BF33
:104970003489012010B5084B1C78621C1A7014B9D8
:10498000A01CC0B210BD054B40F2115204490548AD
:1049900018F01EF9F4E700BF340D0020A43902001E
:1049A00070390200F8290200024658B1064B186817
:1049B00038B190F83C300133DBB29A4203D0006842
:1049C000F6E77047002070473889012038B50D465A
:1049D000044630B16DB125600A4B1A6862601C60F4
:1049E00038BD094B40F2C9620849094818F0F0F88F
:1049F000F0E7054B40F2CA620649054818F0E8F8AE
:104A0000E9E700BF300D0020A43902004039020060
:104A1000F82902005C390200F8B50E4617460A4B29
:104A20001C68054668B9094B40F2FC620849094810
:104A300018F0CEF805E023683A46314628469847F4
:104A40006468002CF7D1F8BD300D0020A4390200B5
:104A5000C0390200F82902002DE9F04387B08146F1
:104A600090461F460E4611B3B8F1000F21D01FB378
:104A700026B3336823BB012525BB002402AA414687
:104A80004846FFF7BBFE18B144F0400402AB049364
:104A900001AA39464846FFF7D3FE18B144F0200476
:104AA00001AB0593D5B12CBB07B0BDE8F083154E23
:104AB000DAE7DFF85080DAE7124FD9E70125DBE7C4
:104AC0000025D9E76A4631464846FFF715FF18B179
:104AD000CDF80CD01024D1E70024CFE76A46314648
:104AE0004846FFF709FF0028DDD044F01004CDF858
:104AF0000CD0D8E703AA44F080014846FFF78CFFAA
:104B0000D2E700BFD034020070B5059D06460028EC
:104B100026D0002D2DD0002934D0002A34D0002BEF
:104B200034D000207060B060F0603F4C746130861B
:104B300086F839007062B062F062F0613064049807
:104B400030623A48007886F83C000698306130467A
:104B5000FFF782FF3046A84700283ED0002070BDF6
:104B6000334B40F227123349334818F031F83046BE
:104B700070BD2F4B4FF4947230492F4818F028F82D
:104B8000002070BD2E49C8E72D4AC8E72C4BC8E766
:104B9000002386F83C3024E0254B40F28B12294953
:104BA000254818F015F809E094F83C2096F83C30B8
:104BB0009A420ED024687CB1B442EDD00135FF2D6D
:104BC000F2DD1B4B40F28D121F491B4818F000F814
:104BD000EAE7013386F83C303CB196F83C30FF2BD5
:104BE000D6D01A4B1C680025E5E796F83C30FE2B22
:104BF00012D001330D4A1370144B1A6832601E60D4
:104C000096F8393013F0200F0AD1002201213046E6
:104C1000FFF702FF304670BD0022044B1A70EBE72D
:104C20003046FEF781FAF0E7F5470000350D002029
:104C3000A4390200BC380200F8290200D83802006A
:104C4000D0340200FC3802001039020038890120FB
:104C500010B584B038B1044690F8393013F0010F24
:104C600009D004B010BD0C4B4FF454720B490C48E2
:104C700017F0AEFFF5E743F0010380F8393004AADE
:104C8000012302F80C3D0821FFF7C6FE0321204650
:104C9000FFF702FEE5E700BFA4390200FC3902007D
:104CA000F829020010B400240460416002814381AD
:104CB000BDF8043003739DF80830437301238373F8
:104CC000C4735DF8044B704702E0C91A89B20068EA
:104CD00010B143899942F8D202B1118070470000A7
:104CE00070B50C4616460546C0B13DB3B4F5803FDD
:104CF00026D23CB3A2B22B8913449BB29A4223D84A
:104D000095F90C10002911DB06B369680C1B6C6067
:104D100069890A446A812B81002070BD0C4B40F2E6
:104D2000DF120C490C4817F053FFDEE769680C1BD3
:104D300005F110018C42EAD2012070BD012070BD46
:104D4000012070BD002070BD012070BD012070BD2C
:104D5000183A0200A02D0200F8290200F0B583B035
:104D600007460E461446412A08D0012A06D00B4BAE
:104D70004FF4A5720A490B4817F02AFF0C20FFF7E1
:104D800005FD054638B100230193009433463246B1
:104D90003946FFF787FF284603B0F0BD183A0200F6
:104DA000DC3A0200F829020070B582B0069DC41CEE
:104DB00024F003040E19BDF81C0086420FD805B17B
:104DC0002544184613460A460446022101910093E1
:104DD00013462946FFF766FF204602B070BD002447
:104DE000FAE708B50022FFF77BFF08BD38B50D468E
:104DF000044690B114B3B5F5803F21D215B3AAB2E1
:104E000063899A4211D861680D4465609B1A638179
:104E100023899A1A2281002038BD0B4B40F24B2285
:104E20000A490B4817F0D4FEE4E7074B40F255223D
:104E30000849074817F0CCFE012038BD012038BDD5
:104E4000012038BD002038BD183A0200A02D020014
:104E5000F8290200103D020008B5002902DBFFF727
:104E60003FFF08BD4942FFF7C1FF08BD08B500225A
:104E7000FFF7F2FF08BD08B50122FFF7EDFF08BDFF
:104E8000F8B510B10446002617E02C4B4FF43772EA
:104E90002B492C4817F09CFE00263046F8BD274BC6
:104EA00040F2F1222849274817F092FE0DE02369CD
:104EB000204698470136F6B22C46002CEDD00AF079
:104EC0000BF80746A37B002BE9D0A57B013DEDB293
:104ED000A57338460AF013F86DBB2568237B03F0F1
:104EE0000F03627B12F0020F0AD02369002BDED180
:104EF000124B40F2FF221549124817F069FED6E71F
:104F0000022B06D0012B09D06BB92046FFF792FB8C
:104F1000D0E721460D20FFF753FCCBE721460C20BC
:104F2000FFF74EFCC6E7054B40F20F320849054833
:104F300017F04EFEBEE70024BFE700BF183A02009C
:104F4000A02D0200F8290200603C0200783C02001B
:104F50009C3C02002DE9F04782B00F469046412A62
:104F600045D0044685B236D9B2F5C17F49D0B2F5F5
:104F7000207F32D1033525F00305ADB2CA1C93B2B0
:104F800023F003031D44ADB205F1100022F003022B
:104F900095427AD390427BD3FFF72EFB814660B3D4
:104FA00004F110010144033100230193CDF8008086
:104FB0003B463A4621F00301FFF774FED9F804306E
:104FC00013F0030F19D0344B40F223123349344805
:104FD00017F0FEFD11E0012A09D02F4B40F22712F5
:104FE00030492F4817F0F4FD4FF0000905E0424624
:104FF00039460020FFF7B2FE8146484602B0BDE8C0
:10500000F0874FF0000AD14612E0B9F1000FF4D05A
:105010004846FFF735FFB146EFE7B9F1000F32D050
:10502000CAF800603F1BBFB20025B246002FE4D093
:105030000D20FFF7ABFB06460028E6D0EB1C23F063
:1050400003039BB2C3F5BD6304339CB2BC4228BFCB
:105050003C4605F110010144033100230193CDF8D2
:10506000008023463A4621F00301FFF71BFE7368D8
:1050700013F0030FD1D0084B40F201120A4908483F
:1050800017F0A6FDC9E7B146CCE74FF00009B4E739
:105090004FF00009B1E700BF183A0200943A02004D
:1050A000F8290200C03A0200303A020070B50D46FD
:1050B0000446B8B12689AE422ED9761BB6B26189B4
:1050C0008D4217D9691A8DB223899B1B23812468CD
:1050D000002CF4D1194B40F2AF121949194817F0BE
:1050E00077FDECE7154B4FF4CC721749154817F0D4
:1050F0006FFDDFE7237B13F00F0F05D18D4203D047
:10510000637B13F0020F08D065812581206808B108
:10511000FFF7B6FE0023236070BD63681B1BE91810
:105120002046FFF768FA04460028EDD1034B40F211
:10513000BD120649034817F04BFDE5E7183A020097
:10514000C83C0200F8290200B03C0200E03C02002A
:10515000002302E001339BB200680028FAD1184610
:105160007047000098B110B5044609F0B5FEA37B66
:105170000133A37309F0C3FEA37B03B110BD044B3D
:1051800040F242320349044817F022FDF6E7704727
:10519000183A0200FC3C0200F829020038B510B1B0
:1051A0000D46044661B9154B40F25A321449154870
:1051B00017F00EFD38BD238929890B44238114463D
:1051C0002268002AF7D1228963899A4206D00B4BC4
:1051D00040F262320C490B4817F0FAFC236833B1F5
:1051E000064B40F263320949064817F0F1FC238967
:1051F0002A8913442381256038BD00BF183A020074
:10520000F03A0200F8290200283B0200583B020055
:1052100010B50C46FFF7C2FF2046FFF7A3FF10BDF5
:105220002DE9F04148B10C46054631B102890B89A0
:105230009A4202D30027B84629E03D4B40F2CA32D9
:105240003C493D4817F0C4FC6FF00F00BDE8F08109
:10525000374B40F2D9323949374817F0B9FC2AE0C8
:10526000334B40F2DA323649334817F0B1FC25E0CF
:105270006B89984528D01CB1628923899A4237D01E
:105280001DB16A892B899A4240D0002C4CD06E897E
:10529000A6EB08066389DB1B9E4200D31E466868A6
:1052A000616832463944404417F03AFBB044374411
:1052B0006B899845CCD863899F42D1D863899F4236
:1052C000D6D324680027D3E72D6815B14FF0000826
:1052D000D1E714B94FF00008CDE7154B4FF47972C0
:1052E0001849154817F074FC6FF00F00BDE8F08105
:1052F0002368002BC4D00E4B40F2EA3212490E480C
:1053000017F066FC6FF00500BDE8F0812B68002BFC
:10531000BBD0074B40F2EF320B49074817F058FC5F
:105320006FF00500BDE8F0810020BDE8F08100BF0E
:10533000183A02007C3B0200F8290200AC3B020054
:10534000C43B0200E03B0200F03B02002DE9F041CB
:1053500028B10F469046054661B1002627E01A4B5A
:1053600040F20A4219491A4817F032FC002630462A
:10537000BDE8F081144B40F20B421649144817F077
:1053800027FC0026F3E76A89D21A94B2A04500D21E
:105390004446696822461944B81917F0C1FA2644F0
:1053A000B6B2A8EB04041FFA84F800232D68B8F104
:1053B000000FDCD0002DDAD0002BE4D069898B42BD
:1053C000E1D35B1A9BB2F1E7183A02001C3C0200E1
:1053D000F82902003C3C020008B5FFF775FC08BD47
:1053E0002DE9F84348B188469146054681B10389C5
:1053F0009A4218D81646002731E0244B40F2B342B7
:105400002349244817F0E4FB6FF00F00BDE8F88350
:105410001E4B40F2B44220491E4817F0D9FB6FF0F2
:105420000F00BDE8F883194B40F2B5421B491948FB
:1054300017F0CEFB4FF0FF30BDE8F883134B40F27E
:10544000BD421749134817F0C3FB0BE0224608EB97
:105450000701686817F064FA361B27442D6836B1D7
:10546000002DEBD06C89A642F0D83446EEE74F45CC
:1054700009D0064B4FF499620A49064817F0A8FB79
:105480000020BDE8F8830020BDE8F883183A020048
:10549000303D0200F8290200483D0200643D020050
:1054A000843D02009C3D0200F0B583B00F461446D7
:1054B0000DF106021946FFF78FFF58B30646018922
:1054C000BDF806301A19914227DB4289934213D264
:1054D0007389BDF806001A1A944215DD95B27368F7
:1054E0002A463946184417F01BFA621B92B2791902
:1054F00062B9002003B0F0BD094B40F2E342094914
:10550000094817F065FBE3E72546E8E73068FFF751
:1055100067FFEFE74FF0FF30ECE74FF0FF30E9E7D0
:10552000183A0200B43D0200F829020038B51546C9
:105530000A462989FFF70EFD044618B12946FFF7F0
:105540006FFE08B9204638BD034B40F22452034990
:10555000034817F03DFBF5E7183A0200683B0200EC
:10556000F829020000B583B00DF10602FFF7ACFB8D
:1055700048B14189BDF80620914207D94368985C3B
:1055800003B05DF804FB4FF0FF30F9E74FF0FF3058
:10559000F6E708B5FFF7E6FF002801DBC0B208BD5B
:1055A000002008BD2DE9F04190461F460289CB1826
:1055B0009A4203DA4FF6FF70BDE8F08105460E46C9
:1055C00002E0711A8EB22D6885B169898E42F8D2D7
:1055D00000240CE0621C4FF6FE739A4203DD4FF686
:1055E000FF70BDE8F08190B2BDE8F0810024BC42BC
:1055F0000BD2311989B22846FFF7CBFF18F80430D7
:105600009842E7D10134A4B2F1E70020BDE8F0816F
:105610007047000010B4002409E04FF44042154BDD
:105620001A800DE00134A4B2B4F5804F1FD2114AA4
:10563000138801339BB213804FF6FF729342ECD074
:10564000002003280ED80C4B53F820301B6833B1D0
:10565000D98A084A12889142E4D0DB68F7E7013022
:10566000C0B2EEE7034B18885DF8044B704700208A
:10567000FAE700BF100000209440020038B504464D
:105680000D4639B9074BFF220749084817F0A0FA21
:1056900000E0E4682CB1A36F9D42FAD10023A36718
:1056A000F7E738BD1C42020034420200F82902002C
:1056B00038B5054658B12B7D012B06D00D4B4FF464
:1056C00089720D490D4817F083FA01240FE0094B48
:1056D00040F211120A49094817F07AFAEBE7094B30
:1056E00053F8243029461868FFF7C8FF0134032C0B
:1056F000F5D938BD1C420200943F0200F82902008F
:10570000883F02009440020010B50446037D012B3F
:1057100004D021460220FFF753F810BD034BDF22CF
:105720000349044817F054FAF3E700BF1C42020093
:105730005C3F0200F829020008B509F039FA6FEA67
:1057400080406FEA9040014B188008BD1000002097
:1057500010B50446037D012B04D021460120FFF73C
:105760002FF810BD034BD4220349044817F030FA38
:10577000F3E700BF1C420200483F0200F829020084
:1057800010B5044680B1638B13F4007F0BD1A36F77
:105790004BB15A7F01325A77A36F5B7F63B1638B42
:1057A00043F40073638310BD074B4FF494720749B1
:1057B000074817F00DFAE6E7034B40F22D120549B2
:1057C000034817F005FAEAE71C420200883F02008E
:1057D000F82902003C3E020010B5044680B1638BFC
:1057E00013F4007F0BD0A36F4BB15B7F83B1A26F2B
:1057F000537F013B5377638B23F40073638310BDA6
:10580000074B40F23F120749074817F0E1F9E6E776
:10581000034B40F243120549034817F0D9F9E6E774
:105820001C420200883F0200F82902003C3E0200B0
:1058300038B5044640B1237D042B1ED0072B25D05C
:10584000032B09D0002510E01A4B4FF4CE721A49F1
:105850001A4817F0BDF9EEE7204603F04DFB054668
:1058600028B1E5B1B5F1FF3F1DD0284638BD20462F
:10587000FFF7B2FF05232375F3E7204603F03CFB57
:1058800005460028EDD105232375EAE7204603F0FD
:1058900033FB05460028E4D109232375E1E72046C0
:1058A00003F0AEFCE1E7638B43F00803638300255C
:1058B000DBE700BF1C420200883F0200F82902001B
:1058C000094B186878B110B501E0204654B1C4689E
:1058D000438B13F0080FF8D023F008034383FFF73E
:1058E000A7FFF2E710BD7047588A012070B5054642
:1058F0000C4659B165B12B7DA3B9EAB10026032E40
:105900001EDC264B53F826301B6827E0244CF1E7B9
:10591000244B40F2A9222449244817F059F96FF08A
:105920000F0070BD1F4B40F2AB2221491F4817F0FA
:105930004FF96FF0050070BDFFF76CFE0246F0B145
:1059400014B1236803B12B60EA821A4B1A68EA602B
:105950001D6003F005FF002070BDDB686BB1D98AC4
:105960008A42FAD173B1196879B18CB1206890B1CB
:105970008142F2D16FF0070070BD0136BFE76FF0D2
:10598000010070BD6FF0070070BD6FF0070070BDC3
:105990006FF0070070BD6FF0070070BD944002000B
:1059A000D03402001C420200643E0200F8290200CA
:1059B0007C3E02005C8A0120F8B5164650B30F46C3
:1059C0000446037D002B30D1012B5DD00220FEF771
:1059D000DDFE054600285ED023690361E38AC382A9
:1059E00001230375637D4375637A43720023037259
:1059F000E37AC372A37A837223680360E38A3BB3BA
:105A0000264B1B689C421BD003B3DA6894421BD020
:105A10001346F9E7224B40F259322249224817F047
:105A2000D7F86FF00F03002531E01D4B40F25A32DA
:105A30001E491D4817F0CCF86FF00E03002526E034
:105A4000DA68164B1A6001E0E268DA600023E3606E
:105A50002046FFF77DFE164BAB6100236B772B7D55
:105A6000012B06D00E4B4FF4647212490E4817F00A
:105A7000AFF807B901272F770F4B1A68EA601D604E
:105A800003F06EFE002302E005466FF0080306B146
:105A900033702846F8BD4FF0FF33F8E75C8A0120E9
:105AA0001C420200AC3F0200F8290200DC3F020069
:105AB0001167000014400200548A012070B50446AA
:105AC00080B1656A218D6818E26A638E40F2B4562F
:105AD000B34200D933461344C31A002B0ADB618555
