:10000000000002201D29000081290000490800008D
:1000100081290000812900008129000000000000E2
:10002000000000000000000000000000B10B000014
:100030008129000000000000510C0000B50C0000F8
:100040008129000081290000812900008129000008
:1000500081290000000000008129000081290000A2
:1000600081290000812900008129000081290000E8
:1000700081290000812900008129000081290000D8
:1000800081290000812900008129000081290000C8
:1000900081290000812900008129000081290000B8
:1000A00081290000812900008129000081290000A8
:1000B0008129000081290000812900008129000098
:1000C0008129000081290000812900008129000088
:1000D0008129000081290000812900008129000078
:1000E0008129000081290000812900008129000068
:1000F0008129000000000000812900008129000002
:100100008129000081290000812900008129000047
:100110008129000081290000812900008129000037
:100120008129000081290000812900008129000027
:10013000812900000000000081290000000000006B
:100140008129000081290000812900008129000007
:1001500081290000000000008129000081290000A1
:1001600081290000812900008129000081290000E7
:1001700081290000812900008129000081290000D7
:100180008129000081290000812900000000000071
:1001900081290000812900008129000081290000B7
:1001A0008129000081290000812900000000000051
:1001B00081290000812900000000000000000000EB
:1001C000000000000000000000000000000000002F
:1001D0000000000081290000812900008129000021
:1001E0008129000081290000812900008129000067
:1001F0008129000010B5054C237833B9044B13B1A5
:100200000448AFF300800123237010BDB00000202C
:1002100000000000643C00000C4B43B10C480D4949
:1002200010B5AFF300800C48036823B910BD0A482D
:10023000036833B97047094B002BF7D0BDE8104075
:100240001847064B002BF5D0184700BF00000000F0
:10025000643C0000B4000020AC000020000000005E
:10026000154B002B08BF134B9D46A3F5803A002188
:100270008B460F461348144A121A02F034FC0F4BF7
:10028000002B00D098470E4B002B00D09847002041
:10029000002104000D000D48002802D00C48AFF3E7
:1002A000008002F0F1FB2000290000F093F802F03A
:1002B000D7FB00BF00000800000002200000000083
:1002C00000000000B0000020AC2200200000000070
:1002D00000000000044A1388591C118003F0070332
:1002E000024A9360704700BFCC000020C04100402C
:1002F00000B583B001F0E0FD019041F2883101A822
:1003000001F0F4FE00F046FE0128F6D0014802F0AC
:1003100067FCF2E7B43A000038B54FF08043592249
:10032000C3F800211622C3F800218822C3F8002157
:10033000D3F80031002BF0D002F14022B83213681C
:1003400023F0F0031360012000F0CCF8012000F04E
:10035000E7F81A4800F0FAF91122194B5A63194DBF
:10036000284600F0C7F8184C204600F0C3F80022D9
:100370001146284600F05CF800221146204600F0A5
:1003800057F802F0FFFA4FF08043DA6B22F47F0255
:10039000DA63DA6B42F4CC02DA630C490A6822F0C1
:1003A0003F0242F015020A600022C3F800214FF418
:1003B000E131074800F088FA38BD00BF00B0710B8A
:1003C00000020040103D80570200805EC0410040A6
:1003D0000000074000B583B0FFF79EFF00230193A4
:1003E0000322009232220849084801F0E9FC01206A
:1003F00000F0E8FE022000F09FFD054802F0F0FB4F
:1004000001F010FDFEE700BF903A0000F10200008D
:10041000983A00004FF0500383F31188BFF36F8FB9
:10042000BFF34F8FFEE7704708B500F089FE08BDA7
:1004300070B4C0F38724C4B14FF08043D3F8F431D3
:10044000DBB2012B25D0C0F38143022B40D0032B1C
:1004500040D003F1805388339B001D68C0F34416DD
:10046000B44025EA040422431A60C0F3426272B128
:10047000C0F3017303F1805384339B001C68C0F305
:10048000045002FA00F024EA00000143196070BC35
:100490007047C0F38143022B0AD0022B0ED0022BEF
:1004A00012D0032B12D003F1805388339B00D4E782
:1004B00000F01F051F2DF0D1074BCEE700F01F0500
:1004C0001D2DECD1044BC8E7044BC6E7044BC4E731
:1004D000024BC2E7024BC0E7280200402C0200405A
:1004E00030020040024A136818431060704700BF92
:1004F0000002004000F01F0201239340800F8000A3
:1005000000F18040D0F804221343C0F80432704751
:10051000024A136C43F480331364704700020040B6
:10052000074B084A126D30EA020204D05A1E002B13
:1005300003DD1346F5E7012070470020704700BF38
:1005400080F5200000020040F8B506460F46104C2A
:10055000256D05F01005236843F004032360102087
:10056000FFF7DEFF236943F007032361216A21F0CF
:100570000F0139432162206920F0070030432061D8
:1005800002F000FA1DB9236823F004032360F8BDCC
:100590000002004082B0124B1B680193114B1B6C90
:1005A00013F4A02F19D113F4003F02D00E4802B06B
:1005B0007047C3F3813202A90A4412F8042CC3F332
:1005C0000800811CC3F34423084800FB01F003FB2F
:1005D0000223B0FBF3F0C000E9E70020E7E700BF2B
:1005E000C43A000000020040001BB700C0C62D0046
:1005F0002DE9F84F04468A46FFF78AFFE4B94C4AD2
:10060000136843F0010313600120FFF789FF4FF0E7
:10061000000E484B5344484A934263D9002C40F0A3
:10062000828044F21E22424B1A640420FFF778FFB6
:10063000FFF7B0FFBDE8F88F3D4A136843F00403AD
:1006400013601020FFF76CFF4FF4002EE1E74FEA34
:100650008A0C44E04FEA4A0C41E0CB1A12E0013226
:1006600040F201239A4219D8C0F35D0303FB02F361
:1006700030491944314DA942F1D84FEA9C018B42CF
:10068000EBD95B1A9F42EAD923B14C4646469346C2
:100690001F46E4E74C46464693461F4608F10108CC
:1006A000B8F1200F0CD85FB12548B0FBF8F0A0F5E9
:1006B0007413A3F51063234A9342EFD80222CFE7C5
:1006C00009F10109B9F1040F15D8A7B1B9F1030F68
:1006D000F6D0B9F1040FBAD0B9F1020FBAD04FF089
:1006E0000208DDE7D44600242646A3464FF0FF3734
:1006F0004FF00109E6E7631E4EEA8333721E43EAB8
:100700004223ABF102021343094A13640420FFF7AA
:1007100007FF04FB06F40A48B0FBF4F000FB0BF003
:100720004000BDE8F88F084A014B1A647DE700BF1E
:1007300000020040800F05FD8074D21AC068780462
:10074000001BB70000093D001E42080070B50646B8
:100750001B4B1D6D05F010051A4B984200D91E4623
:10076000174C236843F0040323601020FFF7D8FEE2
:10077000236943F007032361236A23F00F032362F5
:10078000236813F0010F10D031460020FFF730FF2F
:10079000044600210220FFF7D7FE25B9084A136856
:1007A00023F004031360204670BD31464FF400204F
:1007B000FFF71EFF0446024B1D6D05F01005E8E72C
:1007C0000002004000B0710B10B5044601681048EB
:1007D00002F092F961680F4802F08EF9A1680E48A4
:1007E00002F08AF9E1680D4802F086F921690C48A7
:1007F00002F082F961690B4802F07EF9A1690A48AA
:1008000002F07AF9E169094802F076F910BD00BFFB
:10081000003B00000C3B0000183B0000243B0000A4
:10082000303B00003C3B0000483B0000543B0000D4
:1008300008B50446034802F0D3F92046FFF7C4FF89
:10084000FEE700BFE83A0000074B0420714608426B
:1008500004D0EFF309807146FFF7EABFEFF3088099
:10086000FFF7E6BFFEE700BF3108000030B41346D3
:1008700005E091F900500D4B1D60234601315C1ECF
:100880008BB10A4B9B6913F4000FFAD191F9003038
:100890000A2BEED10D25054B1D60044B9B6913F40B
:1008A000000FFAD1E5E7104630BC70470000074062
:1008B000044B9B6913F4804FFAD1024B1B680B70F9
:1008C0000120704700000740F0B585B004460E4691
:1008D0003C4B0FCB04AD05E90F003B4B9C4232D0A3
:1008E0003A4B9C4237D03A4B9C423CD0394B9C42CD
:1008F00041D0394B9C4246D0384B9C424BD00027CC
:100900003D46002323630323E360A36823F470239D
:1009100023F0F003A360012D44D096B104AB03EBA8
:10092000850555F8102C0137B2FBF7F202EB5603A0
:10093000B3FBF6F3023BB3F5803F3BD243F04053A9
:10094000636205B0F0BD264B5D69C5F301651F6AA2
:10095000C7F30327D5E7224B5D69C5F381651F6A9D
:10096000C7F30337CDE71E4BDD69C5F301651F6B88
:1009700007F00F07C5E71A4BDD69C5F381651F6BEB
:10098000C7F30317BDE7164BDD69C5F301751F6B90
:10099000C7F30327B5E7124BDD69AD0F1F6BC7F334
:1009A0000337AEE7FFF7F6FD04AB03EB850343F82F
:1009B000100CB2E702EBC602B2FBF6F63609023EB5
:1009C0006662BEE7603B0000000007400010074081
:1009D000002007400030074000400740005007401B
:1009E00000020040074B23F00703074A1360002072
:1009F0005060064A41F6F8715160106059601A6003
:100A0000704700BFD8000020DC200020D02000204C
:100A100070B5044601F048FA244B1B687BB134B131
:100A2000083414F0070F02D024F007040834621EC3
:100A300041F6F6739A4232D81D490B6807E0FFF77A
:100A4000D1FF0122194B1A60E9E7194613465A688B
:100A5000944202D91A68002AF7D1164A934220D04C
:100A60000D6808351A680A605A68121B102A0CD9DA
:100A70001E1972605C6074680D4900E011460A68D6
:100A800050688442FAD832600E6059680A4A136886
:100A90005B1A136001F0ACFA2DB1284670BD002539
:100AA000F8E70025F6E7FFF7B5FCF6E7D8200020C9
:100AB000DC200020D020002000000020D0B170B544
:100AC0000546A0F1080601F0EFF955F8044C0A4A72
:100AD00000E01A46136859688C42FAD845F8083C79
:100AE000166055F8041C054A13680B44136001F0A6
:100AF0007FFA70BD704700BFDC200020000000209E
:100B000082B0002301930D4B1B68B3F1FF3F08D067
:100B10004FF0500383F31188BFF36F8FBFF34F8FF4
:100B2000FEE74FF0500383F31188BFF36F8FBFF3DD
:100B30004F8F019B002BFCD002B0704704000020B7
:100B400008480068006880F308884FF0000080F3D0
:100B5000148862B661B6BFF34F8FBFF36F8F00DFAB
:100B600000BF000008ED00E0DFF80C00016841F470
:100B7000700101607047000088ED00E04FF0807365
:100B800040F8043C21F0010140F8081C054B40F8F6
:100B90000C3C40F8202C6FF0020340F8243C443811
:100BA000704700BF010B00000000000000000000C3
:100BB000074B19680868B0E8F04F80F30988BFF365
:100BC0006F8F4FF0000080F311887047AFF3008003
:100BD0001C2100204FF0500383F31188BFF36F8F67
:100BE000BFF34F8F0A4A136801331360012B0DD1F5
:100BF000084B1B6813F0FF0F08D04FF0500383F32E
:100C00001188BFF36F8FBFF34F8FFEE7704700BFB0
:100C10000400002004ED00E0094B1B6843B94FF0CD
:100C2000500383F31188BFF36F8FBFF34F8FFEE73D
:100C3000013B034A13600BB983F31188704700BF6F
:100C40000400002000000000000000000000000080
:100C5000EFF30980BFF36F8F154B1A681EF0100F6A
:100C600008BF20ED108A20E9F04F10602DE909003F
:100C70004FF0500080F31188BFF34F8FBFF36F8F99
:100C800001F0B2FA4FF0000080F3118809BC196836
:100C90000868B0E8F04F1EF0100F08BFB0EC108AE3
:100CA00080F30988BFF36F8F704700BFAFF30080F8
:100CB0001C21002008B54FF0500383F31188BFF3C7
:100CC0006F8FBFF34F8F01F0FDF818B14FF08052D6
:100CD000024B1A60002383F3118808BD04ED00E085
:100CE000084A0023136008490B60084B1B68084939
:100CF000A1FB03139B09013B06490B60072313600B
:100D0000704700BF10E000E018E000E01C00002089
:100D1000D34D621014E000E03A4B1A683A4B9A4205
:100D200008D14FF0500383F31188BFF36F8FBFF3E7
:100D30004F8FFEE7334B1A68344B9A4208D14FF07D
:100D4000500383F31188BFF36F8FBFF34F8FFEE71C
:100D500010B582B02E4B1A78D2B20192FF221A70CF
:100D60001B78DBB28DF803309DF8033003F050039D
:100D7000284A13700722284B1A6009E0264A136894
:100D8000013B13609DF803305B00DBB28DF803304C
:100D90009DF8033013F0800FF0D11F4B1B68032B1D
:100DA00008D04FF0500383F31188BFF36F8FBFF368
:100DB0004F8FFEE71B0203F4E063174A1360019BA9
:100DC000DBB2134A1370154B1A6842F470021A60B2
:100DD0001A6842F070421A60FFF782FF0024104B3D
:100DE0001C60FFF7C1FE0F4A136843F040431360D5
:100DF000FFF7A6FE01F0F8F9FFF782FE204602B0E9
:100E000010BD00BF00ED00E071C20F4170C20F4184
:100E100000E400E0E4200020E820002020ED00E0D5
:100E20000400002034EF00E0EFF305830F2B0FD90F
:100E3000104A9B5CDBB2104A1278934208D24FF002
:100E4000500383F31188BFF36F8FBFF34F8FFEE71B
:100E50000A4B1B6803F4E063094A1268934208D9FD
:100E60004FF0500383F31188BFF36F8FBFF34F8FA1
:100E7000FEE77047F0E300E0E42000200CED00E026
:100E8000E820002070B582B006460025ADF8065077
:100E90001FE095B1BDF806300133ADF806300134DE
:100EA000022C13DC00231A460DF10601306800F015
:100EB00049FB0128EDD00125F1E7FFF78BFE064A3B
:100EC000136801331360FFF7A7FEE3E7C82001F0C2
:100ED00063F90024E4E700BFF420002070B582B07D
:100EE00004460026354607E000220DF10601206881
:100EF00000F080FC012808D0206800F084FD002864
:100F0000F2D1B42001F048F9F6E7BDF806309D4271
:100F100003D0012601339DB2EEE70EB12B46F9E76F
:100F2000FFF758FE034A136801331360FFF774FE9E
:100F30002B46EFE7F020002070B582B00446002277
:100F400002210A2000F0D9FA0C4B1860A0B10C491C
:100F500000F06CFD094D0026019600942B463222CC
:100F60000849094800F02CFF019600942B463222D4
:100F70000649074800F024FF02B070BDEC200020B5
:100F8000703B0000803B0000DD0E0000883B00004D
:100F9000850E0000084B1B6833B1084B1B680BB172
:100FA000012002E0002000E000200023024A13603C
:100FB000024A1360704700BFF0200020F420002098
:100FC00088420BD9411A032914D94FF0500383F3F7
:100FD0001188BFF36F8FBFF34F8FFEE7091A032904
:100FE00008D94FF0500383F31188BFF36F8FBFF31D
:100FF0004F8FFEE70120704708B54FF6FE73984209
:1010000027D9A0F57F43FF3B052B02D910F1080F2C
:101010000BD9244B1B6893B94FF0500383F311880D
:10102000BFF36F8FBFF34F8FFEE71F4B1968FFF7BA
:10103000C7FF0128EDD000221A4B1A60E9E71A4ACF
:1010400013680133136063BB4FF6FF72164B1A60CF
:1010500008BD052804D9C0F57F43FE33062B0BD805
:10106000104B1B6893B94FF0500383F31188BFF303
:101070006F8FBFF34F8FFEE70C4B1968FFF7A0FF90
:101080000128EDD00022074B1A60E9E7074A1368F0
:10109000013313604FF6FE72934202D90022034BD4
:1010A0001A6008BD1000002008000020FC2000206D
:1010B00000B583B0094B186800F0F5FC58B1002268
:1010C00001A900F045FC012802D00022044B1A605F
:1010D0000198FFF791FF03B05DF804FB00210020A9
:1010E0001000002010B582B0124B1B6802A941F815
:1010F000043D114B1C6800231A46104850F8240088
:1011000000F0F6FA012801D002B010BD094B1A68B0
:1011100001321A601B681BB94FF6FF72054B1A604B
:10112000054A136801331360022BEDDD0022024BE8
:101130001A60E9E70C0000200421002008210020AB
:1011400008B5094B1B68012B00D008BD074A13687E
:1011500001331360642BF8D90022044B1A60FFF7A7
:10116000A7FFFFF7BFFFF0E714210020F8200020C1
:1011700030B583B0FFF72EFD104B1D681A680132A1
:101180001A60FFF749FD29460D4801F0B5FC40F211
:101190004D1405FB0444640800F08EFE01902146C6
:1011A00001A800F0A3FF2846FFF794F8214601A804
:1011B00000F09CFF2846FFF78DF8F0E7182100208B
:1011C000903B000030B583B00546002408E00023C2
:1011D0000193009532220449044800F0F1FD0134E6
:1011E000022CF4DD03B030BDAC3B000071110000F7
:1011F00000F1080343604FF0FF328260C360036177
:1012000000230360704700230361704743684B600D
:101210009A688A609A68516099600861036801332E
:101220000360704730B40D68B5F1FF3F02D000F1A4
:10123000080202E0026904E01A4653681C68A542ED
:10124000FAD253684B6099608A6051600861036804
:101250000133036030BC7047036942688168916064
:101260008268416851605A68904206D0002202614B
:101270001A68013A1A601868704782685A60F5E780
:1012800010B50446FFF7A6FCA26BE36B9A4204D0AC
:101290000024FFF7C1FC204610BD0124F9E710B57A
:1012A0000446FFF797FCA36B23B10024FFF7B4FCBF
:1012B000204610BD0124F9E770B504461646856B3B
:1012C000026C4AB9036853BB406801F0B7F80023C9
:1012D00063600135A56370BD6EB9806801F0F8FBED
:1012E000226CA3681344A3606268934219D32368F5
:1012F000A3600020EDE7C06801F0EAFB236C5B42CD
:10130000E2681A44E26021688A4202D262681344A9
:10131000E360022E07D145B1013D0020D9E700204E
:10132000D7E70020D5E70020D3E70020D1E770B54C
:1013300082B00190846C64B1A26BE36B9A4211D3CA
:101340004FF0500383F31188BFF36F8FBFF34F8FBC
:10135000FEE74FF0500383F31188BFF36F8FBFF3A5
:101360004F8FFEE7A26B934203D80026304602B0AF
:1013700070BD0A4694F845506DB201A92046FFF7AA
:101380009BFF0646B5F1FF3F0AD1636A002BEDD003
:1013900004F1240000F0AAFF0028E7D00126E5E7C9
:1013A0006B1C5BB284F84530E0E7026C72B110B59B
:1013B0000346C4681444C4604068844201D318687A
:1013C000D8600846D96801F083FB10BD704738B576
:1013D0000546FFF7FFFB95F8454064B208E06B6AED
:1013E000BBB105F1240000F081FF78B9013C64B283
:1013F000002C0EDDAB6C002BF1D000212846FFF74E
:1014000096FF0028F2D001F003F8EFE701F000F8B2
:10141000ECE7FF2385F84530FFF7FEFBFFF7DAFB2B
:1014200095F8444064B201E0013C64B2002C0ADD4E
:101430002B6943B105F1100000F058FF0028F3D0EC
:1014400000F0E6FFF0E7FF2385F84430FFF7E4FB08
:1014500038BD000038B530B304460D46FFF7BAFB7F
:101460002168E26B236C03FB021060600020A06324
:10147000A160013A02FB0313E360FF2384F84430C8
:1014800084F84530C5B92369F3B104F1100000F0C8
:101490002DFFC8B14FF080520D4B1A60BFF34F8F34
:1014A000BFF36F8F10E04FF0500383F31188BFF349
:1014B0006F8FBFF34F8FFEE704F11000FFF798FE28
:1014C00004F12400FFF794FEFFF7A6FB012038BDCE
:1014D00004ED00E038B51D46049C0B4659B122606E
:1014E000E063236401212046FFF7B4FF84F85050E5
:1014F0000023A36438BD2460F2E740B94FF05003E5
:1015000083F31188BFF36F8FBFF34F8FFEE7F0B502
:1015100083B0054611B101FB00F000E00020174642
:101520000C465430FFF774FA064638B100903B463B
:1015300000F1540221462846FFF7CCFF304603B0A5
:10154000F0BD0000F0B585B0019260B1044699B1DC
:101550000125BDB94FF0500383F31188BFF36F8F9E
:10156000BFF34F8FFEE74FF0500383F31188BFF3B3
:101570006F8FBFF34F8FFEE7026C0AB90125E8E7D2
:101580000025E6E7022B09D06DB94FF0500383F335
:101590001188BFF36F8FBFF34F8FFEE7E26B012A15
:1015A000F2D00025F0E71E460F4600F037FF10B9D5
:1015B000019B03B1002545B94FF0500383F3118817
:1015C000BFF36F8FBFF34F8FFEE700253DE032463C
:1015D00039462046FFF770FEA36C8BB1314620469A
:1015E000FFF7A5FE38B14FF08052404B1A60BFF3B1
:1015F0004F8FBFF36F8FFFF70FFB012005B0F0BDDA
:10160000636A73B104F1240000F070FE0028F2D088
:101610004FF08052354B1A60BFF34F8FBFF36F8F7F
:10162000E9E70028E7D04FF08052304B1A60BFF353
:101630004F8FBFF36F8FDEE7FFF7EEFA0020DDE795
:101640002046FFF7C4FE00F0D3FCFFF7C3FAA26BFD
:10165000E36B9A42BBD3022EB9D0019B002BEBD097
:101660001DB902A800F088FE0125FFF7D5FA00F0A9
:101670001BFCFFF7AFFA94F844305BB2B3F1FF3FC5
:1016800002D1002384F8443094F845305BB2B3F1C2
:10169000FF3F02D1002384F84530FFF7BDFA01A9CE
:1016A00002A800F075FEC8B92046FFF7E9FD002842
:1016B000C6D0019904F1100000F0E4FD2046FFF7C8
:1016C00086FE00F095FC0028BFD14FF08052074BFA
:1016D0001A60BFF34F8FBFF36F8FB6E72046FFF757
:1016E00076FE00F085FC002088E700BF04ED00E0F6
:1016F0002DE9F84360B1044699B10120B8B94FF023
:10170000500383F31188BFF36F8FBFF34F8FFEE752
:101710004FF0500383F31188BFF36F8FBFF34F8FE8
:10172000FEE7006C08B90120E8E70020E6E7022B9D
:1017300009D068B94FF0500383F31188BFF36F8F5E
:10174000BFF34F8FFEE7E56B012DF2D00020F0E7ED
:101750001F4690468946FFF767FBEFF311864FF06F
:10176000500383F31188BFF36F8FBFF34F8FA26BCA
:10177000E36B9A4201D3022F2FD194F845506DB2FA
:101780003A4649462046FFF797FDB5F1FF3F1ED187
:10179000A36C73B139462046FFF7C9FDF8B1B8F123
:1017A000000F1ED00120C8F8000086F31188BDE8A4
:1017B000F883636ABBB104F1240000F097FDA0B187
:1017C000B8F1000F13D00120C8F80000EDE76B1C42
:1017D0005BB284F845300120E7E70020E5E701200F
:1017E000E3E70120E1E70120DFE70120DDE7012059
:1017F000DBE70000F0B585B0019260B1044699B115
:101800000125BDB94FF0500383F31188BFF36F8FEB
:10181000BFF34F8FFEE74FF0500383F31188BFF300
:101820006F8FBFF34F8FFEE7036C0BB90125E8E71D
:101830000025E6E70E4600F0F1FD10B9019B03B16B
:10184000002545B94FF0500383F31188BFF36F8F24
:10185000BFF34F8FFEE700272FE031462046FFF70A
:10186000A4FD013DA563236963B104F1100000F0FC
:101870003DFD38B14FF08052344B1A60BFF34F8FAB
:10188000BFF36F8FFFF7C8F9012005B0F0BDFFF778
:10189000C3F90020F9E702A800F06EFD012716E069
:1018A000002384F844301EE0002384F8453020E013
:1018B0002046FFF78CFD00F09BFBFFF78BF9A56B33
:1018C000002DCAD1019B002BE1D0002FE3D0FFF700
:1018D000A3F900F0E9FAFFF77DF994F844305BB220
:1018E000B3F1FF3FDCD094F845305BB2B3F1FF3F7A
:1018F000DAD0FFF791F901A902A800F049FDC8B9B3
:101900002046FFF7CCFC0028D2D0019904F1240036
:1019100000F0B8FC2046FFF75AFD00F069FB0028F4
:10192000CBD14FF08052094B1A60BFF34F8FBFF3FA
:101930006F8FC2E72046FFF74AFD00F059FB2046B3
:10194000FFF7ADFC0028B8D000209EE704ED00E0D2
:101950002DE9F84360B1044699B10123BBB94FF0BA
:10196000500383F31188BFF36F8FBFF34F8FFEE7F0
:101970004FF0500383F31188BFF36F8FBFF34F8F86
:10198000FEE7036C0BB90123E8E70023E6E71746FF
:101990008946FFF749FAEFF311864FF0500383F3BE
:1019A0001188BFF36F8FBFF34F8FD4F83880B8F131
:1019B000000F20D094F844506DB249462046FFF7FE
:1019C000F4FC08F1FF33A363B5F1FF3F0DD12369A8
:1019D0009BB104F1100000F089FC80B18FB10120AF
:1019E000386086F31188BDE8F8836B1C5BB284F81D
:1019F00044300120F5E70020F3E70120F1E7012062
:101A0000EFE70120EDE740B94FF0500383F3118871
:101A1000BFF36F8FBFF34F8FFEE710B50446FFF79C
:101A2000D9F8A46BFFF7F8F8204610BD0023072B68
:101A30000CD8074A52F833200AB10133F7E7044AB9
:101A400042F8331002EBC30358607047704700BF81
:101A50006822002070B504460D461646FFF7BAF816
:101A600094F844305BB2B3F1FF3F0DD094F84530A9
:101A70005BB2B3F1FF3F0BD0FFF7CEF8A36B5BB1C6
:101A80002046FFF7A4FC70BD002384F84430EDE746
:101A9000002384F84530EFE73246294604F124005C
:101AA00000F008FCECE700B583B0002202A941F881
:101AB000042DFFF74DFF019803B05DF804FB000013
:101AC0000A4B1B681B684BB901234BB9074B1B68BA
:101AD000DB68DB685A68064B1A6070470023F4E73E
:101AE0004FF0FF32024B1A60704700BF20210020E8
:101AF000D021002010B50446006BFEF7DFFF204622
:101B0000FEF7DCFF10BD2DE9F04781460D46174674
:101B10009A46089EDDF824800A9C9200A521206B3D
:101B200000F0E1FF236B07F18042013A03EB8207EB
:101B300027F007070023092B07D8E956E21882F897
:101B40003410EA560AB10133F5E7002384F83D303A
:101B5000042E00D90426E662A6640025E564201D53
:101B6000FFF751FB04F11800FFF74DFB2461C6F1AC
:101B70000506A6616462256584F8545052464946BC
:101B80003846FEF7FBFF2060B8F1000F01D0C8F81F
:101B90000040BDE8F087000038B5002407E004EB02
:101BA000840293000E481844FFF722FB0134042CF2
:101BB000F5D90C4D2846FFF71BFB0B4C2046FFF7D1
:101BC00017FB0A48FFF714FB0948FFF711FB094808
:101BD000FFF70EFB084B1D60084B1C6038BD00BFB3
:101BE00028210020A4210020B8210020D821002095
:101BF00004220020F02100202021002024210020A8
:101C000010B50446FEF7E6FF214A1368013313605E
:101C1000204B1B68002B32D01F4B1B683BB91D4B60
:101C20001B68DA6AE36A9A4201D81A4B1C601B4AA5
:101C30001368013313602364E36A01229A40184950
:101C4000086802430A6003EB83039A00211D1548CC
:101C50001044FFF7DBFAFEF7DFFF0F4B1B686BB199
:101C60000C4B1B68DA6AE36A9A4207D24FF0805243
:101C70000D4B1A60BFF34F8FBFF36F8F10BD054B35
:101C80001C601368012BD2D1FFF786FFCFE700BF9E
:101C90008C2100201C210020EC2100209C21002010
:101CA000A02100202821002004ED00E00F4B1B683C
:101CB000D3B110B5FEF78EFF0D4BDB68DC68201D3D
:101CC000FFF7CAFA0B4A1368013B1360074A13680F
:101CD000013B1360FEF7A0FF2046FFF70BFF034B0D
:101CE0001B68002BE6D110BD704700BF902100207B
:101CF000042200208C21002070B504460E461D4BA6
:101D00001D681D4B18680430FFF7A6FA50B91A4B2E
:101D10001B68DA6A012303FA02F218490B6823EA06
:101D200002030B60B4F1FF3F13D02C44124B1B682D
:101D30005C60A54216D8124B18680F4B1968043125
:101D4000FFF770FA0F4B1B689C4201D20D4B1C60D1
:101D500070BD002EE9D0084B196804310A48FFF71E
:101D600055FA70BD094B1868034B19680431FFF729
:101D700059FA70BD182200201C210020A02100204B
:101D800020210020D0210020F0210020242100204B
:101D900008B501E0FEF747FBFFF788FF064B1B681D
:101DA000012BF7D94FF08052044B1A60BFF34F8FCD
:101DB000BFF36F8FEEE700BF2821002004ED00E0A5
:101DC0002DE9F04385B006460F461546984690002B
:101DD000FEF71EFE00B381465820FEF719FE0446AA
:101DE000B0B1C0F83090CCB10023039302940D9BA6
:101DF00001930C9B009343462A4639463046FFF731
:101E000082FE2046FFF7FCFE012005B0BDE8F0830E
:101E10004846FEF753FEE6E70024E4E74FF0FF30C4
:101E2000F3E7000000B583B0194B01930023009342
:101E3000322218491848FFF7C3FF012807D00128AC
:101E400008D0B0F1FF3F1AD003B05DF804FB00F0FA
:101E5000B1FBF4E74FF0500383F31188BFF36F8FAA
:101E6000BFF34F8F4FF0FF320C4B1A6001220C4B27
:101E70001A6000220B4B1A60FEF74EFFE4E74FF0AA
:101E8000500383F31188BFF36F8FBFF34F8FFEE7CB
:101E9000CC210020B43B0000911D0000D021002087
:101EA000EC21002018220020024A1368013313603D
:101EB000704700BF98210020014B1868704700BF91
:101EC00018220020F8B53F4B1B68002B72D13E4B07
:101ED0001D6801351D60C5B93C4B1B681B6843B1CB
:101EE0004FF0500383F31188BFF36F8FBFF34F8F11
:101EF000FEE7364A1168364B186810601960354A9B
:101F0000136801331360FFF7DBFD334B1B689D4201
:101F100044D20024314B1B68DB6A03EB83039A0035
:101F20002F4B9B58012B00D901242E4B1B680BB95A
:101F3000FEF77AFA2C4B1B6803B101242046F8BD4A
:101F40000124224B1B681B6853B3002353BB1F4B58
:101F50001B68DB68DE6873689D4228D3371D3846EE
:101F6000FFF77AF9B36A1BB106F11800FFF774F9AD
:101F7000F36A01229A401D49086802430A6003EB94
:101F800083039A00394616481044FFF73FF9F26A76
:101F9000124B1B68DB6A9A42D2D2D2E70024D0E708
:101FA0000123D3E74FF0FF320B4B1A60B2E70A4A26
:101FB0001360AFE70B4A136801331360FEF734FA7E
:101FC0000024B7E7982100201822002020210020BB
:101FD00024210020D4210020D02100201C21002019
:101FE00028210020942100201C220020A021002074
:101FF00038B5354B1B6843B94FF0500383F3118854
:10200000BFF36F8FBFF34F8FFEE7FEF7E3FD2E4B5D
:102010001A68013A1A601B68002B50D12B4B1B68C1
:1020200023B90024FEF7F8FD204638BD0024284BD4
:102030001B681BB3264BDB68DC6804F11800FFF754
:102040000BF9251D2846FFF707F9E36A01229A409C
:102050002049086802430A6003EB83039A0029467B
:102060001D481044FFF7D2F8E26A1C4B1B68DB6A7C
:102070009A42DCD301221A4B1A60D8E70CB1FFF761
:102080001FFD184B1C6874B9154B1B68CBB14FF082
:102090008052154B1A60BFF34F8FBFF36F8F01242F
:1020A000C0E7013C07D0FFF70DFF0028F9D001225F
:1020B0000B4B1A60F5E700220A4B1A60E4E7002494
:1020C000B0E70024AEE700BF982100208C2100205B
:1020D000D8210020A0210020282100201C21002040
:1020E0001C2200209421002004ED00E038B550B1FE
:1020F000054689B94FF0500383F31188BFF36F8F02
:10210000BFF34F8FFEE74FF0500383F31188BFF307
:102110006F8FBFF34F8FFEE71C4B1B6843B14FF02F
:10212000500383F31188BFF36F8FBFF34F8FFEE728
:102130000C46FFF7B9FE164B18682A681444904203
:1021400016D2A2421AD9A0421AD300222C601AB188
:102150000021201AFFF7D0FDFFF74AFF38B94FF0F2
:1021600080520C4B1A60BFF34F8FBFF36F8F38BD97
:10217000A24207D8A04207D30022E7E70022E5E702
:102180000122E3E70122E1E70122DFE798210020B5
:102190001822002004ED00E010B5A8B10446104B51
:1021A0001B6843B14FF0500383F31188BFF36F8F67
:1021B000BFF34F8FFEE7FFF777FE00212046FFF7C2
:1021C0009BFDFFF715FF00E0002038B94FF080526B
:1021D000044B1A60BFF34F8FBFF36F8F10BD00BF6A
:1021E0009821002004ED00E0214B1B68C3B90022B8
:1021F000204B1A60204B1B68B3FA83F3DBB2C3F1A8
:102200001F0303EB83018A001C498A5862B94FF00F
:10221000500383F31188BFF36F8FBFF34F8FFEE737
:102220000122144B1A60704710B414489A00D41855
:10223000A10001444C6864684C601A449100083164
:10224000084484420BD003EB83039A000B4B1344E6
:102250005B68DA680A4B1A605DF8044B7047606887
:1022600003EB83029100054A0A445060EBE700BF8C
:10227000982100201C220020A021002028210020DD
:102280001C21002040B94FF0500383F31188BFF3A5
:102290006F8FBFF34F8FFEE710B50C46044B1968E4
:1022A0001831FEF7BFFF01212046FFF725FD10BDC5
:1022B0001C21002038B570B10C4615460A4A116839
:1022C0001831FEF7A3FF0DB14FF0FF342946204629
:1022D000FFF712FD38BD4FF0500383F31188BFF3B1
:1022E0006F8FBFF34F8FFEE71C21002038B5C36806
:1022F000DC6824B304F118052846FEF7ADFF184B3F
:102300001B682BBB251D2846FEF7A6FFE36A0122AA
:102310009A401449086802430A6003EB83039A0059
:10232000294611481044FEF771FFE26A0F4B1B6803
:10233000DB6A9A4211D901200D4B186038BD4FF06D
:10234000500383F31188BFF36F8FBFF34F8FFEE706
:1023500029460848FEF75AFFE7E7002038BD00BFCE
:1023600098210020A0210020282100201C210020ED
:102370001C220020D8210020034B1B680360034B64
:102380001B684360704700BFD42100201822002042
:10239000F8B5E0B1054619B30C46FEF71BFC1A4B25
:1023A00018686968421A2368B3F1FF3F28D02F6884
:1023B000164E3668B74201D0884223D29A4218D3CB
:1023C000002323600124FEF727FC2046F8BD4FF0D0
:1023D000500383F31188BFF36F8FBFF34F8FFEE776
:1023E0004FF0500383F31188BFF36F8FBFF34F8F0C
:1023F000FEE79B1A23602846FFF7BEFF0024E2E7B2
:102400000024E0E70124DEE718220020D421002088
:102410000122014B1A6070471C220020054B1B68EB
:1024200023B1054B1B681BB9022070470120704780
:1024300000207047EC2100209821002000284AD07D
:1024400038B50446274A1268904208D04FF050032E
:1024500083F31188BFF36F8FBFF34F8FFEE7C26C1A
:1024600042B94FF0500383F31188BFF36F8FBFF36E
:102470004F8FFEE7013AC264C06AA16C88422CD03B
:102480006ABB251D2846FEF7E7FE70B9E26A02EB3B
:1024900082018B001449CB583BB9012303FA02F2A5
:1024A00012490B6823EA02030B60A36CE362C3F1D9
:1024B0000502A261012404FA03F20C4908680243F0
:1024C0000A6003EB83039A00294607481044FEF78D
:1024D0009DFE204638BD00207047002038BD0020FA
:1024E00038BD00BF1C21002028210020A021002091
:1024F000064B1A681368B3FA83F35B09036013B9D8
:10250000D368186870470020704700BF2022002061
:1025100008B54160006191420CD8D21A83699A4291
:1025200001D3012008BD011D094B1868FEF77AFE92
:10253000002008BD9A4201D2994206D2011D054BE6
:102540001868FEF76FFE002008BD012008BD00BF1F
:10255000242200202022002038B5FEF73BFB0F4B41
:102560001B6813B1FEF758FB38BD0D4D2846FEF72A
:102570003FFE0C4C2046FEF73BFE0B4B1D600B4B09
:102580001C6000220C210A20FEF7B7FF034B1860E5
:102590000028E7D00649FFF749FAE3E75422002074
:1025A000282200203C22002020220020242200207B
:1025B000BC3B000000B583B0FFF7CEFF0D4B1B689E
:1025C0009BB10D4B019302230093002364220B491E
:1025D0000B48FFF7F5FB50B94FF0500383F3118818
:1025E000BFF36F8FBFF34F8FFEE70020F3E703B019
:1025F0005DF804FB5422002058220020C43B000058
:10260000C9280000C0B130B585B015460446174A48
:10261000106840B31A4601910295039405291CDC09
:10262000FFF7FCFE022810D000231A4601A90F482C
:102630000068FEF787FF14E04FF0500383F3118822
:10264000BFF36F8FBFF34F8FFEE70023089A01A9F6
:1026500006480068FEF776FF03E0002301A9FFF7B4
:1026600047F805B030BD0020FBE700BF5422002032
:1026700070B582B01A4B1B681A6852B3DB681E68CB
:10268000DC68251D2846FEF7E7FD636A204698476B
:10269000E369012BEED1A36933449E4207D2636004
:1026A000246129460E4B1868FEF7BCFDE2E70021C5
:1026B00000910B4632462046FFF7A4FF0028D9D1EF
:1026C0004FF0500383F31188BFF36F8FBFF34F8F29
:1026D000FEE7044A106802490860136002B070BD4A
:1026E000202200202422002038B50546FFF7E4FB15
:1026F0000446074B1B68984205D300232B60044B0C
:102700001C60204638BDFFF7B3FF01232B60F6E7BE
:102710005022002070B582B005460E46144B1B684F
:10272000DB68DC68201DFEF797FDE369012B04D010
:10273000636A2046984702B070BDA1692B463246B5
:1027400029442046FFF7E4FE0028F1D00021009143
:102750000B462A462046FFF755FF0028E8D14FF0E8
:10276000500383F31188BFF36F8FBFF34F8FFEE7E2
:102770002022002070B582B006460C46FFF794FB7D
:1027800001A8FFF7B1FF019B23BB05460CB9B0427E
:1027900019D22CB1114B1B681C68B4FA84F464097B
:1027A0002246711B0E4B1868FFF754F9FFF720FC07
:1027B00038B94FF080520B4B1A60BFF34F8FBFF305
:1027C0006F8F02B070BDFFF713FC29463046FFF74C
:1027D000A1FFF6E7FFF70CFCF3E700BF242200207F
:1027E0005422002004ED00E030B587B0002203A998
:1027F000344B1868FEF7FEFF002860D0039B002BC7
:10280000F4DB059C636913B1201DFEF725FD02A8CA
:10281000FFF76AFF039B092BE8D801A252F823F0C7
:10282000492800004928000049280000ED27000041
:1028300091280000B728000049280000492800001E
:10284000ED270000912800000499A5690B46024677
:1028500029442046FFF75CFE0028C7D0636A204663
:102860009847E369012BC1D1A269002100910B4671
:10287000049802442046FFF7C5FE0028B6D14FF069
:10288000500383F31188BFF36F8FBFF34F8FFEE7C1
:102890000499A16131B10346024601442046FFF785
:1028A00037FEA3E74FF0500383F31188BFF36F8F18
:1028B000BFF34F8FFEE72046FEF700F996E707B01B
:1028C00030BD00BF5422002000B583B001A8FFF73F
:1028D0000FFE0199FFF74EFFFFF786FFF6E708B5F9
:1028E00000F0B8F8582303604FF0FF3008BD08B57A
:1028F00000F0B0F8582303604FF0FF3008BD08B572
:1029000000F0A8F858230360002008BD08B500F0C7
:10291000A1F8582303604FF0FF3008BD1249134A55
:10292000134B9A42BEBF51F8040B42F8040BF8E770
:1029300010485921016016210160882101600E486C
:10294000416841F4804141600C48416841F0020116
:102950004160416841F00401416000F041F80548E0
:1029600000210160FDF77CFC703C000000000020AD
:10297000B000002000010040000200400070004054
:10298000FEE700BF08B5FDF705FE0F4B18600F4BC3
:102990001B6903F00703022B02D00D4A52F82300F3
:1029A0000A4B1B6A03F00F030133B0FBF3F0094B32
:1029B000186000F5F42000F59070074BA3FB003081
:1029C000800C064B186008BD180000200002004073
:1029D000200000201C00002083DE1B431400002088
:1029E000174AD2F8883043F47003C2F88830154A89
:1029F000D36C23F00F0343F00803D364124BD3F8D6
:102A0000982042F48022C3F898209A6842F002028B
:102A10009A600E4AD2F8041101F0F731C2F804119D
:102A2000D2F8081101F0F731C2F808119A6822F0C3
:102A300002029A60064A136823F0F003136070479D
:102A400000ED00E000C00040000200400010044023
:102A500040410040014B1868704700BF4000002013
:102A600008B5074B044613B10021AFF30080054BB6
:102A70001868836A03B19847204600F0FBFF00BF47
:102A800000000000CC3B000070B50D4E0D4CA41BA7
:102A9000A4100025A54209D10B4E0C4C00F0ECFF10
:102AA000A41BA4100025A54205D170BD56F8253001
:102AB00098470135EEE756F8253098470135F2E79B
:102AC000A4000020A4000020A4000020A8000020F2
:102AD00010B5431E0A44914200D110BD11F8014BBC
:102AE00003F8014FF7E702440346934200D17047D1
:102AF00003F8011BF9E700000FB40A4B13B51C687B
:102B000024B1A36913B9204600F024FA05AB049A56
:102B1000A1680193204600F0E1FB02B0BDE810403F
:102B200004B070474000002070B50E46054618B14D
:102B300083690BB900F00EFAAB69AC6813B928468B
:102B400000F008FA234B9C4217D16C68A3891B073D
:102B50001DD52369DBB1013EA36816F8011F013BB7
:102B6000A360E9B9002B2EDA22460A21284600F09C
:102B70003FF8013011D00A2070BD174B9C4201D1A3
:102B8000AC68E3E7154B9C4208BFEC68DEE72146E2
:102B9000284600F07FF80028DDD04FF0FF3070BDF0
:102BA000002B04DAA269934206DB0A2904D02368C9
:102BB0005A1C22601970CFE72246284600F018F808
:102BC0000130C9D1E9E723680A205A1C2260187035
:102BD00070BD00BFF03B0000103C0000D03B000087
:102BE000024B01461868FFF79FBF00BF400000205E
:102BF000F8B50E461446054618B183690BB900F0C6
:102C0000A9F9214B9C422AD16C68A369A360A389CE
:102C10001A072ED5236963B323692068C01A636934
:102C2000F6B29842374604DB2146284600F028F9E0
:102C300028BBA368013BA36023685A1C22601E7056
:102C400063690130984204D0A389DB0719D50A2EA5
:102C500017D12146284600F013F990B10FE00B4B35
:102C60009C4201D1AC68D0E7094B9C4208BFEC689C
:102C7000CBE72146284600F00DF80028CCD04FF0D5
:102C8000FF373846F8BD00BFF03B0000103C0000A5
:102C9000D03B0000324B70B51D6806460C4625B18E
:102CA000AB6913B9284600F055F92E4B9C420FD161
:102CB0006C68B4F90C309AB215072CD4D00611D434
:102CC0000922326043F04003A3814FF0FF3070BD12
:102CD000254B9C4201D1AC68EBE7244B9C4208BFDA
:102CE000EC68E6E7510712D5616B41B104F144038A
:102CF000994202D0304600F01BFA00236363A38997
:102D000023F02403A3810023636023692360A38944
:102D100043F00803A38123694BB9A38903F420730B
:102D2000B3F5007F03D02146304600F0C1F9A289F7
:102D300012F001030CD00023A36063695B42A3611E
:102D4000236953B9B4F90C3013F08000BAD170BDC7
:102D5000920758BF6369A360F2E70020F7E700BF5E
:102D600040000020F03B0000103C0000D03B000081
:102D70008A892DE9F041054610070C465AD44B6864
:102D8000002B05DC0B6C002B02DC0020BDE8F08181
:102D9000E66A002EF9D0002312F480522F682B60CF
:102DA00033D0606DA3895A0705D56368C01A636B79
:102DB0000BB1236CC01A00230246E66A216A28463A
:102DC000B047431CA38906D129681D294BD82B4A3B
:102DD000CA40D60747D500226260D9042269226022
:102DE00004D5421C01D12B6803B96065616B2F606B
:102DF0000029CAD004F14403994202D0284600F0C9
:102E000097F900206063BDE8F081216A012328461C
:102E1000B047411CC6D12B68002BC3D01D2B01D05D
:102E2000162B01D12F60B0E7A38943F04003A381A3
:102E3000BDE8F0810F69002FA7D093070E6808BF87
:102E40004B690F6018BF0023A6EB07088B60B8F131
:102E5000000F9ADD43463A46216AA66A2846B047E3
:102E6000002807DCA38943F04003A3814FF0FF3023
:102E7000BDE8F0810744A8EB0008E8E70100402026
:102E800038B50B6905460C46DBB118B183690BB93F
:102E900000F060F80C4B9C4209D16C68B4F90C301E
:102EA0007BB121462846BDE83840FFF761BF074B9C
:102EB0009C4201D1AC68F1E7054B9C4208BFEC682D
:102EC000ECE7002038BD00BFF03B0000103C0000E4
:102ED000D03B0000014900F0A9B800BF812E0000DE
:102EE000002310B50446036043608360818143661C
:102EF000C281036143618361194608225C30FFF798
:102F0000F2FD054B6362054BA362054BE362054B83
:102F10002462236310BD00BF5538000077380000DD
:102F2000AF380000D338000070B54A1E68255543FD
:102F30000E4605F1740100F049F9044640B1002144
:102F400080E842000C30A06005F16802FFF7CBFD7D
:102F5000204670BD836910B5044633BB8364C364E7
:102F60000365124B124A1B688262984204BF012318
:102F7000836100F01FF86060204600F01BF8A0603D
:102F8000204600F017F80022E06004216068FFF797
:102F9000A7FF01220921A068FFF7A2FF0222122148
:102FA000E068FFF79DFF0123A36110BDCC3B00004B
:102FB000D52E0000F8B51C4B1E68B369074613B93F
:102FC0003046FFF7C7FF4836B4687368013B03D546
:102FD000336833B13668F7E7B4F90C506DB1683433
:102FE000F4E704213846FFF79FFF30600028F1D155
:102FF0000C233B6004462046F8BD4FF6FF73E38187
:103000000123A38165662560A56065602561656112
:10301000A5610822294604F15C00FFF764FD6563A1
:10302000A563A564E564E6E7CC3B00002DE9F84321
:103030008046894600F14804002614B93046BDE8B0
:10304000F883A5686768013F01D52468F5E7AB8977
:10305000012B07D9B5F90E30013303D0294640467C
:10306000C84706436835EEE770B50E46B1F90E1055
:10307000002990B014461D4607DA00232B60B3895F
:103080001A0610D44FF480630EE001AA00F048FC49
:103090000028F2DB029A02F47042A2F500535A4271
:1030A0005A412A60EEE740230020236010B070BD33
:1030B0008B8973B59D0706460C4607D504F1470377
:1030C000236023610123636102B070BD01AB6A46D6
:1030D000FFF7CAFF00990546304600F077F848B977
:1030E000B4F90C309A05EFD423F0030343F0020344
:1030F000A381E3E70D4BB362A389206043F0800313
:10310000A381009B6361019B20615BB1B4F90E1048
:10311000304600F017FC28B1A38923F0030343F0E5
:103120000103A381A3891D43A581CDE7D52E00000E
:1031300038B50546002945D051F8043C0C1F002B3A
:10314000B8BFE41800F074FC1F4A1368104633B986
:10315000636014602846BDE8384000F06ABCA342B2
:103160000CD921686218934204BF1A685B686360D7
:1031700004BF521822600460ECE713465A680AB193
:10318000A242FAD919685818A0420BD1206801440C
:10319000581882421960DDD1106852685A600144A3
:1031A0001960D7E702D90C232B60D3E720682118D8
:1031B0008A4204BF11685268626004BF0918216026
:1031C0005C60C7E738BD00BF5C22002070B5CD1C35
:1031D00025F0030508350C2D38BF0C25002D0646BB
:1031E00001DBA94203D90C233360002070BD00F03D
:1031F0001FFC234A1468214691B9224C23681BB94D
:10320000304600F017FB20602946304600F012FBE4
:10321000431C26D10C233360304600F00AFCE4E75F
:103220000B685B1B1AD40B2B0FD90B60CD50CC183D
:10323000304600F0FEFB04F10B00231D20F00700D8
:10324000C31A1BD05A42E25070BD8C420DBF636856
:103250004B686360136018BF0C46E9E70C46496889
:10326000CAE7C41C24F00304A04205D0211A30464A
:1032700000F0E0FA0130CDD02560D9E770BD00BF85
:103280005C220020602200209368013B002B10B4D8
:10329000936009DA9469A34202DBCBB20A2B03D113
:1032A0005DF8044BFFF7A4BC1368581C106019703C
:1032B000C8B25DF8044B7047F8B506460F46144691
:1032C000D518AC4201D1002007E03A4614F8011BA2
:1032D0003046FFF7D9FF431CF3D1F8BD2DE9F04F7D
:1032E0009DB00C4617460393064618B183690BB987
:1032F000FFF730FE7C4B9C4257D17468A3891807B6
:103300005DD52369002B5AD00023099320238DF823
:10331000293030238DF82A304FF0010BB84645464E
:1033200015F8013B002B55D1B8EB070A0BD05346DB
:103330003A4621463046FFF7BFFF013000F0C48017
:10334000099B5344099398F80030002B00F0BC808F
:1033500000234FF0FF3204930793059206938DF8F4
:1033600053301A9305222978604800F011FB05F1CB
:103370000108049B002831D1D90644BF20228DF8D2
:1033800053201A0744BF2B228DF853202A782A2A6B
:103390002CD0079A00210A20A846013598F8003061
:1033A000303B092B6DD971B326E0514B9C4201D1C2
:1033B000B468A3E74F4B9C4208BFF4689EE72146E0
:1033C0003046FFF767FC00289ED04FF0FF301DB05D
:1033D000BDE8F08F252BA7D0A846A0E7434A801A66
:1033E0000BFA00F0184304904546BBE7039A111D01
:1033F00012680391002A01DB079204E0524243F075
:1034000002030792049398F800302E2B10D198F8FD
:1034100001302A2B08F1010137D1039B1A1D1B68CB
:103420000392002BB8BF4FF0FF3308F10208059359
:10343000314D98F800100322284600F0A9FA40B157
:103440004023401B03FA00F0049B0343049308F15C
:10345000010898F8001029488DF82810062208F174
:10346000010700F095FA002834D0254B03BB039BDD
:10347000073323F0070308330393099B4B44099355
:103480004CE700FB0232012186E700230593184632
:103490000A258846013198F80020303A092A03D9D4
:1034A000002BC5D00590C3E705FB00200123F0E702
:1034B00003AB00932246134B04A93046AFF30080C0
:1034C000B0F1FF3F8146D8D1A3895B063FF57DAFC0
:1034D00009987CE703AB009322460A4B04A93046C7
:1034E00000F088F8ECE700BFF03B0000303C000043
:1034F000103C0000D03B0000363C00003A3C00008D
:1035000000000000B93200002DE9F04791461F4647
:103510008A680B69DDF820809342B8BF1346C9F86A
:10352000003091F8432006460C4612B10133C9F829
:1035300000302368990642BFD9F800300233C9F839
:103540000030256815F0060507D104F1190AE36873
:10355000D9F800209B1A9D4229DB94F84330226859
:10356000003318BF012392062ED404F143023946DA
:103570003046C047013021D02368E568D9F80020E3
:1035800003F00603042B08BFAD1AA36822690CBF21
:1035900025EAE57500259342C4BF9B1AED184FF04C
:1035A00000091A344D451BD10020BDE8F0870123E6
:1035B000524639463046C047013003D14FF0FF3004
:1035C000BDE8F0870135C2E7E1185A1C302081F8C8
:1035D0004300224494F8451082F843100233C4E7B4
:1035E0000123224639463046C0470130E6D009F172
:1035F0000109D7E72DE9F04317460A7E85B06E2A08
:10360000984606460C460C9B01F1430E00F0BC8028
:103610001AD8632A2ED00AD8002A00F0C880582A67
:1036200000F08A8004F1420584F842202AE0642AEE
:1036300001D0692AF6D121681A6811F0800F23D0D1
:10364000111D1960136827E0732A00F0B48008D8B0
:103650006F2A2AD0702AE5D10A6842F020020A6057
:1036600003E0752A21D0782ADCD1782284F845201D
:103670006E4964E01A6801F14205111D1960136872
:1036800084F842300123A3E011F0400F02F104015D
:103690001960D7D0B2F90030002B03DA2D225B423B
:1036A00084F8432062490A2217E02068196810F064
:1036B000800F03D0081D18600B6806E010F0400F63
:1036C00001F104001860F7D00B8859496F2A14BF24
:1036D0000A220822002084F843006568A560002DB6
:1036E000C0F29C80206820F004002060002B3FD1B5
:1036F000002D40F095807546082A0BD12368DA0723
:1037000008D5236962689A42DEBF302305F8013C80
:1037100005F1FF35AEEB05032361CDF800803B4694
:1037200003AA21463046FFF7EFFE013055D14FF096
:10373000FF3005B0BDE8F08381F845203C492268A0
:10374000186812F0800F00F104051D6001D00368B5
:1037500002E05506FBD50388D00744BF42F02002A3
:1037600022601BB9226822F0200222601022B1E7F9
:103770007546B3FBF2F002FB1033CB5C05F8013D5C
:1037800003460028F5D1B7E708681A68496910F0C0
:10379000800F04D0101D18601368196007E010F046
:1037A000400F02F1040018601368F6D0198000235E
:1037B00023617546B1E71A68111D196015686268C2
:1037C0000021284600F0E4F808B1401B60606368FF
:1037D0002361002384F843309FE723692A46394652
:1037E0003046C0470130A2D023689B0707D500258B
:1037F00004F11909E368039A9B1A9D4205DBE0680E
:10380000039B9842B8BF184693E701234A463946BE
:103810003046C04701308AD00135EBE7002BA7D1F5
:103820000B7884F8423004F1420565E7523C000011
:10383000413C000038B5064C00230546084623608D
:1038400000F00AF9431C02D1236803B12B6038BD94
:10385000A822002010B50C46B1F90E1000F0EAF8CD
:103860000028ABBF636DA3891B1823F48053ACBF42
:103870006365A38110BD2DE9F0411F468B89DB05EF
:1038800005460C46164605D502230022B1F90E1056
:1038900000F068F8A389B4F90E1023F48053A381D3
:1038A00032463B462846BDE8F04100F017B810B557
:1038B0000C46B1F90E1000F055F8431CA38915BF52
:1038C000606523F4805343F48053A38118BFA38120
:1038D00010BDB1F90E1000F013B8000038B5074C58
:1038E000054608461146002222601A46FCF7BEFF34
:1038F000431C02D1236803B12B6038BDA8220020ED
:1039000038B5064C0023054608462360FEF7E7FF5E
:10391000431C02D1236803B12B6038BDA8220020CC
:1039200038B5074C00230546084611462360FEF7CC
:10393000DEFF431C02D1236803B12B6038BD00BFFA
:10394000A822002038B5064C00230546084623600F
:10395000FEF7D5FF431C02D1236803B12B6038BDAD
:10396000A822002038B5074C05460846114600221B
:1039700022601A46FEF7CAFF431C02D1236803B136
:103980002B6038BDA82200200000000000000000CD
:1039900001F0FF01102A2BDB10F0070F08D010F800
:1039A000013B013A8B422DD010F0070F42B3F6D104
:1039B000F0B441EA012141EA014122F007047FF01D
:1039C00000070023F0E80256083C85EA010586EA74
:1039D000010685FA47F5A3FA87F586FA47F6A5FAB0
:1039E00087F68EB9EED1F0BC01F0FF0102F00702BC
:1039F00032B110F8013B013A83EA010313B1F8D167
:103A00000020704701387047002D06BF3546033847
:103A1000073815F0010F07D1013015F4807F02BF80
:103A2000013015F4C03F0130F0BC0138704700BFD1
:103A30007047704738B5074C0546084611460022C6
:103A400022601A46FCF734FF431C02D1236803B1FD
:103A50002B6038BDA8220020044A05491368002BBA
:103A600008BF0B46184410601846704764220020B7
:103A7000B0220020FEE700BFF8B500BFF8BC08BCCC
:103A80009E467047F8B500BFF8BC08BC9E4670471C
:103A9000436865636B0000004672656552544F537E
:103AA000206973207374617274696E67202E2E2EE4
:103AB000000000004552524F5220494E20504F4CBA
:103AC0004C2051000102020400000000040000002C
:103AD000080000000C0000000000000004000000CE
:103AE0000C00000010000000496E20486172642044
:103AF0004661756C742048616E646C6572000000EC
:103B0000723020203D20307825780A007231202044
:103B10003D20307825780A00723220203D20307810
:103B200025780A00723320203D20307825780A005D
:103B3000723132203D20307825780A006C722020C6
:103B40003D20307825780A00706320203D203078B1
:103B500025780A00707372203D20307825780A009D
:103B6000001BB7000000000000800000001BB70031
:103B7000506F6C6C5F546573745F5175657565004B
:103B800051436F6E734E42005150726F644E42004B
:103B90007374617274204C454420666C61736820B4
:103BA0007461736B2025640A000000004C45447862
:103BB0000000000049444C4500000000546D725163
:103BC00000000000546D7220537663004400002012
:103BD00000000000000000000000000000000000E5
:103BE00000000000000000000000000000000000D5
:103BF00000000000000000000000000000000000C5
:103C000000000000000000000000000000000000B4
:103C100000000000000000000000000000000000A4
:103C20000000000000000000000000000000000094
:103C3000232D302B2000686C4C0065666745464795
:103C40000030313233343536373839414243444518
:103C50004600303132333435363738396162636487
:083C6000656600000000000091
:083C6800F8C5FF7F0100000018
:103C7000F81F0000AAAAAAAAFFFF0000FFFF000089
:103C8000010000000C000000001BB700001BB70083
:103C9000001BB7000080000000000000102700009B
:103CA000000000000000000000000000001BB70042
:103CB0004400002000000000F03B0000103C000029
:103CC000D03B0000000000000000000000000000E9
:103CD00000000000000000000000000000000000E4
:103CE00000000000000000000000000000000000D4
:103CF00000000000000000000000000000000000C4
:103D000000000000000000000000000000000000B3
:103D10000000000019020000F50100000000000092
:040000030000291DB3
:00000001FF
