:10000000000002206D090000D109000091070000E6
:10001000D1090000D1090000D10900000000000052
:10002000000000000000000000000000D1090000F6
:10003000D109000000000000D1090000D109000032
:10004000D1090000D1090000D1090000D109000048
:10005000D109000000000000D1090000D109000012
:10006000D1090000D1090000D1090000D109000028
:10007000D1090000D1090000D1090000D109000018
:10008000D1090000D1090000D1090000D109000008
:10009000D1090000D1090000D1090000D1090000F8
:1000A000D1090000D1090000D1090000D1090000E8
:1000B000D1090000D1090000D1090000D1090000D8
:1000C000D1090000D1090000D1090000D1090000C8
:1000D000D1090000D1090000D1090000D1090000B8
:1000E000D1090000D1090000D1090000D1090000A8
:1000F000D109000000000000D1090000D109000072
:10010000D1090000D1090000D1090000D109000087
:10011000D1090000D1090000D1090000D109000077
:10012000D1090000D1090000D1090000D109000067
:10013000D109000000000000D1090000000000000B
:10014000D1090000D1090000D1090000D109000047
:10015000D109000000000000D1090000D109000011
:10016000D1090000D1090000D1090000D109000027
:10017000D1090000D1090000D1090000D109000017
:10018000D1090000D1090000D109000000000000E1
:10019000D1090000D1090000D1090000D1090000F7
:1001A000D1090000D1090000D109000000000000C1
:1001B000D1090000D109000000000000000000008B
:1001C000000000000000000000000000000000002F
:1001D00000000000D1090000D1090000D109000091
:1001E000D1090000D1090000D1090000D1090000A7
:1001F000D109000010B5054C237833B9044B13B175
:100200000448AFF300800123237010BDE8090020EB
:1002100000000000E06500000C4B43B10C480D49A4
:1002200010B5AFF300800C48036823B910BD0A482D
:10023000036833B97047094B002BF7D0BDE8104075
:100240001847064B002BF5D0184700BF00000000F0
:10025000E0650000EC090020E40900200000000037
:10026000154B002B08BF134B9D46A3F5803A002188
:100270008B460F461348144A121A00F051FC0F4BDC
:10028000002B00D098470E4B002B00D09847002041
:10029000002104000D000D48002802D00C4802F097
:1002A00061F900F015FC2000290000F055F800F07D
:1002B000FFFB00BF0000080000000220000000005B
:1002C00000000000E8090020640A00206525000005
:1002D0004537000010B54FF080435922C3F8002184
:1002E0001622C3F800218822C3F80021D3F8003178
:1002F000002BF0D002F14022B832136823F0F00353
:100300001360012000F092F8012000F0ADF80F48D2
:1003100000F0C0F911220E4B5A630E4C204600F03B
:100320008DF800221146204600F026F800F052FB1E
:100330004FF08043DA6B22F47F02DA63DA6B42F427
:10034000CC02DA630022C3F8002110BD00B0710BAB
:1003500000020040103D805708B5FFF7BBFF4FF487
:10036000E131034800F054FA024800F089FCFEE74E
:10037000000007409C62000070B4C0F38724C4B141
:100380004FF08043D3F8F431DBB2012B25D0C0F31A
:100390008143022B40D0032B40D003F1805388339C
:1003A0009B001D68C0F34416B44025EA04042243B0
:1003B0001A60C0F3426272B1C0F3017303F180535B
:1003C00084339B001C68C0F3045002FA00F024EA56
:1003D00000000143196070BC7047C0F38143022BD9
:1003E0000AD0022B0ED0022B12D0032B12D003F115
:1003F000805388339B00D4E700F01F051F2DF0D1F8
:10040000074BCEE700F01F051D2DECD1044BC8E7CC
:10041000044BC6E7044BC4E7024BC2E7024BC0E7FC
:10042000280200402C02004030020040024A1368BB
:1004300018431060704700BF0002004000F01F0228
:1004400001239340800F800000F18040D0F8042207
:100450001343C0F804327047024A136C43F48033EC
:100460001364704700020040074B084A126D30EADF
:10047000020204D05A1E002B03DD1346F5E70120CB
:1004800070470020704700BF80F520000002004048
:10049000F8B506460F46104C256D05F0100523688B
:1004A00043F0040323601020FFF7DEFF236943F0CD
:1004B00007032361216A21F00F013943216220697A
:1004C00020F007003043206100F084FA1DB9236852
:1004D00023F004032360F8BD0002004082B0124BF9
:1004E0001B680193114B1B6C13F4A02F19D113F44B
:1004F000003F02D00E4802B07047C3F3813202A918
:100500000A4412F8042CC3F30800811CC3F34423EB
:10051000084800FB01F003FB0223B0FBF3F0C0002E
:10052000E9E70020E7E700BFA86200000002004002
:10053000001BB700C0C62D002DE9F84F04468A46BF
:10054000FFF78AFFE4B94C4A136843F001031360D4
:100550000120FFF789FF4FF0000E484B5344484AF3
:10056000934263D9002C40F0828044F21E22424B19
:100570001A640420FFF778FFFFF7B0FFBDE8F88F9B
:100580003D4A136843F0040313601020FFF76CFF2B
:100590004FF4002EE1E74FEA8A0C44E04FEA4A0CA0
:1005A00041E0CB1A12E0013240F201239A4219D8FD
:1005B000C0F35D0303FB02F330491944314DA942F6
:1005C000F1D84FEA9C018B42EBD95B1A9F42EAD9E2
:1005D00023B14C46464693461F46E4E74C46464602
:1005E00093461F4608F10108B8F1200F0CD85FB1FF
:1005F0002548B0FBF8F0A0F57413A3F51063234A67
:100600009342EFD80222CFE709F10109B9F1040FB3
:1006100015D8A7B1B9F1030FF6D0B9F1040FBAD0CC
:10062000B9F1020FBAD04FF00208DDE7D44600243A
:100630002646A3464FF0FF374FF00109E6E7631E59
:100640004EEA8333721E43EA4223ABF102021343A4
:10065000094A13640420FFF707FF04FB06F40A4865
:10066000B0FBF4F000FB0BF04000BDE8F88F084A47
:10067000014B1A647DE700BF00020040800F05FDBA
:100680008074D21AC0687804001BB70000093D00CE
:100690001E42080070B506461B4B1D6D05F0100587
:1006A0001A4B984200D91E46174C236843F00403A6
:1006B00023601020FFF7D8FE236943F0070323616E
:1006C000236A23F00F032362236813F0010F10D075
:1006D00031460020FFF730FF044600210220FFF7DB
:1006E000D7FE25B9084A136823F004031360204697
:1006F00070BD31464FF40020FFF71EFF0446024B49
:100700001D6D05F01005E8E70002004000B0710B18
:1007100010B504460168104800F050FA61680F48AF
:1007200000F04CFAA1680E4800F048FAE1680D4864
:1007300000F044FA21690C4800F040FA61690B4866
:1007400000F03CFAA1690A4800F038FAE16909486A
:1007500000F034FA10BD00BFE4620000F062000057
:10076000FC620000086300001463000020630000C6
:100770002C6300003863000008B50446034800F00D
:100780007FFA2046FFF7C4FFFEE700BFCC620000FF
:10079000074B04207146084204D0EFF309807146EC
:1007A000FFF7EABFEFF30880FFF7E6BFFEE700BF01
:1007B0007907000030B4134605E091F900500D4B65
:1007C0001D60234601315C1E8BB10A4B9B6913F4FB
:1007D000000FFAD191F900300A2BEED10D25054B0F
:1007E0001D60044B9B6913F4000FFAD1E5E7104636
:1007F00030BC704700000740044B9B6913F4804FE6
:10080000FAD1024B1B680B700120704700000740B3
:10081000F0B585B004460E463C4B0FCB04AD05E960
:100820000F003B4B9C4232D03A4B9C4237D03A4B64
:100830009C423CD0394B9C4241D0394B9C4246D0E3
:10084000384B9C424BD000273D46002323630323B3
:10085000E360A36823F4702323F0F003A360012D69
:1008600044D096B104AB03EB850555F8102C013745
:10087000B2FBF7F202EB5603B3FBF6F3023BB3F520
:10088000803F3BD243F04053636205B0F0BD264B3E
:100890005D69C5F301651F6AC7F30327D5E7224BDE
:1008A0005D69C5F381651F6AC7F30337CDE71E4B4A
:1008B000DD69C5F301651F6B07F00F07C5E71A4B2C
:1008C000DD69C5F381651F6BC7F30317BDE7164BE1
:1008D000DD69C5F301751F6BC7F30327B5E7124B3D
:1008E000DD69AD0F1F6BC7F30337AEE7FFF7F6FD0A
:1008F00004AB03EB850343F8100CB2E702EBC6022E
:10090000B2FBF6F63609023E6662BEE744630000BB
:10091000000007400010074000200740003007405B
:1009200000400740005007400002004008B500F0BA
:10093000B9F8582303604FF0FF3008BD08B500F048
:10094000B1F8582303604FF0FF3008BD08B500F040
:10095000A9F858230360002008BD08B500F0A2F8EC
:10096000582303604FF0FF3008BD00001249134ABE
:10097000134B9A42BEBF51F8040B42F8040BF8E740
:1009800010485921016016210160882101600E483C
:10099000416841F4804141600C48416841F00201E6
:1009A0004160416841F00401416000F041F80548B0
:1009B00000210160FFF754FCEC65000000000020FE
:1009C000E8090020000100400002004000700040E3
:1009D000FEE700BF08B5FFF781FD0F4B18600F4B16
:1009E0001B6903F00703022B02D00D4A52F82300C3
:1009F0000A4B1B6A03F00F030133B0FBF3F0094B02
:100A0000186000F5F42000F59070074BA3FB003050
:100A1000800C064B186008BD040000200002004056
:100A20000C0000200800002083DE1B430000002093
:100A3000174AD2F8883043F47003C2F88830154A58
:100A4000D36C23F00F0343F00803D364124BD3F8A5
:100A5000982042F48022C3F898209A6842F002025B
:100A60009A600E4AD2F8041101F0F731C2F804116D
:100A7000D2F8081101F0F731C2F808119A6822F093
:100A800002029A60064A136823F0F003136070476D
:100A900000ED00E000C000400002004000100440F3
:100AA00040410040014B1868704700BF2C000020F7
:100AB00008B50021044601F0E1FC044B1868C36B43
:100AC00003B19847204605F0DBFB00BF54630000EC
:100AD00070B50F4E0F4D761BB61018BF002405D011
:100AE000013455F8043B9847A642F9D10A4E0B4D04
:100AF000761B05F0C7FBB61018BF002406D00134E2
:100B000055F8043B9847A642F9D170BD70BD00BFAF
:100B1000D8090020D8090020E0090020D8090020C9
:100B200070B4860746D0541E002A41D0CAB203468C
:100B300002E014F1FF343BD303F8012B9D07F8D1F9
:100B4000032C2ED9CDB245EA05250F2C45EA0545E3
:100B500019D903F110022646103E0F2E42F8105C00
:100B600042F80C5C42F8085C42F8045C02F11002A6
:100B7000F2D8A4F1100222F00F0204F00F04103298
:100B8000032C13440DD91E462246043A032A46F884
:100B9000045BFAD8221F22F003020432134404F04B
:100BA00003042CB1C9B21C4403F8011B9C42FBD1C5
:100BB00070BC704714460346C2E700BF0FB400B5CF
:100BC000074983B004AB086853F8042B816801938C
:100BD00000F0E6F803B05DF804EB04B0704700BF26
:100BE0002C000020F0B5054689B008460C4600F000
:100BF00067F8AB6B214F04940126441C04A9022220
:100C000003940590AC68069707960191029253B33E
:100C1000636E13F0010FB4F90C309AB201D1900554
:100C200025D5910406D4626E43F4005322F4005299
:100C3000A3816266284601AA214602F0D3FE636EB4
:100C400000280CBF0A254FF0FF35DA0702D4A3892C
:100C50009B0502D5284609B0F0BDA06D03F078F8D9
:100C6000284609B0F0BD284602F034FDD0E7A06D5B
:100C700003F06CF8B4F90C309AB2D2E75863000074
:100C8000024B01461868FFF7ADBF00BF2C000020E3
:100C90000000000000000000000000000000000054
:100CA0000000000000000000000000000000000044
:100CB0000000000000000000000000000000000034
:100CC00090F800F06DE9024520F007016FF0000C8C
:100CD00010F0070491F820F040F049804FF0000434
:100CE0006FF00700D1E9002391F840F000F108000F
:100CF00082FA4CF2A4FA8CF283FA4CF3A2FA8CF347
:100D00004BBBD1E9022382FA4CF200F10800A4FAAD
:100D10008CF283FA4CF3A2FA8CF3E3B9D1E9042301
:100D200082FA4CF200F10800A4FA8CF283FA4CF338
:100D3000A2FA8CF37BB9D1E9062301F1200182FAF2
:100D40004CF200F10800A4FA8CF283FA4CF3A2FAF8
:100D50008CF3002BC6D0002A04BF04301A4612BA06
:100D6000B2FA82F2FDE8024500EBD2007047D1E909
:100D7000002304F00305C4F100004FEAC50514F098
:100D8000040F91F840F00CFA05F562EA05021CBF69
:100D900063EA050362464FF00004A9E70000000083
:100DA0002DE9F04FBFB01D468A4691460446049097
:100DB00002F0BAFF036811931846FFF781FF0A9506
:100DC00010901CB1A36B002B00F06282DAF8643043
:100DD000BAF90C2013F0010F93B202D1990540F13A
:100DE00078829F040AD4DAF8641042F4005321F4A4
:100DF0000051AAF80C30CAF864109BB21E0740F1EB
:100E00002682DAF81020002A00F0218203F01A026C
:100E10000A2A00F041829FED8E7B00238DED0E7B30
:100E20000D93239322931293139307932EAB219345
:100E30009846CDF818A099F800304C46EBB1252B18
:100E400002D11AE0252B03D014F8013F002BF9D171
:100E5000A4EB09058DB1229B239AC8F800900133B9
:100E60002A44072BC8F804502392229300F30582EA
:100E700008F10808079B2B4407932378002B00F008
:100E8000FE8300231A468DF86730194608939B4667
:100E900066784FF0FF3304F10109059309F1010968
:100EA000A6F12003582B00F2CD83DFE813F0E50212
:100EB000CB03CB035403CB03CB03CB03CB03CB0339
:100EC000CB0359030D03CB031E02ED02CB03080332
:100ED0003F033F033F033F033F033F033F033F0302
:100EE0003F03CB03CB03CB03CB03CB03CB03CB031E
:100EF000CB03CB03CB034E036703CB036703CB03C7
:100F0000CB03CB03CB03B003CB03CB036F00CB03EB
:100F1000CB03CB03CB03CB035900CB03CB0323037E
:100F2000CB03CB03CB03CB03CB03CB03CB03CB0351
:100F3000CB03CB0329037802670367036703BC0273
:100F40007802CB03CB03C102CB03CE0271001203A4
:100F50004B02CB035702CB035B00CB03CB03230233
:100F60004BF0100B1BF0200F40F061830A9A1BF02E
:100F7000100F134640F0CA851BF0400F00F0C685E5
:100F800014880432002501230A9214E04BF0100B60
:100F90001BF0200340F040831BF0100240F0A585B9
:100FA0001BF0400300F0A1850A9913460A4604325B
:100FB0000C880A9200254FF0000A8DF867A0059969
:100FC0004A1C00F010822BF08002029254EA0502C3
:100FD00040F00F82002940F07C84002B40F03A85DD
:100FE0001BF00103099300F076863EAF302307F82B
:100FF000413D059B099A9342B8BF134603930023D2
:101000000C93BAF1000F02D0039B01330393029BB0
:1010100013F002030B9302D0039B02330393029B52
:1010200013F0840540F02983089B039AA3EB020B7D
:10103000BBF1000F40F32183BBF1100F2399229ADB
:101040002CDD43461024A846DDF810A0069D0AE0DA
:101050000000000000000000ABF1100BBBF1100F0E
:1010600003F1080318DD0132B94822921031072A32
:10107000239183E81100EFDD21AA2946504604F0B0
:1010800029F8002840F07483ABF1100BBBF1100F6E
:101090002399229A2EABE6DC454698460132AC4BAA
:1010A00022920BEB0104072A239488E8080800F336
:1010B000D6849DF867A008F10808BAF1000F0ED099
:1010C000229B013301340DF167010122072B239488
:1010D000229388E8060000F3138408F108080B9BAC
:1010E0006BB1229B013302341AA90222072B2394ED
:1010F000229388E8060000F30F8408F10808802D89
:1011000000F03883059B099AA3EB020ABAF1000F9D
:101110003BDDBAF1100F229B8E4D2BDD424621465E
:10112000B0464FF0100B2E46049C069D06E0AAF137
:10113000100ABAF1100F02F1080217DD0133103165
:10114000072B2391229382E84008F0DD21AA29464B
:10115000204603F0BFFF002840F00A83AAF1100ADE
:10116000BAF1100F2399229B2EAAE7DC35460C46D4
:101170004646904601335444072B2394229388E833
:10118000200400F3B28308F10808029BDB0500F19C
:101190008F82229B0999C8F8007001330C44072BF9
:1011A0002394C8F80410229300F37E8308F1080802
:1011B000029B59073BD5089B039A9D1A002D36DDEB
:1011C000102D229B21DD1026049FDDF818A004E0DD
:1011D000103D102D08F1080817DD01335C4A2293F9
:1011E0001034072B239488E84400F1DD21AA5146EE
:1011F000384603F06FFF002840F04982103D102D63
:10120000239C229B0DF1B808E7DC0133504A22935E
:101210002C44072B239488E8240008DD21AA069992
:10122000049803F057FF002840F05083239C079B4D
:10123000089A03998A42ACBF9B185B180793002C4D
:1012400040F03C83002322930DF1B808F3E55146AA
:10125000049801F0A5F8002838D0DAF86430DD07EA
:1012600004D4BAF80C309C0540F1D9854FF0FF3317
:10127000079307983FB0BDE8F08F21AA069904981C
:1012800003F028FF002840F021830DF1B808F1E5B4
:10129000049802F01FFA99E5BAF90E20002AFFF629
:1012A000BAADDAF86420D00705D4990503D4DAF88A
:1012B000580002F04DFD2B464A465146049801F075
:1012C0002DF8079007983FB0BDE8F08FBAF80C30C2
:1012D0009CE5DAF8580002F039FDBAF90C2093B217
:1012E0007FE508980A93404208904BF0040B99F868
:1012F0000060D3E5002A40F0EC87174B12931BF0F7
:10130000200F40F0CD840A9A1BF0100F134640F0D6
:10131000E7831BF0400F00F0E383043314880A9343
:1013200000251BF0010F00F02B8354EA050300F0A9
:10133000278330238DF868308DF869604BF0020BFD
:10134000022338E64BF0200B99F80060A6E500BFB9
:10135000A0630000B0630000806300000A9A176871
:1013600000248DF86740151D002F00F05C86059A5B
:10137000531C00F0DA852146384603F019F800289E
:1013800000F0D686C31B099305940A95CDF808B0E2
:1013900023EAE37303930C949DF867A031E6002AD7
:1013A00040F0A2871BF0200F40F088841BF0100F44
:1013B00040F0A3831BF0400F00F09F830A99B1F91E
:1013C00000400431E51722462B460A91002A73F1AA
:1013D0000003C0F2908405999DF867A04A1C4FF065
:1013E00001037FF4F0AD54EA050200F07482CDF8F9
:1013F00008B0012B00F01083022B40F09D82129860
:101400002EAF230904F00F0143EA05732A091C4695
:101410001546435C07F8013D54EA0503F1D12EABB4
:10142000DB1B0993E5E54BF0400B99F8006035E5CF
:1014300099F800606C2E03BF99F801604BF0200B07
:1014400009F101094BF0100B28E5002A40F05C87F8
:101450001BF0200F40F04D851BF0100F40F0058170
:101460001BF0400F00F001810A9A136804320A92BF
:10147000BDF81C201A80DEE499F8006000297FF492
:101480000DAD0122202109E599F800602A2E09F10D
:10149000010000F0FC86A6F13003092B814698BFBD
:1014A000002000F2518619F8016B00EB800003EB7D
:1014B0004000A6F13003092BF5D90590F0E44BF07C
:1014C000800B99F80060E9E499F8006001222B2173
:1014D000E4E40A9AB24B146812937826302304325B
:1014E0008DF868304BF0020B0A9200258DF8696088
:1014F000022360E5002A40F00387AA4B1293FEE620
:101500000A99CDF808B00A688DF8902000230A46A1
:101510009A468DF86730043201230393CDF814A066
:10152000CDF830A00A92099324AF70E5A6F13003FC
:10153000002019F8016B00EB800003EB4000A6F1DE
:101540003003092BF5D90890AAE4002A40F0D4868C
:101550004BF0100B26E74BF0010B99F800609DE46F
:101560000A9C2368089318460028234603F10403C5
:10157000FFF6B7AE0A9399F800608FE4002A40F0B6
:10158000AC860A9D1BF0080F05F1070500F03C84AE
:1015900025F0070393ED007B8DED0E7B03F1080230
:1015A0000A92DDE90E1222F0004314911593DDE951
:1015B00014454FF0FF32204629467B4B04F08CFC4B
:1015C000002840F0A2834FF0FF32774B2046294697
:1015D00004F064FC002840F0988300220023DDE939
:1015E0000E0104F051FC002840F037849DF867A0FC
:1015F0006E4F6F4B032200212BF080000392059168
:101600000290472ED8BF1F4609920C91F9E44BF087
:10161000080B99F8006041E40A9D073525F007039F
:1016200003F10802D3E900450A920023C3E40A9DAE
:10163000073525F0070303F10802D3E900450A92B4
:101640000123B8E4002A40F05386C6B100230122EA
:101650009A4603928DF89060CDF808B08DF8673007
:1016600005930C93099224AFD1E40A9A13680432CB
:101670000A92079A1A60FFF7DEBB239C1DE5239BA5
:10168000DDF818A0002B40F0698500232293DAF8DA
:10169000643013F0010FBAF80C3002D19A0540F112
:1016A00048825B063FF5E2AD07983FB0BDE8F08F9A
:1016B000652E40F3B18000220023DDE90E0104F025
:1016C000D9FB002800F05F81229B3A4AC8F800202D
:1016D000013301340122072B23942293C8F80420FC
:1016E00000F3C48308F108081B9B0D9A239C9342C6
:1016F00003DB029BDF077FF55BAD229B1099119AFC
:10170000C8F8002001330C44072BC8F804102394B8
:10171000229300F3FD8308F108080D9B5E1E002E46
:101720007FF746AD102E229B234D40F3CF8110272B
:10173000DDF810A0DDF818B005E008F10808103E4B
:10174000102E40F3C38101331034072B23942293CE
:1017500088E8A000F1DD21AA5946504603F0BAFC02
:10176000002840F0D283239C229B0DF1B808E6E7C5
:10177000AA468CE7089B039AA3EB020ABAF1000F72
:101780007FF7C0ACBAF1100F229B0B4D38DD4246FB
:101790002146B0464FF0100B2E46049C069D14E0E7
:1017A000806300006C630000FFFFEF7F6063000058
:1017B0005C6300009C630000B0630000AAF1100AA3
:1017C000BAF1100F02F1080216DD01331031072BB8
:1017D0002391229382E84008F0DD21AA2946204681
:1017E00003F078FC0028C3D1AAF1100ABAF1100F57
:1017F0002399229B2EAAE8DC35460C4646469046A5
:1018000001335444072B2394229388E8200400F3E7
:10181000658208F1080875E40D9B229E012B40F3B8
:10182000FE81013601340123072E23942296C8F845
:101830000070C8F8043000F30F8208F10808109A0D
:10184000119BC8F8003001361444072E23942296C9
:10185000C8F8042000F30D8208F1080800230022D4
:10186000DDE90E0104F006FB0D9B002840F0068127
:10187000013B013601371C44072E22962394C8F8F9
:101880000070C8F8043000F3DA8108F10808139AF0
:10189000C8F80420013614441DAB072E2394229669
:1018A000C8F800307FF782AC21AA0699049803F0AB
:1018B00011FC58B9239C0DF1B80879E421AA0699C6
:1018C000049803F007FC00283FF4BCACDDF818A036
:1018D000DDE6DDF808B0012B00F02181022B27D1D5
:1018E000CDF808B00024002589E521AA06990498BE
:1018F00003F0F0FB0028E9D1239C0DF1B80844E483
:1019000021AA0699049803F0E5FB0028DED1239C68
:101910000DF1B808FFF7E3BB21AA0699049803F07C
:10192000D9FB0028D2D1239C0DF1B808FFF7E7BB03
:10193000CDF808B0002400252EA900E03946E208C1
:1019400042EA4572E80804F00703054614463033BE
:1019500054EA050201F8013C01F1FF37EED1029A89
:10196000D2077FF55CAD302B3FF459AD30230239FF
:1019700007F8013C2EAB5B1A09930F46FFF739BB02
:101980000223FFF718BB1B99002940F37A820C9BB6
:101990000D9A9342A8BF1346002B1E460DDD229BD5
:1019A000C8F8007001333444072B2394C8F804604E
:1019B000229300F32C8308F108080C9B002EA8BF8B
:1019C0009B1B002B1E4640F3D080102E229BBA4D4D
:1019D00040F3B78022464FF0100ADDF810B0069CA5
:1019E00005E008F10808103E102E40F3A9800133ED
:1019F0001032072B2392229388E82004F1DD21AADC
:101A00002146584603F066FB002840F02A83239ABB
:101A1000229B0DF1B808E6E7002D08BF0A2C7CD305
:101A20002EAF204629460A22002304F093FA3032D2
:101A300007F8012D2046294600230A2204F08AFADD
:101A400004460D4654EA0503EBD12EABDB1B09938C
:101A5000FFF7CFBA059B09932EAFFFF7CABA21AAA9
:101A60000699049803F036FB00287FF42FAF9DF809
:101A700067A0239C0DF1B808FFF71FBB5F1E002F66
:101A80007FF705AF102F8C4D40F300814FF0100A07
:101A9000DDF810B005E008F10808103F102F40F302
:101AA000F58001361034072E2394229688E820040E
:101AB000F1DD21AA0699584603F00CFB00287FF4BB
:101AC00005AF239C229E0DF1B808E6E701333444AC
:101AD000072B2394229388E860007FF767ABE3E647
:101AE0001C6804330A9300251BE40A990A46043251
:101AF0000C680A920025FFF75EBA0A9A146813462A
:101B00000433E5170A9322462B465FE404321C682F
:101B10000A9201230025FFF74EBADDF808B0CDF890
:101B200008B03EAF3034012307F8414D0993FFF769
:101B300060BADAF8580002F00BF9BAF80C30B0E5E8
:101B4000144601333444072B2394229388E8600021
:101B500040F3738121AA0699049803F0BBFA002888
:101B60007FF4B4AE239C0DF1B8081B9B0D9A9342F1
:101B700080F25E81229A10981199C8F80010013203
:101B80000444072A2394C8F80400229200F35881E1
:101B900008F108080D9A0C99D31A561A9E42A8BF4C
:101BA0001E46002E0EDD229AC8F8046001320F4452
:101BB0003444072AC8F800702394229200F342822A
:101BC00008F10808002EACBF9E1B1E46002E7FF7B2
:101BD000EFAA102E229B384D7FF778AF1027DDF843
:101BE00010A0DDF818B005E008F10808103E102E2E
:101BF0007FF76CAF01331034072B2394229388E8CE
:101C0000A000F1DD21AA5946504603F063FA0028EE
:101C100040F07B81239C229B0DF1B808E6E7029BF4
:101C2000D8073FF5FEAD013601340123072E23947A
:101C30002296C8F80070C8F804307FF726AE21AAB3
:101C40000699049803F046FA00287FF43FAE239CDF
:101C5000229E0DF1B8081AE621AA0699049803F00D
:101C600039FA00287FF432AE239C229E0DF1B80889
:101C7000E5E521AA0699049803F02CFA00287FF4E0
:101C800025AE239C229E0DF1B808E7E501363C44C1
:101C9000072E2394229688E8A0007FF7F6ADCEE7C2
:101CA0000A9D073525F0070303F108020A92D3E9DC
:101CB0000045FFF736BB00BFB06300000A9D073543
:101CC00025F00705D5E9002305F108010A9114461E
:101CD0001D46FFF77BBB2EAFFFF78BB921AA0699F4
:101CE000049803F0F7F900287FF4F0AD239C0DF180
:101CF000B808FFF707BA4FF02D0A644265EB4505B7
:101D00008DF867A00123FFF75AB9DDE90E010246FD
:101D10000B4604F0E1F8002840F08982059B01336E
:101D200026F0200A00F09F80BAF1470F04D1059BEE
:101D3000002B08BF012305930F9B4BF48072002BEF
:101D40000292C0F2A9819DED0E7B8DED167B0023E2
:101D50000B93662E00F08881462E00F0DA81BAF1EE
:101D6000450F0CBF059B059D049808BF5D1C1FAA6D
:101D70001CAB019200932A461BAB02219DED160B72
:101D800000F08AFC672E074640F0AA811BF0010F85
:101D900000F043827C1900220023DDE9160104F0E3
:101DA00069F8002840F031811F9BA34206D2302100
:101DB0005A1C1F9219701F9B9C42F9D8DB1BBAF169
:101DC000470F0D9300F0C480652E40F37F821B9B6C
:101DD0000C93662E00F076810D9B0C9A1946914269
:101DE00000F363811BF0010F40F00E8222EAE273E0
:101DF0000393099267260B9B002B40F0A18005936B
:101E00009DF867A0FFF7FDB825F0070595ED007B6D
:101E100005F108038DED0E7B0A93FFF7C2BBDAF8DC
:101E2000580001F095FF4FF0FF330793FFF721BAF9
:101E3000029AD5077FF5AEAE9CE608F1080894E655
:101E400021AA0699049803F045F900287FF43EADD5
:101E50001B9B239C0DF1B8089CE64FF02D0A8DF8D2
:101E600067A0FFF7C5BB0623059365E721AA06997E
:101E7000049803F02FF900287FF428AD0DF1B8087D
:101E800032E4229BB24AC8F8002001330134012217
:101E9000072B23942293C8F8042000F32D8108F126
:101EA000080829B90D9B1BB9029BDE077FF580A9A5
:101EB000229B1098119AC8F8002001330246224450
:101EC000072B2392C8F80400229300F3778108F1CE
:101ED00008080029C0F24C810D99C8F80070013340
:101EE0008C18072B23942293C8F804107FF75EA95F
:101EF000DAE40A9A07991368CD170846043229468E
:101F00000A92C3E90001FEF796BFDA46FFF7BFBBAE
:101F100021AA0699049803F0DDF800287FF4D6ACD6
:101F2000239C0DF1B808FFF7F8BB38460594FEF77F
:101F3000C7FE0A950990CDF808B00346FFF728BA06
:101F40004FF02D0A00238DF867A00593FFF75CB8CA
:101F50001B9B0C931A46033304DB059B19469142E5
:101F6000BFF63AAF023E0C9B8DF87460013B002B2C
:101F70001B93BDBF0C9BC3F101032D222B22092B08
:101F80008DF8752040F34B810DF183042046714D8F
:101F900000E0104685FB0312D917C1EBA20101EB4B
:101FA0008102A3EB42023032092900F8012C0B46D2
:101FB00000F1FF32EDDC30330238D9B2844202F84E
:101FC000011C40F28E810DF17600134601E013F8FA
:101FD000011B00F8011BA342F9D101339B1A0DF13B
:101FE000760213441DAA9B1A0D9A1393012A1344D7
:101FF000099340F34281099B109A1344099323EA01
:10200000E373039300230C93F5E62346D6E621AA57
:102010000699049803F05EF800287FF457AC239CDF
:102020000DF1B808C9E4059B0C97062B28BF0623C1
:102030000597BA4603930A95CDF808B00993464F21
:10204000FEF7DFBF21AA0699049803F043F80028A1
:102050007FF43CAC1B9B0D9A239CD31A0DF1B8085E
:10206000B0E5A246FFF713BB059C04981FAA1CAB62
:102070000192009322461BAB03219DED160B00F04D
:102080000BFB2346074604191D463B78302B00F016
:10209000D4801B9D2C447EE6DDE90E1202F1004344
:1020A00017932D2316910B9353E6109A0D9B13440F
:1020B0000C9A0993002A40F3D88023EAE373039330
:1020C000672698E6002B40F3EF80059A002A40F03F
:1020D000C2801BF0010F40F0BE80039309938AE693
:1020E000472E7FF457AE1BF0010F00F0E780462E1D
:1020F00007EB0504C9D04EE621AA0699049802F020
:10210000E9FF00287FF4E2AB1B99239C0DF1B8088E
:10211000C7E6059D04981FAA1CAB019200932A46AE
:102120001BAB03219DED160B00F0B6FA0746DEE768
:10213000059B0393099305900A95CDF808B00C9080
:102140009DF867A0FEF75DBF00230593FEF7A8BECC
:102150009C6300006766666694630000049821AA89
:10216000514602F0B7FF00283FF48FAAFFF78FBA5D
:102170004E421031664D2FDA1024DDF810A0DDF844
:1021800018B004E008F10808103E102E24DD0133D9
:102190001032072B23922293C8F80050C8F804404D
:1021A000F0DD21AA5946504602F094FF00287FF442
:1021B000ACAE239A229B0DF1B808E5E721AA069957
:1021C000049802F087FF00287FF480AB1B99239AC4
:1021D000229B0DF1B8087CE601333244072B88E8D6
:1021E00060002392229308F108087FF775AE21AAB8
:1021F0000699049802F06EFF00287FF467AB239ADB
:10220000229B0DF1B80867E60C9B109A13440993C2
:1022100023EAE37303936726EDE51F9BCEE5303396
:1022200030228DF877308DF876201EABDAE6394F04
:10223000394B9DF867A0FFF7DDB900220023DDE9E7
:10224000160103F017FE00287FF423AFC5F1010546
:102250001B952C449FE50C9B109A1344059A1A4435
:1022600022EAE27309920393C5E50C9B099AC3F134
:1022700001031A44134609921FE71BF001030C9354
:102280007FF4B9AE099B23EAE3730393B3E50A9C99
:1022900099F80160236843EAE37305932346043306
:1022A00081460A93FEF7FABD059B13B91BF0010F97
:1022B00002D0109B0133D1E701230EE71F9BBAF137
:1022C000470FA3EB07030D933FF442AE1B9B0C9308
:1022D00049E68DF86710FFF710B88DF86710FFF723
:1022E00050B90DF176037DE68DF86710FFF75AB807
:1022F0008DF86710FFF7A9B98DF86710FFF728B9B7
:102300008DF86710FFF7F9B88DF86710FFF7A0B8E0
:10231000B063000068630000646300002DE9F041D1
:102320000C46ADF58D6D8989666EE589199621F0AB
:1023300002010646E069ADF80C1017464FF48061C3
:10234000626AADF80E5098461AAD0023079016A8A1
:1023500009920693009504950291059101F0F2FC13
:1023600043463A4669463046FEF71AFD051E07DB2E
:102370003046694601F056F9002818BF4FF0FF3586
:10238000BDF80C305B0603D5A38943F04003A3815D
:10239000169801F0D9FC28460DF58D6DBDE8F08149
:1023A00038B5304B1B6805460C4613B19A6B002AB2
:1023B00038D0B4F90C2093B218070CD52069A8B115
:1023C00013F001021ED0636900225B42A361A26088
:1023D000F0B1002038BDD9063CD5580726D4206975
:1023E00042F00803A3819BB20028E9D103F42072D4
:1023F000B2F5007FE4D02846214601F0D9FCA3893C
:102400002069DDE7990758BF6269A2600028E0D122
:10241000B4F90C301A06DDD543F04003A3814FF028
:10242000FF3038BD184601F055F9C2E7216B51B1B4
:1024300004F14003994204D0284601F0EDF9B4F9C3
:102440000C200023236300232069636022F0240210
:102450002060C5E742F0400209232B604FF0FF30B7
:10246000A28138BD2C000020024B13B1024800F0BD
:1024700079B8704700000000453700002DE9F04FA3
:10248000354B85B00E460190186801F05FFC334B68
:102490001B68029303F5A4730393029BD3F848715E
:1024A00037B3DDF80CA04FF00109D3467C68651EF8
:1024B0000ED4013407EB84044FF00008FEB1D4F8C9
:1024C00000319E421BD0013D6B1CA4F10404F5D1E8
:1024D000234B6BB17B68002B39D13B6843B1384645
:1024E000CBF80030AFF30080DBF80070002FDDD1B7
:1024F000194B186805B0BDE8F04F01F029BC7B68A6
:102500002268013BAB420CBF7D60C4F80080002A0A
:10251000D9D0D7F88811D7F804A009FA05F30B42EF
:102520000FD0D7F88C110B420DD1D4F88010019840
:1025300090477B685345B0D1DBF80030BB42C2D036
:10254000ABE79047F5E7D4F880009047F1E7BB464A
:102550003F68002FAAD1CBE7580400205463000045
:1025600000000000002301461A46184602F0D2BDC2
:1025700002690B69934200F38D802DE9F04F03F15E
:10258000FF3801F1140700F1140B57F828205BF80D
:1025900028304FEA880483B00132B3FBF2F90BEB29
:1025A0000403009407EB040A0193B9F1000F39D03A
:1025B00000252E46BC46DE465CF8044BDEF80030B3
:1025C000A2B209FB0255220C2C0C09FB0242ADB24F
:1025D000751B96B2C6EB134615FA83F306EB23463A
:1025E0009BB243EA0643E2454FEA12454EF8043BEC
:1025F0004FEA2646E0D2009B5BF8033093B9019C7A
:10260000231F9B450CD254F8043C4BB9A4F108039A
:1026100002E01A68043B1AB99B4508F1FF38F8D369
:10262000C0F81080044602F01BFA00282EDB09F1E6
:1026300001095D46002357F8041B28688AB29A1ADC
:102640000B0C12FA80F2C3EB104303EB224392B25D
:1026500042EA0342BA4545F8042B4FEA2343EAD243
:102660005BF828200BEB880382B91A1F93450BD225
:1026700053F8042C42B9083B02E01A68043B1AB92B
:102680009B4508F1FF38F8D3C4F81080484603B0E2
:10269000BDE8F08F002070472DE9F04F57EC106B2C
:1026A00097B0056C0291044693460393CDE9006709
:1026B0004DB1426C6A6001239340AB60294601F042
:1026C000F7FF00232364DDE90023002B994638DB64
:1026D000209A00231360A04B33EA090317D0DDE9E9
:1026E0000067002200233046394603F0C3FB8046D2
:1026F00000282FD0039A01231360219B002B00F0A8
:10270000C48096481860013817B0BDE8F08F039A6E
:1027100042F20F731360009B6BB9C9F3130353B9F3
:10272000219B8F48002BEFD000F10803219A136002
:1027300017B0BDE8F08F219B8A48002BE4D0C31C62
:10274000F4E7019A22F00049209ACDF80490012381
:102750001360C0E714AA15A947EC106B204602F0DD
:102760001FFA5FEA1955824673D0C7F3130343F08B
:102770007F51CDF84080DDF850803046A5F2FF351E
:1027800041F440110022784B02F058FF6CA3D3E9CA
:10279000002303F007F96CA3D3E9002302F050FFF4
:1027A000064628460F4603F097F869A3D3E90023AD
:1027B00003F0F8F802460B463046394602F040FF77
:1027C00006460F4603F09EFB00220490002330468D
:1027D000394603F059FB002840F06F81049E162E05
:1027E00000F25981614B03EBC603D3E90001DDE937
:1027F000002303F067FB002800F0C481731E0493DC
:1028000000230C93A8EB05056B1E059300F14F8187
:1028100000230693049B002BC0F24081059A0B9382
:1028200011461944002305910A93029B092B2ED8C7
:10283000052B40F35186043B02930027029B023B89
:10284000032B00F23386DFE813F0D603CB02E30359
:102850006404DDF85080159D454405F23243202B79
:1028600040F38A81C3F1400309FA03F9009B05F2A2
:10287000124023FA00F040EA090003F01DF801239A
:10288000013DA1F1F87110937CE739483CE7002144
:10289000616420468B4601F0E5FE4FF0FF3308935C
:1028A0000D93012307902064CDF808B00993159B80
:1028B000002BC0F2D080049A0E2A00F3CC802B4B60
:1028C000BBF1000F03EBC203D3E90089C0F2BE8362
:1028D000DDE9006742464B463046394603F08CF945
:1028E00003F010FB834602F0F7FF42464B4603F02D
:1028F00059F80B4602463946304602F09FFE079DC6
:102900000BF130032B70089B012B06460F4605F197
:10291000010561D00022174B03F044F80022002388
:1029200006460F4603F0A6FA002840F08180CDF855
:1029300000A00294DDF81CA0089C28E0AFF3008002
:1029400061436F63A787D23FB3C8608B288AC63FB5
:10295000FB799F501344D33F0000F07F9D6300003C
:10296000C0630000CC6300000000F83FF863000083
:102970009C6300000000244003F014F800220023B0
:1029800006460F4603F076FA002840F0C58342461B
:102990004B463046394603F02FF903F0B3FA83462D
:1029A00002F09AFF42464B4602F0FCFF02460B46FD
:1029B0003046394602F042FE0BF1300E05F801EBCD
:1029C000A5EB0A0EA64506460F464FF000026E4BD9
:1029D000D2D1DDF800A0029C32463B463046394653
:1029E00002F02EFE06460F4602460B46404649467A
:1029F00003F04AFA48B932463B464046494603F09E
:102A000039FAA8B11BF0010F12D015F8018C079A02
:102A10006B1E04E09A4200F02D8413F8018DB8F18A
:102A2000390F03F10105F5D008F1010883F80080A2
:102A30005146204601F03CFE0022049B2A70039A76
:102A400001331360219B002B00F0A38307981D60C6
:102A500017B0BDE8F08F099A002A40D0029A012AE7
:102A600040F31C83089B0A9A5F1EBA42C0F294830B
:102A7000D71B089B002BC0F27E84069D089B069AFC
:102A80001A440692059A01211A442046059201F043
:102A9000A9FE064626E001230C93B3E6069A049BA2
:102AA000D21A5B420A93002306920B93BDE6C5F14E
:102AB0000103069300230593ACE6DDF81090484629
:102AC00002F00AFF02460B463046394603F0D2F9BF
:102AD00000287FF483AE09F1FF3304937EE60A9F5A
:102AE000069D099E002D0CDD059900290B4608DD89
:102AF000A942069AA8BF2B46D21AED1ACB1A069203
:102B000005930A9BD3B1099B002B00F0C082002FD4
:102B100010DD31463A46204601F000FF524601469C
:102B20000646204601F068FE51468046204601F0E8
:102B3000BFFDC2460A9BDA1B40F0AA820121204653
:102B400001F050FE0B9B002B81461FDD01461A460B
:102B5000204601F0E3FE029B012B814640F35B829D
:102B60004FF00008D9F8103009EB8303186901F021
:102B7000E9FDC0F1200013E0C3F12009009B03FA36
:102B800009F07AE60C903DE600002440029B012B00
:102B900040F38D824FF000080B9B0120002BE1D108
:102BA000059A104410F01F0000F0A180C0F120032E
:102BB000042B40F38C84069BC0F11C000344069355
:102BC0001346034405440593069B002B05DD51463F
:102BD0001A46204601F0F2FE8246059B002B05DDD9
:102BE00049461A46204601F0E9FE81460C9B002B1F
:102BF00040F08680089B002B40F36982099B002BE4
:102C000000F09880002D05DD31462A46204601F06F
:102C1000D5FE0646B8F1000F40F03683B046089B5B
:102C2000079A013BD3180893009B03F00103099313
:102C3000174649465046FFF79BFC3146054650462D
:102C400001F00EFF424649468346204601F024FF2C
:102C500005F130020092C2680146002A40F032823B
:102C60000690504601F0FCFE069B05901946204652
:102C700001F01EFD059A32B9029B23B9099B002B76
:102C800000F0DE83029ABBF1000FC0F2A28205D1F0
:102C9000029B1BB9099B002B00F09B82002A00F3CA
:102CA00007839DF800303B70089B07F1010B9F42A2
:102CB0005D4600F00883514600230A22204601F0B9
:102CC00001FD4645824631464FF000034FF00A02AF
:102CD000204600F0F18101F0F5FC41460646002354
:102CE0000A22204601F0EEFC5F468046A1E71C2048
:102CF000069B03440693059B03440544059363E741
:102D00004946504601F0ACFE0028BFF673AF049F61
:102D1000514600230A222046013F049701F0D2FCCD
:102D2000099B8246002B40F0A7830D9B002B40F3AC
:102D3000B0830893DDF81CB0DDF820805D4602E02A
:102D400001F0C0FC824649465046FFF711FC00F1F5
:102D5000300705F8017BA5EB0B0343454FF00A0252
:102D60004FF0000351462046EADB079B089A009784
:102D7000012AACBF9B1801331D464FF0000B514692
:102D80000122204601F01AFE4946824601F068FE03
:102D9000002840F33A8215F8012C07996B1E04E0D5
:102DA0008B4200F0AF8113F8012D392A03F10105A0
:102DB000F6D001321A704946204601F079FC002E07
:102DC0003FF436AEBBF1000F05D0B34503D05946F2
:102DD000204601F06DFC3146204601F069FC27E6F3
:102DE00000230993049B5B440D930133012B1E4682
:102DF0001D460893B8BF01260021172E61640AD929
:102E0000012204235B0003F114008642114602F103
:102E10000102F7D26164204601F024FC0E2D0790D8
:102E200020643FF644AD002F3FF441AD04990029E2
:102E30009DED007B40F3F681B94B01F00F0203EBEF
:102E4000C2030D11D3E90067EB0640F1AD81B54B2C
:102E500051EC170BD3E9082302F0CEFECDE90E01A9
:102E600005F00F054FF003098DB1DFF8B882E807D0
:102E700009D530463946D8E9002302F093FD09F11F
:102E8000010906460F466D1008F10808EFD13B46D0
:102E90003246DDE90E0102F0AFFE074688460C9B84
:102EA00043B10022A04B3846414602F0EDFF002816
:102EB00040F07382484602F00FFD3A46434602F066
:102EC00071FD9A4B002202F0BBFB089B0546A1F165
:102ED0005076002B00F04081049BDDF82090119388
:102EE000099B002B00F0F6818D4B914903EBC90340
:102EF00053E90223002002F07FFE2A46334602F007
:102F00009DFBCDE90E014146384602F0FBFF054628
:102F100002F0E2FC02460B463846414602F08EFBC8
:102F200030355FFA85F8079D06460F4685F8008024
:102F300002460B46DDE90E01013502F0C3FF002811
:102F400056D132463B460020774902F077FB0246D5
:102F50000B46DDE90E0102F0B5FF002840F0628269
:102F6000B9F1010F3FF4A3AC079BCDF848A0CDF811
:102F70004CB09944A046DDE90EAB0DE000206A4953
:102F800002F05CFB52465B4602F07EFF002840F0F8
:102F900044824D4500F04A82504659460022654B16
:102FA00002F000FD0022634B82468B4630463946D4
:102FB00002F0F8FC0F46064602F0A4FF044602F0B9
:102FC0008BFC02460B463046394602F037FB303464
:102FD000E4B252465B4605F8014B06460F4602F046
:102FE00053FF32463B460028C8D0DDF848A044468F
:102FF000119B04931CE500230993BBF1000F40F3E0
:10300000DA805E465D46CDF834B0CDF820B0F3E608
:1030100001230993F1E7009B002B7FF4A1ADDDE9CB
:103020000012C2F31303002B7FF4B4AD22F000476B
:103030003F0D3F05002F00F00082069B01330693F1
:10304000059B013305934FF00108A5E5089B002B74
:103050003FF73EAC40F0998049460022364B40464F
:1030600002F0A0FCDDE9002302F022FFDDF8209051
:103070004E4600283ED06FEA0B03079D0493494655
:10308000204601F015FB002E3FF4D2ACA3E60A9ACD
:103090005146204601F042FC82464FE5109A002A34
:1030A00000F06F8103F233430A9F069DE7E4009B23
:1030B000002B7FF46FADB2E701F004FB5F460646DC
:1030C0008046B6E5204601F0F3FA0122DBE5029BDB
:1030D000022B7FF793AD089B002BCCD149460522EC
:1030E000204601F0EFFA01468146504601F0B8FC57
:1030F0000028C0DD049A07993123013204920B7035
:103100004D1CBCE7049A01320492079A31231370D4
:1031100051E60123099365E6DDF800A0029C87E4EF
:10312000F8630000D06300000000F03F00001C4086
:103130000000E03F0000244000001440484602F038
:10314000CBFB3A46434602F02DFC0022C44B02F072
:1031500077FA0546A1F1507641460022C14B384628
:1031600002F06CFA2A4633468046894602F0AAFEEF
:10317000002840F0AB802A4606F10043404649460D
:1031800002F082FE00283FF492AB4FF000094E4659
:1031900071E70798FFF7B8BA0A9B0B9A0A97FB1AD0
:1031A0001A440B92002764E49DED007B4FF0020966
:1031B0008DED0E7B58E600216164204601F052FA45
:1031C0004FF0010B07902064CDF820B0CDF834B05B
:1031D00029E6002A12DD51460122204601F0EEFBCD
:1031E0004946824601F03CFC002840F33181009BB7
:1031F000392B00F0F78005F1310300939DF8003082
:103200003B70B3467D1C4646D5E504D1009BDB07E9
:1032100001D5C0E5154615F8013C302B05F1FF320C
:10322000F8D0C8E500F0B480049B5D428E4B05F0F9
:103230000F0203EBC203D3E90023DDE9000102F032
:10324000B1FB2D110746884600F02881874E4FF0CC
:103250000209E90709D538464146D6E9002302F0BC
:10326000A1FB09F10109074688466D1006F1080621
:10327000EFD114E6079930220A70049A15F8018CF0
:1032800001320492FFF7D0BB7168204601F0EAF9E1
:10329000336902339A00054606F10C010C3001F047
:1032A000D7F829460122204601F088FB8046B6E483
:1032B000009B392B00F09680009B0133B3463B7096
:1032C0007D1C464677E5B346464658E54FF0000973
:1032D0004E460FE7644901EBC9012A46334651E9DE
:1032E000020102F05FFBCDE90E013846414602F0D3
:1032F00009FE054602F0F0FA02460B463846414602
:1033000002F09CF9079A3035B9F1010F15700646A5
:103310000F4602F101051CD0079B99440022544B33
:103320003046394602F03EFB0F46064602F0EAFD03
:10333000804602F0D1FA08F1300802460B463046CA
:10334000394602F07BF905F8018B4D4506460F46DC
:10335000E4D10022474BDDE90E0102F071F932465B
:103360003B4602F091FD002842D0119B049315F8D2
:10337000018CFFF74CBB069B089A9D1A0023FFF7B0
:103380007EBB149B0A9F069DC3F13603FFF777BBF4
:10339000DDE900784FF0020981E5089B002B3FF43E
:1033A000CDAE0D9B002B7FF782AA0022304B384612
:1033B000414602F0F7FA0746884609F1010002F09B
:1033C0008BFA3A46434602F0EDFA0022244B02F013
:1033D00037F9049ADDF83490013A0546A1F15076A8
:1033E00011927DE53922B3463A7046467D1CD4E4FD
:1033F000DDE90E2300201F4902F020F932463B464A
:1034000002F060FD10B9FFF752BA154615F8013CFD
:10341000302B05F1FF32F8D0EAE54346DDF848A04D
:10342000A0461C46119B0493FFF7F1BADDF848A0B3
:10343000DDF84CB04446FFF73ABAB846FFF7ACBBEC
:10344000009B392BCED0BBF1000F3FF7D4AED5E6B1
:103450007FF4D4AE009BDA077FF5D0AEC7E600BF9D
:1034600000001C4000001440F8630000D06300001E
:10347000000024400000E03F314600230A2220469D
:1034800001F020F90D9B002B06460ADD0893FFF79B
:10349000B9BB029B022B22DC0D9B4AE44FF00209D0
:1034A000FDE4029B022B1ADC0D9BEFE7002565640F
:1034B0002946204601F0D6F84FF0FF3308930D93CC
:1034C00001230790AB4620640993FFF7F0B93FF45E
:1034D0007BABC0F13C000BE40127FFF7AFB90D9BBC
:1034E0000893F8E5B1F90C309AB22DE9F0410D4698
:1034F000110780463AD46A6843F40063002AAB811E
:103500006FDDAC6A002C49D000229BB2D8F8006075
:10351000C8F8002013F4805267D02A6D5F0705D5E4
:1035200069682B6B521A0BB1EB6BD21A0023E96955
:103530004046A047441C3CD0B5F90C302A692A60AB
:1035400023F400630022AB81DB046A6047D4296B5B
:10355000C8F8006011B305F14003994202D040461B
:1035600000F05AF900202863BDE8F0812E69AEB161
:103570002C682E6091070CBF6B690023A41BAB6005
:103580000AE0234632466F6AE9694046B847002898
:10359000A4EB0004064404DD002CF2DC0020BDE8AE
:1035A000F081AB8943F04003AB814FF0FF30BDE8C1
:1035B000F081D8F800401D2CF3D8194BE340DB43D1
:1035C00013F00103EDD1B5F90C206B6022F4006318
:1035D0002969AB81DA042960B9D5002CB7D12865F7
:1035E000B5E7EA6B002A8CDCD8E70123E96940469D
:1035F000A047431C024602D0AB89AC6A8EE7D8F8DC
:103600000030002BF8D01D2B01D0162B02D1C8F8AA
:103610000060C3E7AB8943F04003AB81BDE8F081B4
:103620000100402038B50D46044608B1836BBBB19C
:10363000B5F90C0088B16B6EDB0701D4810517D595
:1036400020462946FFF74EFF6B6EDA07044602D488
:10365000AB899B0507D5204638BD0446204638BDBA
:1036600000F038F8E4E7A86D00F072FB204638BDA2
:10367000A86D00F06BFBE3E7014900F02BBB00BF36
:103680005D52000010B5002304468181C2810360B1
:103690004360836043660361436183611946082286
:1036A0005C30FDF73DFA07480749084A084B20629D
:1036B000E4616162A262E36204F15800BDE8104077
:1036C00000F040BBCD4F0000F14F00002D50000036
:1036D0004D50000010B50446124800F037FBA26BB5
:1036E000D2B904F53B731048C4F8E8320321C4F89A
:1036F000E022E063C4F8E41260680421FFF7C2FF2F
:1037000001220921A068FFF7BDFF02221221E06813
:10371000FFF7B8FF0123A3630248BDE8104000F0A3
:1037200017BB00BF4C0A002079360000014800F0AA
:103730000DBB00BF600A0020014800F009BB00BFBC
:10374000600A002038B50A4C0A4D641BA4100AD048
:1037500004F18043013B05EB8305013C55F8043936
:103760009847002CF9D1BDE8384002F091BD00BF68
:10377000E4090020E0090020F8B5244F0C46064675
:1037800000F064FFBB685D68C4F57E610F3125F011
:103790000305294421F47F6121F00F01A1F5805434
:1037A000B4F5805F07DB0021304601F0FDFBBB680C
:1037B0002B44984204D0304600F04EFF0020F8BD64
:1037C0006142304601F0F0FB01300DD0104BBA6879
:1037D00019682D1B45F001053046091B556019601D
:1037E00000F03AFF0120F8BD0021304601F0DCFB7B
:1037F000BA68831A0F2BDEDD064C0549246843F0B6
:103800000103001B53600860D5E700BF5C04002083
:10381000040A002064080020002944D02DE9F0416A
:103820000D46804600F012FF55F8047C694927F0E8
:103830000103A5F10804E2188E685068B24220F036
:1038400003005ED0FE0750600BD455F8087CE41BE3
:1038500001F1080EA56875453B446DD0E768EF603F
:10386000BD6015186D68ED073ED543F0010262603A
:10387000E350B3F5007F17D2DB08581C9A104D684F
:1038800051F83070A7600123934001EBC0022B4335
:10389000083AE2604B6041F83040FC604046BDE8C9
:1038A000F04100F0D9BE70475A0A042A52D89A094A
:1038B00002F13907FF0002F13805C819CA59083862
:1038C00090424FD0516821F003018B4232D292686E
:1038D0009042F7D1C368A060E3609C60C46040463A
:1038E000BDE8F04100F0B8BE95683B4FBD420344CF
:1038F00040D0D068E86043F0010285606260E35028
:10390000B7E7FF07034407D455F8082CA41A13445B
:10391000A068E268C2609060304A126843F001001B
:10392000934260608C60B9D32D4B40461968FFF715
:1039300023FFB3E71046CDE711184968C90744D4FF
:103940009168D268CA60034443F0010091606060EE
:10395000E350A3E7142A16D802F15C07FF0002F136
:103960005B05AAE7AA1001234D6893402B434B60E7
:103970000346B0E743F001024C610C61E560A560CD
:103980006260E3508AE7542A06D81A0B02F16F07E7
:10399000FF0002F16E0590E7B2F5AA7F06D8DA0BB8
:1039A00002F17807FF0002F1770586E740F25450F4
:1039B000824206D89A0C02F17D07FF0002F17C05D5
:1039C0007BE74FF47E777E2577E743F00101616066
:1039D000136063E75C040020640400206808002092
:1039E000340A00209368002B73D02DE9F04F8B89A7
:1039F00083B00C4619070090164626D5226922B3DB
:103A000013F0020035682CD04FF00009B04FC846C3
:103A1000B246B84543464A4628BF3B460098B8F1EF
:103A2000000F50D0E169666AB047002858DDDAF827
:103A300008301B1A8144A8EB0008CAF80830002B94
:103A4000E7D1002003B0BDE8F08F21460098FEF7D3
:103A5000A7FC002840F03381A389356813F00200E9
:103A6000D2D113F0010945D14F46019637B39A05DB
:103A7000D4F8088040F183804745C346C0F0AB804E
:103A800013F4906F40F0AC802068BA465A4649461D
:103A900000F078FDA2682368A2EB08025B44A260F4
:103AA0002360019A9368A3EB0A03D144A7EB0A07AA
:103AB0009360002BC5D0A389002FD8D1D5F80090F2
:103AC0006F680835D2E7D5F80090D5F8048008353E
:103AD0009FE70020704721460098FFF7A3FD70B3D1
:103AE000B4F90C3043F040034FF0FF30A38103B032
:103AF000BDE8F08F814633464E46A8469A464D466D
:103B00004EB380B3206823696269B145CB4628BFB4
:103B1000B34698425F4604D9A36813449B4500F31B
:103B2000A68093454BDB1346676AE16900982A46F5
:103B3000B847071ED4DDB9EB0709CCD00120DAF86D
:103B40000830DB1B3D44F61BCAF80830002B3FF45D
:103B500078AF002ED5D108F1080313E9600098462C
:103B60000833002EF9D032460A21284600F020FC06
:103B7000002800F0A1800130A0EB0509C2E7206811
:103B80002369984202D863699F425DD2B84528BF35
:103B9000B8464246494600F0F5FCA3682268A3EB0C
:103BA00008034244A36022600BB1C24679E7214674
:103BB0000098FFF737FD002892D1C24671E75A46B8
:103BC000294600F0DFFCA2682368A2EB0B025B44ED
:103BD000A2602360AFE72068B846BA46BB4655E707
:103BE00062692068216902EB4208A0EB010A08EB38
:103BF000D8780AF101004FEA680838444045424647
:103C000084BF804642465B0544D51146009800F0CB
:103C100019F98346002855D05246216900F018FC56
:103C2000A38923F4906343F08003A3810BEB0A0084
:103C3000A8EB0A03C4F810B0C4F814802060A36095
:103C4000B846BA46BB4621E76FF00041B94228BFEB
:103C500039464A4691FBF3F10098666A03FB01F38B
:103C6000E169B047B0F1000A3FF71BAF38E71A46E9
:103C70002946019300F086FC2268019B00981A44B3
:103C800022602146FFF7CEFC019B00287FF428AF7D
:103C90001F4650E7009800F0E1FF83460028C5D199
:103CA000009D21692846FFF7B7FDB4F90C300C22BE
:103CB00023F080032A6015E706F1010922E74FF09F
:103CC000FF30BFE6009A0C231360B4F90C3009E70B
:103CD00000FCFF7F2DE9F84310F538771FD08846A8
:103CE00006464FF000097D68BC68013D11D4A389E8
:103CF000012B05F1FF3508D9B4F90E300133214607
:103D0000304602D0C04749EA00096B1C04F1680440
:103D1000EDD13F68002FE6D14846BDE8F883B946AB
:103D20004846BDE8F88300BF044A054B1268506B53
:103D3000002808BF1846F030704700BF2C00002054
:103D40006C080020704700BF704700BF704700BF7D
:103D5000704700BF70B50C46B1F90E10002990B045
:103D600015461E4614DB01AA01F05EFB00280FDB9E
:103D7000029A02F47042A2F50052B2FA82F252099B
:103D80004FF480634FF4006032602B6010B070BD60
:103D9000A289002312F08000336004D0402218462C
:103DA0002A6010B070BD4FF480632B6010B070BDFE
:103DB0008A8992070B4606D501F1430201211A6058
:103DC0001A6159617047F0B583B001AB6A460C4681
:103DD0000646FFF7BFFF00990546304600F032F86F
:103DE000B4F90C30D8B1019A154F0099F76343F03C
:103DF0008003A3812060206161611AB92B43A381F4
:103E000003B0F0BD3046B4F90E1001F021FBA0B1B3
:103E1000A38923F0030343F001031BB2EEE79A05E5
:103E2000EED423F0030304F1430243F00203012123
:103E3000A381226022616161E2E7B4F90C30DDE721
:103E4000793600002DE9F04F01F10B06162E83B0F4
:103E5000054640F29E8036F0070600F1BD80B14273
:103E600000F2BA8000F0F2FBB6F5FC7FC0F093825E
:103E7000730A00F0B880042B00F27981B30903F1D2
:103E8000390003F1380EC300BF4F3B44A3F10801D2
:103E90005C68A14206D10CE0002A80F2AA80E468A6
:103EA000A14206D0636823F003039A1B0F2AF3DDB7
:103EB00070463C69DFF8E4E2744500F0AB8163686A
:103EC00023F003039A1B0F2A00F39081002AC7F8FE
:103ED00014E0C7F810E080F29D80B3F5007F80F019
:103EE0006181DB0803F1010C99107A6857F83C8076
:103EF000C4F8088001238B4007EBCC011343083939
:103F0000E1607B6047F83C40C8F80C408210012417
:103F100094409C4200F28B801C4206D120F00300AA
:103F200064001C4200F10400FAD007EBC009CC4643
:103F30008046DCF80C309C4507D16DE1002A80F208
:103F40007B81DB689C4500F06781596821F00301A3
:103F50008A1B0F2AF2DDD3F80CC0D3F80880009337
:103F60009C19284646F0010642F001055E60C8F83B
:103F70000CC0CCF808807C613C61C4F80CE0C4F84B
:103F800008E065605A5000F067FB009B03F10804ED
:103F90001EE0102920D800F059FB1026182302201B
:103FA000794F3B44A3F108025C68944200F03D81E4
:103FB0006368E168A66823F00303234428465A682F
:103FC000F16042F001028E605A6000F045FB083457
:103FD000204603B0BDE8F08F00240C2320462B6060
:103FE00003B0BDE8F08F40204FF400734FF03F0E58
:103FF0004AE72344E1685A68A66842F00102F1608A
:1040000028468E605A6000F027FB0834204603B033
:10401000BDE8F08F234428465A6842F001025A60F6
:1040200000F01AFB0834204603B0BDE8F08FBC68EE
:10403000636823F00308B04504D3A8EB06030F2BF5
:1040400000F38580DFF85891504BD9F800201B68A9
:104050000132334404EB080A00F0558103F5805324
:104060000F3323F47F6B2BF00F0B5946284600F0DB
:104070009BFF411C024600F0FC80824500F2F78065
:10408000434B19685944196000F04D81D9F800007C
:1040900001301BBFA2EB0A0A5144C9F80020196085
:1040A00012F0070100F01581C1F10800C1F580513F
:1040B0000244083102EB0B09C9F30B09A1EB090912
:1040C000494628460193009200F06EFF431C9DE88C
:1040D0000C0000F04381801A484440F00100196848
:1040E000BA604944BC425060196017D0B8F10F0F54
:1040F00040F2FB806068A8F10C0222F0070204EB9A
:10410000020E00F001004FF0050C10430F2A606012
:10411000CEF804C0CEF808C000F217811D4BBC6871
:104120001A68914288BF19601B4B1A6891426268F5
:1041300088BF196022F003029642A2EB060301D861
:104140000F2B04DC284600F087FA002440E7A21970
:1041500043F0010346F0010666602846BA605360EA
:1041600000F07AFA0834204603B0BDE8F08F142B33
:1041700071D9542B00F2A380330B03F16F0003F1CC
:104180006E0EC30080E600BF5C040020340A0020ED
:10419000040A00202C0A0020300A002064040020B9
:1041A000640800205A0A042A5BD9142A00F2AE805F
:1041B00002F15C01C9005B3207EB010C7958ACF1EC
:1041C000080C8C4500F088804A6822F00302934274
:1041D00073D289688C45F7D1DCF80C207B68E260EB
:1041E000C4F808C09460CCF80C408FE6A11946F0E2
:1041F000010C42F00106C4F804C028467961396117
:10420000C1F80CE0C1F808E04E60E25000F024FA7A
:104210000834DDE67B6879E608F1010818F0030F41
:104220000CF1080C7FF485AE2DE0DC68A34208BFDA
:1042300002303FF43EAEBBE619441C464A68DB68D8
:1042400054F8086F42F001024A602846F3609E600D
:1042500000F002FABCE603F15C0003F15B0EC30060
:1042600012E69A0902F13901C9003832A4E7BC42CA
:1042700054D0BC68626822F003025DE759F808393F
:10428000994540F0868010F0030F00F1FF30F5D122
:104290007B6823EA04037B6064009C423FF6C7AE60
:1042A000002C3FF4C4AE1C4240467FF43EAE640096
:1042B0001C4200F10400FAD037E68C468CE7B3F5D7
:1042C000AA7F15D8F30B03F1780003F1770EC30032
:1042D000DAE54FF48051EDE67B689210012101FA96
:1042E00002F213437B60624679E70123536029E7BA
:1042F00040F25452934222D8B30C03F17D0003F1F3
:104300007C0EC300C0E503F1100BAEE6542A29D899
:104310001A0B02F16F01C9006E324DE7204B19688C
:1043200059441960B2E6CAF30B0000287FF4AEAE20
:1043300008EB0B03BA6843F001035360EEE67F20FD
:104340004FF47E734FF07E0E9EE504F1080128467F
:104350000093FFF761FA009B1968DFE601204FF038
:104360000009BCE6B2F5AA7F05D8DA0B02F17801A4
:10437000C900773220E740F254518A4205D89A0C9E
:1043800002F17D01C9007C3216E74FF47E717E2276
:1043900012E77B6880E7F00806F1080300E600BF3B
:1043A000040A0020000000000000000000000000DF
:1043B00001F0FF01102A2BDB10F0070F08D010F8D6
:1043C000013B013A8B422DD010F0070F42B3F6D1DA
:1043D000F0B441EA012141EA014122F007047FF0F3
:1043E00000070023F0E80256083C85EA010586EA4A
:1043F000010685FA47F5A3FA87F586FA47F6A5FA86
:1044000087F68EB9EED1F0BC01F0FF0102F0070291
:1044100032B110F8013B013A83EA010313B1F8D13C
:104420000020704701387047002D06BF354603381D
:10443000073815F0010F07D1013015F4807F02BF56
:10444000013015F4C03F0130F0BC0138704700BFA7
:10445000844641EA000313F003036DD1403A41D38F
:1044600051F8043B40F8043B51F8043B40F8043B4E
:1044700051F8043B40F8043B51F8043B40F8043B3E
:1044800051F8043B40F8043B51F8043B40F8043B2E
:1044900051F8043B40F8043B51F8043B40F8043B1E
:1044A00051F8043B40F8043B51F8043B40F8043B0E
:1044B00051F8043B40F8043B51F8043B40F8043BFE
:1044C00051F8043B40F8043B51F8043B40F8043BEE
:1044D00051F8043B40F8043B51F8043B40F8043BDE
:1044E000403ABDD2303211D351F8043B40F8043B7E
:1044F00051F8043B40F8043B51F8043B40F8043BBE
:1045000051F8043B40F8043B103AEDD20C3205D38D
:1045100051F8043B40F8043B043AF9D2043208D085
:10452000D2071CBF11F8013B00F8013B01D30B88F7
:1045300003806046704700BF082A13D38B078DD0D5
:1045400010F003038AD0C3F10403D21ADB071CBFA7
:1045500011F8013B00F8013B80D331F8023B20F811
:10456000023B7BE7043AD9D3013A11F8013B00F84A
:10457000013BF9D20B7803704B7843708B788370D2
:10458000604670478842F0B50DD98B1898420AD220
:104590008418002A51D0224613F8014D02F8014D2B
:1045A0009942F9D1F0BD0F2A48D941EA00039B078F
:1045B00046D100F1100401F11003154653F8106CB8
:1045C00044F8106C53F80C6C44F80C6C53F8086CFD
:1045D00044F8086C103D53F8046C44F8046C0F2D3B
:1045E00003F1100304F11004E8D8A2F1100323F042
:1045F0000F0302F00F0E1033BEF1030F19440344F2
:1046000021D91E1F0D467446043C55F8047B46F81C
:10461000047F032CF8D8AEF1040424F0030404341E
:104620002144234402F0030262B1013B0A4411F821
:10463000014B03F8014F8A42F9D1F0BD0346F3E77D
:104640000346F2E7F0BD7246EEE700BF0148FFF710
:104650007DBB00BF500A00200148FFF779BB00BFB7
:10466000500A0020C36C70B505460C464BB153F898
:10467000240080B1026843F8242000230361C36052
:1046800070BD2122042100F0A7FDE8640346002844
:10469000EDD1002070BD012101FA04F6721D2846FB
:1046A000920000F099FD0028F3D044608660E4E7B2
:1046B00031B1C36C4A6853F82200086043F82210F5
:1046C000704700BFF0B50C6983B00D46064601F196
:1046D000140E0027DEF8000081B202FB0133010C4A
:1046E000180C02FB01019BB2013703EB0143BC42F2
:1046F0004EF8043B4FEA1143ECDC3BB1AA6894420C
:1047000007DA05EB8402013453612C61284603B0BB
:10471000F0BD6968019301313046FFF7A3FF2A69B4
:10472000023205F10C01074692000C30FFF790FEB3
:10473000F26C6968019B52F82100286042F8215010
:104740003D46DEE7020C12040346B2B90304102012
:1047500013F07F4F04BF1B02083013F0704F04BFEB
:104760001B01043013F0404F04BF9B000230002BAC
:1047700002DB5B0003D4202070470020E8E7013013
:10478000704700BF036813F00702014607D0DA073D
:1047900021D4980721D49B080B600220704798B25F
:1047A00098B1104613F0FF0F04BF1B0A08301A0718
:1047B00004BF1B0904309A0704BF9B080230DA07C4
:1047C00007D45B0804D1202070471B0C1020E9E7B8
:1047D00001300B607047002070475B080B600120C0
:1047E000704700BF10B50C460121FFF73BFF0122C7
:1047F0004461026110BD00BF2DE9F04F0C691569DD
:10480000AC4283B08B46164604DA2246B3462C46A9
:104810000E461546DBF80830DBF8041004EB0508FB
:104820009845C8BF0131FFF71DFF00F1140909EBDE
:10483000880AD145009005D24B46002143F8041B5D
:104840009A45FBD806F1140C0CEB85030BF1140B05
:104850009C450BEB840E4CD2CDF804A09A46DCF8B4
:104860000050AFB2EFB100214D465E460C4656F8FF
:10487000042B286893B281B207FB0313120C010CBE
:10488000234407FB021101EB13419BB243EA0143AE
:10489000B64545F8043B4FEA1144E8D82C60DCF8F3
:1048A00000502D0C1DD0D9F8003048461C46594602
:1048B00000220E88240C05FB064422449BB243EAE6
:1048C000024340F8043B51F8043B04681B0CA6B2B9
:1048D00005FB036303EB12438E454FEA1342E8D80E
:1048E00003600CF1040CE24509F10409B7D8DDF8C6
:1048F00004A0B8F1000F0BDD5AF8043CAAF1040A39
:104900001BB105E05AF8043D13B9B8F10108F9D11B
:104910000098C0F8108003B0BDE8F08F12F00303D8
:104920002DE9F041144607462ED10D46A4101CD0A7
:10493000BE6C96B3E3074FF0000806D4641014D0A1
:104940003068A8B10646E307F8D53246294638460E
:10495000FFF752FFB5B16A68FB6C641053F8221080
:10496000296043F822500546EAD12846BDE8F08187
:10497000324631463846FFF73FFF3060C0F80080CE
:104980000646E0E70546D9E75A1E0B4D002355F8C9
:104990002220FFF797FE0546C8E701213846FFF7BA
:1049A00061FE40F27121012200234161026106464D
:1049B000B8640360BEE700BFC06400002DE9F8439F
:1049C00091460A698B684FEA691404EB020808F102
:1049D00001059D420E460746496804DD5B009D4285
:1049E00001F10101FADC3846FFF73CFE002C00F132
:1049F000140306DD03EB8402002143F8041B9A42F2
:104A0000FBD1346906F1140119F01F0901EB840E82
:104A10001DD0C9F1200C00220C6804FA09F41443DB
:104A200043F8044B51F8042B8E4522FA0CF2F3D8CC
:104A30001A600AB108F10205FB6C7268013D53F877
:104A400022100561316043F82260BDE8F883043B21
:104A500051F8042B43F8042F8E45F9D8ECE700BF3A
:104A600030B40B6905460069C01A0FD19B0014359C
:104A7000143119442B4401E09D4207D253F8044DF0
:104A800051F8042D9442F7D002D3012030BC704776
:104A90004FF0FF30FAE700BF2DE9F0410F690E46F5
:104AA00011697F1A002F904617D1890006F114056D
:104AB00002F1140E6B18714401E09D425CD253F870
:104AC000042D51F8044DA242F7D05ED233462C4655
:104AD000464675469846012705E058DB06F1140561
:104AE00008F1140400277168FFF7BCFDD8F81030F6
:104AF0003669C76004EB830CA64605EB860700F118
:104B0000140400235EF8041B55F8048B8AB213FAD0
:104B100088F3090C9A1AC1EB184303EB224392B2B3
:104B200042EA0342F44544F8042B4FEA2343E9D810
:104B3000AF4217D9A446AE465EF8042B13FA82F3AF
:104B4000191401EB12419BB243EA014277454CF83C
:104B5000042B4FEA2143EFD8ED432F4427F00307FE
:104B600004373C44043C22B954F8043D013E002B78
:104B7000FAD00661BDE8F0810021FFF773FD012244
:104B8000002302614361BDE8F0817446ABE7334620
:104B900006F1140402F11405164601279846A2E70F
:104BA0002DE9F04357EC106B83B0884601213C4659
:104BB000C7F30A551746FFF755FDC4F313048146A2
:104BC0000DB144F4801401941EB302A840F8086D9E
:104BD000FFF7D8FD002834D19DE80C00C9F8142057
:104BE000002B0CBF01210221C9F81830C9F81010A0
:104BF000DDB909EB8103A0F23240C8F80000186962
:104C0000FFF7A0FDC0EB41103860484603B0BDE897
:104C1000F08301A8FFF7B6FD019BC9F8143001210C
:104C20002030C9F81010002DE3D0A5F2334505441B
:104C3000C0F13500C8F800503860484603B0BDE800
:104C4000F0839DE80A00C0F1200203FA02F20A4351
:104C5000C3400193C9F81420C2E700BF002900F047
:104C600095802DE9F04F0D46164683B0804606F13B
:104C70000B07FFF7EBFC55F804EC162F2EF003049E
:104C8000A5F108093CD810221746BE423DD89442EF
:104C900043DAC44B996809EB0400884200F0B48001
:104CA000436823F0010101444968C9074CD51EF04F
:104CB000010F00F09B8031464046FFF7C3F80646DF
:104CC00000283AD055F8043C23F001034B44A0F1EE
:104CD00008029A4200F02181221F242A00F2078153
:104CE000132A00F2DB8003462A46116819605168D6
:104CF000596092689A6029464046FEF78DFD1CE097
:104D000027F00707002F3A46BFDA00260C2330466B
:104D1000C8F8003003B0BDE8F08F2E46E31B0F2B20
:104D20001ED8D9F8043003F0010323434C44C9F8DA
:104D30000430636843F0010363604046FFF78CFC76
:104D4000304603B0BDE8F08F23F00303E118914231
:104D50001FDBC36882682E46D3600C469A60DDE78D
:104D6000D9F8042009EB070102F001024C4443F09A
:104D700001031743C9F804704B60636843F00103F3
:104D8000083163604046FEF747FDD6E71146FFF75E
:104D900059B81EF0010F8ED155F8081CA9EB010A75
:104DA000DAF8041021F003010B442344934225DB7D
:104DB000C26881685646CA609160DAF80C1056F8ED
:104DC000080F221F242AC160886000F29480132AF1
:104DD0006FD92968CAF808106968CAF80C101B2A2C
:104DE00000F2A28008350AF1100263E055F8083C91
:104DF000A9EB030ADAF8041021F0030163189342C7
:104E0000FFF659AF5646D8E7416821F0030BA3449B
:104E100007F11000834556DA1EF0010F7FF44BAF07
:104E200055F8081CA9EB010ADAF8041021F0030177
:104E30008B445845E2DC5646DAF80C1056F8080F59
:104E4000221F242AC160886000F28F80132A40F25A
:104E50008A802968CAF808106968CAF80C101B2AE9
:104E600000F28A8008350AF1100229681160696829
:104E70005160A96891600AEB0701ABEB070242F0B1
:104E8000010299604A60DAF8043003F001031F431D
:104E90004046CAF80470FFF7DFFB51E72B68036058
:104EA0006B6843601B2A2DD800F1080305F1080246
:104EB0001BE732462968116069685160A9689160F2
:104EC0001C46D1462AE709EB0701ABEB070B4BF079
:104ED000010299604A6055F8043C03F001031F4346
:104EE000404645F8047CFFF7B7FB2E4628E72946E5
:104EF000FFF748FBFFE6294630461C46D146FFF740
:104F000041FB0BE7AB688360EB68C360242A17D0D2
:104F100000F1100305F11002E7E650F8043C23F01D
:104F200003031C442E46F9E6A968CAF81010E96884
:104F3000CAF81410242A0CD010350AF11802B9E767
:104F40002B6903616B69436105F1180200F11803D5
:104F5000CBE62A69CAF818206A69CAF81C201835F5
:104F60000AF12002A6E732467FE729463046019340
:104F7000FFF708FB019B7EE7A968CAF81010E968F3
:104F8000CAF81410242A03D010350AF118026CE76D
:104F90002A69CAF818206A69CAF81C2018350AF16B
:104FA000200262E75C04002038B5074C0023054668
:104FB0000846236001F056F9431C00D038BD236831
:104FC000002BFBD02B6038BD3C0A002010B50C46EE
:104FD000B1F90E1000F088FA002803DB236D0344BA
:104FE000236510BDA38923F48053A38110BD00BFA6
:104FF0002DE9F0411646B1F90C201F46D3050C46A9
:10500000054607D500220223B1F90E1000F040FA40
:10501000B4F90C20B4F90E1022F48052A2813B4660
:1050200032462846BDE8F04100F05EB810B50C46A7
:10503000B1F90E1000F02CFAA389421C0EBF23F424
:10504000805343F480532065A38110BDB1F90E1045
:1050500000F0F2B82DE9F84F4B6E9C0493462FD523
:105060009368126853B30E46074602F1080919E91E
:1050700020045FEA9A0817D0043D002401E0A0450F
:1050800010D0324655F8041F384600F099F9431CF9
:1050900004F10104F3D10023CBF80830CBF804303D
:1050A000BDE8F88FDBF808302AF0030AA3EB0A0307
:1050B000CBF8083009F10809002BD8D10020EAE725
:1050C000FEF790FC0023CBF80830CBF80430BDE8A5
:1050D000F88F00BF93680BB1FFF7BCBF10B4184640
:1050E00053605DF8044B704770B50D46084C11468F
:1050F00006461A46284600232360FBF75BFB431C49
:1051000000D070BD2368002BFBD0336070BD00BFA2
:105110003C0A00202DE9F8432C4D064628689846A5
:105120000F469146FEF712FE294B1C68D4F8483111
:10513000002B3ED05A681F2A1CDC02F1010E76B10A
:1051400003EB82010124C1F88890D3F888019440D0
:105150002043022EC3F88801C1F8088123D002320F
:10516000C3F804E0286843F82270FEF7F1FD002040
:10517000BDE8F883174B0BB34FF4C870AFF3008052
:105180000346D8B1D4F848210260002141600A46A4
:10519000C4F848014FF0010EC0F88811C0F88C1116
:1051A000002EDCD0CCE7D3F88C110C43C3F88C4133
:1051B000D5E704F5A673C4F84831BBE72868FEF7C5
:1051C000C7FD4FF0FF30BDE8F88300BF5804002052
:1051D000546300000000000010B502FB01F1FEF76F
:1051E00031FE0446D8B150F8042C22F00302043AF0
:1051F000242A18D8132A14D900231B2A03604360D9
:1052000016D9242A8360C36011BF00F11002036124
:10521000436100F11802002313605360936020463D
:1052200010BD0246F7E70021FBF77AFC204610BDCF
:1052300000F10802EFE700BF38B5074C0023054630
:1052400008462360FBF772FB431C00D038BD23687F
:10525000002BFBD02B6038BD3C0A002070B559B143
:1052600005460C4610B1836B002B3CD0636ED8070B
:1052700005D5B4F90C302BB90026304670BDA38992
:1052800099053CD521462846FEF72CF9E36A0646E7
:1052900033B1E169284698470028B8BF4FF0FF3680
:1052A000A3891A0622D4216B41B104F1400399422B
:1052B00002D02846FEF7B0FA00232363616C21B1C7
:1052C0002846FEF7A9FA00236364FEF72FFA636EFF
:1052D0000022DB07A2810ED5A06DFEF735FDFEF79B
:1052E0002BFA304670BDFEF7F5F9BFE72169284675
:1052F000FEF792FAD7E7A06DFEF72AFDECE7A06D66
:10530000FEF724FDB4F90C30002BBBD1666E16F00D
:105310000106B1D1A06DFEF71BFD304670BD00BF88
:105320002DE9F04782B080468946144600F0A2F885
:10533000012836D04A4604F15C0301A9404600F03A
:1053400041F9421C064625D0A8B39DF804E000258B
:105350000DF1040A09E023685A1C226083F800E07A
:105360000135B54227D215F80AE0A368013B002BAE
:10537000A360F0DAA769BB4271462246404602DBD1
:10538000BEF10A0FE7D100F0C5F8431CE8D102B026
:10539000BDE8F087A38943F04003A38102B0BDE8D4
:1053A000F08709F1FF33FE2BC4D85FFA89FE064669
:1053B0008DF804E0CBE7484602B0BDE8F08700BFB7
:1053C00030B5536E13F0010FB2F90C30144683B0B0
:1053D00005469AB201D190051CD5900406D4626EA0
:1053E00043F4005342F40052A381626628462246E9
:1053F000FFF796FF636EDA07054602D4A3899B0583
:1054000002D5284603B030BDA06DFEF7A1FC2846AA
:1054100003B030BDA06D0191FEF798FCB4F90C30DB
:1054200001999AB2D9E700BF38B50B46074C05463B
:105430001146184600232360FBF780FA431C00D076
:1054400038BD2368002BFBD02B6038BD3C0A002000
:1054500038B5074C0023054608462360FBF776FA6B
:10546000431C00D038BD2368002BFBD02B6038BD17
:105470003C0A0020044B054A1B685B6B002B08BFED
:10548000134693F8280170472C0000206C08002078
:1054900070B50D46084C114606461A4628460023AC
:1054A0002360FBF75AFA431C00D070BD2368002B21
:1054B000FBD0336070BD00BF3C0A002082B049B110
:1054C0005AB16BB113780B601278101C18BF012011
:1054D00002B0704701A9002AF3D1104602B070470C
:1054E0006FF00100F4E700BF70B50D46084C11469F
:1054F00006461A46284600232360FBF77DF9431C25
:1055000000D070BD2368002BFBD0336070BD00BF9E
:105510003C0A0020F8B50D461446064610B1836BD0
:10552000002B4BD0B4F90C20A369A36091B20807FB
:1055300039D52369002B36D0EDB289042F4615D515
:1055400022686169D31A8B421CDA0133A168501CAE
:105550000139A1602060157062699A421AD0A3894E
:10556000DB0701D50A2D15D03846F8BD616E42F42F
:10557000005221F40051A281226861666169D31A48
:105580008B42E2DB21463046FEF74CF840B92268F8
:105590000123DBE721463046FEF744F80028E3D03C
:1055A0004FF0FF37E0E721463046FCF7F9FE0028D0
:1055B000F6D1B4F90C20236991B2BDE7FEF78AF861
:1055C000B0E700BFF0B5064685B01F4689B1104C64
:1055D000104D2468646B002C08BF2C46D4F8E040C2
:1055E000A047431C03D100228A233A60336005B0F0
:1055F000F0BD0C460649074A0968496B002908BFF7
:1056000011462246D1F8E04001A9A047E9E700BFD2
:105610002C0000206C08002021B1FF2A04D80A7059
:1056200001207047084670478A2303604FF0FF301F
:10563000704700BF81F0004102E000BF83F00043EB
:1056400030B54FEA41044FEA430594EA050F08BF1D
:1056500090EA020F1FBF54EA000C55EA020C7FEAE1
:10566000645C7FEA655C00F0E2804FEA5454D4EB5E
:105670005555B8BF6D420CDD2C4480EA020281EA28
:10568000030382EA000083EA010180EA020281EA60
:105690000303362D88BF30BD11F0004F4FEA0131B2
:1056A0004FF4801C4CEA113102D0404261EB4101C1
:1056B00013F0004F4FEA03334CEA133302D0524247
:1056C00063EB430394EA050F00F0A780A4F1010403
:1056D000D5F1200E0DDB02FA0EFC22FA05F280183D
:1056E00041F1000103FA0EF2801843FA05F3594123
:1056F0000EE0A5F120050EF1200E012A03FA0EFCA2
:1057000028BF4CF0020C43FA05F3C01851EBE371CB
:1057100001F0004507D54FF0000EDCF1000C7EEBE8
:1057200000006EEB0101B1F5801F1BD3B1F5001F26
:105730000CD349085FEA30004FEA3C0C04F1010445
:105740004FEA445212F5800F80F09A80BCF1004F6E
:1057500008BF5FEA500C50F1000041EB045141EAF0
:10576000050130BD5FEA4C0C404141EB010111F4F1
:10577000801FA4F10104E9D191F0000F04BF01469C
:105780000020B1FA81F308BF2033A3F10B03B3F17A
:1057900020020CDA0C3208DD02F1140CC2F10C020A
:1057A00001FA0CF021FA02F10CE002F11402D8BF68
:1057B000C2F1200C01FA02F120FA0CFCDCBF41EA34
:1057C0000C019040E41AA2BF01EB0451294330BD03
:1057D0006FEA04041F3C1CDA0C340EDC04F11404E0
:1057E000C4F1200220FA04F001FA02F340EA0300B7
:1057F00021FA04F345EA030130BDC4F10C04C4F1FD
:10580000200220FA02F001FA04F340EA03002946DC
:1058100030BD21FA04F0294630BD94F0000F83F426
:10582000801306BF81F480110134013D4EE77FEA09
:10583000645C18BF7FEA655C29D094EA050F08BF55
:1058400090EA020F05D054EA000C04BF1946104636
:1058500030BD91EA030F1EBF0021002030BD5FEA7A
:10586000545C05D14000494128BF41F0004130BDA2
:1058700014F580043CBF01F5801130BD01F00045F6
:1058800045F0FE4141F470014FF0000030BD7FEA69
:10589000645C1ABF194610467FEA655C1CBF0B4664
:1058A000024650EA013406BF52EA033591EA030F7B
:1058B00041F4002130BD00BF90F0000F04BF002173
:1058C000704730B54FF4806404F132044FF00005A6
:1058D0004FF0000150E700BF90F0000F04BF00211F
:1058E000704730B54FF4806404F1320410F0004585
:1058F00048BF40424FF000013EE700BF42004FEA80
:10590000E2014FEA31014FEA02701FBF12F07F43FC
:1059100093F07F4F81F06051704792F0000F14BFF9
:1059200093F07F4F704730B54FF4607401F000453D
:1059300021F0004120E700BF50EA010208BF704794
:1059400030B54FF000050AE050EA010208BF704789
:1059500030B511F0004502D5404261EB41014FF4F2
:10596000806404F132045FEA915C3FF4DCAE4FF0F6
:1059700003025FEADC0C18BF03325FEADC0C18BFDD
:10598000033202EBDC02C2F1200300FA03FC20FA2E
:1059900002F001FA03FE40EA0E0021FA02F114447B
:1059A000C1E600BF70B54FF0FF0C4CF4E06C1CEA90
:1059B00011541DBF1CEA135594EA0C0F95EA0C0F05
:1059C00000F0DEF82C4481EA030621EA4C5123EA78
:1059D0004C5350EA013518BF52EA033541F48011A7
:1059E00043F4801338D0A0FB02CE4FF00005E1FB5A
:1059F00002E506F00042E0FB03E54FF00006E1FBA4
:105A000003569CF0000F18BF4EF0010EA4F1FF04E6
:105A1000B6F5007F64F5407404D25FEA4E0E6D4126
:105A200046EB060642EAC62141EA55514FEAC52037
:105A300040EA5E504FEACE2EB4F1FD0C88BFBCF5B3
:105A4000E06F1ED8BEF1004F08BF5FEA500E50F164
:105A5000000041EB045170BD06F0004646EA01012A
:105A600040EA020081EA0301B4EB5C04C2BFD4EB5C
:105A70000C0541EA045170BD41F480114FF0000E55
:105A8000013C00F3AB8014F1360FDEBF002001F0C3
:105A9000004170BDC4F10004203C35DA0C341BDC3D
:105AA00004F11404C4F1200500FA05F320FA04F00F
:105AB00001FA05F240EA020001F0004221F0004143
:105AC00010EBD37021FA04F642EB06015EEA430EB6
:105AD00008BF20EAD37070BDC4F10C04C4F12005E6
