:100000000000022021290000852900005908000075
:1000100085290000852900008529000000000000D6
:10002000000000000000000000000000C10B000004
:100030008529000000000000610C0000C50C0000D4
:1000400085290000852900008529000085290000F8
:100050008529000000000000852900008529000096
:1000600085290000852900008529000085290000D8
:1000700085290000852900008529000085290000C8
:1000800085290000852900008529000085290000B8
:1000900085290000852900008529000085290000A8
:1000A0008529000085290000852900008529000098
:1000B0008529000085290000852900008529000088
:1000C0008529000085290000852900008529000078
:1000D0008529000085290000852900008529000068
:1000E0008529000085290000852900008529000058
:1000F00085290000000000008529000085290000F6
:100100008529000085290000852900008529000037
:100110008529000085290000852900008529000027
:100120008529000085290000852900008529000017
:100130008529000000000000852900000000000063
:1001400085290000852900008529000085290000F7
:100150008529000000000000852900008529000095
:1001600085290000852900008529000085290000D7
:1001700085290000852900008529000085290000C7
:100180008529000085290000852900000000000065
:1001900085290000852900008529000085290000A7
:1001A0008529000085290000852900000000000045
:1001B00085290000852900000000000000000000E3
:1001C000000000000000000000000000000000002F
:1001D0000000000085290000852900008529000015
:1001E0008529000085290000852900008529000057
:1001F0008529000010B5054C237833B9044B13B1A1
:100200000448AFF300800123237010BD000A0020D2
:1002100000000000CC8500000C4B43B10C480D4998
:1002200010B5AFF300800C48036823B910BD0A482D
:10023000036833B97047094B002BF7D0BDE8104075
:100240001847064B002BF5D0184700BF00000000F0
:10025000CC850000040A0020FC09002000000000FA
:10026000154B002B08BF134B9D46A3F5803A002188
:100270008B460F461348144A121A02F0C5FC0F4B66
:10028000002B00D098470E4B002B00D09847002041
:10029000002104000D000D48002802D00C4804F095
:1002A000C1F902F0EFFB2000290000F099F802F0FC
:1002B000D9FB00BF00000800000002200000000081
:1002C00000000000000A0020482C00202546000005
:1002D00005580000044A1388591C118003F00703D5
:1002E000024A9360704700BF1C0A0020C0410040D2
:1002F00000B583B001F0E2FD0190084802F034FD42
:1003000041F2883101A801F0F3FE00F04BFE012814
:10031000F6D0034802F028FDF2E700BF2C8200006F
:100320004882000038B54FF080435922C3F80021BD
:100330001622C3F800218822C3F80021D3F8003127
:10034000002BF0D002F14022B832136823F0F00302
:100350001360012000F0CEF8012000F0E9F81A48FF
:1003600000F0FCF91122194B5A63194D284600F090
:10037000C9F8184C204600F0C5F80022114628465E
:1003800000F05EF800221146204600F059F802F015
:10039000FBFA4FF08043DA6B22F47F02DA63DA6B08
:1003A00042F4CC02DA630C490A6822F03F0242F0C0
:1003B00015020A600022C3F800214FF4E13107481A
:1003C00000F08AFA38BD00BF00B0710B0002004097
:1003D000103D80570200805EC04100400000074091
:1003E00000B583B0FFF79EFF002301930322009224
:1003F00032220849084801F0E5FC012000F0E4FE43
:10040000022000F0A1FD054802F0AEFC01F00CFD59
:10041000FEE700BF08820000F10200001082000029
:100420004FF0500383F31188BFF36F8FBFF34F8FEB
:10043000FEE7704708B500F08BFE08BDFEE7FEE75B
:1004400070B4C0F38724C4B14FF08043D3F8F431C3
:10045000DBB2012B25D0C0F38143022B40D0032B0C
:1004600040D003F1805388339B001D68C0F34416CD
:10047000B44025EA040422431A60C0F3426272B118
:10048000C0F3017303F1805384339B001C68C0F3F5
:10049000045002FA00F024EA00000143196070BC25
:1004A0007047C0F38143022B0AD0022B0ED0022BDF
:1004B00012D0032B12D003F1805388339B00D4E772
:1004C00000F01F051F2DF0D1074BCEE700F01F05F0
:1004D0001D2DECD1044BC8E7044BC6E7044BC4E721
:1004E000024BC2E7024BC0E7280200402C0200404A
:1004F00030020040024A136818431060704700BF82
:100500000002004000F01F0201239340800F800092
:1005100000F18040D0F804221343C0F80432704741
:10052000024A136C43F480331364704700020040A6
:10053000074B084A126D30EA020204D05A1E002B03
:1005400003DD1346F5E7012070470020704700BF28
:1005500080F5200000020040F8B506460F46104C1A
:10056000256D05F01005236843F004032360102077
:10057000FFF7DEFF236943F007032361216A21F0BF
:100580000F0139432162206920F0070030432061C8
:1005900002F0FAF91DB9236823F004032360F8BDC3
:1005A0000002004082B0124B1B680193114B1B6C80
:1005B00013F4A02F19D113F4003F02D00E4802B05B
:1005C0007047C3F3813202A90A4412F8042CC3F322
:1005D0000800811CC3F34423084800FB01F003FB1F
:1005E0000223B0FBF3F0C000E9E70020E7E700BF1B
:1005F0005882000000020040001BB700C0C62D005A
:100600002DE9F84F04468A46FFF78AFFE4B94C4AC1
:10061000136843F0010313600120FFF789FF4FF0D7
:10062000000E484B5344484A934263D9002C40F093
:10063000828044F21E22424B1A640420FFF778FFA6
:10064000FFF7B0FFBDE8F88F3D4A136843F004039D
:1006500013601020FFF76CFF4FF4002EE1E74FEA24
:100660008A0C44E04FEA4A0C41E0CB1A12E0013216
:1006700040F201239A4219D8C0F35D0303FB02F351
:1006800030491944314DA942F1D84FEA9C018B42BF
:10069000EBD95B1A9F42EAD923B14C4646469346B2
:1006A0001F46E4E74C46464693461F4608F10108BC
:1006B000B8F1200F0CD85FB12548B0FBF8F0A0F5D9
:1006C0007413A3F51063234A9342EFD80222CFE7B5
:1006D00009F10109B9F1040F15D8A7B1B9F1030F58
:1006E000F6D0B9F1040FBAD0B9F1020FBAD04FF079
:1006F0000208DDE7D44600242646A3464FF0FF3724
:100700004FF00109E6E7631E4EEA8333721E43EAA7
:100710004223ABF102021343094A13640420FFF79A
:1007200007FF04FB06F40A48B0FBF4F000FB0BF0F3
:100730004000BDE8F88F084A014B1A647DE700BF0E
:1007400000020040800F05FD8074D21AC068780452
:10075000001BB70000093D001E42080070B50646A8
:100760001B4B1D6D05F010051A4B984200D91E4613
:10077000174C236843F0040323601020FFF7D8FED2
:10078000236943F007032361236A23F00F032362E5
:10079000236813F0010F10D031460020FFF730FF1F
:1007A000044600210220FFF7D7FE25B9084A136846
:1007B00023F004031360204670BD31464FF400203F
:1007C000FFF71EFF0446024B1D6D05F01005E8E71C
:1007D0000002004000B0710B10B5044601681048DB
:1007E00002F060FA61680F4802F05CFAA1680E48F6
:1007F00002F058FAE1680D4802F054FA21690C48F9
:1008000002F050FA61690B4802F04CFAA1690A48FB
:1008100002F048FAE169094802F044FA10BD00BF4D
:1008200094820000A0820000AC820000B882000028
:10083000C4820000D0820000DC820000E882000058
:1008400008B50446034802F08FFA2046FFF7C4FFBC
:10085000FEE700BF7C820000074B0420714608427F
:1008600004D0EFF309807146FFF7EABFEFF3088089
:10087000FFF7E6BFFEE700BF4108000030B41346B3
:1008800005E091F900500D4B1D60234601315C1EBF
:100890008BB10A4B9B6913F4000FFAD191F9003028
:1008A0000A2BEED10D25054B1D60044B9B6913F4FB
:1008B000000FFAD1E5E7104630BC70470000074052
:1008C000044B9B6913F4804FFAD1024B1B680B70E9
:1008D0000120704700000740F0B585B004460E4681
:1008E0003C4B0FCB04AD05E90F003B4B9C4232D093
:1008F0003A4B9C4237D03A4B9C423CD0394B9C42BD
:1009000041D0394B9C4246D0384B9C424BD00027BB
:100910003D46002323630323E360A36823F470238D
:1009200023F0F003A360012D44D096B104AB03EB98
:10093000850555F8102C0137B2FBF7F202EB560390
:10094000B3FBF6F3023BB3F5803F3BD243F0405399
:10095000636205B0F0BD264B5D69C5F301651F6A92
:10096000C7F30327D5E7224B5D69C5F381651F6A8D
:10097000C7F30337CDE71E4BDD69C5F301651F6B78
:1009800007F00F07C5E71A4BDD69C5F381651F6BDB
:10099000C7F30317BDE7164BDD69C5F301751F6B80
:1009A000C7F30327B5E7124BDD69AD0F1F6BC7F324
:1009B0000337AEE7FFF7F6FD04AB03EB850343F81F
:1009C000100CB2E702EBC602B2FBF6F63609023EA5
:1009D0006662BEE7F4820000000007400010074096
:1009E000002007400030074000400740005007400B
:1009F00000020040074B23F00703074A1360002062
:100A00005060064A41F6F8715160106059601A60F2
:100A1000704700BF280A00202C2A0020202A00202E
:100A200070B5044601F042FA244B1B687BB134B127
:100A3000083414F0070F02D024F007040834621EB3
:100A400041F6F6739A4232D81D490B6807E0FFF76A
:100A5000D1FF0122194B1A60E9E7194613465A687B
:100A6000944202D91A68002AF7D1164A934220D03C
:100A70000D6808351A680A605A68121B102A0CD9CA
:100A80001E1972605C6074680D4900E011460A68C6
:100A900050688442FAD832600E6059680A4A136876
:100AA0005B1A136001F0A6FA2DB1284670BD00252F
:100AB000F8E70025F6E7FFF7B3FCF6E7282A002061
:100AC0002C2A0020202A002000000020D0B170B580
:100AD0000546A0F1080601F0E9F955F8044C0A4A68
:100AE00000E01A46136859688C42FAD845F8083C69
:100AF000166055F8041C054A13680B44136001F096
:100B000079FA70BD704700BF2C2A00200000002039
:100B100082B0002301930D4B1B68B3F1FF3F08D057
:100B20004FF0500383F31188BFF36F8FBFF34F8FE4
:100B3000FEE74FF0500383F31188BFF36F8FBFF3CD
:100B40004F8F019B002BFCD002B0704704000020A7
:100B500008480068006880F308884FF0000080F3C0
:100B6000148862B661B6BFF34F8FBFF36F8F00DF9B
:100B700000BF000008ED00E0DFF80C00016841F460
:100B8000700101607047000088ED00E04FF0807355
:100B900040F8043C21F0010140F8081C054B40F8E6
:100BA0000C3C40F8202C6FF0020340F8243C443801
:100BB000704700BF110B00000000000000000000A3
:100BC000074B19680868B0E8F04F80F30988BFF355
:100BD0006F8F4FF0000080F311887047AFF30080F3
:100BE0006C2A00204FF0500383F31188BFF36F8FFE
:100BF000BFF34F8F0A4A136801331360012B0DD1E5
:100C0000084B1B6813F0FF0F08D04FF0500383F31D
:100C10001188BFF36F8FBFF34F8FFEE7704700BFA0
:100C20000400002004ED00E0094B1B6843B94FF0BD
:100C3000500383F31188BFF36F8FBFF34F8FFEE72D
:100C4000013B034A13600BB983F31188704700BF5F
:100C50000400002000000000000000000000000070
:100C6000EFF30980BFF36F8F154B1A681EF0100F5A
:100C700008BF20ED108A20E9F04F10602DE909002F
:100C80004FF0500080F31188BFF34F8FBFF36F8F89
:100C900001F0ACFA4FF0000080F3118809BC19682C
:100CA0000868B0E8F04F1EF0100F08BFB0EC108AD3
:100CB00080F30988BFF36F8F704700BFAFF30080E8
:100CC0006C2A002008B54FF0500383F31188BFF35E
:100CD0006F8FBFF34F8F01F0F7F818B14FF08052CC
:100CE000024B1A60002383F3118808BD04ED00E075
:100CF000084A0023136008490B60084B1B68084929
:100D0000A1FB03139B09013B06490B6007231360FA
:100D1000704700BF10E000E018E000E01C00002079
:100D2000D34D621014E000E03A4B1A683A4B9A42F5
:100D300008D14FF0500383F31188BFF36F8FBFF3D7
:100D40004F8FFEE7334B1A68344B9A4208D14FF06D
:100D5000500383F31188BFF36F8FBFF34F8FFEE70C
:100D600010B582B02E4B1A78D2B20192FF221A70BF
:100D70001B78DBB28DF803309DF8033003F050038D
:100D8000284A13700722284B1A6009E0264A136884
:100D9000013B13609DF803305B00DBB28DF803303C
:100DA0009DF8033013F0800FF0D11F4B1B68032B0D
:100DB00008D04FF0500383F31188BFF36F8FBFF358
:100DC0004F8FFEE71B0203F4E063174A1360019B99
:100DD000DBB2134A1370154B1A6842F470021A60A2
:100DE0001A6842F070421A60FFF782FF0024104B2D
:100DF0001C60FFF7C1FE0F4A136843F040431360C5
:100E0000FFF7A6FE01F0F2F9FFF782FE204602B0DE
:100E100010BD00BF00ED00E071C20F4170C20F4174
:100E200000E400E0342A0020382A002020ED00E011
:100E30000400002034EF00E0EFF305830F2B0FD9FF
:100E4000104A9B5CDBB2104A1278934208D24FF0F2
:100E5000500383F31188BFF36F8FBFF34F8FFEE70B
:100E60000A4B1B6803F4E063094A1268934208D9ED
:100E70004FF0500383F31188BFF36F8FBFF34F8F91
:100E8000FEE77047F0E300E0342A00200CED00E0BC
:100E9000382A002070B582B006460025ADF806500D
:100EA0001FE095B1BDF806300133ADF806300134CE
:100EB000022C13DC00231A460DF10601306800F005
:100EC00043FB0128EDD00125F1E7FFF78BFE064A31
:100ED000136801331360FFF7A7FEE3E7C82001F0B2
:100EE0005DF90024E4E700BF442A002070B582B019
:100EF00004460026354607E000220DF10601206871
:100F000000F07AFC012808D0206800F07EFD00285F
:100F1000F2D1B42001F042F9F6E7BDF806309D4267
:100F200003D0012601339DB2EEE70EB12B46F9E75F
:100F3000FFF758FE034A136801331360FFF774FE8E
:100F40002B46EFE7402A002070B582B0044600220D
:100F500002210A2000F0D3FA0C4B1860A0B10C4912
:100F600000F066FD094D0026019600942B463222C2
:100F70000849094800F026FF019600942B463222CA
:100F80000649074800F01EFF02B070BD3C2A002051
:100F90000483000014830000ED0E00001C83000099
:100FA000950E0000084B1B6833B1084B1B680BB152
:100FB000012002E0002000E000200023024A13602C
:100FC000024A1360704700BF402A0020442A0020D4
:100FD00088420BD9411A032914D94FF0500383F3E7
:100FE0001188BFF36F8FBFF34F8FFEE7091A0329F4
:100FF00008D94FF0500383F31188BFF36F8FBFF30D
:101000004F8FFEE70120704708B54FF6FE739842F8
:1010100027D9A0F57F43FF3B052B02D910F1080F1C
:101020000BD9244B1B6893B94FF0500383F31188FD
:10103000BFF36F8FBFF34F8FFEE71F4B1968FFF7AA
:10104000C7FF0128EDD000221A4B1A60E9E71A4ABF
:1010500013680133136063BB4FF6FF72164B1A60BF
:1010600008BD052804D9C0F57F43FE33062B0BD8F5
:10107000104B1B6893B94FF0500383F31188BFF3F3
:101080006F8FBFF34F8FFEE70C4B1968FFF7A0FF80
:101090000128EDD00022074B1A60E9E7074A1368E0
:1010A000013313604FF6FE72934202D90022034BC4
:1010B0001A6008BD10000020080000204C2A002003
:1010C00000B583B0094B186800F0EFFC58B100225E
:1010D00001A900F03FFC012802D00022044B1A6055
:1010E0000198FFF791FF03B05DF804FB502A002040
:1010F0001000002010B582B0124B1B6802A941F805
:10110000043D114B1C6800231A46104850F8240077
:1011100000F0F0FA012801D002B010BD094B1A68A6
:1011200001321A601B681BB94FF6FF72054B1A603B
:10113000054A136801331360022BEDDD0022024BD8
:101140001A60E9E70C000020542A0020582A0020E9
:1011500008B5094B1B68012B00D008BD074A13686E
:1011600001331360642BF8D90022044B1A60FFF797
:10117000A7FFFFF7BFFFF0E7642A0020482A0020FE
:1011800030B583B0FFF72EFD0E4B1D681A68013293
:101190001A60FFF749FD40F24D1405FB0444640852
:1011A00000F08CFE0190214601A800F0A1FF284626
:1011B000FFF790F8214601A800F09AFF2846FFF7B4
:1011C00089F8F0E7682A002030B583B0054600248E
:1011D00008E000230193009532220449044800F0FE
:1011E000F1FD0134022CF4DD03B030BD2483000096
:1011F0008111000000F1080343604FF0FF3282606C
:10120000C3600361002303607047002303617047DC
:1012100043684B609A688A609A6851609960086177
:10122000036801330360704730B40D68B5F1FF3FC8
:1012300002D000F1080202E0026904E01A46536895
:101240001C68A542FAD253684B6099608A6051606D
:10125000086103680133036030BC7047036942686A
:10126000816891608268416851605A68904206D0F6
:10127000002202611A68013A1A6018687047826891
:101280005A60F5E710B50446FFF7ACFCA26BE36BC0
:101290009A4204D00024FFF7C7FC204610BD012469
:1012A000F9E710B50446FFF79DFCA36B23B10024BA
:1012B000FFF7BAFC204610BD0124F9E770B50446DB
:1012C0001646856B026C4AB9036853BB406801F04F
:1012D000B7F8002363600135A56370BD6EB98068FF
:1012E00001F0F8FB226CA3681344A3606268934288
:1012F00019D32368A3600020EDE7C06801F0EAFB82
:10130000236C5B42E2681A44E26021688A4202D29E
:1013100062681344E360022E07D145B1013D00200D
:10132000D9E70020D7E70020D5E70020D3E7002049
:10133000D1E770B582B00190846C64B1A26BE36BAD
:101340009A4211D34FF0500383F31188BFF36F8F8C
:10135000BFF34F8FFEE74FF0500383F31188BFF3C5
:101360006F8FBFF34F8FFEE7A26B934203D8002627
:10137000304602B070BD0A4694F845506DB201A9DE
:101380002046FFF79BFF0646B5F1FF3F0AD1636A8F
:10139000002BEDD004F1240000F0AAFF0028E7D0D4
:1013A0000126E5E76B1C5BB284F84530E0E7026C90
:1013B00072B110B50346C4681444C46040688442E6
:1013C00001D31868D8600846D96801F083FB10BDC6
:1013D000704738B50546FFF705FC95F8454064B2FF
:1013E00008E06B6ABBB105F1240000F081FF78B919
:1013F000013C64B2002C0EDDAB6C002BF1D000215F
:101400002846FFF796FF0028F2D001F003F8EFE737
:1014100001F000F8ECE7FF2385F84530FFF704FC06
:10142000FFF7E0FB95F8444064B201E0013C64B290
:10143000002C0ADD2B6943B105F1100000F058FFC4
:101440000028F3D000F0E6FFF0E7FF2385F84430F2
:10145000FFF7EAFB38BD000038B530B304460D464F
:10146000FFF7C0FB2168E26B236C03FB0210606096
:101470000020A063A160013A02FB0313E360FF2395
:1014800084F8443084F84530C5B92369F3B104F1D8
:10149000100000F02DFFC8B14FF080520D4B1A60C4
:1014A000BFF34F8FBFF36F8F10E04FF0500383F304
:1014B0001188BFF36F8FBFF34F8FFEE704F1100069
:1014C000FFF798FE04F12400FFF794FEFFF7ACFB52
:1014D000012038BD04ED00E038B51D46049C0B46E4
:1014E00059B12260E063236401212046FFF7B4FF75
:1014F00084F850500023A36438BD2460F2E740B95B
:101500004FF0500383F31188BFF36F8FBFF34F8FFA
:10151000FEE7F0B583B0054611B101FB00F000E035
:10152000002017460C465430FFF77AFA064638B1C9
:1015300000903B4600F1540221462846FFF7CCFFBD
:10154000304603B0F0BD0000F0B585B0019260B147
:10155000044699B10125BDB94FF0500383F31188BA
:10156000BFF36F8FBFF34F8FFEE74FF0500383F34E
:101570001188BFF36F8FBFF34F8FFEE7026C0AB97C
:101580000125E8E70025E6E7022B09D06DB94FF009
:10159000500383F31188BFF36F8FBFF34F8FFEE7C4
:1015A000E26B012AF2D00025F0E71E460F4600F05C
:1015B00037FF10B9019B03B1002545B94FF0500327
:1015C00083F31188BFF36F8FBFF34F8FFEE70025C2
:1015D0003DE0324639462046FFF770FEA36C8BB1E2
:1015E00031462046FFF7A5FE38B14FF08052404B00
:1015F0001A60BFF34F8FBFF36F8FFFF715FB01200A
:1016000005B0F0BD636A73B104F1240000F070FE10
:101610000028F2D04FF08052354B1A60BFF34F8F45
:10162000BFF36F8FE9E70028E7D04FF08052304BCF
:101630001A60BFF34F8FBFF36F8FDEE7FFF7F4FA47
:101640000020DDE72046FFF7C4FE00F0D3FCFFF7E3
:10165000C9FAA26BE36B9A42BBD3022EB9D0019BAD
:10166000002BEBD01DB902A800F088FE0125FFF782
:10167000DBFA00F01BFCFFF7B5FA94F844305BB2DC
:10168000B3F1FF3F02D1002384F8443094F8453091
:101690005BB2B3F1FF3F02D1002384F84530FFF77E
:1016A000C3FA01A902A800F075FEC8B92046FFF7E9
:1016B000E9FD0028C6D0019904F1100000F0E4FD16
:1016C0002046FFF786FE00F095FC0028BFD14FF0C2
:1016D0008052074B1A60BFF34F8FBFF36F8FB6E78F
:1016E0002046FFF776FE00F085FC002088E700BF6B
:1016F00004ED00E02DE9F84360B1044699B1012002
:10170000B8B94FF0500383F31188BFF36F8FBFF365
:101710004F8FFEE74FF0500383F31188BFF36F8FB5
:10172000BFF34F8FFEE7006C08B90120E8E7002007
:10173000E6E7022B09D068B94FF0500383F3118814
:10174000BFF36F8FBFF34F8FFEE7E56B012DF2D034
:101750000020F0E71F4690468946FFF76DFBEFF348
:1017600011864FF0500383F31188BFF36F8FBFF3DF
:101770004F8FA26BE36B9A4201D3022F2FD194F8C3
:1017800045506DB23A4649462046FFF797FDB5F100
:10179000FF3F1ED1A36C73B139462046FFF7C9FD48
:1017A000F8B1B8F1000F1ED00120C8F8000086F390
:1017B0001188BDE8F883636ABBB104F1240000F02E
:1017C00097FDA0B1B8F1000F13D00120C8F80000B8
:1017D000EDE76B1C5BB284F845300120E7E70020A1
:1017E000E5E70120E3E70120E1E70120DFE7012051
:1017F000DDE70120DBE70000F0B585B0019260B1C4
:10180000044699B10125BDB94FF0500383F3118807
:10181000BFF36F8FBFF34F8FFEE74FF0500383F39B
:101820001188BFF36F8FBFF34F8FFEE7036C0BB9C7
:101830000125E8E70025E6E70E4600F0F1FD10B9C6
:10184000019B03B1002545B94FF0500383F3118884
:10185000BFF36F8FBFF34F8FFEE700272FE03146B6
:101860002046FFF7A4FD013DA563236963B104F1A0
:10187000100000F03DFD38B14FF08052344B1A603B
:10188000BFF34F8FBFF36F8FFFF7CEF9012005B085
:10189000F0BDFFF7C9F90020F9E702A800F06EFDDE
:1018A000012716E0002384F844301EE0002384F86A
:1018B000453020E02046FFF78CFD00F09BFBFFF752
:1018C00091F9A56B002DCAD1019B002BE1D0002F0F
:1018D000E3D0FFF7A9F900F0E9FAFFF783F994F8EC
:1018E00044305BB2B3F1FF3FDCD094F845305BB2DB
:1018F000B3F1FF3FDAD0FFF797F901A902A800F092
:1019000049FDC8B92046FFF7CCFC0028D2D0019988
:1019100004F1240000F0B8FC2046FFF75AFD00F067
:1019200069FB0028CBD14FF08052094B1A60BFF3FE
:101930004F8FBFF36F8FC2E72046FFF74AFD00F0DD
:1019400059FB2046FFF7ADFC0028B8D000209EE7E9
:1019500004ED00E02DE9F84360B1044699B101239C
:10196000BBB94FF0500383F31188BFF36F8FBFF300
:101970004F8FFEE74FF0500383F31188BFF36F8F53
:10198000BFF34F8FFEE7036C0BB90123E8E7002399
:10199000E6E717468946FFF74FFAEFF311864FF057
:1019A000500383F31188BFF36F8FBFF34F8FD4F8C9
:1019B0003880B8F1000F20D094F844506DB24946F9
:1019C0002046FFF7F4FC08F1FF33A363B5F1FF3FB6
:1019D0000DD123699BB104F1100000F089FC80B1A6
:1019E0008FB10120386086F31188BDE8F8836B1C45
:1019F0005BB284F844300120F5E70020F3E70120D2
:101A0000F1E70120EFE70120EDE740B94FF0500387
:101A100083F31188BFF36F8FBFF34F8FFEE710B5CD
:101A20000446FFF7DFF8A46BFFF7FEF8204610BD71
:101A30000023072B0CD8074A52F833200AB1013390
:101A4000F7E7044A42F8331002EBC30358607047CB
:101A5000704700BFE02B002070B504460D461646C7
:101A6000FFF7C0F894F844305BB2B3F1FF3F0DD0FC
:101A700094F845305BB2B3F1FF3F0BD0FFF7D4F8D9
:101A8000A36B5BB12046FFF7A4FC70BD002384F874
:101A90004430EDE7002384F84530EFE7324629462D
:101AA00004F1240000F008FCECE700B583B000224C
:101AB00002A941F8042DFFF74DFF019803B05DF82E
:101AC00004FB00000A4B1B681B684BB901234BB990
:101AD000074B1B68DB68DB685A68064B1A60704767
:101AE0000023F4E74FF0FF32024B1A60704700BF4B
:101AF000702A0020202B002010B50446006BFEF752
:101B0000E5FF2046FEF7E2FF10BD2DE9F0478146D4
:101B10000D4617469A46089EDDF824800A9C9200DE
:101B2000A521206B01F070F8236B07F18042013A88
:101B300003EB820727F007070023092B07D8E95694
:101B4000E21882F83410EA560AB10133F5E70023AF
:101B500084F83D30042E00D90426E662A6640025F0
:101B6000E564201DFFF751FB04F11800FFF74DFB62
:101B70002461C6F10506A6616462256584F85450A7
:101B8000524649463846FFF701F82060B8F1000F89
:101B900001D0C8F80040BDE8F087000038B5002447
:101BA00007E004EB840293000E481844FFF722FB81
:101BB0000134042CF5D90C4D2846FFF71BFB0B4CC8
:101BC0002046FFF717FB0A48FFF714FB0948FFF709
:101BD00011FB0948FFF70EFB084B1D60084B1C600A
:101BE00038BD00BF782A0020F42A0020082B0020EE
:101BF000282B0020542B0020402B0020702A00208E
:101C0000742A002010B50446FEF7ECFF214A136841
:101C100001331360204B1B68002B32D01F4B1B6815
:101C20003BB91D4B1B68DA6AE36A9A4201D81A4B2A
:101C30001C601B4A1368013313602364E36A0122AA
:101C40009A401849086802430A6003EB83039A002C
:101C5000211D15481044FFF7DBFAFEF7E5FF0F4B97
:101C60001B686BB10C4B1B68DA6AE36A9A4207D2B5
:101C70004FF080520D4B1A60BFF34F8FBFF36F8F41
:101C800010BD054B1C601368012BD2D1FFF786FFF6
:101C9000CFE700BFDC2A00206C2A00203C2B00206C
:101CA000EC2A0020F02A0020782A002004ED00E031
:101CB0000F4B1B68D3B110B5FEF794FF0D4BDB68DB
:101CC000DC68201DFFF7CAFA0B4A1368013B13605A
:101CD000074A1368013B1360FEF7A6FF2046FFF793
:101CE0000BFF034B1B68002BE6D110BD704700BFF4
:101CF000E02A0020542B0020DC2A002070B5044686
:101D00000E461D4B1D681D4B18680430FFF7A6FAE0
:101D100050B91A4B1B68DA6A012303FA02F2184918
:101D20000B6823EA02030B60B4F1FF3F13D02C448D
:101D3000124B1B685C60A54216D8124B18680F4BFB
:101D400019680431FFF770FA0F4B1B689C4201D2EF
:101D50000D4B1C6070BD002EE9D0084B1968043192
:101D60000A48FFF755FA70BD094B1868034B19680C
:101D70000431FFF759FA70BD682B00206C2A00204F
:101D8000F02A0020702A0020202B0020402B002069
:101D9000742A002008B501E0FEF74BFBFFF788FF2F
:101DA000064B1B68012BF7D94FF08052044B1A6089
:101DB000BFF34F8FBFF36F8FEEE700BF782A00208D
:101DC00004ED00E02DE9F04385B006460F461546C8
:101DD00098469000FEF724FE00B381465820FEF797
:101DE0001FFE0446B0B1C0F83090CCB1002303937D
:101DF00002940D9B01930C9B009343462A4639465F
:101E00003046FFF782FE2046FFF7FCFE012005B0BA
:101E1000BDE8F0834846FEF759FEE6E70024E4E714
:101E20004FF0FF30F3E7000000B583B0194B01938A
:101E300000230093322218491848FFF7C3FF0128F6
:101E400007D0012808D0B0F1FF3F1AD003B05DF8E9
:101E500004FB00F0B1FBF4E74FF0500383F311886B
:101E6000BFF36F8FBFF34F8F4FF0FF320C4B1A60F1
:101E700001220C4B1A6000220B4B1A60FEF754FF34
:101E8000E4E74FF0500383F31188BFF36F8FBFF384
:101E90004F8FFEE71C2B00202C830000951D0000B7
:101EA000202B00203C2B0020682B0020024A1368C6
:101EB00001331360704700BFE82A0020014B186807
:101EC000704700BF682B0020F8B53F4B1B68002B04
:101ED00072D13E4B1D6801351D60C5B93C4B1B6876
:101EE0001B6843B14FF0500383F31188BFF36F8F2A
:101EF000BFF34F8FFEE7364A1168364B1868106003
:101F00001960354A136801331360FFF7DBFD334B6B
:101F10001B689D4244D20024314B1B68DB6A03EBF3
:101F200083039A002F4B9B58012B00D901242E4B81
:101F30001B680BB9FEF77EFA2C4B1B6803B101241A
:101F40002046F8BD0124224B1B681B6853B30023B5
:101F500053BB1F4B1B68DB68DE6873689D4228D348
:101F6000371D3846FFF77AF9B36A1BB106F118003E
:101F7000FFF774F9F36A01229A401D490868024389
:101F80000A6003EB83039A00394616481044FFF7B2
:101F90003FF9F26A124B1B68DB6A9A42D2D2D2E74F
:101FA0000024D0E70123D3E74FF0FF320B4B1A6038
:101FB000B2E70A4A1360AFE70B4A136801331360B4
:101FC000FEF738FA0024B7E7E82A0020682B002043
:101FD000702A0020742A0020242B0020202B0020AF
:101FE0006C2A0020782A0020E42A00206C2B002094
:101FF000F02A002038B5354B1B6843B94FF0500329
:1020000083F31188BFF36F8FBFF34F8FFEE7FEF7A7
:10201000E9FD2E4B1A68013A1A601B68002B50D15B
:102020002B4B1B6823B90024FEF7FEFD204638BD6C
:102030000024284B1B681BB3264BDB68DC6804F1CB
:102040001800FFF70BF9251D2846FFF707F9E36A8B
:1020500001229A402049086802430A6003EB830387
:102060009A0029461D481044FFF7D2F8E26A1C4B3B
:102070001B68DB6A9A42DCD301221A4B1A60D8E74C
:102080000CB1FFF71FFD184B1C6874B9154B1B688A
:10209000CBB14FF08052154B1A60BFF34F8FBFF397
:1020A0006F8F0124C0E7013C07D0FFF70DFF002828
:1020B000F9D001220B4B1A60F5E700220A4B1A6097
:1020C000E4E70024B0E70024AEE700BFE82A0020E0
:1020D000DC2A0020282B0020F02A0020782A00206B
:1020E0006C2A00206C2B0020E42A002004ED00E084
:1020F00038B550B1054689B94FF0500383F31188C4
:10210000BFF36F8FBFF34F8FFEE74FF0500383F3A2
:102110001188BFF36F8FBFF34F8FFEE71C4B1B6817
:1021200043B14FF0500383F31188BFF36F8FBFF3B8
:102130004F8FFEE70C46FFF7B9FE164B18682A686A
:102140001444904216D2A2421AD9A0421AD30022B5
:102150002C601AB10021201AFFF7D0FDFFF74AFFCB
:1021600038B94FF080520C4B1A60BFF34F8FBFF35A
:102170006F8F38BDA24207D8A04207D30022E7E7FD
:102180000022E5E70122E3E70122E1E70122DFE7A0
:10219000E82A0020682B002004ED00E010B5A8B16B
:1021A0000446104B1B6843B14FF0500383F3118872
:1021B000BFF36F8FBFF34F8FFEE7FFF777FE00216E
:1021C0002046FFF79BFDFFF715FF00E0002038B920
:1021D0004FF08052044B1A60BFF34F8FBFF36F8FE5
:1021E00010BD00BFE82A002004ED00E0214B1B6871
:1021F000C3B90022204B1A60204B1B68B3FA83F34B
:10220000DBB2C3F11F0303EB83018A001C498A5828
:1022100062B94FF0500383F31188BFF36F8FBFF3A0
:102220004F8FFEE70122144B1A60704710B4144818
:102230009A00D418A10001444C6864684C601A44A8
:1022400091000831084484420BD003EB83039A00C9
:102250000B4B13445B68DA680A4B1A605DF8044B59
:102260007047606803EB83029100054A0A4450609E
:10227000EBE700BFE82A00206C2B0020F02A0020AA
:10228000782A00206C2A002040B94FF0500383F3D5
:102290001188BFF36F8FBFF34F8FFEE710B50C4669
:1022A000044B19681831FEF7BFFF01212046FFF7E4
:1022B00025FD10BD6C2A002038B570B10C461546BE
:1022C0000A4A11681831FEF7A3FF0DB14FF0FF3431
:1022D00029462046FFF712FD38BD4FF0500383F327
:1022E0001188BFF36F8FBFF34F8FFEE76C2A00207A
:1022F00038B5C368DC6824B304F118052846FEF736
:10230000ADFF184B1B682BBB251D2846FEF7A6FF0B
:10231000E36A01229A401449086802430A6003EB09
:1023200083039A00294611481044FEF771FFE26AC0
:102330000F4B1B68DB6A9A4211D901200D4B1860C4
:1023400038BD4FF0500383F31188BFF36F8FBFF395
:102350004F8FFEE729460848FEF75AFFE7E70020BF
:1023600038BD00BFE82A0020F02A0020782A00208B
:102370006C2A00206C2B0020282B0020034B1B68AC
:102380000360034B1B684360704700BF242B002091
:10239000682B0020F8B5E0B1054619B30C46FEF7EE
:1023A00021FC1A4B18686968421A2368B3F1FF3F91
:1023B00028D02F68164E3668B74201D0884223D203
:1023C0009A4218D3002323600124FEF72DFC2046F7
:1023D000F8BD4FF0500383F31188BFF36F8FBFF345
:1023E0004F8FFEE74FF0500383F31188BFF36F8FD9
:1023F000BFF34F8FFEE79B1A23602846FFF7BEFF0F
:102400000024E2E70024E0E70124DEE7682B002057
:10241000242B00200122014B1A6070476C2B0020F6
:10242000054B1B6823B1054B1B681BB90220704785
:1024300001207047002070473C2B0020E82A002034
:1024400000284AD038B50446274A1268904208D07E
:102450004FF0500383F31188BFF36F8FBFF34F8F9B
:10246000FEE7C26C42B94FF0500383F31188BFF30B
:102470006F8FBFF34F8FFEE7013AC264C06AA16C51
:1024800088422CD06ABB251D2846FEF7E7FE70B9AE
:10249000E26A02EB82018B001449CB583BB901235D
:1024A00003FA02F212490B6823EA02030B60A36CE1
:1024B000E362C3F10502A261012404FA03F20C49AC
:1024C000086802430A6003EB83039A002946074821
:1024D0001044FEF79DFE204638BD002070470020C6
:1024E00038BD002038BD00BF6C2A0020782A0020AB
:1024F000F02A0020064B1A681368B3FA83F35B09CD
:10250000036013B9D368186870470020704700BF94
:10251000702B002008B54160006191420CD8D21A9E
:1025200083699A4201D3012008BD011D094B186837
:10253000FEF77AFE002008BD9A4201D2994206D2E7
:10254000011D054B1868FEF76FFE002008BD012035
:1025500008BD00BF742B0020702B002038B5FEF79B
:1025600041FB0F4B1B6813B1FEF75EFB38BD0D4DF1
:102570002846FEF73FFE0C4C2046FEF73BFE0B4B79
:102580001D600B4B1C6000220C210A20FEF7B7FFD8
:10259000034B18600028E7D00649FFF749FAE3E744
:1025A000A42B0020782B00208C2B0020702B0020E7
:1025B000742B00203483000000B583B0FFF7CEFFFA
:1025C0000D4B1B689BB10D4B01930223009300231D
:1025D00064220B490B48FFF7F5FB50B94FF050034D
:1025E00083F31188BFF36F8FBFF34F8FFEE7002097
:1025F000F3E703B05DF804FBA42B0020A82B002018
:102600003C830000CD280000C0B130B585B0154630
:102610000446174A106840B31A4601910295039484
:1026200005291CDCFFF7FCFE022810D000231A4607
:1026300001A90F480068FEF787FF14E04FF0500330
:1026400083F31188BFF36F8FBFF34F8FFEE7002333
:10265000089A01A906480068FEF776FF03E0002308
:1026600001A9FFF747F805B030BD0020FBE700BF28
:10267000A42B002070B582B01A4B1B681A6852B3A5
:10268000DB681E68DC68251D2846FEF7E7FD636AE7
:1026900020469847E369012BEED1A36933449E425B
:1026A00007D26360246129460E4B1868FEF7BCFD13
:1026B000E2E7002100910B4632462046FFF7A4FFD7
:1026C0000028D9D14FF0500383F31188BFF36F8FE7
:1026D000BFF34F8FFEE7044A106802490860136099
:1026E00002B070BD702B0020742B002038B5054659
:1026F000FFF7E4FB0446074B1B68984205D3002311
:102700002B60044B1C60204638BDFFF7B3FF01234C
:102710002B60F6E7A02B002070B582B005460E4670
:10272000144B1B68DB68DC68201DFEF797FDE3692E
:10273000012B04D0636A2046984702B070BDA1699E
:102740002B46324629442046FFF7E4FE0028F1D00C
:10275000002100910B462A462046FFF755FF00282E
:10276000E8D14FF0500383F31188BFF36F8FBFF3AD
:102770004F8FFEE7702B002070B582B006460C46E6
:10278000FFF794FB01A8FFF7B1FF019B23BB0546B0
:102790000CB9B04219D22CB1114B1B681C68B4FAA9
:1027A00084F464092246711B0E4B1868FFF754F934
:1027B000FFF720FC38B94FF080520B4B1A60BFF383
:1027C0004F8FBFF36F8F02B070BDFFF713FC294628
:1027D0003046FFF7A1FFF6E7FFF70CFCF3E700BF79
:1027E000742B0020A42B002004ED00E030B587B04E
:1027F000002203A9344B1868FEF7FEFF002860D0C2
:10280000039B002BF4DB059C636913B1201DFEF7CD
:1028100025FD02A8FFF76AFF039B092BE8D801A258
:1028200052F823F04D2800004D2800004D280000EC
:10283000F127000095280000BB2800004D2800006B
:102840004D280000F1270000952800000499A56993
:102850000B46024629442046FFF75CFE0028C7D0FD
:10286000636A20469847E369012BC1D1A269002120
:1028700000910B46049802442046FFF7C5FE00284D
:10288000B6D14FF0500383F31188BFF36F8FBFF3BE
:102890004F8FFEE70499A16131B10346024601441E
:1028A0002046FFF737FEA3E74FF0500383F311886C
:1028B000BFF36F8FBFF34F8FFEE72046FEF706F999
:1028C00096E707B030BD00BFA42B002000B583B051
:1028D00001A8FFF70FFE0199FFF74EFFFFF786FFF4
:1028E000F6E708B500F0B8F8582303604FF0FF3062
:1028F00008BD08B500F0B0F8582303604FF0FF3072
:1029000008BD08B500F0A8F858230360002008BDF2
:1029100008B500F0A1F8582303604FF0FF3008BD60
:102920001249134A134B9A42BEBF51F8040B42F8A6
:10293000040BF8E710485921016016210160882135
:1029400001600E48416841F4804141600C48416893
:1029500041F002014160416841F00401416000F032
:1029600041F8054800210160FDF77AFCD885000098
:1029700000000020000A002000010040000200408A
:1029800000700040FEE700BF08B5FDF70BFE0F4BDF
:1029900018600F4B1B6903F00703022B02D00D4A8E
:1029A00052F823000A4B1B6A03F00F030133B0FBFC
:1029B000F3F0094B186000F5F42000F59070074B18
:1029C000A3FB0030800C064B186008BD18000020E7
:1029D00000020040200000201C00002083DE1B437A
:1029E00014000020174AD2F8883043F47003C2F86C
:1029F0008830154AD36C23F00F0343F00803D364E7
:102A0000124BD3F8982042F48022C3F898209A6899
:102A100042F002029A600E4AD2F8041101F0F73136
:102A2000C2F80411D2F8081101F0F731C2F8081108
:102A30009A6822F002029A60064A136823F0F003B3
:102A40001360704700ED00E000C00040000200404D
:102A50000010044040410040014B1868704700BF1F
:102A60004000002008B50021044601F067FD044B3A
:102A70001868C36B03B198472046FDF7DFFC00BF21
:102A80004483000070B50F4E0F4D761BB61018BF73
:102A9000002405D0013455F8043B9847A642F9D1EB
:102AA0000A4E0B4D761B05F0A3FBB61018BF002491
:102AB00006D0013455F8043B9847A642F9D170BDC1
:102AC00070BD00BFF0090020F0090020F8090020C7
:102AD000F0090020844641EA000313F003036DD19E
:102AE000403A41D351F8043B40F8043B51F8043BD1
:102AF00040F8043B51F8043B40F8043B51F8043BD8
:102B000040F8043B51F8043B40F8043B51F8043BC7
:102B100040F8043B51F8043B40F8043B51F8043BB7
:102B200040F8043B51F8043B40F8043B51F8043BA7
:102B300040F8043B51F8043B40F8043B51F8043B97
:102B400040F8043B51F8043B40F8043B51F8043B87
:102B500040F8043B51F8043B40F8043B51F8043B77
:102B600040F8043B403ABDD2303211D351F8043B17
:102B700040F8043B51F8043B40F8043B51F8043B57
:102B800040F8043B51F8043B40F8043B103AEDD2C6
:102B90000C3205D351F8043B40F8043B043AF9D217
:102BA000043208D0D2071CBF11F8013B00F8013BEA
:102BB00001D30B8803806046704700BF082A13D3F7
:102BC0008B078DD010F003038AD0C3F10403D21A0F
:102BD000DB071CBF11F8013B00F8013B80D331F843
:102BE000023B20F8023B7BE7043AD9D3013A11F8C3
:102BF000013B00F8013BF9D20B7803704B7843702E
:102C00008B7883706046704770B4860746D0541E38
:102C1000002A41D0CAB2034602E014F1FF343BD38C
:102C200003F8012B9D07F8D1032C2ED9CDB245EA2C
:102C300005250F2C45EA054519D903F11002264652
:102C4000103E0F2E42F8105C42F80C5C42F8085C13
:102C500042F8045C02F11002F2D8A4F1100222F052
:102C60000F0204F00F041032032C13440DD91E463A
:102C70002246043A032A46F8045BFAD8221F22F0BF
:102C800003020432134404F003042CB1C9B21C44FF
:102C900003F8011B9C42FBD170BC704714460346ED
:102CA000C2E700BF0FB400B5074983B004AB0868A2
:102CB00053F8042B8168019300F0D2F803B05DF85B
:102CC00004EB04B0704700BF40000020F0B505469B
:102CD00089B008460C4600F053F8AB6B214F0494C2
:102CE0000126441C04A9022203940590AC680697AF
:102CF00007960191029253B3636E13F0010FB4F97A
:102D00000C309AB201D1900525D5910406D4626E9B
:102D100043F4005322F40052A3816266284601AABC
:102D2000214602F0BFFE636E00280CBF0A254FF05B
:102D3000FF35DA0702D4A3899B0502D5284609B0DE
:102D4000F0BDA06D03F064F8284609B0F0BD284638
:102D500002F020FDD0E7A06D03F058F8B4F90C3074
:102D60009AB2D2E748830000024B01461868FFF789
:102D7000ADBF00BF400000200000000000000000C8
:102D800090F800F06DE9024520F007016FF0000CAB
:102D900010F0070491F820F040F049804FF0000453
:102DA0006FF00700D1E9002391F840F000F108002E
:102DB00082FA4CF2A4FA8CF283FA4CF3A2FA8CF366
:102DC0004BBBD1E9022382FA4CF200F10800A4FACD
:102DD0008CF283FA4CF3A2FA8CF3E3B9D1E9042321
:102DE00082FA4CF200F10800A4FA8CF283FA4CF358
:102DF000A2FA8CF37BB9D1E9062301F1200182FA12
:102E00004CF200F10800A4FA8CF283FA4CF3A2FA17
:102E10008CF3002BC6D0002A04BF04301A4612BA25
:102E2000B2FA82F2FDE8024500EBD2007047D1E928
:102E3000002304F00305C4F100004FEAC50514F0B7
:102E4000040F91F840F00CFA05F562EA05021CBF88
:102E500063EA050362464FF00004A9E700000000A2
:102E60002DE9F04FBFB01D468A46914604460490B6
:102E700002F0BAFF036811931846FFF781FF0A9525
:102E800010901CB1A36B002B00F06282DAF8643062
:102E9000BAF90C2013F0010F93B202D1990540F159
:102EA00078829F040AD4DAF8641042F4005321F4C3
:102EB0000051AAF80C30CAF864109BB21E0740F10A
:102EC0002682DAF81020002A00F0218203F01A028C
:102ED0000A2A00F041829FED8E7B00238DED0E7B50
:102EE0000D93239322931293139307932EAB219365
:102EF0009846CDF818A099F800304C46EBB1252B38
:102F000002D11AE0252B03D014F8013F002BF9D190
:102F1000A4EB09058DB1229B239AC8F800900133D8
:102F20002A44072BC8F804502392229300F3058209
:102F300008F10808079B2B4407932378002B00F027
:102F4000FE8300231A468DF86730194608939B4686
:102F500066784FF0FF3304F10109059309F1010987
:102F6000A6F12003582B00F2CD83DFE813F0E50231
:102F7000CB03CB035403CB03CB03CB03CB03CB0358
:102F8000CB0359030D03CB031E02ED02CB03080351
:102F90003F033F033F033F033F033F033F033F0321
:102FA0003F03CB03CB03CB03CB03CB03CB03CB033D
:102FB000CB03CB03CB034E036703CB036703CB03E6
:102FC000CB03CB03CB03B003CB03CB036F00CB030B
:102FD000CB03CB03CB03CB035900CB03CB0323039E
:102FE000CB03CB03CB03CB03CB03CB03CB03CB0371
:102FF000CB03CB0329037802670367036703BC0293
:103000007802CB03CB03C102CB03CE0271001203C3
:103010004B02CB035702CB035B00CB03CB03230252
:103020004BF0100B1BF0200F40F061830A9A1BF04D
:10303000100F134640F0CA851BF0400F00F0C68504
:1030400014880432002501230A9214E04BF0100B7F
:103050001BF0200340F040831BF0100240F0A585D8
:103060001BF0400300F0A1850A9913460A4604327A
:103070000C880A9200254FF0000A8DF867A0059988
:103080004A1C00F010822BF08002029254EA0502E2
:1030900040F00F82002940F07C84002B40F03A85FC
:1030A0001BF00103099300F076863EAF302307F84A
:1030B000413D059B099A9342B8BF134603930023F1
:1030C0000C93BAF1000F02D0039B01330393029BD0
:1030D00013F002030B9302D0039B02330393029B72
:1030E00013F0840540F02983089B039AA3EB020B9D
:1030F000BBF1000F40F32183BBF1100F2399229AFB
:103100002CDD43461024A846DDF810A0069D0AE0F9
:103110000000000000000000ABF1100BBBF1100F2D
:1031200003F1080318DD0132B94822921031072A51
:10313000239183E81100EFDD21AA2946504603F0D0
:103140008FFF002840F07483ABF1100BBBF1100F20
:103150002399229A2EABE6DC454698460132AC4BC9
:1031600022920BEB0104072A239488E8080800F355
:10317000D6849DF867A008F10808BAF1000F0ED0B8
:10318000229B013301340DF167010122072B2394A7
:10319000229388E8060000F3138408F108080B9BCB
:1031A0006BB1229B013302341AA90222072B23940C
:1031B000229388E8060000F30F8408F10808802DA8
:1031C00000F03883059B099AA3EB020ABAF1000FBD
:1031D0003BDDBAF1100F229B8E4D2BDD424621467E
:1031E000B0464FF0100B2E46049C069D06E0AAF157
:1031F000100ABAF1100F02F1080217DD0133103185
:10320000072B2391229382E84008F0DD21AA29466A
:10321000204603F025FF002840F00A83AAF1100A97
:10322000BAF1100F2399229B2EAAE7DC35460C46F3
:103230004646904601335444072B2394229388E852
:10324000200400F3B28308F10808029BDB0500F1BB
:103250008F82229B0999C8F8007001330C44072B18
:103260002394C8F80410229300F37E8308F1080821
:10327000029B59073BD5089B039A9D1A002D36DD0A
:10328000102D229B21DD1026049FDDF818A004E0FC
:10329000103D102D08F1080817DD01335C4A229318
:1032A0001034072B239488E84400F1DD21AA51460D
:1032B000384603F0D5FE002840F04982103D102D1D
:1032C000239C229B0DF1B808E7DC0133504A22937E
:1032D0002C44072B239488E8240008DD21AA0699B2
:1032E000049803F0BDFE002840F05083239C079B08
:1032F000089A03998A42ACBF9B185B180793002C6D
:1033000040F03C83002322930DF1B808F3E55146C9
:10331000049801F0A5F8002838D0DAF86430DD0709
:1033200004D4BAF80C309C0540F1D9854FF0FF3336
:10333000079307983FB0BDE8F08F21AA069904983B
:1033400003F08EFE002840F021830DF1B808F1E56E
:10335000049802F01FFA99E5BAF90E20002AFFF648
:10336000BAADDAF86420D00705D4990503D4DAF8A9
:10337000580002F04DFD2B464A465146049801F094
:103380002DF8079007983FB0BDE8F08FBAF80C30E1
:103390009CE5DAF8580002F039FDBAF90C2093B236
:1033A0007FE508980A93404208904BF0040B99F887
:1033B0000060D3E5002A40F0EC87174B12931BF016
:1033C000200F40F0CD840A9A1BF0100F134640F0F6
:1033D000E7831BF0400F00F0E383043314880A9363
:1033E00000251BF0010F00F02B8354EA050300F0C9
:1033F000278330238DF868308DF869604BF0020B1D
:10340000022338E64BF0200B99F80060A6E500BFD8
:1034100090830000A0830000708300000A9A176860
:1034200000248DF86740151D002F00F05C86059A7A
:10343000531C00F0DA852146384603F019F80028BD
:1034400000F0D686C31B099305940A95CDF808B001
:1034500023EAE37303930C949DF867A031E6002AF6
:1034600040F0A2871BF0200F40F088841BF0100F63
:1034700040F0A3831BF0400F00F09F830A99B1F93D
:1034800000400431E51722462B460A91002A73F1C9
:103490000003C0F2908405999DF867A04A1C4FF084
:1034A00001037FF4F0AD54EA050200F07482CDF818
:1034B00008B0012B00F01083022B40F09D8212987F
:1034C0002EAF230904F00F0143EA05732A091C46B5
:1034D0001546435C07F8013D54EA0503F1D12EABD4
:1034E000DB1B0993E5E54BF0400B99F8006035E5EF
:1034F00099F800606C2E03BF99F801604BF0200B27
:1035000009F101094BF0100B28E5002A40F05C8717
:103510001BF0200F40F04D851BF0100F40F005818F
:103520001BF0400F00F001810A9A136804320A92DE
:10353000BDF81C201A80DEE499F8006000297FF4B1
:103540000DAD0122202109E599F800602A2E09F12C
:10355000010000F0FC86A6F13003092B814698BFDC
:10356000002000F2518619F8016B00EB800003EB9C
:103570004000A6F13003092BF5D90590F0E44BF09B
:10358000800B99F80060E9E499F8006001222B2192
:10359000E4E40A9AB24B146812937826302304327A
:1035A0008DF868304BF0020B0A9200258DF86960A7
:1035B000022360E5002A40F00387AA4B1293FEE63F
:1035C0000A99CDF808B00A688DF8902000230A46C1
:1035D0009A468DF86730043201230393CDF814A086
:1035E000CDF830A00A92099324AF70E5A6F130031C
:1035F000002019F8016B00EB800003EB4000A6F1FE
:103600003003092BF5D90890AAE4002A40F0D486AB
:103610004BF0100B26E74BF0010B99F800609DE48E
:103620000A9C2368089318460028234603F10403E4
:10363000FFF6B7AE0A9399F800608FE4002A40F0D5
:10364000AC860A9D1BF0080F05F1070500F03C84CD
:1036500025F0070393ED007B8DED0E7B03F108024F
:103660000A92DDE90E1222F0004314911593DDE970
:1036700014454FF0FF32204629467B4B04F0F2FB05
:10368000002840F0A2834FF0FF32774B20462946B6
:1036900004F0CAFB002840F0988300220023DDE9F3
:1036A0000E0104F0B7FB002840F037849DF867A0B6
:1036B0006E4F6F4B032200212BF080000392059187
:1036C0000290472ED8BF1F4609920C91F9E44BF0A7
:1036D000080B99F8006041E40A9D073525F00703BF
:1036E00003F10802D3E900450A920023C3E40A9DCE
:1036F000073525F0070303F10802D3E900450A92D4
:103700000123B8E4002A40F05386C6B10023012209
:103710009A4603928DF89060CDF808B08DF8673026
:1037200005930C93099224AFD1E40A9A13680432EA
:103730000A92079A1A60FFF7DEBB239C1DE5239BC4
:10374000DDF818A0002B40F0698500232293DAF8F9
:10375000643013F0010FBAF80C3002D19A0540F131
:1037600048825B063FF5E2AD07983FB0BDE8F08FB9
:10377000652E40F3B18000220023DDE90E0104F044
:103780003FFB002800F05F81229B3A4AC8F80020E6
:10379000013301340122072B23942293C8F804201B
:1037A00000F3C48308F108081B9B0D9A239C9342E5
:1037B00003DB029BDF077FF55BAD229B1099119A1B
:1037C000C8F8002001330C44072BC8F804102394D8
:1037D000229300F3FD8308F108080D9B5E1E002E66
:1037E0007FF746AD102E229B234D40F3CF8110274B
:1037F000DDF810A0DDF818B005E008F10808103E6B
:10380000102E40F3C38101331034072B23942293ED
:1038100088E8A000F1DD21AA5946504603F020FCBB
:10382000002840F0D283239C229B0DF1B808E6E7E4
:10383000AA468CE7089B039AA3EB020ABAF1000F91
:103840007FF7C0ACBAF1100F229B0B4D38DD42461A
:103850002146B0464FF0100B2E46049C069D14E006
:10386000708300005C830000FFFFEF7F5083000047
:103870004C8300008C830000A0830000AAF1100A92
:10388000BAF1100F02F1080216DD01331031072BD7
:103890002391229382E84008F0DD21AA29462046A0
:1038A00003F0DEFB0028C3D1AAF1100ABAF1100F11
:1038B0002399229B2EAAE8DC35460C4646469046C4
:1038C00001335444072B2394229388E8200400F307
:1038D000658208F1080875E40D9B229E012B40F3D8
:1038E000FE81013601340123072E23942296C8F865
:1038F0000070C8F8043000F30F8208F10808109A2D
:10390000119BC8F8003001361444072E23942296E8
:10391000C8F8042000F30D8208F1080800230022F3
:10392000DDE90E0104F06CFA0D9B002840F00681E1
:10393000013B013601371C44072E22962394C8F818
:103940000070C8F8043000F3DA8108F10808139A0F
:10395000C8F80420013614441DAB072E2394229688
:10396000C8F800307FF782AC21AA0699049803F0CA
:1039700077FB58B9239C0DF1B80879E421AA069980
:10398000049803F06DFB00283FF4BCACDDF818A0F0
:10399000DDE6DDF808B0012B00F02181022B27D1F4
:1039A000CDF808B00024002589E521AA06990498DD
:1039B00003F056FB0028E9D1239C0DF1B80844E43C
:1039C00021AA0699049803F04BFB0028DED1239C22
:1039D0000DF1B808FFF7E3BB21AA0699049803F09C
:1039E0003FFB0028D2D1239C0DF1B808FFF7E7BBBD
:1039F000CDF808B0002400252EA900E03946E208E1
:103A000042EA4572E80804F00703054614463033DD
:103A100054EA050201F8013C01F1FF37EED1029AA8
:103A2000D2077FF55CAD302B3FF459AD302302391E
:103A300007F8013C2EAB5B1A09930F46FFF739BB21
:103A40000223FFF718BB1B99002940F37A820C9BD5
:103A50000D9A9342A8BF1346002B1E460DDD229BF4
:103A6000C8F8007001333444072B2394C8F804606D
:103A7000229300F32C8308F108080C9B002EA8BFAA
:103A80009B1B002B1E4640F3D080102E229BBA4D6C
:103A900040F3B78022464FF0100ADDF810B0069CC4
:103AA00005E008F10808103E102E40F3A98001330C
:103AB0001032072B2392229388E82004F1DD21AAFB
:103AC0002146584603F0CCFA002840F02A83239A76
:103AD000229B0DF1B808E6E7002D08BF0A2C7CD325
:103AE0002EAF204629460A22002304F0F9F930328D
:103AF00007F8012D2046294600230A2204F0F0F998
:103B000004460D4654EA0503EBD12EABDB1B0993AB
:103B1000FFF7CFBA059B09932EAFFFF7CABA21AAC8
:103B20000699049803F09CFA00287FF42FAF9DF8C3
:103B300067A0239C0DF1B808FFF71FBB5F1E002F85
:103B40007FF705AF102F8C4D40F300814FF0100A26
:103B5000DDF810B005E008F10808103F102F40F321
:103B6000F58001361034072E2394229688E820042D
:103B7000F1DD21AA0699584603F072FA00287FF475
:103B800005AF239C229E0DF1B808E6E701333444CB
:103B9000072B2394229388E860007FF767ABE3E666
:103BA0001C6804330A9300251BE40A990A46043270
:103BB0000C680A920025FFF75EBA0A9A1468134649
:103BC0000433E5170A9322462B465FE404321C684F
:103BD0000A9201230025FFF74EBADDF808B0CDF8B0
:103BE00008B03EAF3034012307F8414D0993FFF789
:103BF00060BADAF8580002F00BF9BAF80C30B0E508
:103C0000144601333444072B2394229388E8600040
:103C100040F3738121AA0699049803F021FA002841
:103C20007FF4B4AE239C0DF1B8081B9B0D9A934210
:103C300080F25E81229A10981199C8F80010013222
:103C40000444072A2394C8F80400229200F3588100
:103C500008F108080D9A0C99D31A561A9E42A8BF6B
:103C60001E46002E0EDD229AC8F8046001320F4471
:103C70003444072AC8F800702394229200F3428249
:103C800008F10808002EACBF9E1B1E46002E7FF7D1
:103C9000EFAA102E229B384D7FF778AF1027DDF862
:103CA00010A0DDF818B005E008F10808103E102E4D
:103CB0007FF76CAF01331034072B2394229388E8ED
:103CC000A000F1DD21AA5946504603F0C9F90028A9
:103CD00040F07B81239C229B0DF1B808E6E7029B14
:103CE000D8073FF5FEAD013601340123072E23949A
:103CF0002296C8F80070C8F804307FF726AE21AAD3
:103D00000699049803F0ACF900287FF43FAE239C99
:103D1000229E0DF1B8081AE621AA0699049803F02C
:103D20009FF900287FF432AE239C229E0DF1B80843
:103D3000E5E521AA0699049803F092F900287FF49A
:103D400025AE239C229E0DF1B808E7E501363C44E0
:103D5000072E2394229688E8A0007FF7F6ADCEE7E1
:103D60000A9D073525F0070303F108020A92D3E9FB
:103D70000045FFF736BB00BFA08300000A9D073552
:103D800025F00705D5E9002305F108010A9114463D
:103D90001D46FFF77BBB2EAFFFF78BB921AA069913
:103DA000049803F05DF900287FF4F0AD239C0DF139
:103DB000B808FFF707BA4FF02D0A644265EB4505D6
:103DC0008DF867A00123FFF75AB9DDE90E0102461D
:103DD0000B4604F047F8002840F08982059B013328
:103DE00026F0200A00F09F80BAF1470F04D1059B0E
:103DF000002B08BF012305930F9B4BF48072002B0F
:103E00000292C0F2A9819DED0E7B8DED167B002301
:103E10000B93662E00F08881462E00F0DA81BAF10D
:103E2000450F0CBF059B059D049808BF5D1C1FAA8C
:103E30001CAB019200932A461BAB02219DED160B91
:103E400000F08AFC672E074640F0AA811BF0010FA4
:103E500000F043827C1900220023DDE9160103F003
:103E6000CFFF002840F031811F9BA34206D23021B2
:103E70005A1C1F9219701F9B9C42F9D8DB1BBAF188
:103E8000470F0D9300F0C480652E40F37F821B9B8B
:103E90000C93662E00F076810D9B0C9A1946914288
:103EA00000F363811BF0010F40F00E8222EAE273FF
:103EB0000393099267260B9B002B40F0A18005938A
:103EC0009DF867A0FFF7FDB825F0070595ED007B8D
:103ED00005F108038DED0E7B0A93FFF7C2BBDAF8FC
:103EE000580001F095FF4FF0FF330793FFF721BA19
:103EF000029AD5077FF5AEAE9CE608F1080894E675
:103F000021AA0699049803F0ABF800287FF43EAD8F
:103F10001B9B239C0DF1B8089CE64FF02D0A8DF8F1
:103F200067A0FFF7C5BB0623059365E721AA06999D
:103F3000049803F095F800287FF428AD0DF1B80837
:103F400032E4229BB24AC8F8002001330134012236
:103F5000072B23942293C8F8042000F32D8108F145
:103F6000080829B90D9B1BB9029BDE077FF580A9C4
:103F7000229B1098119AC8F800200133024622446F
:103F8000072B2392C8F80400229300F3778108F1ED
:103F900008080029C0F24C810D99C8F8007001335F
:103FA0008C18072B23942293C8F804107FF75EA97E
:103FB000DAE40A9A07991368CD17084604322946AD
:103FC0000A92C3E90001FEF796BFDA46FFF7BFBBCE
:103FD00021AA0699049803F043F800287FF4D6AC90
:103FE000239C0DF1B808FFF7F8BB38460594FEF79F
:103FF000C7FE0A950990CDF808B00346FFF728BA26
:104000004FF02D0A00238DF867A00593FFF75CB8E9
:104010001B9B0C931A46033304DB059B1946914204
:10402000BFF63AAF023E0C9B8DF87460013B002B4B
:104030001B93BDBF0C9BC3F101032D222B22092B27
:104040008DF8752040F34B810DF183042046714DAE
:1040500000E0104685FB0312D917C1EBA20101EB6A
:104060008102A3EB42023032092900F8012C0B46F1
:1040700000F1FF32EDDC30330238D9B2844202F86D
:10408000011C40F28E810DF17600134601E013F819
:10409000011B00F8011BA342F9D101339B1A0DF15A
:1040A000760213441DAA9B1A0D9A1393012A1344F6
:1040B000099340F34281099B109A1344099323EA20
:1040C000E373039300230C93F5E62346D6E621AA77
:1040D0000699049802F0C4FF00287FF457AC239C93
:1040E0000DF1B808C9E4059B0C97062B28BF0623E1
:1040F0000597BA4603930A95CDF808B00993464F41
:10410000FEF7DFBF21AA0699049802F0A9FF002854
:104110007FF43CAC1B9B0D9A239CD31A0DF1B8087D
:10412000B0E5A246FFF713BB059C04981FAA1CAB81
:104130000192009322461BAB03219DED160B00F06C
:104140000BFB2346074604191D463B78302B00F035
:10415000D4801B9D2C447EE6DDE90E1202F1004363
:1041600017932D2316910B9353E6109A0D9B13442E
:104170000C9A0993002A40F3D88023EAE37303934F
:10418000672698E6002B40F3EF80059A002A40F05E
:10419000C2801BF0010F40F0BE80039309938AE6B2
:1041A000472E7FF457AE1BF0010F00F0E780462E3C
:1041B00007EB0504C9D04EE621AA0699049802F03F
:1041C0004FFF00287FF4E2AB1B99239C0DF1B80848
:1041D000C7E6059D04981FAA1CAB019200932A46CE
:1041E0001BAB03219DED160B00F0B6FA0746DEE788
:1041F000059B0393099305900A95CDF808B00C90A0
:104200009DF867A0FEF75DBF00230593FEF7A8BEEB
:104210008C8300006766666684830000049821AA88
:10422000514602F01DFF00283FF48FAAFFF78FBA16
:104230004E421031664D2FDA1024DDF810A0DDF863
:1042400018B004E008F10808103E102E24DD0133F8
:104250001032072B23922293C8F80050C8F804406C
:10426000F0DD21AA5946504602F0FAFE00287FF4FC
:10427000ACAE239A229B0DF1B808E5E721AA069976
:10428000049802F0EDFE00287FF480AB1B99239A7E
:10429000229B0DF1B8087CE601333244072B88E8F5
:1042A00060002392229308F108087FF775AE21AAD7
:1042B0000699049802F0D4FE00287FF467AB239A95
:1042C000229B0DF1B80867E60C9B109A13440993E2
:1042D00023EAE37303936726EDE51F9BCEE53033B6
:1042E00030228DF877308DF876201EABDAE6394F24
:1042F000394B9DF867A0FFF7DDB900220023DDE907
:10430000160103F07DFD00287FF423AFC5F1010500
:104310001B952C449FE50C9B109A1344059A1A4454
:1043200022EAE27309920393C5E50C9B099AC3F153
:1043300001031A44134609921FE71BF001030C9373
:104340007FF4B9AE099B23EAE3730393B3E50A9CB8
:1043500099F80160236843EAE37305932346043325
:1043600081460A93FEF7FABD059B13B91BF0010FB6
:1043700002D0109B0133D1E701230EE71F9BBAF156
:10438000470FA3EB07030D933FF442AE1B9B0C9327
:1043900049E68DF86710FFF710B88DF86710FFF742
:1043A00050B90DF176037DE68DF86710FFF75AB826
:1043B0008DF86710FFF7A9B98DF86710FFF728B9D6
:1043C0008DF86710FFF7F9B88DF86710FFF7A0B800
:1043D000A083000058830000548300002DE9F041C1
:1043E0000C46ADF58D6D8989666EE589199621F0CB
:1043F00002010646E069ADF80C1017464FF48061E3
:10440000626AADF80E5098461AAD0023079016A8C0
:1044100009920693009504950291059101F0F2FC32
:1044200043463A4669463046FEF71AFD051E07DB4D
:104430003046694601F056F9002818BF4FF0FF35A5
:10444000BDF80C305B0603D5A38943F04003A3817C
:10445000169801F0D9FC28460DF58D6DBDE8F08168
:1044600038B5304B1B6805460C4613B19A6B002AD1
:1044700038D0B4F90C2093B218070CD52069A8B134
:1044800013F001021ED0636900225B42A361A260A7
:10449000F0B1002038BDD9063CD5580726D4206994
:1044A00042F00803A3819BB20028E9D103F42072F3
:1044B000B2F5007FE4D02846214601F0D9FCA3895B
:1044C0002069DDE7990758BF6269A2600028E0D142
:1044D000B4F90C301A06DDD543F04003A3814FF048
:1044E000FF3038BD184601F055F9C2E7216B51B1D4
:1044F00004F14003994204D0284601F0EDF9B4F9E3
:104500000C200023236300232069636022F024022F
:104510002060C5E742F0400209232B604FF0FF30D6
:10452000A28138BD40000020024B13B1024800F0C8
:1045300079B8704700000000055800002DE9F04FE1
:10454000354B85B00E460190186801F05FFC334B87
:104550001B68029303F5A4730393029BD3F848717D
:1045600037B3DDF80CA04FF00109D3467C68651E17
:104570000ED4013407EB84044FF00008FEB1D4F8E8
:1045800000319E421BD0013D6B1CA4F10404F5D107
:10459000234B6BB17B68002B39D13B6843B1384664
:1045A000CBF80030AFF30080DBF80070002FDDD1D6
:1045B000194B186805B0BDE8F04F01F029BC7B68C5
:1045C0002268013BAB420CBF7D60C4F80080002A2A
:1045D000D9D0D7F88811D7F804A009FA05F30B420F
:1045E0000FD0D7F88C110B420DD1D4F88010019860
:1045F00090477B685345B0D1DBF80030BB42C2D056
:10460000ABE79047F5E7D4F880009047F1E7BB4669
:104610003F68002FAAD1CBE770040020448300003C
:1046200000000000002301461A46184602F038BD7B
:1046300002690B69934200F38D802DE9F04F03F17D
:10464000FF3801F1140700F1140B57F828205BF82C
:1046500028304FEA880483B00132B3FBF2F90BEB48
:104660000403009407EB040A0193B9F1000F39D059
:1046700000252E46BC46DE465CF8044BDEF80030D2
:10468000A2B209FB0255220C2C0C09FB0242ADB26E
:10469000751B96B2C6EB134615FA83F306EB234659
:1046A0009BB243EA0643E2454FEA12454EF8043B0B
:1046B0004FEA2646E0D2009B5BF8033093B9019C99
:1046C000231F9B450CD254F8043C4BB9A4F10803BA
:1046D00002E01A68043B1AB99B4508F1FF38F8D389
:1046E000C0F81080044602F081F900282EDB09F1A1
:1046F00001095D46002357F8041B28688AB29A1AFC
:104700000B0C12FA80F2C3EB104303EB224392B27C
:1047100042EA0342BA4545F8042B4FEA2343EAD262
:104720005BF828200BEB880382B91A1F93450BD244
:1047300053F8042C42B9083B02E01A68043B1AB94A
:104740009B4508F1FF38F8D3C4F81080484603B001
:10475000BDE8F08F002070472DE9F04F57EC106B4B
:1047600097B0056C0291044693460393CDE9006728
:104770004DB1426C6A6001239340AB60294601F061
:104780005DFF00232364DDE90023002B994638DB1D
:10479000209A00231360A04B33EA090317D0DDE908
:1047A0000067002200233046394603F029FB80468B
:1047B00000282FD0039A01231360219B002B00F0C7
:1047C000C48096481860013817B0BDE8F08F039A8E
:1047D00042F20F731360009B6BB9C9F3130353B913
:1047E000219B8F48002BEFD000F10803219A136022
:1047F00017B0BDE8F08F219B8A48002BE4D0C31C82
:10480000F4E7019A22F00049209ACDF804900123A0
:104810001360C0E714AA15A947EC106B204602F0FC
:1048200085F95FEA1955824673D0C7F3130343F045
:104830007F51CDF84080DDF850803046A5F2FF353D
:1048400041F440110022784B02F0BEFE6CA3D3E984
:10485000002303F06DF86CA3D3E9002302F0B6FE49
:10486000064628460F4602F0FDFF69A3D3E9002360
:1048700003F05EF802460B463046394602F0A6FECB
:1048800006460F4603F004FB002204900023304646
:10489000394603F0BFFA002840F06F81049E162EBF
:1048A00000F25981614B03EBC603D3E90001DDE956
:1048B000002303F0CDFA002800F0C481731E049396
:1048C00000230C93A8EB05056B1E059300F14F81A7
:1048D00000230693049B002BC0F24081059A0B93A2
:1048E00011461944002305910A93029B092B2ED8E7
:1048F000052B40F35186043B02930027029B023BA9
:10490000032B00F23386DFE813F0D603CB02E30378
:104910006404DDF85080159D454405F23243202B98
:1049200040F38A81C3F1400309FA03F9009B05F2C1
:10493000124023FA00F040EA090002F083FF01234D
:10494000013DA1F1F87110937CE739483CE7002163
:10495000616420468B4601F04BFE4FF0FF33089315
:104960000D93012307902064CDF808B00993159B9F
:10497000002BC0F2D080049A0E2A00F3CC802B4B7F
:10498000BBF1000F03EBC203D3E90089C0F2BE8381
:10499000DDE9006742464B463046394603F0F2F8FF
:1049A00003F076FA834602F05DFF42464B4602F082
:1049B000BFFF0B4602463946304602F005FE079D12
:1049C0000BF130032B70089B012B06460F4605F1B7
:1049D000010561D00022174B02F0AAFF002200233C
:1049E00006460F4603F00CFA002840F08180CDF80F
:1049F00000A00294DDF81CA0089C28E0AFF3008022
:104A000061436F63A787D23FB3C8608B288AC63FD4
:104A1000FB799F501344D33F0000F07F8D8300004B
:104A2000B0830000BC8300000000F83FE883000072
:104A30008C8300000000244002F07AFF0022002353
:104A400006460F4603F0DCF9002840F0C5834246D5
:104A50004B463046394603F095F803F019FA834681
:104A600002F000FF42464B4602F062FF02460B4650
:104A70003046394602F0A8FD0BF1300E05F801EB87
:104A8000A5EB0A0EA64506460F464FF000026E4BF8
:104A9000D2D1DDF800A0029C32463B463046394672
:104AA00002F094FD06460F4602460B464046494634
:104AB00003F0B0F948B932463B464046494603F058
:104AC0009FF9A8B11BF0010F12D015F8018C079ABD
:104AD0006B1E04E09A4200F02D8413F8018DB8F1AA
:104AE000390F03F10105F5D008F1010883F80080C2
:104AF0005146204601F0A2FD0022049B2A70039A31
:104B000001331360219B002B00F0A38307981D60E5
:104B100017B0BDE8F08F099A002A40D0029A012A06
:104B200040F31C83089B0A9A5F1EBA42C0F294832A
:104B3000D71B089B002BC0F27E84069D089B069A1B
:104B40001A440692059A01211A442046059201F062
:104B50000FFE064626E001230C93B3E6069A049B5B
:104B6000D21A5B420A93002306920B93BDE6C5F16D
:104B70000103069300230593ACE6DDF81090484648
:104B800002F070FE02460B463046394603F038F913
:104B900000287FF483AE09F1FF3304937EE60A9F79
:104BA000069D099E002D0CDD059900290B4608DDA8
:104BB000A942069AA8BF2B46D21AED1ACB1A069222
:104BC00005930A9BD3B1099B002B00F0C082002FF4
:104BD00010DD31463A46204601F066FE5246014657
:104BE0000646204601F0CEFD51468046204601F0A3
:104BF00025FDC2460A9BDA1B40F0AA82012120460D
:104C000001F0B6FD0B9B002B81461FDD01461A46C5
:104C1000204601F049FE029B012B814640F35B8256
:104C20004FF00008D9F8103009EB8303186901F040
:104C30004FFDC0F1200013E0C3F12009009B03FAEF
:104C400009F07AE60C903DE600002440029B012B1F
:104C500040F38D824FF000080B9B0120002BE1D127
:104C6000059A104410F01F0000F0A180C0F120034D
:104C7000042B40F38C84069BC0F11C000344069374
:104C80001346034405440593069B002B05DD51465E
:104C90001A46204601F058FE8246059B002B05DD92
:104CA00049461A46204601F04FFE81460C9B002BD8
:104CB00040F08680089B002B40F36982099B002B03
:104CC00000F09880002D05DD31462A46204601F08F
:104CD0003BFE0646B8F1000F40F03683B046089B15
:104CE000079A013BD3180893009B03F00103099333
:104CF000174649465046FFF79BFC3146054650464D
:104D000001F074FE424649468346204601F08AFE81
:104D100005F130020092C2680146002A40F032825A
:104D20000690504601F062FE069B0590194620460B
:104D300001F084FC059A32B9029B23B9099B002B30
:104D400000F0DE83029ABBF1000FC0F2A28205D10F
:104D5000029B1BB9099B002B00F09B82002A00F3E9
:104D600007839DF800303B70089B07F1010B9F42C1
:104D70005D4600F00883514600230A22204601F0D8
:104D800067FC4645824631464FF000034FF00A0269
:104D9000204600F0F18101F05BFC4146064600230D
:104DA0000A22204601F054FC5F468046A1E71C2001
:104DB000069B03440693059B03440544059363E760
:104DC0004946504601F012FE0028BFF673AF049F1B
:104DD000514600230A222046013F049701F038FC87
:104DE000099B8246002B40F0A7830D9B002B40F3CC
:104DF000B0830893DDF81CB0DDF820805D4602E04A
:104E000001F026FC824649465046FFF711FC00F1AE
:104E1000300705F8017BA5EB0B0343454FF00A0271
:104E20004FF0000351462046EADB079B089A0097A3
:104E3000012AACBF9B1801331D464FF0000B5146B1
:104E40000122204601F080FD4946824601F0CEFD58
:104E5000002840F33A8215F8012C07996B1E04E0F4
:104E60008B4200F0AF8113F8012D392A03F10105BF
:104E7000F6D001321A704946204601F0DFFB002EC1
:104E80003FF436AEBBF1000F05D0B34503D0594611
:104E9000204601F0D3FB3146204601F0CFFB27E648
:104EA00000230993049B5B440D930133012B1E46A1
:104EB0001D460893B8BF01260021172E61640AD948
:104EC000012204235B0003F114008642114602F123
:104ED0000102F7D26164204601F08AFB0E2D079093
:104EE00020643FF644AD002F3FF441AD0499002902
:104EF0009DED007B40F3F681B94B01F00F0203EB0F
:104F0000C2030D11D3E90067EB0640F1AD81B54B4B
:104F100051EC170BD3E9082302F034FECDE90E0162
:104F200005F00F054FF003098DB1DFF8B882E807EF
:104F300009D530463946D8E9002302F0F9FC09F1D9
:104F4000010906460F466D1008F10808EFD13B46EF
:104F50003246DDE90E0102F015FE074688460C9B3D
:104F600043B10022A04B3846414602F053FF0028CF
:104F700040F07382484602F075FC3A46434602F020
:104F8000D7FC9A4B002202F021FB089B0546A1F1B9
:104F90005076002B00F04081049BDDF820901193A7
:104FA000099B002B00F0F6818D4B914903EBC9035F
:104FB00053E90223002002F0E5FD2A46334602F0C1
:104FC00003FBCDE90E014146384602F061FF05467C
:104FD00002F048FC02460B463846414602F0F4FA1D
:104FE00030355FFA85F8079D06460F4685F8008044
:104FF00002460B46DDE90E01013502F029FF0028CB
:1050000056D132463B460020774902F0DDFA02468F
:105010000B46DDE90E0102F01BFF002840F0628222
:10502000B9F1010F3FF4A3AC079BCDF848A0CDF830
:105030004CB09944A046DDE90EAB0DE000206A4972
:1050400002F0C2FA52465B4602F0E4FE002840F04D
:1050500044824D4500F04A82504659460022654B35
:1050600002F066FC0022634B82468B46304639468E
:1050700002F05EFC0F46064602F00AFF044602F00C
:10508000F1FB02460B463046394602F09DFA3034B9
:10509000E4B252465B4605F8014B06460F4602F065
:1050A000B9FE32463B460028C8D0DDF848A0444649
:1050B000119B04931CE500230993BBF1000F40F3FF
:1050C000DA805E465D46CDF834B0CDF820B0F3E628
:1050D00001230993F1E7009B002B7FF4A1ADDDE9EB
:1050E0000012C2F31303002B7FF4B4AD22F000478B
:1050F0003F0D3F05002F00F00082069B0133069311
:10510000059B013305934FF00108A5E5089B002B93
:105110003FF73EAC40F0998049460022364B40466E
:1051200002F006FCDDE9002302F088FEDDF82090A5
:105130004E4600283ED06FEA0B03079D0493494674
:10514000204601F07BFA002E3FF4D2ACA3E60A9A87
:105150005146204601F0A8FB82464FE5109A002AEE
:1051600000F06F8103F233430A9F069DE7E4009B42
:10517000002B7FF46FADB2E701F06AFA5F46064696
:105180008046B6E5204601F059FA0122DBE5029B94
:10519000022B7FF793AD089B002BCCD1494605220B
:1051A000204601F055FA01468146504601F01EFCAA
:1051B0000028C0DD049A07993123013204920B7054
:1051C0004D1CBCE7049A01320492079A31231370F4
:1051D00051E60123099365E6DDF800A0029C87E40F
:1051E000E8830000C08300000000F03F00001C4086
:1051F0000000E03F0000244000001440484602F058
:1052000031FB3A46434602F093FB0022C44B02F0C6
:10521000DDF90546A1F1507641460022C14B3846E2
:1052200002F0D2F92A4633468046894602F010FE43
:10523000002840F0AB802A4606F10043404649462C
:1052400002F0E8FD00283FF492AB4FF000094E4613
:1052500071E70798FFF7B8BA0A9B0B9A0A97FB1AEF
:105260001A440B92002764E49DED007B4FF0020985
:105270008DED0E7B58E600216164204601F0B8F9FF
:105280004FF0010B07902064CDF820B0CDF834B07A
:1052900029E6002A12DD51460122204601F054FB86
:1052A0004946824601F0A2FB002840F33181009B71
:1052B000392B00F0F78005F1310300939DF80030A1
:1052C0003B70B3467D1C4646D5E504D1009BDB0709
:1052D00001D5C0E5154615F8013C302B05F1FF322C
:1052E000F8D0C8E500F0B480049B5D428E4B05F019
:1052F0000F0203EBC203D3E90023DDE9000102F052
:1053000017FB2D110746884600F02881874E4FF085
:105310000209E90709D538464146D6E9002302F0DB
:1053200007FB09F10109074688466D1006F10806DA
:10533000EFD114E6079930220A70049A15F8018C0F
:1053400001320492FFF7D0BB7168204601F050F99A
:10535000336902339A00054606F10C010C30FDF763
:10536000B9FB29460122204601F0EEFA8046B6E458
:10537000009B392B00F09680009B0133B3463B70B5
:105380007D1C464677E5B346464658E54FF0000992
:105390004E460FE7644901EBC9012A46334651E9FD
:1053A000020102F0C5FACDE90E013846414602F08D
:1053B0006FFD054602F056FA02460B463846414656
:1053C00002F002F9079A3035B9F1010F157006465F
:1053D0000F4602F101051CD0079B99440022544B53
:1053E0003046394602F0A4FA0F46064602F050FD58
:1053F000804602F037FA08F1300802460B46304684
:10540000394602F0E1F805F8018B4D4506460F4696
:10541000E4D10022474BDDE90E0102F0D7F8324615
:105420003B4602F0F7FC002842D0119B049315F88C
:10543000018CFFF74CBB069B089A9D1A0023FFF7CF
:105440007EBB149B0A9F069DC3F13603FFF777BB13
:10545000DDE900784FF0020981E5089B002B3FF45D
:10546000CDAE0D9B002B7FF782AA0022304B384631
:10547000414602F05DFA0746884609F1010002F054
:10548000F1F93A46434602F053FA0022244B02F067
:105490009DF8049ADDF83490013A0546A1F1507662
:1054A00011927DE53922B3463A7046467D1CD4E41C
:1054B000DDE90E2300201F4902F086F832463B4604
:1054C00002F0C6FC10B9FFF752BA154615F8013CB8
:1054D000302B05F1FF32F8D0EAE54346DDF848A06D
:1054E000A0461C46119B0493FFF7F1BADDF848A0D3
:1054F000DDF84CB04446FFF73ABAB846FFF7ACBB0C
:10550000009B392BCED0BBF1000F3FF7D4AED5E6D0
:105510007FF4D4AE009BDA077FF5D0AEC7E600BFBC
:1055200000001C4000001440E8830000C08300001D
:10553000000024400000E03F314600230A222046BC
:1055400001F086F80D9B002B06460ADD0893FFF755
:10555000B9BB029B022B22DC0D9B4AE44FF00209EF
:10556000FDE4029B022B1ADC0D9BEFE7002565642E
:105570002946204601F03CF84FF0FF3308930D9385
:1055800001230790AB4620640993FFF7F0B93FF47D
:105590007BABC0F13C000BE40127FFF7AFB90D9BDB
:1055A0000893F8E5B1F90C309AB22DE9F0410D46B7
:1055B000110780463AD46A6843F40063002AAB813D
:1055C0006FDDAC6A002C49D000229BB2D8F8006095
:1055D000C8F8002013F4805267D02A6D5F0705D504
:1055E00069682B6B521A0BB1EB6BD21A0023E96975
:1055F0004046A047441C3CD0B5F90C302A692A60CB
:1056000023F400630022AB81DB046A6047D4296B7A
:10561000C8F8006011B305F14003994202D040463A
:1056200000F05AF900202863BDE8F0812E69AEB180
:105630002C682E6091070CBF6B690023A41BAB6024
:105640000AE0234632466F6AE9694046B8470028B7
:10565000A4EB0004064404DD002CF2DC0020BDE8CD
:10566000F081AB8943F04003AB814FF0FF30BDE8E0
:10567000F081D8F800401D2CF3D8194BE340DB43F0
:1056800013F00103EDD1B5F90C206B6022F4006337
:105690002969AB81DA042960B9D5002CB7D1286516
:1056A000B5E7EA6B002A8CDCD8E70123E9694046BC
:1056B000A047431C024602D0AB89AC6A8EE7D8F8FB
:1056C0000030002BF8D01D2B01D0162B02D1C8F8CA
:1056D0000060C3E7AB8943F04003AB81BDE8F081D4
:1056E0000100402038B50D46044608B1836BBBB1BC
:1056F000B5F90C0088B16B6EDB0701D4810517D5B5
:1057000020462946FFF74EFF6B6EDA07044602D4A7
:10571000AB899B0507D5204638BD0446204638BDD9
:1057200000F038F8E4E7A86D00F072FB204638BDC1
:10573000A86D00F06BFBE3E7014900F02BBB00BF55
:10574000E971000010B5002304468181C281036025
:1057500043608360436603614361836119460822A5
:105760005C30FDF751FA07480749084A084B2062A8
:10577000E4616162A262E36204F15800BDE8104096
:1057800000F040BB596F00007D6F0000B96F000052
:10579000D96F000010B50446124800F037FBA26B29
:1057A000D2B904F53B731048C4F8E8320321C4F8B9
:1057B000E022E063C4F8E41260680421FFF7C2FF4E
:1057C00001220921A068FFF7BDFF02221221E06833
:1057D000FFF7B8FF0123A3630248BDE8104000F0C3
:1057E00017BB00BF302C002039570000014800F0E3
:1057F0000DBB00BF442C0020014800F009BB00BFD6
:10580000442C002038B50A4C0A4D641BA4100AD061
:1058100004F18043013B05EB8305013C55F8043955
:105820009847002CF9D1BDE8384002F0E7BC00BF32
:10583000FC090020F8090020F8B5244F0C46064664
:1058400000F0CAFEBB685D68C4F57E610F3125F0CB
:105850000305294421F47F6121F00F01A1F5805453
:10586000B4F5805F07DB0021304601F063FBBB68C5
:105870002B44984204D0304600F0B4FE0020F8BD1E
:105880006142304601F056FB01300DD0104BBA6832
:1058900019682D1B45F001053046091B556019603C
:1058A00000F0A0FE0120F8BD0021304601F042FBCF
:1058B000BA68831A0F2BDEDD064C0549246843F0D5
:1058C0000103001B53600860D5E700BF740400208B
:1058D000AC2B00207C080020002944D02DE9F041A9
:1058E0000D46804600F078FE55F8047C694927F0A3
:1058F0000103A5F10804E2188E685068B24220F056
:1059000003005ED0FE0750600BD455F8087CE41B02
:1059100001F1080EA56875453B446DD0E768EF605E
:10592000BD6015186D68ED073ED543F00102626059
:10593000E350B3F5007F17D2DB08581C9A104D686E
:1059400051F83070A7600123934001EBC0022B4354
:10595000083AE2604B6041F83040FC604046BDE8E8
:10596000F04100F03FBE70475A0A042A52D89A0903
:1059700002F13907FF0002F13805C819CA59083881
:1059800090424FD0516821F003018B4232D292688D
:105990009042F7D1C368A060E3609C60C460404659
:1059A000BDE8F04100F01EBE95683B4FBD42034488
:1059B00040D0D068E86043F0010285606260E35047
:1059C000B7E7FF07034407D455F8082CA41A13447B
:1059D000A068E268C2609060304A126843F001003B
:1059E000934260608C60B9D32D4B40461968FFF735
:1059F00023FFB3E71046CDE711184968C90744D41F
:105A00009168D268CA60034443F00100916060600D
:105A1000E350A3E7142A16D802F15C07FF0002F155
:105A20005B05AAE7AA1001234D6893402B434B6006
:105A30000346B0E743F001024C610C61E560A560EC
:105A40006260E3508AE7542A06D81A0B02F16F0706
:105A5000FF0002F16E0590E7B2F5AA7F06D8DA0BD7
:105A600002F17807FF0002F1770586E740F2545013
:105A7000824206D89A0C02F17D07FF0002F17C05F4
:105A80007BE74FF47E777E2577E743F00101616085
:105A9000136063E7740400207C0400208008002069
:105AA000DC2B00209368002B73D02DE9F04F8B89FD
:105AB00083B00C4619070090164626D5226922B3FA
:105AC00013F0020035682CD04FF00009B04FC846E3
:105AD000B246B84543464A4628BF3B460098B8F10F
