:1000000000800220252E0200892E0200551D0200CC
:10001000892E0200892E0200892E020000000000B5
:10002000000000000000000000000000D1DE010020
:10003000892E020000000000A1DF010005E00100A0
:10004000892E0200892E0200892E0200892E0200CC
:10005000892E020000000000892E0200892E020075
:10006000892E0200892E0200892E0200892E0200AC
:10007000892E0200892E0200892E0200892E02009C
:10008000892E0200892E0200892E0200892E02008C
:10009000892E0200892E0200892E0200892E02007C
:1000A000892E0200892E0200892E0200892E02006C
:1000B000892E0200892E0200892E0200892E02005C
:1000C0009DE20000892E0200892E0200892E020086
:1000D000892E0200D5E20000892E0200892E02003E
:1000E000892E0200892E0200DDE20000892E020026
:1000F000892E020000000000892E0200892E0200D5
:10010000892E0200892E0200892E0200C1E2000021
:10011000CBE20000892E0200892E0200892E020007
:10012000892E0200892E0200892E0200892E0200EB
:10013000892E020000000000892E0200000000004D
:10014000892E0200892E0200A1D6010049D60100A5
:10015000892E020000000000892E0200892E020074
:10016000892E0200892E0200892E0200892E0200AB
:10017000892E0200892E0200892E0200892E02009B
:10018000892E0200892E0200892E02000000000044
:10019000892E0200892E0200892E0200892E02007B
:1001A00055E20000892E0200892E020000000000A6
:1001B000892E0200892E02000000000000000000CD
:1001C000000000000000000000000000000000002F
:1001D00000000000892E0200892E0200892E0200F4
:1001E000892E0200892E0200892E0200892E02002B
:1001F000892E020010B5054C237833B9044B13B196
:100200000448AFF300800123237010BD840C00204C
:10021000000000005CFB05000C4B43B10C480D498D
:1002200010B5AFF300800C48036823B910BD0A482D
:10023000036833B97047094B002BF7D0BDE8104075
:100240001847064B002BF5D0184700BF00000000F0
:100250005CFB0500880C0020800C002000000000E2
:10026000154B002B08BF134B9D46A3F5803A002188
:100270008B460F461348144A121A2EF07FF90F4B83
:10028000002B00D098470E4B002B00D09847002041
:10029000002104000D000D48002802D00C4832F067
:1002A0001DFF2DF05DFC200029000EF099FA2DF0C5
:1002B000F5F900BF000008000080022000000000E7
:1002C00000000000840C0020C4200220DD30030068
:1002D000E542030010B50A4C0021204621F03CF80D
:1002E00000231A461946204621F058F8012300221F
:1002F0001946204621F052F80123C4F8F83010BD09
:100300000030044003220D4B5A651A46D2F8F830EB
:1003100013F4000FFAD10138084B53F820309BB288
:1003200007EE903AF8EE677A9FED050A67EE807A5D
:100330009FED040A87EE800A704700BF003004403A
:100340008B6CF24166269B4408B5032807D8DFE88A
:1003500000F0140216040B4808BD0B4808BD0B4AF8
:100360000B490C482EF064F94FF0200383F31188F9
:10037000BFF36F8FBFF34F8FFEE7074808BD0748F5
:1003800008BD00BF00200640004006402451030085
:10039000D0500300F8500300001006400030064023
:1003A000F8B50446FFF7D0FF324B53F824301969F3
:1003B0005E691A68082A12D90025DFF8BCE02EE031
:1003C0009A680AB393F820500DB115781CE01746CF
:1003D00017F8015B9F60527845EA022514E0002778
:1003E000254D3BE0802121F0EEFEF8BD1A69022A7E
:1003F000E6D09A6842B1174617F8015B9F605778BC
:1004000045EA072502329A601A69002A03DD05626F
:100410001A69023A1A611A69002A0CDD19694269DF
:1004200012F4003F07D1721A02EBD2725EF8247008
:10043000B7EB620FDAD80029D4DDF8BD9A6812B1A3
:1004400012F8017B9A601A69002A03DD07621A69B3
:10045000013A1A611A69002AEDDD1969426912F43C
:10046000003FE8D1721A964655F824209645E5D308
:10047000E1E700BFA40C0020C050030070B50328C2
:100480000DD95B4A5B495C482EF0D2F84FF020034F
:1004900083F31188BFF36F8FBFF34F8FFEE70646DC
:1004A000564B53F82040FFF74FFF05466369002B7A
:1004B00035D02368082B25D909E094F8201089B19C
:1004C00013706369023B63616369002B27DD6B690D
:1004D00013F4807F23D12B6BE268002AF1D061698D
:1004E0000229EAD01370E268511CE1601B125370BC
:1004F000E3680133E360E4E76369013B63616369D7
:10050000002B0CDD6B6913F4807F08D12A6BE36844
:10051000002BF1D01A70E3680133E360ECE7236944
:10052000002B02DD3046FFF73BFF4FF48061284689
:1005300021F090FE002835D02368082B25D909E04A
:1005400094F8201089B113706369023B6361636999
:10055000002B27DD6B6913F4807F23D12B6BE268BE
:10056000002AF1D061690229EAD01370E268511CB7
:10057000E1601B125370E3680133E360E4E76369F1
:10058000013B63616369002B0CDD6B6913F4807FB1
:1005900008D12A6BE368002BF1D01A70E3680133AD
:1005A000E360ECE72369002B00DD70BD6369002B7D
:1005B000FBDC3046FFF7C8FE104B53F82640002303
:1005C0006371902121F0FFFD0D4B9B575A0903F0F9
:1005D0001F030121994002F120030A4A42F8231027
:1005E000237E002BE1D00021E0691EF0B3FA70BD3C
:1005F00010510300D0500300F8500300A40C002059
:10060000BC50030000E100E02DE9F04383B08046D8
:100610000D4691461F46FFF797FE0646B8F1030FB9
:1006200003D8DFE808F010626E7B404A4049414839
:100630002DF0FEFF4FF0200383F31188BFF36F8F7F
:10064000BFF34F8FFEE72422002128462DF096FFAE
:10065000394C00222021204620F066FC204620F064
:10066000BFFC99F801302B710322002101201EF0FC
:10067000A1F8E8617B682B60304B43F828503B7A47
:10068000012B27D07B7A012B0CBF0C220A222B686E
:10069000396800910021304621F0A0FB99F8023022
:1006A000012B14BF042200220121304621F032FD2B
:1006B000234B53F8281001390A46304621F033FD08
:1006C000BB7A6BB9336823F400533360002003B066
:1006D000BDE8F0837B7A012B0CBF04220222D6E70F
:1006E000336843F400533360F0E7242200212846A6
:1006F0002DF044FF134C00228021204620F014FCF2
:10070000ACE72422002128462DF038FF0E4C0022B1
:100710004FF40061204620F007FC9FE724220021CF
:1007200028462DF02BFF094C98E700BF34510300F9
:10073000D0500300F85003000D004066A40C0020C8
:10074000C05003000E0060660F00A0660600C0A641
:10075000F8B504460F4D55F82060FFF7F5FD074644
:10076000902121F030FD0C4B1B575A0903F01F0359
:10077000012101FA03F32032084941F822303846BA
:1007800021F08CFCF0691EF059FC002045F8240093
:10079000F8BD00BFA40C0020BC50030000E100E045
:1007A0002DE9F0470546884617461C46FFF7CCFD65
:1007B0001CB900242046BDE8F0878146DFF8D0A0B0
:1007C0005AF8256001233376C6F80880F760346153
:1007D00074612846FFF7B8FD5AF825305A790AB1F6
:1007E0000424E7E71A68082A03D91A6912F0010FEE
:1007F0003BD1002283F8202001245C714FF49061EA
:1008000021F09AFC1E4B5B575A0903F01F039C40D2
:100810001C4B43F822402846FFF7C2FD4FF47A7183
:10082000089B01FB03F1184BA3FB01318909F06917
:100830001EF0C4FA012816D014482DF05BFF0023E7
:10084000737103249021484621F0BDFC0C4B5B578B
:100850005A0903F01F03012101FA03F32032094969
:1008600041F82230A6E70024ECE71A6901321A6148
:100870005A6901325A61012283F82020BCE700BF87
:10088000BC50030000E100E0D34D6210A45003000F
:10089000A40C0020014B1860704700BF900D002091
:1008A000014B1868704700BF900D002010F0010F39
:1008B000154BD3F8A020D3F8A43014BF0021012198
:1008C000D15010F0020F104BD3F8A820D3F8AC3061
:1008D00014BF00210121D15010F0040F0A4BD3F8AE
:1008E000B020D3F8B43014BF00210121D15010F052
:1008F000080F054BD3F8B820D3F8BC3014BF002143
:100900000121D150704700BFB40C0020042810DC36
:1009100038B560B1074B184410F8015C0C46284606
:10092000FFF7C4FF044B1D60044B1C6038BD00255D
:10093000F4E770474C510300940D00208C0D00200B
:1009400038B9084BD3F8C020D3F8C4300121D150B6
:100950007047044BD3F8C020D3F8C4300021D150E5
:10096000704700BFB40C002038B505460C46FFF7B1
:10097000E7FF024B1D60024B1C6038BD9C0D002040
:10098000980D00202DE9F043364BDFF8F490C3F8C2
:1009900000904FF0080EC3F804E0334D9D603C22F8
:1009A000DA60324A1A610C20586140329A611C2286
:1009B000DA612F4C1C624FF0000CC3F824C09C621B
:1009C000C3F82CE01C634FF00408C3F834809C6328
:1009D000D863284E1E6414225A649E641821D96478
:1009E0002549196558659D65DA65244A1A662427E4
:1009F0005F669E662827DF661E672C265E679C67FB
:100A00001024DC67C3F88020C3F88460C3F8882012
:100A1000C3F88C70C3F890103824C3F89440C3F81E
:100A20009890C3F89C00C3F8A050C3F8A400C3F882
:100A3000A850C3F8ACE0C3F8B0103020C3F8B4003D
:100A4000C3F8B810C3F8BC60C3F8C010C3F8C470D2
:100A5000C3F8C820C3F8CC80C3F8D020C3F8D4C0F2
:100A6000BDE8F083B40C002040480040C04800407E
:100A70008049004040490040804800400048004014
:100A8000C049004010B582B04FF080435924162071
:100A90008821C3F80041C3F80001C3F80011D3F85E
:100AA0000021002AF5D020F09BFD4FF4401020F0EB
:100AB0009FFD00901C4820F09BFD0190009B13F0CF
:100AC000010F02D1B0F5FC2F1BD018482DF012FEFB
:100AD000009B23F0010300934FF4FC2301930221B8
:100AE000684620F0EFFD18B111482DF003FEFEE737
:100AF00010482DF0FFFD20F0A5FD01460E482DF019
:100B000097FD20F09FFD0146B0F5FC2F06D04FF475
:100B1000FC220A482DF08CFD02B010BD4FF4FC21E0
:100B200007482DF085FDF7E704003000545103001D
:100B300094510300B8510300D85103000C52030034
:100B40005C52030070B50446B0F5FC2F14D30D467B
:100B5000164620F005FDB8B92644B44238BF043D1E
:100B60001ED255F8041F204620F072FD90B90434BF
:100B7000B442F6D3012070BD4FF4FC22014609486F
:100B80002DF056FD002070BD214607482DF050FD88
:100B9000002070BD214605482DF04AFD002070BDA3
:100BA000012070BD8C520300B4520300D8520300E0
:100BB00008B5012021F024FEB0FA80F0400908BDFC
:100BC0002DE9F04F8DB093460021ADF82A104FEA81
:100BD000C03A012304930393029301930B230093E0
:100BE00008AB0822504621F09DFF089A304B9A42EC
:100BF00003D000200DB0BDE8F08F0AF108050AF51A
:100C00003C5708375E4601244FF00B094FF48078BB
:100C10000494039402940194CDF800903346424624
:100C20000021284621F07EFF05F5807506F58076C7
:100C3000BD42EDD1012404940394029401940B2548
:100C400000950BF53C53282200210AF53C50083052
:100C500021F068FF049403940294019400950DF12F
:100C60001E03022200210AF53C50303021F05AFFC9
:100C70000BA80DF0CCFA082208A90BA80DF0CAFAAF
:100C800042F6287259460BA80DF0C4FA0DF12A015C
:100C90000BA80DF0DBFABDF81E10BDF82A2091421A
:100CA00004D004482DF0C4FC0020A3E70998A1E774
:100CB0005AA555AAB054030089B32DE9F041ADF50A
:100CC000836D0F4604464FF000084FF4806645469A
:100CD0003246294606A82DF051FC012304930393C4
:100CE000029301930B23009306AB3246294604EB93
:100CF000080021F017FF069BB3F1FF3F11D107ABAE
:100D00001A68B2F1FF3F0ED104330DF583629342AE
:100D1000F6D108F580684745DAD8012004E00120C3
:100D20007047002000E000200DF5836DBDE8F081E4
:100D30002DE9F04182B0002401264FF052082746E9
:100D40000096334642463946204621F04BFE4FF48A
:100D500000412046FFF7B0FF0546012808D104F501
:100D60000044B4F5003FEBD107482DF0C3FC02E08E
:100D700006482DF0BFFC0023054A1360054A1360A6
:100D8000284602B0BDE8F0815C5403003C540300E7
:100D9000A00D0020A40D00202DE9F04F83B0804667
:100DA000012021F02DFDD8B90122032101A821F055
:100DB00001FD9DF806309DF805209DF804102E4891
:100DC0002DF036FC012021F0B7FD2C482DF030FC31
:100DD0000027BA463D46DFF8C490DFF8C4B00AE009
:100DE000014627482DF024FCDEE758462DF020FC74
:100DF0002546042C1AD06C1C214648462DF018FCC0
:100E0000424642F628712846FFF7DAFE064648B108
:100E1000B842EAD91B4B18601B482DF009FC374635
:100E2000AA46E5E719482DF003FCE1E7154B1A68DF
:100E3000BAB10AF10104214615482DF0F9FB032C43
:100E40000CD90022134B1A60424642F628715046D4
:100E5000FFF7B6FE002003B0BDE8F08F0D4B1C601D
:100E6000F2E700220B4B1A600B482DF043FCFFF712
:100E70005FFF0120EFE700BF34530300605303001E
:100E80000C530300A40D00207C5303008053030087
:100E900084530300A00D0020A053030078530300E7
:100EA00090EA050010B5044601220A4B1A60FFF7CC
:100EB00073FF40B142F62872074B196820462DF0A7
:100EC0005FFA002010BD42F6287104482DF0B0FBF7
:100ED000F7E700BFD00D0020A80D0020B853030095
:100EE00008B5034B1B6803B908BDFFF721FFFBE7FB
:100EF000D00D00202DE9F0478CB08246DFF8049138
:100F0000D9F80050ED030026ADF8266001240094C6
:100F1000234652223146284621F064FD4FF4004119
:100F20002846FFF7C9FE344F3B6823443B6009A8BD
:100F30000DF06DF9314B0A933B680B9303940294C7
:100F400001944FF00208CDF800800AAB0822314628
:100F5000284621F087FD079608960494039402948E
:100F600001940B23009307AB08223146284621F059
:100F7000D9FD08220AA909A80DF04CF9039402949E
:100F80000194CDF80080534642F62872314605F1AF
:100F9000080021F067FD42F62872514609A80DF0BD
:100FA00039F90DF1260109A80DF050F903940294C6
:100FB0000194CDF800800DF126034246314605F537
:100FC0003C50303021F04EFDD9F800103B6804222F
:100FD00021440B482DF02CFBD9F800302344032B7F
:100FE00006D90022074B1A6001200CB0BDE8F0873B
:100FF000C9F80030F8E700BFA40D00205AA555AA93
:101000007C540300A00D002008B5034B1B6803B9F6
:1010100008BDFFF76FFFFBE7D00D00202DE9F04181
:1010200082B04FF4801401264FF05208002700963A
:10103000334642463946204621F0D4FC4FF4004165
:101040002046FFF739FE0546012808D104F5004483
:10105000B4F5C01FEBD105482DF04CFB02E004486D
:101060002DF048FB284602B0BDE8F081FC53030098
:10107000E053030070B584B0164601F580150124D5
:10108000039402940194022300930346002128460E
:1010900021F0E8FC3246294602482DF0C9FA2046E4
:1010A00004B070BD1054030070B5ADF5836D0646F5
:1010B0000C464FF480652A46002106A82DF05EFA02
:1010C000012304930393029301930B23009306AB34
:1010D0002A46002106F5801021F024FD069A236897
:1010E0009A420DD1234604F57F7107AA146853F87C
:1010F000040F844206D104329942F7D1012002E064
:10110000002000E000200DF5836D70BD00B589B0B2
:10111000012204920392029201920B2300930DF19B
:101120001F03002100F5801021F0FCFC9DF81F003A
:1011300009B05DF804FB000010B501242046FFF75C
:1011400007FB0028FAD1034B034A04490120FFF7AB
:101150005BFA10BDF0540300E0540300D40D0020EE
:1011600010B50D4C4FF4E131204621F095FD0A21D8
:10117000204621F025FEA36823F0F003A360A368B6
:1011800043F02003A3602022044B5A601121204623
:1011900021F07DFD10BD00BF0010074000E100E020
:1011A0001B4BD9691B4A13680133136011F0110FEF
:1011B00008D1174B9B6913F0710F28D07122144B83
:1011C0009A617047F0B4124A1348144D144F40F21C
:1011D000FF36936913F4804310D114680168B1F5A8
:1011E000806FF6D229687C542968B1421CBF2B68F5
:1011F00001332B60036801330360EAE7044B9B690A
:1012000013F0710F02D07122014B9A61F0BC70474C
:1012100000100740F80D0020FC0D0020040E0020F7
:10122000000000602DE9F0410F4619B3451E012171
:101230000B46002608464FF0FF088C460BE000F1F5
:10124000010E14540133DBB2FF2B0DD070464C1C41
:101250008F4212D9214615F8014F002CEFD193553A
:10126000064601306346F2E702F806800230764611
:101270006346ECE70E46012318469355BDE8F0811E
:101280002DE9F043884679B300210C4689460519BB
:1012900010F804C00CEB0406B0450DD2BCF1010FF0
:1012A00029D10134A0451FD08B4228D002F80190EB
:1012B0000131A045EBD817E00134BCF1010F16D97C
:1012C0008B421AD0561801F1010EACF102075EFAFA
:1012D00087FE0131013415F8017F06F8017B714565
:1012E00005D08B42F5D100210846BDE8F083BCF162
:1012F000FF0FDED0D6E70021F6E70021F4E700215A
:10130000F2E7F0B589B0002855D00446008888423D
:1013100003D80324204609B0F0BD20461E461546DA
:101320000A4601A901F030F904460028F2D1059BD4
:10133000588811F0C9FEB0F5A05F01D00424E9E798
:10134000059B188811F0C0FE1B28F7D9059F1DB119
:10135000388911F0B9FE28801EB1788911F0B4FEE9
:1013600030800E9B23B1F86811F0B3FE0E9B18601D
:101370000F9B23B1386911F0ACFE0F9B1860109BD6
:1013800023B1B88A11F0A0FE109B1880119B23B1E5
:10139000F88A11F099FE119B1880129B23B1388BAB
:1013A00011F092FE129B1880139B002BB2D0BB7ED3
:1013B000139A1370AEE70324ACE770B5002856D03B
:1013C00004460088884202D80324204670BD204687
:1013D0001E4615460A46294601F0D6F8044600285E
:1013E000F3D12B69588811F06FFE41F20143984206
:1013F00001D00424E9E72B69188811F065FE1F2845
:10140000F7D92D691EB1288911F05EFE3080049B4A
:1014100023B1688911F058FE049B1880A88911F047
:1014200053FE064610F0010F07D0059B2BB128692B
:1014300011F04FFE059B186002E00023059A13602F
:1014400016F0020F07D0069B2BB1686911F041FE20
:10145000069B186002E00023069A1360079B002B8E
:10146000B3D0288B11F030FE079B1880ADE7032422
:10147000ABE770B5002857D004460088884202D8F0
:101480000324204670BD20461E4615460A462946BE
:1014900001F07AF804460028F3D12B69588811F03E
:1014A00013FE41F20243984201D00424E9E72B697C
:1014B000188811F009FE1728F7D92D691EB128895F
:1014C00011F002FE3080049B23B1688911F0FCFD0D
:1014D000049B1880A88911F0F7FD064610F0010F53
:1014E00007D0059B2BB1E88911F0EEFD059B188014
:1014F00002E00023059A138016F0020F07D0069B26
:101500002BB1288A11F0E0FD069B188002E0002331
:10151000069A1380079B1B88002BB2D0688A11F0B3
:10152000D3FD079B1880ACE70324AAE7F0B589B088
:10153000E8B11E4614460B460822009241F20142D1
:1015400003A901F0EFF9054690B9049F204611F078
:10155000BBFDB88114F0010F04D100233B610023CF
:10156000FB8105E0304611F0B4FD3861F7E7032553
:10157000284609B0F0BDF0B589B000284FD0044628
:101580000088884203D80324204609B0F0BD2046D5
:101590001E4615460A4601A900F0F6FF044600283B
:1015A000F2D1059B588811F08FFDB0F5905F01D006
:1015B0000424E9E7059B188811F086FD1728F7D960
:1015C000059F1DB1388911F07FFD28801EB17889F3
:1015D00011F07AFD30800E9B23B1F86811F079FD8F
:1015E0000E9B18600F9B13B13B7C0F9A1370109BDE
:1015F00013B17B7C109A1370119B13B1BB7C119AB1
:101600001370129B13B1FB7C129A1370139B002B67
:10161000BAD0786911F05DFD139B1860B4E703241C
:10162000B2E7F0B589B0002849D004460088884266
:1016300003D80324204609B0F0BD20461E461546B7
:101640000A4601A900F0A0FF04460028F2D1059B3C
:10165000588811F039FD41F20123984201D0042449
:10166000E8E7059B188811F02FFD1328F7D9059F8F
:101670001DB1388911F028FD28801EB1788911F03C
:1016800023FD3080B88911F01FFD0E9B2BB110F0A7
:10169000010F02D0BB7B0E9A13700F9B2BB110F081
:1016A000020F02D0FB7B0F9A1370109B002BC1D04E
:1016B00010F0040FBED03B7C109A1370BAE70324DD
:1016C000B8E7000070B588B0002837D015460B4643
:1016D0000822009241F2022203A901F023F90446F4
:1016E00068BB049E45B32B8813F0010F1BD0AB7869
:1016F000042B01D9032422E0B373AA78124B53F8C8
:10170000222006F1100103A801F0F6F8D0B1AA7862
:101710000D4B53F822002DF033FE80B211F0D4FCB3
:101720007082032002E00020308270820023F37375
:1017300011F0CAFCB08102E00020F7E70324204644
:1017400008B070BD0624FAE7FC540300F0B589B078
:10175000002800F0848004460088884203D80324CF
:10176000204609B0F0BD20461E4615460A4601A98E
:1017700000F00AFF04460028F2D1059B588811F0BA
:10178000A3FCB0F5805F01D00424E9E7059B18882D
:1017900011F09AFC3B28F7D9059F1DB1388911F04B
:1017A00093FC28801EB1788911F08EFC30800E9B4E
:1017B0001BB107F10C030E9A13600F9B3BB1B88A63
:1017C00011F082FC002843D100230F9A1360109B74
:1017D00023B1B86911F07DFC109B1860119B23B1F7
:1017E000F86911F076FC119B1860129B23B1386ADE
:1017F00011F06FFC129B1860139B23B1786A11F0F3
:1018000068FC139B1860149B23B1B86A11F061FC4B
:10181000149B1860159B23B1F86A11F05AFC159BB4
:101820001860169B23B1386B11F053FC169B18609F
:10183000179B23B1786B11F04CFC179B1860189B19
:10184000002B8DD0B86B11F044FC189B186087E713
:10185000B88A11F039FC38440F9B1860B7E70324AD
:101860007EE7F0B589B0002800F097800446008834
:10187000884203D80324204609B0F0BD20461E4606
:1018800015460A4601A900F07FFE04460028F2D161
:10189000059B588811F018FC41F20103984201D0D1
:1018A0000424E8E7059B188811F00EFC3B28F7D9C3
:1018B000059F1DB1388911F007FC28801EB1788979
:1018C00011F002FC30800E9B1BB107F10C030E9A45
:1018D00013600F9B3BB1B88A11F0F6FB002847D18B
:1018E00000230F9A1360109B1BB107F11803109A85
:1018F0001360119B3BB1F88A11F0E6FB00283ED142
:101900000023119A1360129B23B1386A11F0E1FB96
:10191000129B1860139B23B1786A11F0DAFB139BBA
:101920001860149B23B1B86A11F0D3FB149B1860A4
:10193000159B23B1F86A11F0CCFB159B1860169B20
:1019400023B1386B11F0C5FB169B1860179B23B1B0
:10195000786B11F0BEFB179B1860189B002B8AD088
:10196000388F11F0B1FB88B90023189A136082E711
:10197000B88A11F0A9FB38440F9B1860B3E7F88AC6
:1019800011F0A2FB3844119B1860BCE7388F11F0AE
:101990009BFB3844189B18606DE703246BE7F0B598
:1019A00089B000283CD004460088884203D803242C
:1019B000204609B0F0BD20461E4615460A4601A93C
:1019C00000F0E2FD04460028F2D1059B588811F092
:1019D0007BFB41F20403984201D00424E8E7059B15
:1019E000188811F071FB0F28F7D9059F1DB13889B0
:1019F00011F06AFB28801EB1788911F065FB3080F8
:101A00000E9B23B1B88911F05FFB0E9B18800F9BD2
:101A1000002BCDD0F88911F057FB0F9B1880C7E73A
:101A20000324C5E7F0B589B000283CD004460088FF
:101A3000884203D80324204609B0F0BD20461E4644
:101A400015460A4601A900F09FFD04460028F2D180
:101A5000059B588811F038FB41F20503984201D0EC
:101A60000424E8E7059B188811F02EFB0F28F7D90E
:101A7000059F1DB1388911F027FB28801EB1788998
:101A800011F022FB30800E9B23B1B88911F01CFBB2
:101A90000E9B18800F9B002BCDD0F88911F014FB02
:101AA0000F9B1880C7E70324C5E7F0B589B000286D
:101AB0004FD004460088884203D80324204609B04A
:101AC000F0BD20461E4615460A4601A900F05CFD01
:101AD00004460028F2D1059B588811F0F5FA41F22E
:101AE0000303984201D00424E8E7059B188811F00D
:101AF000EBFA2B28F7D9059F1DB1388911F0E4FACC
:101B000028801EB1788911F0DFFA30800E9B002BFF
:101B1000D4D0B88911F0D8FA0E9B1880F88911F04A
:101B2000D3FA0E9B5880386911F0D3FA0E9B586097
:101B3000786911F0CEFA0E9B9860B86911F0C9FA75
:101B40000E9BD86007F11C030E9A1361243757616E
:101B5000B4E70324B2E7F0B589B000287AD0044690
:101B60000088884203D80324204609B0F0BD2046EF
:101B70001E4615460A4601A900F006FD0446002847
:101B8000F2D1059B588811F09FFA41F20603984262
:101B900001D00424E8E7059B188811F095FA1F2866
:101BA000F7D9059F1DB1388911F08EFA28801EB132
:101BB000788911F089FA30800E9B23B1B88911F031
:101BC00083FA0E9B18800F9B23B1F88911F07CFAE1
:101BD0000F9B1880109B1BB107F11003109A136024
:101BE000119B3BB1388B11F06FFA034610B33B44A5
:101BF000119A1360129B3BB1788B11F065FA034682
:101C0000E0B13B44129A1360139B3BB1B88B11F0C7
:101C10005BFA0346B0B13B44139A1360149B002B4C
:101C2000A2D0F88B11F050FA034678B90023149A29
:101C3000136099E70023119A1360DBE70023129ADF
:101C40001360E1E70023139A1360E7E73B44149A1B
:101C5000136089E7032487E7F0B589B070B30446C1
:101C60000088884203D80324204609B0F0BD2046EE
:101C70001E4615460A4601A900F086FC04460028C7
:101C8000F2D1059B588811F01FFA41F207039842E0
:101C900001D00424E8E7059B188811F015FA0B28F9
:101CA000F7D9059F1DB1388911F00EFA2880002E52
:101CB000DAD0788911F008FA3080D5E70324D3E729
:101CC000F0B589B0002851D004460088884203D876
:101CD0000324204609B0F0BD20461E4615460A469C
:101CE00001A900F051FC04460028F2D1059B588858
:101CF00011F0EAF941F20803984201D00424E8E720
:101D0000059B188811F0E0F91F28F7D9059F1DB130
:101D1000388911F0D9F928801EB1788911F0D4F9E9
:101D200030800E9B23B1F86811F0D3F90E9B186038
:101D30000F9B23B1386911F0CCF90F9B1860109BF1
:101D400023B1786911F0C5F9109B1860119B23B17C
:101D5000B86911F0BEF9119B1860129B002BB8D026
:101D6000F86911F0B6F9129B1860B2E70324B0E7E6
:101D7000F0B589B0002833D004460088884203D8E3
:101D80000324204609B0F0BD20461E4615460A46EB
:101D900001A900F0F9FB04460028F2D1059B588800
:101DA00011F092F941F20903984201D00424E8E7C6
:101DB000059B188811F088F90F28F7D9059F1DB1E8
:101DC000388911F081F928801EB1788911F07CF9E9
:101DD00030800E9B002BD4D03B7B0E9A1370D0E743
:101DE0000324CEE760B100B589B00B460022009213
:101DF0004FF4805203A900F095FD09B05DF804FB93
:101E000003207047F0B589B0002800F0AF801F466E
:101E100014460B462022009241F2030203A900F06F
:101E200081FD0546002840F0A280049E204611F066
:101E30004BF9F081384611F04CF930610E9811F0F1
:101E400048F970610F9B23B31A685B68F2613362D3
:101E50001724109B2BB11A685B687262B36244F05E
:101E60002004032011F030F93083119B002B7AD02D
:101E7000142206F11A0103A800F004FD074644F0FD
:101E8000080011F021F9B081119B986818B9032559
:101E90006DE00724DDE711F01CF93861119B18880B
:101EA00011F012F97880119B1B88032B0BD0013B9A
:101EB0009BB2012B36D940F2011000237B8111F037
:101EC00003F9388053E0119B586801F0C1FC08B950
:101ED00003254CE0119B586811F0FBF8F860119B4A
:101EE0009A89531E9BB2012B01D903253FE03A7119
:101EF000119BDA89531E9BB2012B01D9032536E0D1
:101F00007A71119B1A8A531E9BB2012B32D8BA7177
:101F1000119B5A8A531E9BB2012B2DD8FA7140F2A5
:101F20009F10CAE7119B586801F0CEFC08B9032541
:101F30001DE0119B586811F0CCF8F860119BDA890C
:101F4000531E9BB2012B01D9032510E07A72119B1D
:101F50009A89531E9BB2022B01D9032507E03A72DE
:101F600040F2E110A9E70023738300E0032528462F
:101F700009B0F0BD0325FAE70325F8E770B588B08E
:101F8000E0B114460B460422009241F2060203A976
:101F900000F0C8FC054690B9049E5CB1224606F1EB
:101FA0000E0103A800F0A8FC60B1012011F08CF82C
:101FB000B08104E00023B381F38100E003252846CB
:101FC00008B070BD0625FAE760B100B589B00B46D0
:101FD0000022009241F2010203A900F0A3FC09B023
:101FE0005DF804FB03207047F0B589B0002833D0BA
:101FF00004460088884203D80324204609B0F0BD77
:1020000020461E4615460A4601A900F0BDFA0446C0
:102010000028F2D1059B588811F056F8B0F5804F92
:1020200001D00424E9E7059B188811F04DF8172822
:10203000F7D9059F15B107F108032B601EB1386968
:1020400011F047F830600E9B002BD6D0786911F064
:1020500040F80E9B1860D0E70324CEE7F0B589B0B6
:10206000002834D004460088884203D80324204640
:1020700009B0F0BD20461E4615460A4601A900F0EB
:1020800083FA04460028F2D1059B588811F01CF809
:1020900044F20103984201D00424E8E7059B188824
:1020A00011F012F81328F7D9059F15B107F10803AD
:1020B0002B601EB1388A11F007F830800E9B002B80
:1020C000D5D0788A11F000F80E9B1880CFE7032452
:1020D000CDE7F0B589B0002800F084800446008880
:1020E000884203D80324204609B0F0BD20461E468E
:1020F00015460A4601A900F047FA04460028F2D125
:10210000059B588810F0E0FF41F20113984201D07E
:102110000424E8E7059B188810F0D6FF2728F7D994
:10212000059F1DB1388910F0CFFF28801EB1788936
:1021300010F0CAFF3080F86810F0CBFF05460E9B08
:1021400013B13B7C0E9A13700F9B2BB115F0010F4E
:1021500002D07B7C0F9A1370109B2BB115F0020FED
:1021600002D0BB7C109A1370119B43B115F0040F81
:1021700011D115F0080F14D115F0100F17D1129BC3
:1021800013B115F0200F18D115F0400F1ED1002308
:10219000139A1360A7E7786910F09BFF119B1860F2
:1021A000E7E7B86910F095FF119B5860E4E7F8691C
:1021B00010F08FFF119B9860E1E7386A10F089FFFB
:1021C000129B18600223129A9380DDE7B88C10F0FE
:1021D0007BFF0028DBD0B88C10F076FF3844139BCF
:1021E000186080E703247EE770B5002844D00446D9
:1021F0000088884202D80324204670BD20461E462F
:1022000015460A46294600F0BFF904460028F3D1D6
:102210002B69588810F058FFB0F5885F01D004246E
:10222000EAE72B69188810F04FFF1F28F7D92D69AE
:102230001EB1288910F048FF3080049B23B16889C3
:1022400010F042FF049B1880059B002BD4D0E86857
:1022500010F03FFF059B1860288A10F035FF059BA2
:102260009880E88A10F030FF059BD880A88B10F08A
:102270002BFF059B1881BFE70324BDE72DE9F0473D
:1022800088B0002854D004461E4617460D46D0F8A4
:102290001080B8F8100010F017FFA84201D80324EE
:1022A00047E0B8F8140010F00FFF8146B8F81000AE
:1022B00010F00AFF8246B8F8120010F005FF02285D
:1022C00006D910F0030F03D0033020F0030080B2D2
:1022D000009053464A4603A9204600F0B1F904464F
:1022E00038BB05EB85018900069B5D181FB1585A64
:1022F00010F0EAFE38801EB1688810F0E5FE3080EC
:10230000109B23B1686810F0E4FE109B1860119BCD
:1023100033B12B4653F8082F11990A609B888B80A4
:10232000129B33B1E88910F0CFFE129B188000E0B9
:102330000324204608B0BDE8F0872DE9F04788B0B7
:1023400000286DD00746984691460D460669308AAA
:1023500010F0BAFEA84201D8032462E0B08A10F05F
:10236000B3FE0446308A10F0AFFE8246708A10F049
:10237000ABFE022806D910F0030F03D0033020F083
:10238000030080B200905346224603A9384600F06D
:1023900057F90446002844D105EB8501069D05EB5D
:1023A0008105688A10F090FE0446E88910F08CFEE2
:1023B0000646288A10F088FE022806D910F0030F7E
:1023C00003D0033020F0030080B200903346224651
:1023D00003A9384600F034F9044610BB4FEA09124D
:1023E000069B9D18B8F1000F04D0985A10F06CFEAF
:1023F000A8F80000109B23B1686810F06AFE109BDB
:102400001860129B23B1E86810F063FE129B1860FD
:10241000119B33B1A86810F05CFE119B186000E0BE
:102420000324204608B0BDE8F08760B100B589B04C
:102430000B46002200924FF4885203A900F072FA72
:1024400009B05DF804FB03207047F0B58BB0174668
:102450001D46182300930B4641F2011205A900F016
:1024600061FA0646C8B9069CD7B1A77301270023B5
:10247000E3734DB32868A8B96868C8B9A868E8B913
:10248000109B002B4BD0082301220DEB030105A864
:1024900000F057FA034620B31E4630460BB0F0BD9D
:1024A0000027E4E710F015FE206147F00207E3E79C
:1024B00010F00FFE606147F00407DFE710F009FE3F
:1024C000A06147F00807DBE7002010F002FE206162
:1024D000002010F0FEFD6061002010F0FAFDA06108
:1024E000CEE7BDF80830E383082010F0EDFDA083AF
:1024F000109B186888B19B880BB90323CCE7049D17
:1025000010F0E7FD2860109B988810F0DDFDA88092
:102510000023EB8047F0100704E00323BCE700230F
:10252000E383A38300236384119B6BB11A4604F1F8
:10253000200105A800F0E0F948B147F0200738462F
:1025400010F0C2FDA081A8E700232384F7E7062648
:10255000A3E7A8B110B50446A1B10AB9032010BD84
:1025600041600280088810F0AFFD072801D80420E0
:1025700010BD6368988810F0A7FD2081002010BD71
:1025800003207047032010BD002855D0F8B506463B
:10259000002953D012F0030F01D00320F8BD1546D7
:1025A0000C462060A28043689A180A61585B10F0BC
:1025B0008BFDE0802369588810F086FD2081236917
:1025C000988810F081FD60812369D88810F07CFD27
:1025D000A081E1886789A1F10803DB1B1B1AE38155
:1025E00011F0030F01D00420F8BD6A1833889A4215
:1025F00001DD0420F8BD072901D80420F8BD40EA18
:10260000070313F0030F06D0228948F205039A420C
:1026100001D00420F8BD07F108030344994201D218
:102620000420F8BD23690833636118B11F44A76112
:102630000020F8BD0027FAE7032070470320F8BD0B
:10264000F0B4BDF8104000B3054601B313B9032040
:10265000F0BC70470CB90320FAE712F0030F01D069
:102660000320F5E713FB04F080B21718EE88B74299
:1026700001DD0420ECE70D608B80CC8008812B69A4
:102680001A44CA6000200861E2E70320E0E7032063
:10269000DEE781B10B4680B1816981B110B41A4483
:1026A000C488A2420DDC00691844814288BF002022
:1026B0005DF8044B704700207047002070470020F1
:1026C00070470020F4E770B504460D460122FFF77D
:1026D000E0FF88B1064621694B194A5D72B1E48872
:1026E000A5420CD213F8012F22B15A1A9442F9D8FC
:1026F000002070BD304670BD002070BD70BD002050
:1027000070BD08B54369188810F0DEFC08BD08B537
:102710004369588810F0D8FC08BD00B338B50546A9
:10272000F9B10AB9032038BD072A01D8062038BDFF
:102730000C46296082800820E88010F0C5FC2080CB
:102740002C68012010F0C0FC60802C684FF4805091
:1027500010F0BAFCA0802B680020D88038BD032080
:102760007047032038BD0346C08811F0030F03D023
:10277000033121F0030189B2014489B29A888A4267
:1027800005D380081A6802EB8000D98070470020CA
:102790007047F8B505460C464368188810F094FC5D
:1027A000064621462868FFF7DEFF074660B114F0B1
:1027B000030F03D0033424F00304A4B26D6830196E
:1027C00080B210F081FC28803846F8BD48B32DE96E
:1027D000F843074639B3984616460C4603F10805F8
:1027E000ADB22946FFF7BFFF8146F8B127606060B0
:1027F000284610F069FCA9F800006568304610F022
:1028000063FC68806568404610F05EFCA8806368E1
:102810000020D88063680833A360E0602061BDE8D1
:10282000F883032070470320BDE8F8830620BDE845
:10283000F88370B50E461D460423FFF7C7FF044614
:1028400008B1204670BDB668284610F03DFC3080C7
:1028500000237380F5E778B138B5044602686AB1A1
:102860000D46FFF796FF58B1E0606468284610F007
:102870002BFCE080002038BD03207047032038BDCA
:10288000062038BDF8B508B1044622B9E1B10024EC
:102890000C802046F8BD16460D464368188810F097
:1028A00013FC074631462046FFF773FF0446002815
:1028B000EFD01DB1384610F007FC288032460021C9
:1028C00020462BF05BFEE4E70024E2E770B50BB195
:1028D0001E4622B971B100240C80204670BD1546F9
:1028E000FFF7D0FF04460028F7D02A4631462BF0E8
:1028F00047FDF2E70024F0E772B170B515460C46CB
:10290000064610462CF03CFD421C2B4692B2214656
:102910003046FFF7DBFF70BD11B100200880704723
:102920000020704710B50C46FFF783FF034608B13F
:10293000184610BDBDF808102046FFF78CFF03466F
:10294000F6E700B3F8B50446F9B10AB90320F8BDBB
:102950000BB90320F8BD12FB03F7BFB217F0030F4A
:1029600003D0033727F00307BFB220461E461546A3
:102970000C463A46FFF786FF48B16580A680E7809F
:10298000A0600020F8BD032070470320F8BD06209A
:10299000F8BD0000F8B5B8B10C4615461E4699B111
:1029A000C2B1CEB112FB06F292B20431FFF76AFF58
:1029B000074638B1284610F087FB2080304610F0DB
:1029C00083FB60803846F8BD044B054A1C2105484E
:1029D0002AF03AFE0027F5E70027F3E7A8550300A1
:1029E00038550300C05503002DE9F84348B10C46A3
:1029F000154606462AB121B18B8843B90B20BDE8A4
:102A0000F8831E4B1E4A3A211E482AF01DFE4B88B1
:102A100013B90320BDE8F883088810B90320BDE886
:102A2000F88310F051FB074620B1A38833B9042086
:102A3000BDE8F8832E60A880BDE8F883608810B9EF
:102A40000420BDE8F88310F03FFB814617FB00F837
:102A50001FFA88F8A08810F037FB4246014630463E
:102A6000FFF717FEA86030B12E60AF80A5F8069082
:102A70000020BDE8F8830420BDE8F883E455030096
:102A800060550300C055030008B570B103460268E5
:102A90005AB182888A4214D9C08860B19B6853B108
:102AA00011FB00F113FA81F008BD074B074A6921B9
:102AB00007482AF0C9FD074B044A6E2104482AF052
:102AC000C3FD002008BD00BF085603008455030065
:102AD000C055030030560300F0B589B0002838D047
:102AE00004460088884203D80324204609B0F0BD7C
:102AF00020461E4615460A4601A9FFF745FD044635
:102B00000028F2D1059B588810F0DEFA41F201331B
:102B1000984201D00424E8E7059B188810F0D4FA05
:102B20000F28F7D9059F1DB1388910F0CDFA2880FC
:102B30001EB1788910F0C8FA30800E9B13B13B7B30
:102B40000E9A13700F9B002BCFD07B7B0F9A1370C4
:102B5000CBE70324C9E70000F0B589B0002800F0F6
:102B6000998004460088884203D80324204609B08F
:102B7000F0BD20461E4615460A4601A9FFF704FD92
:102B800004460028F2D1059B588810F09DFA41F2C6
:102B90000233984201D00424E8E7059B188810F01E
:102BA00093FA1F28F7D9059F1DB1388910F08CFAC8
:102BB00028801EB1788910F087FA3080B88910F02B
:102BC00083FA054610F0010F18D10E9B13B10023B4
:102BD0000E9A13800F9B13B100230F9A136015F008
:102BE000020F31D1109B13B10023109A1380119B57
:102BF000002BBBD00023119A1360B7E7388A10F07E
:102C000063FA06460E9B2BB110F0010F0CD1002386
:102C10000E9A13800F9B002BE1D016F0020F09D102
:102C200000230F9A1360DAE7788A10F04DFA0E9BB2
:102C30001880EFE7786910F04CFA174BA3FB0023DC
:102C40009B090F9A1360CAE7388B10F03DFA0546CE
:102C5000109B2BB110F0010F0CD10023109A1380A0
:102C6000119B002B82D015F0020F09D10023119A7D
:102C700013607BE7788B10F027FA109B1880EFE742
:102C8000F86910F026FA044BA3FB00239B09119A64
:102C900013606BE7032469E7D34D6210F0B587B08A
:102CA00000283DD005888D4203D80324204607B074
:102CB000F0BD002A36D01E4615460A462946FFF7C3
:102CC00063FC04460028F1D12B69588810F0FCF908
:102CD00041F20333984201D00424E7E72B691888B6
:102CE00010F0F2F90F28F7D92F691EB1388910F0CA
:102CF000EBF930800C9B23B1788910F0E5F90C9B3F
:102D000018800D9B002BD1D001A9284600F046FB6E
:102D100004460028CAD1BDF808300D9A1380C5E7D3
:102D20000324C3E70324C1E708B500F0E5FF08BDAD
:102D3000F0B587B000283BD005888D4203D8032426
:102D4000204607B0F0BD1E4615460A462946FFF745
:102D50001BFC04460028F3D12B69588810F0B4F905
:102D600041F20433984201D00424E9E72B69188822
:102D700010F0AAF90F28F7D92F691EB1388910F081
:102D8000A3F930800C9B23B1788910F09DF90C9B3E
:102D900018800D9B002BD3D001A9284600F0FEFA25
:102DA00004460028CCD1BDF808300D9A1380C7E73F
:102DB0000324C5E7F8B5002839D0044600888842C6
:102DC00002D803242046F8BD002A32D020461E46F1
:102DD00015460A462946FFF7D7FB04460028F1D1DD
:102DE0002B69588810F070F941F20733984201D0EE
:102DF0000424E7E72B69188810F066F90F28F7D943
:102E00002F691EB1388910F05FF93080069B23B11D
:102E1000788910F059F9069B1880079B002BD1D0B8
:102E2000AB69188810F050F9079B1880CAE7032493
:102E3000C8E70324C6E7002833D02DE9F041074650
:102E40001E4690460C468569288810F03DF9A04240
:102E500002D80320BDE8F081A88810F035F910B938
:102E60002420BDE8F08100EBC4013B695C18B8F197
:102E7000000F04D0585A10F027F9A8F800001EB12E
:102E8000608810F021F93080069B13B12379069AEF
:102E90001370079B3BB16379079A13700020BDE85C
:102EA000F081032070470020BDE8F081F0B587B0C5
:102EB00000283BD005888D4203D80324204607B064
:102EC000F0BD1E4615460A462946FFF75DFB04463F
:102ED0000028F3D12B69588810F0F6F841F2053339
:102EE000984201D00424E9E72B69188810F0ECF827
:102EF0000F28F7D92F691EB1388910F0E5F8308016
:102F00000C9B23B1788910F0DFF80C9B18800D9B87
:102F1000002BD3D001A9284600F040FA044600282F
:102F2000CCD1BDF808300D9A1380C7E70324C5E75C
:102F300010B582B0049C009400F082FF02B010BD76
:102F400010B582B0049C009400F0F8FF02B010BDF0
:102F5000F0B587B000283BD005888D4203D8032404
:102F6000204607B0F0BD1E4615460A462946FFF723
:102F70000BFB04460028F3D12B69588810F0A4F805
:102F800041F20633984201D00424E9E72B691888FE
:102F900010F09AF80F28F7D92F691EB1388910F070
:102FA00093F830800C9B23B1788910F08DF80C9B3E
:102FB00018800D9B002BD3D001A9284600F0EEF914
:102FC00004460028CCD1BDF808300D9A1380C7E71D
:102FD0000324C5E7F8B5002839D0044600888842A4
:102FE00002D803242046F8BD002A32D020461E46CF
:102FF00015460A462946FFF7C7FA04460028F1D1CC
:103000002B69588810F060F841F20833984201D0DB
:103010000424E7E72B69188810F056F80F28F7D931
:103020002F691EB1388910F04FF83080069B23B10C
:10303000788910F049F8069B1880079B002BD1D0A7
:10304000AB69188810F040F8079B1880CAE7032482
:10305000C8E70324C6E708B330B58BB01AB903211B
:1030600008460BB030BD0BB90321F9E79A4201D9EC
:103070000321F5E71D4614460B460022009241F25B
:10308000033203A900F0AAFC01460028E8D12A4631
:10309000214603A800F0C2FC0146E1E703210846EF
:1030A000704708B330B58BB01AB9032108460BB08E
:1030B00030BD0BB90321F9E79A4201D90321F5E7A5
:1030C0001D4614460A46BDF838300093002303A974
:1030D00000F0CCFC01460028E8D12A46214603A88E
:1030E00000F09CFC0146E1E703210846704738B335
:1030F00070B58AB01AB9032108460AB070BD13B37F
:103100001C4615460B4601920822009241F20932F4
:1031100002A900F05BFD01460028EDD12E46002DEE
:10312000EAD00025A3686268218802A800F07EFD2D
:1031300001460028E0D101350C34B542F2D1DBE77D
:103140000321084670470321D6E781617047F0B537
:103150008FB0002846D0002A46D014460A4623885D
:1031600000210191A18A009103A900F0EFFC06461D
:1031700000283AD1616803A800F008FD064600283F
:1031800033D1089D208A0FF09FFF2886089DA068F4
:103190000FF09FFFA862089D608A0FF095FF688678
:1031A000089DE0680FF095FFE862089D012385F80F
:1031B000243002200FF088FFE886089DA08A0FF0D7
:1031C00083FFA886A38A83B100250A9FA36933F8E9
:1031D00015000FF079FF27F815000135A38AAB42DF
:1031E000F3D802E0032600E0032630460FB0F0BD1E
:1031F00070B528B10C46064641B90325284670BD76
:103200000A4B0B4A3F210B482AF01EFA0821FFF710
:1032100022FB05460028F1D1F66820460FF054FF46
:10322000708000233380B380F380E7E720570300EA
:103230005C560300305703002DE9F047E0B10E461D
:103240008046C468C4B100293BD060880FF03CFFC1
:10325000814616FB00F7BFB2A3889BB93A46211DF1
:103260004046FFF70FFB054670B330460FF02CFFCA
:1032700020802846BDE8F087164B174A5B21174887
:103280002AF0E2F920880FF01FFF8246D8F8045098
:10329000A0880FF019FF09FB0A0005443946404693
:1032A000FFF777FA90B13A46002128462BF066F9ED
:1032B00006EB0A0080B20FF007FF20802846BDE829
:1032C000F0870020BDE8F087BDE8F0870020BDE86A
:1032D000F08700BF545703007856030030570300AF
:1032E00070B506460C46154606222946FFF7D1F969
:1032F00026602061031DE36000880FF0E5FEA080DA
:103300000223E3800138400020810435F0888542A3
:103310008CBF0D20002070BD38B504693CB10D464E
:1033200020880FF0D1FEA84207D8002038BD064BF8
:10333000064AF92106482AF087F904EB4504A088DB
:103340000FF0C2FE38BD00BFB85503009C56030005
:103350003057030070B506461446FFF7DDFFC8B1CD
:1033600005468CB9022201463068FFF792F90446FF
:1033700090B100880FF0A8FE28443368DB8898429B
:10338000D4BF2046002070BD224601463068FFF7BA
:1033900080F970BD002070BD002070BD38B568B1E7
:1033A0000D46044651B183697BB118880FF08CFE3D
:1033B000024629462046FFF793FF38BD044B054AD5
:1033C0004FF4AB7104482AF03FF9032038BD00BF29
:1033D000E0570300B4560300305703002DE9F041D5
:1033E000D8B10D4616460446B9B10421FFF733FAA9
:1033F000074678B9E16800234B80012E83BFB200F5
:10340000043292B208222046FFF73CFA80462C6034
:1034100068604EB93846BDE8F081064B064A4FF465
:10342000D47106482AF010F930460FF04DFEA8F886
:103430000200EFE7C0570300D856030030570300DF
:103440002DE9F843A0B189469046064603687BB152
:1034500044686CB160880FF037FE074620880FF093
:1034600033FE05465FB187420AD80620BDE8F883DF
:10347000114B124A4FF4FD7111482AF0E5F888B952
:1034800048460FF021FE04EB8506B08040460FF061
:103490001BFEF080681C80B20FF016FE208000201A
:1034A000BDE8F88304213068FFF773F90028E7D1FD
:1034B0000620BDE8F88300BF7C57030000570300D7
:1034C0003057030041F20833984200F0188100F2AF
:1034D000868041F20113984200F001813FD841F209
:1034E0000503984200F0F3801CD841F20203984291
:1034F00000F0E9800AD8B0F5805F00F0228141F247
:103500000103984240F01B818F48704741F203034A
:10351000984200F0DA8041F20403984240F00F81B3
:103520008A48704741F20803984200F0D4800BD8D3
:1035300041F20603984200F0CC8041F20703984222
:1035400040F0FD808248704741F20903984200F044
:10355000C480B0F5885F40F0F2807E48704741F249
:103560000233984200F0C3801BD841F202239842F4
:1035700000F0B9800AD8B0F5905F00F0B28041F257
:103580000123984240F0DB8073487047B0F5985FA4
:1035900000F0AB8041F20133984240F0D0806F4898
:1035A000704741F20533984200F0A5800BD841F2F4
:1035B0000333984200F09D8041F20433984240F07A
:1035C000BE806748704741F20633984200F095800C
:1035D00041F20733984240F0B2806248704741F2AE
:1035E0000343984200F09B8039D841F20E33984251
:1035F00000F08F801BD841F20B33984200F083809B
:103600000AD841F2093398427BD041F20A339842FA
:1036100040F095805448704741F20C33984274D082
:1036200041F20D33984240F08A8050487047B0F51F
:10363000A05F70D009D841F20F33984267D041F2B1
:10364000103398427BD14A48704741F20143984277
:1036500063D041F20243984271D146487047B0F5B9
:10366000004F64D016D841F2025398425BD008D87C
:10367000B0F5A85F55D041F2015398425FD13E4862
:103680007047B0F5804F50D044F20103984256D1B4
:103690003A48704748F2030398424CD009D848F2A0
:1036A0000103984245D048F20203984247D134487A
:1036B000704748F2040398423FD048F2050398420D
:1036C0003DD13048704730487047304870473048E7
:1036D000704730487047304870473048704730482E
:1036E000704730487047304870473048704730481E
:1036F000704730487047304870473048704730480E
:1037000070473048704730487047304870473048FD
:1037100070473048704730487047304870473048ED
:1037200070473048704730487047304870473048DD
:1037300070473048704730487047304870473048CD
:1037400070473048704700BF0858030034580300E2
:103750006458030094580300C0580300F058030055
:1037600040590300A0590300EC5903003C5A0300E0
:10377000A85A0300DC5A0300085B03004C5B0300FB
:10378000905B0300DC5B0300145803002458030023
:103790004458030054580300745803008058030031
:1037A000A4580300B4580300D0580300E0580300A5
:1037B0000459030020590300605903008059030095
:1037C000B8590300D0590300045A0300205A0300DB
:1037D000605A0300845A0300BC5A0300C85A03000D
:1037E000F05A0300FC5A0300205B0300385B03001F
:1037F000605B0300805B0300A85B0300C45B030005
:10380000F45B0300F857030005280ED8DFE800F04A
:103810000F030507090B074870470748704707481B
:103820007047074870470748704707487047074880
:10383000704700BF045C0300105C03002C5C0300B5
:10384000485C0300605C0300F45B0300F85B03006A
:10385000154B984218D00DD9144B984214D01BD850
:10386000A3F58F03A3F28C6398420DD0104B9842BE
:1038700010D109E00F4B984206D007D90E4B984261
:1038800002D00E4B984205D1012070474BF6BC6325
:103890009842F9D000207047094B9842F4D0094B68
:1038A0009842F7D1F0E700BFC2EB0B00105E5F005B
:1038B00008AF2F00787D0100F0FA0200E1F5050065
:1038C00020BCBE0040787D01B0F5164F0ED007D861
:1038D000B0F5165F0AD0B0F5964F07D000207047BC
:1038E000B0F5614F02D0B0F5E13FF7D1012070474C
:1038F00010B4002404704A1C83188454881C10F0EF
:103900001F0F06D0FF2203F8012F013010F01F0F08
:10391000F9D15DF8044B7047F8B5264C2488B4F50E
:10392000027F01D90620F8BD234D2F78012F12D038
:103930001E4615461FB1022F19D01C20F8BD08B134
:103940001C20F8BD01221C4B1A70002E29D00798AC
:10395000B0471C20F8BD30B308550134A4B2154B54
:103960001C8014600222144B1A701C20F8BD68B130
:1039700008550134A4B20F4B1C801460AEB1069BF5
:10398000ABB198470798B0471C20F8BD069B03B120
:103990009847084B1A882A600020074A1070188040
:1039A000F8BD1C20F8BD1C20F8BD1C20F8BD1C2053
:1039B000F8BD00BF080E00200A0E002008B504481C
:1039C0002AF098FE0023034A1370034A138008BDAF
:1039D000745C03000A0E0020080E002038B538B1D0
:1039E0000C4629B1FEF725FF034638B1184638BD0D
:1039F000074B084A2321084829F026FEBDF810206D
:103A000004F114012046FFF7E9FC0346EEE700BF8E
:103A1000F45D0300945C0300105E030008B518B168
:103A20001430FFF70DFD08BD024B034A382103484F
:103A300029F00AFE545E0300B45C0300105E03002C
:103A400010B538B1C4682CB108460FF03DFB60805A
:103A5000002010BD024B034A6121034829F0F4FD08
:103A60009C5D0300D85C0300105E030010B582B0BB
:103A70000C460093134641F21032FFF7AFFF0346A6
:103A800010B1184602B010BDBDF810102046FFF767
:103A9000D7FF0346F5E72DE9F04182B005460C4615
:103AA00017461E46BDF824802C22002120462AF00D
:103AB00065FD402300933B46324621462846FEF7EB
:103AC00031FF054618B1284602B0BDE8F081E06834
:103AD00060614026324600212AF050FD6769304679
:103AE0000FF0F2FA38806669BDF820000FF0ECFAAA
:103AF0007080B8F1000FE6D06169082342463A3180
:103B00002046FEF747FFA062002808BF0625DAE737
:103B100030B583B00D46BDF820400194BDF8184083
:103B20000094FFF7B8FF044610B1204603B030BD43
:103B300069690223BDF81C2034312846FEF72AFFAC
:103B4000E861002808BF0624EFE7000010B584B044
:103B500078B1044669B1BDF81C000290BDF81800A8
:103B60000190009341F20D332046FFF7D1FF04B0DE
:103B700010BD034B034AC521034829F065FD00BF72
:103B8000385E0300045D0300105E030010B540B111
:103B9000436933B111B191F9002042B900209880F6
:103BA00010BD074B074AD421074829F04DFD0A46AE
:103BB000191DFEF7A1FE002814BF0020062010BD2D
:103BC000C85D0300345D0300105E030070B5BDF8EE
:103BD000146028B10C4619B14EB90325284670BDB2
:103BE0000F4B104A40F2D9110F4829F02DFDFEF776
:103BF00020FE05460028F1D1BDF810102046FFF741
:103C0000F7FA05460028E9D131462046FFF714FBB4
:103C1000606118B1A6610023E361DFE70625DDE7F7
:103C2000DC5D0300585D0300105E03002DE9F047E2
:103C300004461D461646D2B192F90030003318BF33
:103C40000123B5B195F90020003218BF01221746B3
:103C50008CB1D4F81480B8F1000F0CD0A26952B125
:103C6000D4F81C904A450DD80D20BDE8F0870023FC
:103C7000E7E70022EBE71D4B1D4A4FF4FF711D489B
:103C800029F0E2FC9F4202D00320BDE8F08708EB58
:103C9000C90A08460FF018FA28F839000023AAF8D4
:103CA000023057B90023AAF80430AAF80630E369B5
:103CB0000133E3610020BDE8F08732460AF10401D8
:103CC0002046FEF719FE68B12A460AF10601204691
:103CD000FEF712FE0028EAD10023AAF804300620DD
:103CE000BDE8F0870620BDE8F08700BF605E0300F6
:103CF000785D0300105E03002DE9F0438DB00028CD
:103D000000F095808046002A00F093801F461546FB
:103D10000E4607A9FFF742FB0446002840F08A80C0
:103D2000BDF82030B34201D8032483E01C22314681
:103D30000DEB0200FFF70EFB064600287ED0408800
:103D40000FF0C2F92880B08800282CD100236B60C6
:103D5000F08800282ED130890FF0B6F9688270897A
:103D60000FF0B2F9A882B08900284BD10023AB61D3
:103D7000308A0FF0A9F9A883B37CAB77F37CEB779B
:103D8000B08A002845D100232B62F08A002847D151
:103D900000236B62308B0FF097F92885708B0FF042
:103DA00093F9688546E0D8F810900FF08DF94844F3
:103DB0006860CDE70FF088F91023009301230246D5
:103DC00002A94046FEF73CFC28B100232B81EB60A2
:103DD0002B823B80BFE7DDF81490B9F802000FF0AA
:103DE00073F92881D9F804000FF073F9E860B9F885
:103DF00008000FF069F92882B9F80A000FF064F999
:103E00003880A8E7D8F810700FF05EF93844A86140
:103E1000AEE7D8F810700FF057F938442862B4E7CD
:103E2000D8F810700FF050F938446862B2E70324F4
:103E300000E0032420460DB0BDE8F0832424F9E718
:103E40002DE9F04387B00E9E00286CD00546002E69
:103E50006BD0994690460F4601A9FFF79FFA04469A
:103E6000002863D1BDF80830BB4201D803245DE0CF
:103E70004022394601A8FFF76DFA0746002859D0BD
:103E800040880FF021F93080B888002843D1002302
:103E90007360F8880FF018F9308138890FF014F941
:103EA000708178890FF010F9B081F8680FF011F97E
:103EB000306138690FF00DF9706197F8243033766E
:103EC00097F82630737697F82730B376B86A0FF0F4
:103ED00000F9F061F86A0FF0FCF8174BA3FB002320
:103EE0009B093362388E0FF0EFF8B084788E0FF0B4
:103EF000EBF8F084B8F1000F04D0B88E0FF0E4F8BE
:103F0000A8F80000B9F1000F10D0788F0FF0DCF89E
:103F1000A9F800000AE00FF0D7F801462846FEF79E
:103F2000D2FB7060B5E7032400E00324204607B00D
:103F3000BDE8F0832424F9E7D34D62102DE9F04168
:103F400088B0002839D080461F4616460C4603A983
:103F5000FFF724FA054688BBBDF81030A34201D80C
:103F600003252BE04022214603A8FFF7F3F904467E
:103F700040B3408F0FF0A8F8B04201D803251DE0F0
:103F80006A4604F13A014046FEF72EFD0546A8B9FF
:103F900031466846FEF778FD044648B140680FF0A8
:103FA00098F8386060880FF08FF80E9B188005E055
:103FB00000233B600E9A138000E00325284608B0DA
:103FC000BDE8F0812425F9E770B50D46144628B107
:103FD000064641B182B954B1032070BD11482AF0A0
:103FE00089FB002DF7D110482AF084FBF3E70F4836
:103FF0002AF080FB032070BD7160328048880FF08A
:1040000063F8072806D973681A7832725B7873727E
:10401000002070BD73680822598805482AF008FB03
:10402000042070BD885E0300B05E0300D05E030014
:10403000F05E030028B131B143681B790B7000209A
:1040400070470320704700207047034678B14268EC
:104050001079012801D0042070471B880B2B01D850
:104060000420704729B1137A0B7000207047032099
:10407000704700207047034698B1A1B10AB90320E8
:104080007047072A01D8062070470160828000200F
:10409000D880086048601A68012111701B68587048
:1040A0007047032070470320704708B370B504467B
:1040B000C2880AB1052070BD066832790AB10520B0
:1040C00070BD82880B2A01D8062070BD0D460123E1
:1040D00033710C200EF0F8FF708008200EF0F4FF12
:1040E000F08035720020707270810C23E38070BD07
:1040F00003207047A8B32DE9F8430446C58815B1DD
:104100000520BDE8F8830768387910B10520BDE8BF
:10411000F883A58803F10C00854202D20620BDE891
:10412000F8831E4690460D4602233B711FFA80F924
:1041300048460EF0C9FF78800C200EF0C5FFF880CD
:1041400028460EF0C1FF388100257D812068324667
:1041500041460C302AF014F9A4F806902846BDE830
:10416000F883032070472DE9F047BDF8246000284C
:1041700039D00446C58815B10520BDE8F087076829
:10418000387910B10520BDE8F087A58806F1100048
:10419000854202D20620BDE8F087984615468A4639
:1041A00003233B711FFA80F948460EF08DFF78809B
:1041B00010200EF089FFF88050460EF085FF388100
:1041C00028460EF081FF788140460EF082FFF860AD
:1041D00020683246089910302AF0D2F8A4F80690E8
:1041E0000020BDE8F0870320BDE8F087A0B30346B8
:1041F000C08808B1052070472DE9F041186804799E
:1042000014B10520BDE8F0819D8802F10804A542A3
:1042100002D20620BDE8F0811C4615460E46052355
:104220000371D4F8008002F10807BFB238460EF0DF
:104230004BFFA8F80200D4F8008008200EF044FFDD
:10424000A8F8060020682A46314608302AF098F877
:10425000E7800020BDE8F0810320704700B587B0FB
:1042600004AB009305AB03AAFDF7BEFE034610B9ED
:104270000121034A1170184607B05DF804FB00BF26
:104280001D0E002000B585B003AB00930DF10E03A9
:1042900002AAFDF7E3FE034610B90121024A11709C
:1042A000184605B05DF804FB1D0E002000B599B05E
:1042B0000023169315930CAB0A930DAB09930EAB29
:1042C00008930FAB079310AB069311AB059312AB9A
:1042D000049313AB039314AB029316AB019315AB8A
:1042E000009317AB0DF15E02FDF730FA024688B974
:1042F000149B180E09490870180C094908700949DF
:104300000B801399084B19600C99084B1960012117
:10431000074B1970104619B05DF804FBB60E00206B
:10432000B70E0020E20E0020C00E0020BC0E0020C0
:10433000220E002070B598B00023169315931493A5
:104340001393129315AB0A930CAB09930DAB08931F
:104350000EAB07930FAB069310AB059311AB049311
:1043600014AB039312AB029316AB019313AB009300
:1043700017AB0DF15E02FDF774FA044608BB129A02
:104380001AB1114B1068516803C3149D55B10F4EFB
:104390004022002130462AF0F1F83F2229463046DB
:1043A0002BF0AEF80F9B190E094A1170190C094A2F
:1043B0001170094A13800E9A084B1A600122084BAB
:1043C0001A70204618B070BDC80E0020340E0020B0
:1043D000B40E0020B50E0020DE0E0020B80E002026
:1043E0001E0E002000B58BB003AB00930DF10A0345
:1043F0000DF12602FDF759FB034618B9BDF80E2052
:10440000012A03D018460BB05DF804FB0121014AD4
:104410001170F7E7240E002000B585B00DF10A03F6
:10442000019303AB009302AB0DF10E02FDF7B7FA57
:1044300005B05DF804FB000000B585B00DF10A037E
:10444000019303AB009302AB0DF10E02FDF7EAFA04
:10445000034610B90121034A1170184605B05DF8F2
:1044600004FB00BF230E002070B590B000230C9316
:104470000B93099309AB06930AAB05930BAB04931B
:104480000CAB03930DAB02930EAB01930DF13A030A
:1044900000930FAB0DF13E02FDF75DFB0446C0B982
:1044A0000D9A0D4B1068516803C30B9D55B10B4E0F
:1044B0004022002130462AF061F83F22294630464A
:1044C0002BF01EF8BDF83A20054B1A800122054B4F
:1044D0001A70204610B070BDD00E0020740E00205F
:1044E000DC0E00201F0E002000B583B001AB0DF1E3
:1044F0000602FDF7B1FB034610B90121024A117013
:10450000184603B05DF804FB200E002000B58DB006
:1045100006AB049307AB039308AB029309AB01937B
:104520000AAB00930BAB0DF12E02FDF7C9FB0DB0EA
:104530005DF804FB00B585B00DF10B03009303ABF0
:104540000DF10E02FDF714FC05B05DF804FB000050
:104550002DE9F04798B00DAB019310AB00930DF12E
:10456000420311AAFDF740FE804680B9BDF838101D
:104570000A2907D859B10025DFF814A1DFF81491F2
:104580003C4F44E03C482AF053F84FF004084046C2
:1045900018B0BDE8F0879DF82C10002953D19DF884
:1045A0002D201D2A4FD19DF82E20C12A4BD1BDF8B8
:1045B0001420AAF80020C9F800300BAB93E80300E0
:1045C0003860B980BDF818100A294FD8B1B100245D
:1045D0002A4E0AAB029309AB019308AB00930DF18D
:1045E0001A032246294611A8FDF7A7FE089B33604F
:1045F0000134A4B2BDF81830A342EAD80122204BFE
:104600001A701544ADB2BDF83830AB42BFD906AB15
:1046100002930BAB019307AB00930DF1160305AAB0
:10462000294611A8FDF72AFE079B002BB3D00A2BC1
:10463000B1D0642BAFD0B3F57A7FACD01946114816
:1046400029F0F6FF0FE09DF82E309DF82D209DF803
:10465000310002909DF8300001909DF82F000090ED
:10466000094829F0E5FF4FF0040890E7074829F0D2
:10467000DFFFF8E72C0E00200C5F0300280E00205F
:10468000210E00202C5F0300445F0300785F0300CD
:10469000E00E0020C40E002010B58EB009AA002341
:1046A00009930A930B9307AC0793089306AB059302
:1046B000049403920DF1320302930DF1330301933D
:1046C0000DF1310300930DAB0DF13602FDF701FD45
:1046D000034658B90121074A11700999064A116029
:1046E0000B99064A11600A99054A116018460EB0E6
:1046F00010BD00BF100E00200C0E0020140E002074
:10470000180E002000B58BB006AB059308AB0493E0
:104710000DF1210303930DF1220302930DF1230305
:10472000019307AB009309AB0DF12602FCF723FFC1
:10473000034630B99DF82210044A11700121044A41
:10474000117018460BB05DF804FB00BF0400002098
:104750001C0E002000B587B00DF1110302930DF17E
:10476000120301930DF11303009305AB0DF1160233
:10477000FCF757FF07B05DF804FB0020704700B559
:104780008DB00DF12B03059309AB04930DF12603B6
:1047900003930AAB029307AB019308AB00930BABF7
:1047A0000DF12E02FCF7ADFD0DB05DF804FB00B578
:1047B00091B00DF11603039306AB029307AB01937F
:1047C00008AB00930DF1220309AAFCF7F6FD11B026
:1047D0005DF804FB00B58FB00DF11203039305AB38
:1047E00002930DF11603019306AB00930DF11A032A
:1047F00007AAFCF73EFE0FB05DF804FB00207047EF
:1048000000B585B00DF10A0301930DF10B03009380
:1048100003AB0DF10E02FEF75FF905B05DF804FB86
:1048200000B589B004AB039306AB029305AB0193CB
:104830000DF11A03009307AB0DF11E02FEF78CF980
:1048400009B05DF804FB00002DE9F04196B00DF1D0
:104850005203019315AB00930DF1560302AAFEF724
:104860001DFA0546002873D1BDF85210022907D859
:1048700000296DD00024384EDFF80481374F34E032
:10488000374829F0D5FE042562E0364829F0D0FEED
:104890000C994BF68033994247D1BDF84C1004294E
:1048A00048D8BDF84E10042949D8BDF82C10A1F104
:1048B00008039BB2182B47D826FA03F313F0010F15
:1048C00042D0BDF84030A8F800309DF842303B702F
:1048D0009DF84320244B1A700122244B1A70013496
:1048E000A4B2BDF85230A34232D914AB09AA214672
:1048F00002A8FEF719FA054650BB002CEFD1BDF80F
:1049000040104B1F9BB2012BBFD9A1F10B039BB2EF
:10491000022BBAD9A1F122039BB21D2BB5D9A1F16B
:1049200045039BB2B92BB3D8AFE7114829F080FEFD
:1049300004250DE00F4829F07BFE042508E00E4811
:1049400029F076FE042503E00C4829F071FE0425C9
:10495000284616B0BDE8F08111110101DB0E0020E0
:10496000985F0300B45F0300DA0E00201C0E0020E5
:10497000D05F0300EC5F0300046003001C600300D1
:10498000D80E0020002070470020704700B58DB081
:104990000DF12A0301930BAB00930DF12E0303AA33
:1049A000FEF7C6F90DB05DF804FB0020704700006B
:1049B0002DE9F04798B00DF15A03019317AB00931E
:1049C0000DF15E0305AAFEF771FA034600284BD1EC
:1049D000BDF85A10042943D8002945D00025DFF836
:1049E000B0A0DFF8B090264F0CAB009303AB0DF1F5
:1049F0000A02294605A8FEF79BFA804600283CD10A
:104A00006DB9BDF83830AAF800309DF8493089F802
:104A100000309DF84A303B7001221A4B1A70BDF8E5
:104A20000A10042924D8BDF80C308BB100240DF1F4
:104A30000E06009604AB2246294605A8FEF780FA2A
:104A4000034688B90134A4B2BDF80C30A342F0D8B3
:104A50000135ADB2BDF85A30AB42C5D8434603E08C
:104A6000094829F0E5FD0423184618B0BDE8F08791
:104A7000064829F0DDFD0423F6E70346F4E700BF0E
:104A8000DA0E00201C0E002054600300706003004A
:104A9000D80E0020DB0E00200020704700B58DB03E
:104AA0000DF12A0301930BAB00930DF12E0303AA22
:104AB000FEF74EFA0DB05DF804FB0000F0B58DB0C6
:104AC0000DF12A0301930BAB00930DF12E0302AA03
:104AD000FEF770F9024668B9BDF82A10022905D818
:104AE00041B10024174F184E184D0CE0184829F01A
:104AF0009FFD042210460DB0F0BD0134A4B2BDF8F4
:104B00002A30A342F6D909AB01930DF12503009396
:104B10000DF126030AAA214602A8FEF78CF90246E7
:104B20000028E7D1002CE8D1BDF826303B809DF865
:104B3000253033709DF824302B700121054B1970FE
:104B4000DBE700BFD80E0020DB0E0020DA0E0020CD
:104B5000346003001C0E0020F0B58DB00DF12A0367
:104B600001930BAB00930DF12E0302AAFEF732FA6C
:104B7000024668B9BDF82A10042905D841B10024BD
:104B8000174F184E184D0CE0184829F051FD04221B
:104B900010460DB0F0BD0134A4B2BDF82A30A342D6
:104BA000F6D909AB01930DF1250300930DF126030E
:104BB0000AAA214602A8FEF73EF902460028E7D1DC
:104BC000002CE8D1BDF826303B809DF825303370AD
:104BD0009DF824302B700121054B1970DBE700BFD5
:104BE000D80E0020DB0E0020DA0E002054600300F7
:104BF0001C0E00200020704700207047F8B5069D6D
:104C0000089C234E36785EB310B1224F3F78077070
:104C100011B121480078087012B12049098811802B
:104C200013B11F4A12681A6028462AF0A9FB5DB129
:104C3000079B5F1E8742A8BF07463A461949284688
:104C400029F09EFB0023EB551CB1174B03CB2060D2
:104C5000616000220E4B1A70301C18BF0120F8BD95
:104C600008B10027077009B1002008700AB10021BF
:104C700011800BB100221A6025B1079A0021284645
:104C800029F07CFC002CE7D0002323606360E3E77D
:104C90001E0E0020B40E0020B50E0020DE0E0020F7
:104CA000B80E0020340E0020C80E002070B4039D02
:104CB000174C2478DCB110B1164E3678067011B15D
:104CC00015480078087012B114490988118013B191
:104CD000134A12681A6015B1124B1B682B60002230
:104CE0000B4B1A70201C18BF012070BC704708B114
:104CF0000026067009B1002008700AB10021118059
:104D00000BB100221A60002DECD000232B60E9E7E4
:104D1000220E0020B60E0020B70E0020E20E00206A
:104D2000C00E0020BC0E00202DE9F84306460C46BC
:104D3000154698461B4B1F7827B378B1DFF8709063
:104D400048462AF01DFB013C8442A8BF0446224687
:104D50004946304629F014FB002333551DB1124B50
:104D600003CB28606960B8F1000F03D00F4B1B889C
:104D7000A8F8003000220B4B1A70381C18BF012015
:104D8000BDE8F88318B10A46002129F0F7FB15B1F8
:104D900000232B606B60B8F1000FEED00023A8F861
:104DA0000030EAE71F0E0020D00E0020DC0E0020AD
:104DB000740E0020034B187800221A70801A18BF56
:104DC00001207047200E002030B4124C2478CCB162
:104DD00010B1114D2D88058011B110480068086090
:104DE00022B10F49086810608988918013B10D4A7B
:104DF00012681A600022074B1A70201C18BF01208D
:104E000030BC704708B1002303800029F5D000238F
:104E10000B60F2E7210E0020E00E0020C40E0020FF
:104E20002C0E0020280E002030B4164C2478DCB163
:104E300010B1154D2D88058021B11448007800F07F
:104E40000100087022B11249097801F001011170C6
:104E500013B1104A12781A7000220A4B1A70201CE3
:104E600018BF012030BC704708B10025058009B18A
:104E7000002008700AB100211170002BEFD0012230
:104E80001A70ECE71C0E0020D80E0020DB0E00206C
:104E9000DA0E002004000020034B187800221A705C
:104EA000801A18BF01207047230E0020034B18788A
:104EB00000221A70801A18BF012070471D0E0020B2
:104EC000034B187800221A70801A18BF012070470F
:104ED000240E002010B4114B1B78A3B110B1104C5C
:104EE0002468046011B10F480068086012B10E49CF
:104EF000096811600021094A1170181C18BF0120AF
:104F00005DF8044B704708B10024046009B100202B
:104F10000860002AF1D000211160EEE7100E002099
:104F20000C0E0020140E0020180E00200023034A4F
:104F30001360034A1360034A13607047E80E0020B1
:104F4000E40E0020EC0E002010B504461AF0B8FB69
:104F5000034B1860034B1C600122034B1A6010BD09
:104F6000E80E0020EC0E0020E40E00200023034A8F
:104F70001360034A1360034A13607047E80E002071
:104F8000EC0E0020E40E002008B51AF099FB0D4B42
:104F90001B6893B10C4B1B68C11A4FF47A7202FB69
:104FA00001F20A49A1FB021209490968B1EB921FFB
:104FB00005D998422CBF00230123184608BD0123C0
:104FC000FBE700BFE40E0020E80E0020D34D621086
:104FD000EC0E0020024B187800221A70704700BFB8
:104FE000F00E002008B54FF401720021044829F0AA
:104FF000C5FA4FF403720021024829F0BFFA08BD38
:105000000004006090250020F0B58FB04FF40173CC
:10501000A44AFCF735F982B262B901F0BDF8A248A2
:1050200029F068FB0122A14B1A70FFF7DBFF00207B
:105030000FB0F0BD9B490BA8FEF7C6FF40B101F0D1
:10504000A3F89B4829F056FB0122984B1A70ECE715
:105050000DF12B010BA8FEF7EDFF50B99DF82B3099
:10506000013B042B00F2FD81DFE803F00C1E252933
:10507000690001F089F88F4829F03CFB01228B4B35
:105080001A70D2E703A90BA8FEF7DFFF78B901F089
:105090008BF89DF80C30013B052B08D800F054FE2E
:1050A000012001F08FF802E0012001F02DF8FFF758
:1050B00099FF0120BCE7012001F026F8F7E7012065
:1050C00001F022F84FF4FE727B496846FDF741FA81
:1050D00018B10122754B1A70A7E701F04DF80022B4
:1050E00003A96846FDF750FA0028E0D1002444F2F5
:1050F0000105724E0FE021466846FFF7AFF8D0B9C0
:10510000BDF812301C44A4B2224603A96846FDF73C
:105110003BFA0028CBD1BDF81410B1F5804FEAD08E
:10512000A94203D0304629F083FAE9E721466846D0
:10513000FFF7A8F8E3E701225C4B1A7075E701203E
:1051400000F0E2FF4FF4FE725B496846FDF701FA9A
:1051500018B10122554B1A7067E701F005F80022DB
:1051600003A96846FDF710FA0028A0D10024544E88
:10517000544FBCE0FEF748FBBDF81400FEF7A2F95F
:1051800001224A4B1A7050E700F0A8FF854203D174
:10519000002000F0A9FFBBE00122444B1A7044E755
:1051A00041F20803994200F0FE8022D841F2040344
:1051B000994200F0E98010D841F20103994200F0D1
:1051C000D98041F20303994200F0D980B1F5805FA4
:1051D0007AD0384629F02CFA7DE041F20603994254
:1051E00000F0D78000F2DA8021466846FFF724F904
:1051F0006EE0B1F5905F00F0E5800ED941F2022338
:10520000994200F0E980C0F0E280B1F5985FE0D10A
:1052100021466846FFF7F2FA5AE0B1F5885F00F0E0
:10522000C78041F20113994200F0C78041F209039F
:105230009942CED121466846FFF77CF948E041F219
:105240000533994200F0F5800BD841F203339942BF
:1052500000F0D68000F2E38021466846FFF7E0FACE
:1052600036E041F20733994200F0ED8000F2F08021
:1052700021466846FFF712FC2AE041F20B339942BF
:1052800000F0C88000F2D08021466846FFF7B2FCEB
:105290001EE041F2103399429BD121466846FFF748
:1052A000ABFC15E0000400608C600300F00E0020F1
:1052B0009C600300B060030010040060C460030041
:1052C000EC6003000061030021466846FEF7EEFF34
:1052D000002840F0C280BDF81220224494B2224639
:1052E00003A96846FDF750F900287FF4E0AE03A853
:1052F000FDF70DFA00287FF43DAF03A8FDF701FA92
:105300000546BDF81400FEF7DDF8002D7FF43CAF34
:10531000BDF81450B5F5885F4AD02846FEF7D2F89C
:1053200002462946304629F083F9BDF8141041F2AF
:10533000013399425FD07FF633AF41F2093399428E
:1053400063D07FF67CAF41F20D33994276D094D989
:10535000B1F5A05F45D09CD941F20143994245D0B7
:1053600041F2024399427FF434AF21466846FFF789
:1053700031FAADE721466846FEF7DCFFA8E7214693
:105380006846FFF72FF8A3E721466846FFF744F881
:105390009EE721466846FFF767F899E72146684689
:1053A000FFF7A2F894E721466846FFF7AFF88FE7CA
:1053B00021466846FFF7CCF88AE721466846FFF7A2
:1053C0006BF985E721466846FFF79CF980E721469F
:1053D0006846FFF7BFF97BE721466846FFF7CDF93E
:1053E00076E721466846FFF7CAF971E72146684625
:1053F000FFF7DDF96CE721466846FFF701FA67E73A
:1054000021466846FFF720FA62E721466846FFF723
:10541000B9FA5DE721466846FFF7B6FA58E7214634
:105420006846FFF7B3FA53E721466846FFF7BDFA2F
:105430004EE721466846FFF7BBFA49E72146684632
:10544000FFF72AFB44E721466846FFF737FB3FE7B3
:1054500021466846FFF780FB3AE70122034B1A70AA
:10546000E3E50122014B1A70DFE500BFF00E0020DA
:1054700030B585B0012000F037FE4FF4FE721C49B4
:105480006846FDF74AF9044610B1204605B030BD24
:1054900001216846FCF7C9FF04460028F5D14FF406
:1054A0000172144902A8FEF7E6FD04460028ECD17B
:1054B000BDF806200E4902A8FEF798FE0446002813
:1054C000E3D10D4D2A46BDF80E100A48FBF7AAFE9F
:1054D0000146681EFEF70CFA054608B90224D4E717
:1054E00081B2064800F0A0FD854218BF0224CCE737
:1054F000A42700209C270020050600600406006009
:1055000030B58BB0022000F0EFFD4FF4FE7222495F
:1055100006A8FDF702F9044610B120460BB030BDD5
:105520001E4B03931E4B04931E4B059300230193C4
:10553000009303AB0422022106A8FCF786FF044671
:105540000028EAD14FF40172174908A8FEF793FD2D
:1055500004460028E1D1BDF81E200F4908A8FEF737
:1055600045FE04460028D8D1104D2A46BDF8261025
:105570000D48FBF757FE0146681EFEF7B9F90546D0
:1055800008B90224C9E781B2094800F04DFD8542FF
:1055900018BF0224C1E700BFA4270020212CFEA9C8
:1055A0000000FFFF0100FEA99C2700200506006007
:1055B0000406006030B58BB0032000F095FD4FF479
:1055C000FE72234906A8FDF7A8F8044610B120464C
:1055D0000BB030BD0123ADF800301E4B01931E4BC4
:1055E00002930222ADF80C201C49049105936B46EE
:1055F000032106A8FDF77BFD04460028E7D14FF400
:105600000172174908A8FEF736FD04460028DED1CE
:10561000BDF81E200E4908A8FEF7E8FD0446002844
:10562000D5D1104D2A46BDF826100D48FBF7FAFDDE
:105630000146681EFEF75CF9054608B90224C6E774
:1056400081B2094800F0F0FC854218BF0224BEE791
:10565000A4270020386103003C6103004C61030073
:105660009C270020050600600406006030B58DB060
:10567000042000F039FD4FF4FE72294908A8FDF717
:105680004CF8044610B120460DB030BD1823ADF8DB
:1056900014300223ADF804302022ADF81620214A40
:1056A000029200220492ADF8183003920122ADF864
:1056B0000020ADF80230694601A8FDF746FD01AAB9
:1056C000042108A8FDF743FD04460028DBD14FF470
:1056D000017215490AA8FEF7CEFC04460028D2D173
:1056E000BDF826200E490AA8FEF780FD04460028D2
:1056F000C9D10E4D2A46BDF82E100B48FBF792FD7E
:105700000146681EFEF7F4F8054608B90224BAE718
:1057100081B2074800F088FC854218BF0224B2E736
:10572000A4270020286103009C27002005060060B4
:105730000406006030B587B0052000F0D5FC4FF4BA
:10574000FE721F4902A8FCF7E8FF044610B120468C
:1057500007B030BD4FF48073009302231A46052131
:1057600002A8FDF79EFC04460028F0D14FF4017218
:10577000144904A8FEF77FFC04460028E7D1BDF8D1
:105780000E200F4904A8FEF731FD04460028DED1A3
:105790000D4D2A46BDF816100A48FBF743FD014699
:1057A000681EFEF7A5F8054608B90224CFE781B2C6
:1057B000064800F039FC854218BF0224C7E700BF45
:1057C000A42700209C270020050600600406006036
:1057D00030B58FB0062000F087FC4FF4FE722749E9
:1057E0000AA8FCF79AFF044610B120460FB030BD5E
:1057F0000322ADF81420224B0693224B0793022379
:10580000ADF82030ADF82230ADF82430ADF82630B8
:1058100005AB0393002302930193009306210AA88A
:10582000FCF7F0FA04460028DFD14FF40172164964
:105830000CA8FEF720FC04460028D6D1BDF82E2087
:105840000E490CA8FEF7D2FC04460028CDD10F4D1E
:105850002A46BDF836100C48FBF7E4FC0146681EEA
:10586000FEF746F8054608B90224BEE781B20848AB
:1058700000F0DAFB854218BF0224B6E7A427002017
:1058800008AF2F00944106009C2700200506006009
:105890000406006030B585B0072000F025FC4FF409
:1058A000FE721E496846FCF738FF044610B12046D8
:1058B00005B030BD4AF64443012207216846FBF794
:1058C00035FE04460028F2D14FF40172144902A8B3
:1058D000FEF7D1FB04460028E9D1BDF806200F49A8
:1058E00002A8FEF783FC04460028E0D10D4D2A46AD
:1058F000BDF80E100A48FBF795FC0146681EFDF73F
:10590000F7FF054608B90224D1E781B2064800F046
:105910008BFB854218BF0224C9E700BFA4270020E3
:105920009C270020050600600406006030B589B0A1
:10593000082000F0D9FB4FF4FE721F4904A8FCF7C1
:10594000ECFE044610B1204609B030BD0123ADF88D
:1059500004308DF8063001AA082104A8FBF7B2FE36
:1059600004460028EFD14FF40172144906A8FEF74F
:1059700082FB04460028E6D1BDF816200E4906A891
:10598000FEF734FC04460028DDD10D4D2A46BDF853
:105990001E100A48FBF746FC0146681EFDF7A8FFEB
:1059A000054608B90224CEE781B2064800F03CFB68
:1059B000854218BF0224C6E7A42700209C270020A8
:1059C000050600600406006030B585B0092000F0CF
:1059D0008BFB4FF4FE721C496846FCF79EFE0446A2
:1059E00010B1204605B030BD09216846FCF7FAF930
:1059F00004460028F5D14FF40172144902A8FEF7BD
:105A00003AFB04460028ECD1BDF806200E4902A856
:105A1000FEF7ECFB04460028E3D10D4D2A46BDF805
:105A20000E100A48FBF7FEFB0146681EFDF760FFFB
:105A3000054608B90224D4E781B2064800F0F4FA1A
:105A4000854218BF0224CCE7A42700209C27002011
:105A5000050600600406006030B58FB024220021E6
:105A600001A828F08BFD0A2000F03EFB4FF4FE72E7
:105A70001C490AA8FCF751FE044610B120460FB09D
:105A800030BD01AA0A210AA8FCF79EFA04460028A4
:105A9000F4D14FF4017214490CA8FEF7ECFA044655
:105AA0000028EBD1BDF82E200E490CA8FEF79EFB76
:105AB00004460028E2D10D4D2A46BDF836100A48AA
:105AC000FBF7B0FB0146681EFDF712FF054608B95B
:105AD0000224D3E781B2064800F0A6FA854218BF37
