:100000000080022045300200A9300200CD1F02000E
:10001000A9300200A9300200A9300200000000004F
:1000200000000000000000000000000041DE0100B0
:10003000A93002000000000011DF010075DF01009F
:10004000A9300200A9300200A9300200A930020044
:10005000A930020000000000A9300200A93002000F
:10006000A9300200A9300200A9300200A930020024
:10007000A9300200A9300200A9300200A930020014
:10008000A9300200A9300200A9300200A930020004
:10009000A9300200A9300200A9300200A9300200F4
:1000A000A9300200A9300200A9300200A9300200E4
:1000B000A9300200A9300200A9300200A9300200D4
:1000C00029E30000A9300200A9300200A930020093
:1000D000A930020061E30000A9300200A93002004B
:1000E000A9300200A930020069E30000A930020033
:1000F000A930020000000000A9300200A93002006F
:10010000A9300200A9300200A93002004DE300002E
:1001100057E30000A9300200A9300200A930020014
:10012000A9300200A9300200A9300200A930020063
:10013000A930020000000000A93002000000000009
:10014000A9300200A930020045D60100F5D5010012
:10015000A930020000000000A9300200A93002000E
:10016000A9300200A9300200A9300200A930020023
:10017000A9300200A9300200A9300200A930020013
:10018000A9300200A9300200A930020000000000DE
:10019000A9300200A9300200A9300200A9300200F3
:1001A000E1E20000A9300200A930020000000000D6
:1001B000A9300200A9300200000000000000000089
:1001C000000000000000000000000000000000002F
:1001D00000000000A9300200A9300200A93002008E
:1001E000A9300200A9300200A9300200A9300200A3
:1001F000A930020010B5054C237833B9044B13B174
:100200000448AFF300800123237010BD840C00204C
:10021000000000009CFC05000C4B43B10C480D494C
:1002200010B5AFF300800C48036823B910BD0A482D
:10023000036833B97047094B002BF7D0BDE8104075
:100240001847064B002BF5D0184700BF00000000F0
:100250009CFC0500880C0020800C002000000000A1
:10026000154B002B08BF134B9D46A3F5803A002188
:100270008B460F461348144A121A2EF077F90F4B8B
:10028000002B00D098470E4B002B00D09847002041
:10029000002104000D000D48002802D00C4832F067
:1002A0001DFF2DF053FC200029000EF0BDFA2DF0AB
:1002B000EBF900BF000008000080022000000000F1
:1002C00000000000840C0020B0200220DD3003007C
:1002D000E542030010B50A4C0021204621F074F8D5
:1002E00000231A461946204621F090F801230022E7
:1002F0001946204621F08AF80123C4F8F83010BDD1
:100300000030044007EE900AF8EE677A9FED040A89
:1003100067EE807A9FED030A87EE800A704700BF80
:100320008B6CF24166269B4408B50322074B5A6545
:10033000064BD3F8F83013F4000FF9D10138034B12
:1003400053F8200080B2FFF7DDFF08BD0030044005
:1003500008B5032807D8DFE800F0141602040B489C
:1003600008BD0B4808BD0B4A0B490C482EF058F944
:100370004FF0200383F31188BFF36F8FBFF34F8FCC
:10038000FEE7074808BD074808BD00BF003006402B
:100390000040064024510300D0500300F8500300F1
:1003A000001006400020064008B5032807D8DFE803
:1003B00000F0141602040B4808BD0B4808BD0B4A98
:1003C0000B490C482EF02CF94FF0200383F31188D1
:1003D000BFF36F8FBFF34F8FFEE7074808BD074895
:1003E00008BD00BF0F00A0660600C0A63451030080
:1003F000D0500300F85003000D0040660E00606608
:10040000F8B50446FFF7A4FF374B53F824301969B9
:100410005E691A68082A3ED900251BE00022002ADE
:100420005BD01A69022A26D09F6847B13A4612F873
:10043000015B9A607F7845EA072501329A601A6964
:10044000002A03DD05621A69023A1A611A69002A54
:1004500043DD1969426912F4003FDFD1721A02EBE1
:10046000D272224F57F82470B7EB620F01D80022E6
:10047000D5E70122D3E79A68002AE0D093F820500C
:100480000DB11578DBE7174617F8015B9F605278CE
:1004900045EA0225D3E7002511E00022EAB19A6877
:1004A00012B112F8015B9A601A69002A03DD056235
:1004B0001A69013A1A611A69002A0EDD196942693E
:1004C00012F4003FE9D1721A084F57F82470BA426B
:1004D00001D30022E2E70122E0E7002900DDF8BDB8
:1004E000802121F092FFFAE7A40C0020C050030005
:1004F00038B50546FFF72CFF0D4B53F82540002378
:100500006371902121F081FF0A4B5B575A0903F078
:100510001F03012101FA03F32032074941F8223079
:10052000237E03B938BD0021E0691EF0F5FAF9E732
:10053000A40C0020BC50030000E100E070B50646AA
:100540004D4B53F82040FFF703FF05466369002B2E
:1005500039D02368082B29D912E094F820101BE029
:100560001370E268511CE160C3F307235370E36822
:100570000133E3606369023B63616369002B22DD41
:100580006B6913F4807F1ED12B6BE268002AF1D0D7
:1005900061690229E1D000210029E1D01370E9E767
:1005A0006369013B63616369002B0CDD6B6913F4C4
:1005B000807F08D12A6BE368002BF1D01A70E368C2
:1005C0000133E360ECE72369002B02DD3046FFF7DF
:1005D00017FF4FF48061284621F05EFF002839D0D4
:1005E0002368082B29D912E094F820101BE013701F
:1005F000E268511CE160C3F307235370E3680133E1
:10060000E3606369023B63616369002B22DD6B6910
:1006100013F4807F1ED12B6BE268002AF1D0616950
:100620000229E1D000210029E1D01370E9E76369D4
:10063000013B63616369002B0CDD6B6913F4807F00
:1006400008D12A6BE368002BF1D01A70E3680133FC
:10065000E360ECE72369002B02DD00233BB970BDAA
:100660006369002B01DD0023F8E70123F6E730463C
:10067000FFF73EFFF3E700BFA40C002038B50446A7
:10068000FFF766FE194B53F824305A790AB104205B
:1006900038BD02F0FF011A68082A04D91A6912F05D
:1006A000010F00D00121E1B11A6901321A615A69C2
:1006B00001325A61012283F8202001255D714FF437
:1006C000906121F05BFE0A4B1B575A0903F01F0390
:1006D0009D40084B43F822502046FFF791FE002032
:1006E00038BD002283F82020E7E700BFA40C0020DB
:1006F000BC50030000E100E008B503280DD9084A0A
:10070000084909482DF08CFF4FF0200383F311882E
:10071000BFF36F8FBFF34F8FFEE7FFF70FFF08BDEB
:1007200010510300D0500300F85003002DE9F043AE
:1007300083B080460C4691461E46FFF709FE0546EB
:100740004046FFF731FE07462422002120462DF0C7
:100750000DFF354B9F4249D003F5800301339F4283
:100760004AD0A3F5C003023B9F4239D0384620F05F
:10077000B9FC99F8013023710322002101201DF0FA
:10078000F1FFE06173682360284B43F82840337A17
:10079000012B38D0737A012B3CD00A2223683168B0
:1007A00000910021284621F057FC99F80230012BD6
:1007B00032D004220121284621F0CEFD1C4B53F8F3
:1007C000281001390A46284621F0CFFDB37A2BB311
:1007D0002B6843F400532B60002003B0BDE8F08386
:1007E00000222021184620F01BFCBFE700228021B8
:1007F0000D4820F015FCB9E700224FF400610D48C8
:1008000020F00EFCB2E7737A012B01D00222C5E77B
:100810000422C3E70C22C1E70022CBE72B6823F4B4
:1008200000532B60D8E700BF0E006066A40C0020C8
:10083000C05003000F00A066F8B504460F4D55F8F0
:100840002060FFF785FD0746902121F0DEFD0C4B6F
:100850001B575A0903F01F03012101FA03F3203249
:10086000084941F82230384621F03AFDF0691EF07F
:10087000C1FB002045F82400F8BD00BFA40C0020F7
:10088000BC50030000E100E02DE9F843064688462D
:1008900017461D46FFF75CFD1E4B53F826401DB959
:1008A00000242046BDE8F883814601232376C4F85E
:1008B0000880E760256165613046FFF7DFFE0428A8
:1008C00001D10424EDE74FF47A71089B01FB03F199
:1008D000114BA3FB01318909E0691EF057FA012889
:1008E00016D00E482DF0FEFE0023637103249021E4
:1008F000484621F08AFD0A4B9B575A0903F01F0313
:10090000012101FA03F32032064941F82230C8E7F9
:100910000024ECE7A40C0020D34D6210A450030087
:10092000BC50030000E100E0012800D070474FF602
:10093000FF739942FAD12DE9F043374BDFF8F49079
:10094000C3F800904FF0080EC3F804E0334D9D60EB
:100950003C22DA60324A1A610C20586140329A61B6
:100960001C22DA612F4C1C624FF0000CC3F824C02B
:100970009C62C3F82CE01C634FF00408C3F8348079
:100980009C63D863284E1E6414225A649E64182106
:10099000D9642649196558659D65DA65244A1A6641
:1009A00024275F669E662827DF661E672C265E6703
:1009B0009C671024DC67C3F88020C3F88460C3F808
:1009C0008820C3F88C70C3F890103824C3F8944082
:1009D000C3F89890C3F89C00C3F8A050C3F8A400D3
:1009E000C3F8A850C3F8ACE0C3F8B0103020C3F887
:1009F000B400C3F8B810C3F8BC60C3F8C010C3F8A3
:100A0000C470C3F8C820C3F8CC80C3F8D020C3F8A2
:100A1000D4C0BDE8F08300BFB40C002040480040C3
:100A2000C0480040804900404049004080480040A4
:100A300000480040C0490040014B1860704700BFAB
:100A4000900D0020014B1868704700BF900D0020EA
:100A500010F0010F25D0234BD3F8A020D3F8A430F9
:100A60000021D15010F0020F23D01E4BD3F8A82044
:100A7000D3F8AC300021D15010F0040F21D0194B25
:100A8000D3F8B020D3F8B4300021D15010F0080FC3
:100A90001FD1144BD3F8B820D3F8BC300121D1506A
:100AA0007047104BD3F8A020D3F8A4300121D150C7
:100AB000D8E70C4BD3F8A820D3F8AC300121D150A3
:100AC000DAE7084BD3F8B020D3F8B4300121D15085
:100AD000DCE7044BD3F8B820D3F8BC300021D15068
:100AE000704700BFB40C002004280FDC38B558B1A3
:100AF0000138074B1D5C0C462846FFF7A9FF054B44
:100B00001D60054B1C6038BD0025F4E7704700BF31
:100B10004C510300940D00208C0D002038B9084B77
:100B2000D3F8C020D3F8C4300121D1507047044B12
:100B3000D3F8C020D3F8C4300021D150704700BF93
:100B4000B40C002038B505460C46FFF7E7FF024B12
:100B50001D60024B1C6038BD9C0D0020980D0020CC
:100B600008B54FF6FF710120FFF7DEFE08BD00005B
:100B700010B582B04FF080435922C3F800211622ED
:100B8000C3F800218822C3F80021D3F80031002BDC
:100B9000F0D020F067FD4FF4401020F06BFD0446CC
:100BA00010F0010F07D11B4820F064FDB0F5E02FD5
:100BB00015D1002300E00123E3B117482DF030FDEB
:100BC00024F0010400944FF4E023019302216846CD
:100BD00020F058FE28B111482DF022FDFEE7012338
:100BE000EAE70F482DF01CFD20F06EFD01460D4890
:100BF0002DF016FD20F068FD0146B0F5E02F03D082
:100C000009482DF00DFDFEE708482DF009FD02B062
:100C100010BD00BF0400300048520300885203009A
:100C2000AC520300CC520300005303003C530300BA
:100C300070B584B004460D460023ADF80A3046185E
:100C4000436800930368024612482DF0E9FC2268CD
:100C5000114B9A4202D0002004B070BD03A80DF0E1
:100C6000FEF9A5F10802214603A80DF0FBF90DF1EC
:100C70000A0103A80DF012FA36F8081CBDF80A2084
:100C8000914204D005482DF0CBFC0020E4E76068D9
:100C9000E2E700BFAC5303005AA555AAE85303008E
:100CA00070B500250F2D1CD805F1700424032046D3
:100CB00020F098FC064650B94FF48051204620F0B1
:100CC0005FFE06460D4B984206D10135EAE7014624
:100CD0000B482DF0A5FC0FE001460A482DF0A0FCC2
:100CE0000AE00026084B1E60084A094B1A600948B2
:100CF0002DF0F8FC084B1E60304670BDFFFF1FA1B1
:100D00006C5303008C530300A00D00200800070063
:100D1000A80D0020D0540300A40D00202DE9F843B5
:100D2000052342F63872102128482DF079FCFFF790
:100D30001FFF27482DF074FC264A274B1A604FF0FE
:100D40000008C146454603E024482DF069FC3546BD
:100D5000042D20D86E1C314621482DF061FC05EB96
:100D600045047034240342F638712046FFF760FFD3
:100D7000074660B18045E7D20834174B1C60194B19
:100D8000186019482DF04CFCB846A946DFE7174813
:100D90002DF046FCDBE7134B1A686AB109F1010438
:100DA000214613482DF03CFC124B1C60042C0BD93F
:100DB00000221A60BDE8F88300220E4B1A600E482C
:100DC0002DF090FCFFF76CFFBDE8F8835451030051
:100DD0008051030008000700A80D0020CCEB05009F
:100DE00094510300A40D0020985103009C5103006E
:100DF000A0510300A00D0020BC5103002DE9F047D5
:100E000084B005464E4A1368013313604D4B1B688E
:100E100003EB430A0AF1700A4FEA0A3A00240194EC
:100E20000294022C25D8474B186800EB4000204460
:100E30007030000320F0D6FB814680B9414B186822
:100E400000EB4000204470304FF48051000320F04C
:100E500097FD81463C4B984206D10134E1E70146BB
:100E60003A482DF0DDFB33E0014639482DF0D8FB40
:100E70002EE00AF1080642F628744FF00008B8F197
:100E80002F0F29D8FF2C1CD827464FF0200383F3BF
:100E90001188BFF36F8FBFF34F8F3A462946304614
:100EA00020F052FC8146002383F3118806F58076FA
:100EB00005F58075A4F58074874205D108F1010815
:100EC000DDE74FF48077E0E7014622482DF0A8FBEC
:100ED000484604B0BDE8F08703A80DF0C0F842F61C
:100EE0003072514603A80DF0BDF801A903A80DF01A
:100EF000D5F8002201A90AF53C50303020F024FC3E
:100F00008146C0B90F4C216801EB41031B0303F577
:100F1000E0230833104A1360094B1B680522013196
:100F20000E482DF07DFB236801332360042BCFD9BD
:100F300000222260CCE7014609482DF071FBC7E78B
:100F4000A40D0020A00D0020FFFF1FA16C53030083
:100F50008C530300D4510300A80D00201852030045
:100F6000F451030008B5012021F05AFD08B9012011
:100F700008BD002008BD0000F0B58DB01746002167
:100F8000ADF82A10C4030123049303930293019341
:100F90000B23009308AB0822204621F0CDFE2F4BF7
:100FA000089A9A4202D000200DB0F0BD08343E46A7
:100FB00042F62875012304930393029301930B23B4
:100FC000009333464FF480720021204621F0B4FE96
:100FD00004F5807406F58076A5F58075FF2DE9D8B7
:100FE0005DBB012304930393029301930B230093AE
:100FF0000DF11E0302220021601921F09DFE0BA8B5
:101000000DF02DF8082208A90BA80DF02BF842F6D8
:10101000287239460BA80DF025F80DF12A010BA80E
:101020000DF03CF8BDF81E10BDF82A20914212D0F8
:101030000B482DF0F5FA0020B6E701230493039343
:10104000029301930B23009333462A460021204646
:1010500021F072FEC5E70998A6E700BF5AA555AA78
:1010600040550300F0B5ADF21C4D07460E46002476
:10107000B44222D24FF480652A46002106A82DF002
:1010800075FA012304930393029301930B230093B6
:1010900006AB2A460021E01921F04EFE002206ABE5
:1010A000B2F5806F06D21968B1F1FF3F07D1043263
:1010B0000433F5E704F58064DAE7012000E000205E
:1010C0000DF21C4DF0BD000030B583B00025032D9E
:1010D00011D8EC030123009352220021204621F075
:1010E00095FD4FF400412046FFF7BCFF0446012860
:1010F00001D10135EBE7012C0AD007482DF0F2FAB7
:101100000023064A1360064A1360204603B030BD30
:1011100004482DF0E7FAF3E7EC540300A00D00209B
:10112000A40D0020CC5403002DE9F04383B0804689
:10113000012021F075FCB8B90122032101A821F09A
:1011400049FC9DF806309DF805209DF804102B48B9
:101150002DF066FA012021F003FD29482DF060FAF8
:101160000027B9463C4608E0014626482DF058FACB
:10117000E2E725482DF054FA2C46032C1AD8651CBA
:10118000294622482DF04CFA424642F62871204664
:10119000FFF7F2FE064648B18742EAD21C4B1860C0
:1011A0001C482DF03DFA3746A146E5E71A482DF0D8
:1011B00037FAE1E7164B1A68AAB109F10104214692
:1011C00016482DF02DFA164B1C60032C01D9002275
:1011D0001A60424642F628714846FFF7CDFE0020CD
:1011E00003B0BDE8F08300220D4B1A600D482DF0CE
:1011F00079FAFFF769FF0120F2E700BF48540300C6
:101200007454030020540300CCEB050094510300F8
:10121000A40D0020985103009C510300A05103002D
:10122000A00D00208C54030038B5054601220B4B5D
:101230001A60FFF779FF48B142F62872084B196827
:1012400028462DF095F80024204638BD044642F685
:10125000287104482DF0E4F9F6E700BFD40D002012
:10126000A80D0020A454030008B5064B1B682BB939
:10127000FFF716FD0022044B1A6008BDFFF724FF9C
:10128000F6E700BFD40D0020D00D00202DE9F04777
:101290008CB082463D4F3D68ED030026ADF82660D8
:1012A00001240094234652223146284621F0AEFC08
:1012B0004FF400412846FFF7D5FEDFF8DC80D8F870
:1012C00000302344C8F8003009A80CF0C8FE304BA9
:1012D0000A93D8F800300B930394029401944FF0D2
:1012E0000209CDF800900AAB08223146284621F0C9
:1012F000D1FC0796089604940394029401940B235E
:10130000009307AB08223146284621F015FD08223C
:101310000AA909A80CF0A6FE039402940194CDF842
:101320000090534642F62872314605F1080021F03C
:10133000B1FC42F62872514609A80CF093FE05F55F
:101340003C5530350DF1260109A80CF0A7FE039499
:1013500002940194CDF800900DF126034A463146DF
:10136000284621F097FC3968D8F80030042221443F
:1013700008482DF055F93B6823443B60032B01D905
:101380003B461E6001200CB0BDE8F087A00D002098
:101390005AA555AA0C550300A40D002010B504460B
:1013A000094B1B6843B1FFF771FF084B1B682BB952
:1013B0002046FFF723FD01E0FFF720FD034A1368F5
:1013C0000133136010BD00BFD40D0020D00D0020EC
:1013D00008B50120FFF730FA0028FAD1034B044A80
:1013E00004490120FFF7A2F908BD00BF80550300A2
:1013F00070550300D80D002010B50D4C4FF4E131AD
:10140000204621F05FFD0A21204621F0E9FDA36876
:1014100023F0F003A360A36843F02003A36020221D
:10142000044B5A601121204621F047FD10BD00BF3A
:101430000010074000E100E0214BD969214A136800
:101440000133136011F0110F1BD11D4B9B6913F079
:10145000710F33D071221A4B9A6170471A4908688C
:101460001A4C2254096840F2FF32914202D0164BC6
:101470001B680133144A1360154A13680133136063
:101480000DE00F4B9B6913F48043DED110B40C4A7E
:101490001268D2B20E490968B1F5806FDED3084BED
:1014A0009B6913F48043F2D0054B9B6913F0710FD5
:1014B00002D07122024B9A615DF8044B704700BF65
:1014C00000100740FC0D0020080E00200000006006
:1014D000000E0020F0B507460124002620463346C2
:1014E00008E000F1010E013315540134E4B2FF2C81
:1014F0000BD070468B420DD2FD5C002DF1D194557E
:101500000133064601300124F4E794550230764653
:101510000124EFE79455F0BDF0B58646002005465E
:101520008D421ED21EF805707C19A14201D2012FF6
:1015300018D101350124BC4209D2984214D01EF8BA
:10154000056016540134E4B201300135F3E7FF2F92
:10155000E6D08D42E4D0984208D0002414540130E3
:10156000DEE7F0BD0020F0BD0020F0BD0020F0BDA2
:10157000F0B589B0002858D004460088884203D8C6
:101580000324204609B0F0BD20461E4615460A46F3
:1015900001A901F069F904460028F2D1059B588899
:1015A00011F02AFCB0F5A05F37D00424002CE8D15C
:1015B000059F1DB1388911F01FFC28801EB1788964
:1015C00011F01AFC30800E9B23B1F86811F019FC61
:1015D0000E9B18600F9B23B1386911F012FC0F9B12
:1015E0001860109B23B1B88A11F006FC109B18807C
:1015F000119B23B1F88A11F0FFFB119B1880129BFD
:1016000023B1388B11F0F8FB129B1880139B002B31
:10161000B7D0BB7E139A1370B3E7059B188811F0FF
:10162000EBFB1B28C2D80424C0E70324A9E770B54C
:10163000002859D004460088884202D80324204656
:1016400070BD20461E4615460A46294601F00CF993
:1016500004460028F3D12B69588811F0CDFB41F2E4
:10166000014398421ED00424002CE8D12D691EB1FC
:10167000288911F0C1FB3080049B23B1688911F0E7
:10168000BBFB049B1880A88911F0B6FB064610F03E
:10169000010F0FD0059B6BB1286911F0B2FB059BC0
:1016A00018600AE02B69188811F0A6FB1F28DBD808
:1016B0000424D9E70023059A136016F0020F07D01F
:1016C000069B2BB1686911F09CFB069B186002E039
:1016D0000023069A1360079B002BB0D0288B11F0D3
:1016E0008BFB079B1880AAE70324A8E770B50028A6
:1016F0005AD004460088884202D80324204670BD90
:1017000020461E4615460A46294601F0ADF8044615
:101710000028F3D12B69588811F06EFB41F2024387
:1017200098421ED00424002CE8D12D691EB12889CE
:1017300011F062FB3080049B23B1688911F05CFBDF
:10174000049B1880A88911F057FB064610F0010F82
:101750000FD0059B6BB1E88911F04EFB059B1880FB
:101760000AE02B69188811F047FB1728DBD80424FE
:10177000D9E70023059A138016F0020F07D0069BC5
:101780002BB1288A11F038FB069B188002E0002359
:10179000069A1380079B1B88002BAFD0688A11F034
:1017A0002BFB079B1880A9E70324A7E7F0B589B0B6
:1017B000E8B11E4614460B460822009241F201424F
:1017C00003A901F023FA054690B9049F204611F0C1
:1017D00013FBB88114F0010F04D100233B610023F7
:1017E000FB8105E0304611F00CFB3861F7E703257B
:1017F000284609B0F0BDF0B589B0002852D00446A3
:101800000088884203D80324204609B0F0BD204652
:101810001E4615460A4601A901F026F8044600288E
:10182000F2D1059B588811F0E7FAB0F5905F31D0FE
:101830000424002CE8D1059F1DB1388911F0DCFA91
:1018400028801EB1788911F0D7FA30800E9B23B121
:10185000F86811F0D6FA0E9B18600F9B13B13B7C11
:101860000F9A1370109B13B17B7C109A1370119B0D
:1018700013B1BB7C119A1370129B13B1FB7C129AAB
:101880001370139B002BBFD0786911F0BAFA139B29
:101890001860B9E7059B188811F0AEFA1728C8D868
:1018A0000424C6E70324AFE7F0B589B000284CD084
:1018B00004460088884203D80324204609B0F0BDBE
:1018C00020461E4615460A4601A900F0CDFF0446F3
:1018D0000028F2D1059B588811F08EFA41F20123BD
:1018E00098422AD00424002CE7D1059F1DB13889E5
:1018F00011F082FA28801EB1788911F07DFA3080CB
:10190000B88911F079FA0E9B2BB110F0010F02D0BB
:10191000BB7B0E9A13700F9B2BB110F0020F02D0FD
:10192000FB7B0F9A1370109B002BC6D010F0040F96
:10193000C3D03B7C109A1370BFE7059B188811F049
:101940005BFA1328CFD80424CDE70324B5E70000C1
:1019500070B588B0002837D015460B460822009293
:1019600041F2022203A901F051F9044668BB049E2A
:1019700045B32B8813F0010F1BD0AB78042B01D992
:10198000032422E0B373AA78124B53F8222006F105
:10199000100103A801F023F9D0B1AA780D4B53F838
:1019A00022002DF0EDFC80B211F026FA70820320A7
:1019B00002E00020308270820023F37311F01CFAE1
:1019C000B08102E00020F7E70324204608B070BD94
:1019D0000624FAE78C550300F0B589B0002800F022
:1019E000878004460088884203D80324204609B033
:1019F000F0BD20461E4615460A4601A900F034FFF8
:101A000004460028F2D1059B588811F0F5F9B0F58D
:101A1000805F5ED00424002CE8D1059F1DB1388979
:101A200011F0EAF928801EB1788911F0E5F93080CB
:101A30000E9B1BB107F10C030E9A13600F9B3BB179
:101A4000B88A11F0D9F900284BD100230F9A1360FE
:101A5000109B23B1B86911F0D4F9109B1860119B49
:101A600023B1F86911F0CDF9119B1860129B23B1D5
:101A7000386A11F0C6F9129B1860139B23B1786A7B
:101A800011F0BFF9139B1860149B23B1B86A11F0D1
:101A9000B8F9149B1860159B23B1F86A11F0B1F9DD
:101AA000159B1860169B23B1386B11F0AAF9169B91
:101AB0001860179B23B1786B11F0A3F9179B18607E
:101AC000189B002B92D0B86B11F09BF9189B1860F3
:101AD0008CE7059B188811F08FF93B289BD80424CC
:101AE00099E7B88A11F088F938440F9B1860AFE77E
:101AF00003247BE7F0B589B0002800F09A80044603
:101B00000088884203D80324204609B0F0BD20464F
:101B10001E4615460A4601A900F0A6FE0446002806
:101B2000F2D1059B588811F067F941F20103984200
:101B300062D00424002CE7D1059F1DB1388911F033
:101B40005BF928801EB1788911F056F930800E9B20
:101B50001BB107F10C030E9A13600F9B3BB1B88ABF
:101B600011F04AF900284FD100230F9A1360109BFF
:101B70001BB107F11803109A1360119B3BB1F88A4F
:101B800011F03AF9002846D10023119A1360129BF4
:101B900023B1386A11F035F9129B1860139B23B1F9
:101BA000786A11F02EF9139B1860149B23B1B86A60
:101BB00011F027F9149B1860159B23B1F86A11F0F6
:101BC00020F9159B1860169B23B1386B11F019F999
:101BD000169B1860179B23B1786B11F012F9179BB5
:101BE0001860189B002B8FD0388F11F005F9C8B9F9
:101BF0000023189A136087E7059B188811F0FCF8FA
:101C00003B2897D8042495E7B88A11F0F5F83844B2
:101C10000F9B1860ABE7F88A11F0EEF83844119B7F
:101C20001860B4E7388F11F0E7F83844189B186053
:101C30006AE7032468E7F0B589B000283FD004467E
:101C40000088884203D80324204609B0F0BD20460E
:101C50001E4615460A4601A900F006FE0446002865
:101C6000F2D1059B588811F0C7F841F2040398425D
:101C70001DD00424002CE7D1059F1DB1388911F037
:101C8000BBF828801EB1788911F0B6F830800E9B21
:101C900023B1B88911F0B0F80E9B18800F9B002B70
:101CA000D2D0F88911F0A8F80F9B1880CCE7059BDB
:101CB000188811F0A1F80F28DCD80424DAE70324EF
:101CC000C2E7F0B589B000283FD0044600888842BA
:101CD00003D80324204609B0F0BD20461E46154611
:101CE0000A4601A900F0C0FD04460028F2D1059B78
:101CF000588811F081F841F2050398421DD0042460
:101D0000002CE7D1059F1DB1388911F075F82880A6
:101D10001EB1788911F070F830800E9B23B1B8891C
:101D200011F06AF80E9B18800F9B002BD2D0F88917
:101D300011F062F80F9B1880CCE7059B188811F012
:101D40005BF80F28DCD80424DAE70324C2E7F0B5F7
:101D500089B0002852D004460088884203D8032462
:101D6000204609B0F0BD20461E4615460A4601A988
:101D700000F07AFD04460028F2D1059B588811F046
:101D80003BF841F20303984230D00424002CE7D101
:101D9000059F1DB1388911F02FF828801EB1788970
:101DA00011F02AF830800E9B002BD9D0B88911F0A1
:101DB00023F80E9B1880F88911F01EF80E9B5880AE
:101DC000386911F01EF80E9B5860786911F019F807
:101DD0000E9B9860B86911F014F80E9BD86007F15B
:101DE0001C030E9A136124375761B9E7059B1888C5
:101DF00011F002F82B28C9D80424C7E70324AFE761
:101E0000F0B589B000287CD004460088884203D809
:101E10000324204609B0F0BD20461E4615460A465A
:101E200001A900F021FD04460028F2D1059B588845
:101E300010F0E2FF41F2060398424AD00424002C3D
:101E4000E7D1059F1DB1388910F0D6FF28801EB15B
:101E5000788910F0D1FF30800E9B23B1B88910F043
:101E6000CBFF0E9B18800F9B23B1F88910F0C4FFA5
:101E70000F9B1880109B1BB107F11003109A136081
:101E8000119B3BB1388B10F0B7FF034648B33B447E
:101E9000119A1360129B3BB1788B10F0ADFF034693
:101EA00018B33B44129A1360139B3BB1B88B10F0EC
:101EB000A3FF0346E8B13B44139A1360149B002B25
:101EC000A7D0F88B10F098FFB8B90023149A1360CC
:101ED0009FE7059B188810F08FFF1F28AFD80424B8
:101EE000ADE70023119A1360D4E70023129A136020
:101EF000DAE70023139A1360E0E70744149B1F609E
:101F000087E7032485E7F0B589B0002831D004467F
:101F10000088884203D80324204609B0F0BD20463B
:101F20001E4615460A4601A900F09EFC04460028FC
:101F3000F2D1059B588810F05FFF41F207039842E9
:101F40000FD00424002CE7D1059F1DB1388910F073
:101F500053FF2880002EDFD0788910F04DFF3080AD
:101F6000DAE7059B188810F047FF0B28EAD804240D
:101F7000E8E70324D0E7F0B589B0002854D0044640
:101F80000088884203D80324204609B0F0BD2046CB
:101F90001E4615460A4601A900F066FC04460028C4
:101FA000F2D1059B588810F027FF41F208039842B0
:101FB00032D00424002CE7D1059F1DB1388910F0E0
:101FC0001BFF28801EB1788910F016FF30800E9B11
:101FD00023B1F86810F015FF0E9B18600F9B23B11A
:101FE000386910F00EFF0F9B1860109B23B17869C1
:101FF00010F007FF109B1860119B23B1B86910F017
:1020000000FF119B1860129B002BBDD0F86910F0E7
:10201000F8FE129B1860B7E7059B188810F0ECFEDD
:102020001F28C7D80424C5E70324ADE7F0B589B05D
:10203000002836D004460088884203D8032420466E
:1020400009B0F0BD20461E4615460A4601A900F01B
:102050000BFC04460028F2D1059B588810F0CCFEFA
:1020600041F20903984214D00424002CE7D1059FC3
:102070001DB1388910F0C0FE28801EB1788910F09B
:10208000BBFE30800E9B002BD9D03B7B0E9A137089
:10209000D5E7059B188810F0AFFE0F28E5D804247B
:1020A000E3E70324CBE760B100B589B00B4600221B
:1020B00000924FF4805203A900F0A8FD09B05DF82A
:1020C00004FB03207047F0B589B0002800F0AF8012
:1020D0001F4614460B462022009241F2030203A938
:1020E00000F094FD0546002840F0A280049E2046A2
:1020F00010F082FEF081384610F083FE30610E98B9
:1021000010F07FFE70610F9B23B31A685B68F26169
:1021100033621724109B2BB11A685B687262B3623A
:1021200044F02004032010F067FE3083119B002B45
:102130007AD0142206F11A0103A800F025FD074603
:1021400044F0080010F058FEB081119B986818B94F
:1021500003256DE00724DDE710F053FE3861119B85
:10216000188810F049FE7880119B1B88032B0BD038
:10217000013B9BB2012B36D940F2011000237B8139
:1021800010F03AFE388053E0119B586801F0F0FCE3
:1021900008B903254CE0119B586810F032FEF86036
:1021A000119B9A89531E9BB2012B01D903253FE055
:1021B0003A71119BDA89531E9BB2012B01D9032579
:1021C00036E07A71119B1A8A531E9BB2012B32D8CA
:1021D000BA71119B5A8A531E9BB2012B2DD8FA71EA
:1021E00040F29F10CAE7119B586801F0FDFC08B946
:1021F00003251DE0119B586810F003FEF860119B49
:10220000DA89531E9BB2012B01D9032510E07A72A3
:10221000119B9A89531E9BB2022B01D9032507E01B
:102220003A7240F2E110A9E70023738300E003252E
:10223000284609B0F0BD0325FAE70325F8E770B595
:1022400088B0E0B114460B460422009241F2060227
:1022500003A900F0DBFC054690B9049E5CB1224660
:1022600006F10E0103A800F0BAFC60B1012010F0E5
:10227000C3FDB08104E00023B381F38100E00325B6
:10228000284608B070BD0625FAE760B100B589B0F0
:102290000B460022009241F2010203A900F0B6FCB5
:1022A00009B05DF804FB03207047F0B589B0002841
:1022B00036D004460088884203D80324204609B05B
:1022C000F0BD20461E4615460A4601A900F0CCFA8C
:1022D00004460028F2D1059B588810F08DFDB0F51A
:1022E000804F15D00424002CE8D1059F15B107F1CB
:1022F00008032B601EB1386910F083FD30600E9B1F
:10230000002BDBD0786910F07CFD0E9B1860D5E7C0
:10231000059B188810F070FD1728E4D80424E2E724
:102320000324CBE7F0B589B0002837D004460088F5
:10233000884203D80324204609B0F0BD20461E463B
:1023400015460A4601A900F08FFA04460028F2D18A
:10235000059B588810F050FD44F20103984215D0B7
:102360000424002CE7D1059F15B107F108032B6069
:102370001EB1388A10F040FD30800E9B002BDAD061
:10238000788A10F039FD0E9B1880D4E7059B1888D9
:1023900010F032FD1328E4D80424E2E70324CAE74E
:1023A000F0B589B0002800F0878004460088884294
:1023B00003D80324204609B0F0BD20461E4615462A
:1023C0000A4601A900F050FA04460028F2D1059B04
:1023D000588810F011FD41F2011398423DD00424B9
:1023E000002CE7D1059F1DB1388910F005FD28802C
:1023F0001EB1788910F000FD3080F86810F001FD02
:1024000005460E9B13B13B7C0E9A13700F9B2BB1AC
:1024100015F0010F02D07B7C0F9A1370109B2BB12B
:1024200015F0020F02D0BB7C109A1370119B43B1C0
:1024300015F0040F19D115F0080F1CD115F0100F6D
:102440001FD1129B13B115F0200F20D115F0400FB2
:1024500026D10023139A1360ACE7059B188810F06F
:10246000CBFC2728BCD80424BAE7786910F0C9FC53
:10247000119B1860DFE7B86910F0C3FC119B58602E
:10248000DCE7F86910F0BDFC119B9860D9E7386A69
:1024900010F0B7FC129B18600223129A9380D5E7C4
:1024A000B88C10F0A9FC0028D3D0B88C10F0A4FC94
:1024B0003844139B18607DE703247BE770B5002840
:1024C00047D004460088884202D80324204670BDC5
:1024D00020461E4615460A46294600F0C5F9044620
:1024E0000028F3D12B69588810F086FCB0F5885F7E
:1024F00027D00424002CE9D12D691EB1288910F0C1
:102500007BFC3080049B23B1688910F075FC049B30
:102510001880059B002BD9D0E86810F072FC059B51
:102520001860288A10F068FC059B9880E88A10F0F3
:1025300063FC059BD880A88B10F05EFC059B18817E
:10254000C4E72B69188810F057FC1F28D2D8042440
:10255000D0E70324BAE72DE9F04788B0002855D02A
:1025600004461E4617460D46D0F81080B8F81000F5
:1025700010F042FCA84201D8032448E0B8F8140047
:1025800010F03AFC8146B8F8100010F035FC824695
:10259000B8F8120010F030FC022807D910F0030F31
:1025A00004D0033080B220F0030080B20090534684
:1025B0004A4603A9204600F0B3F9044638BB069A00
:1025C00005EB85018B00D5181FB1D05A10F014FC13
:1025D00038801EB1688810F00FFC3080109B23B14A
:1025E000686810F00EFC109B1860119B33B12B46ED
:1025F00053F8082F11990A609B888B80129B33B186
:10260000E88910F0F9FB129B188000E003242046B3
:1026100008B0BDE8F0872DE9F04788B000286FD0FA
:102620000746984691460D460669308A10F0E4FB4D
:10263000A84201D8032464E0B08A10F0DDFB044610
:10264000308A10F0D9FB8246708A10F0D5FB022840
:1026500007D910F0030F04D0033080B220F003003C
:1026600080B200905346224603A9384600F058F93C
:102670000446002845D105EB85018B00069C1C44CF
:10268000608A10F0B9FB0546E08910F0B5FB0646FC
:10269000208A10F0B1FB022807D910F0030F04D0F4
:1026A000033080B220F0030080B2009033462A4607
:1026B00003A9384600F034F9044610BB069B4FEAE4
:1026C00009129D18B8F1000F04D0985A10F094FB2D
:1026D000A8F80000109B23B1686810F092FB109BD3
:1026E0001860129B23B1E86810F08BFB129B1860F6
:1026F000119B33B1A86810F084FB119B186000E0B7
:102700000324204608B0BDE8F08760B100B589B069
:102710000B46002200924FF4885203A900F076FA8B
:1027200009B05DF804FB03207047F0B58BB0174685
:102730001D46182300930B4641F2011205A900F033
:1027400065FA0646C8B9069CD7B1A77301270023CE
:10275000E3734DB32868A8B96868C8B9A868E8B930
:10276000109B002B4BD0082301220DEB030105A881
:1027700000F05BFA034620B31E4630460BB0F0BDB6
:102780000027E4E710F03DFB206147F00207E3E794
:1027900010F037FB606147F00407DFE710F031FB12
:1027A000A06147F00807DBE7002010F02AFB20615A
:1027B000002010F026FB6061002010F022FBA061D9
:1027C000CEE7BDF80830E383082010F015FBA083A6
:1027D000049D109B186880B19B880BB90323CBE73D
:1027E00010F00FFB2860109B988810F005FBA88064
:1027F0000023EB8047F0100704E00323BCE700232D
:10280000E383A38300236384119B6BB11A4604F115
:10281000200105A800F0E3F948B147F02007384649
:1028200010F0EAFAA081A8E700232384F7E7062640
:10283000A3E7A8B110B50446A1B10AB9032010BDA1
:1028400041600280088810F0D7FA072801D80420D8
:1028500010BD6368988810F0CFFA2081002010BD69
:1028600003207047032010BD002855D0F8B5064658
:10287000002953D012F0030F01D00320F8BD1546F4
:102880000C462060A28043689A180A61585B10F0D9
:10289000B3FAE0802369588810F0AEFA20812369EA
:1028A000988810F0A9FA60812369D88810F0A4FAFA
:1028B000A081E1886789CB1B9BB21B1A083BE3818F
:1028C00011F0030F01D00420F8BD6A1833889A4232
:1028D00001DD0420F8BD072901D80420F8BD17F058
:1028E000030F02D110F0030F06D0228948F205032E
:1028F0009A4201D00420F8BD3B180833994201D216
:102900000420F8BD23690833636118B11F44A7612F
:102910000020F8BD0027FAE7032070470320F8BD28
:10292000F0B4BDF8104000B3054601B313B903205D
:10293000F0BC70470CB90320FAE712F0030F01D086
:102940000320F5E713FB04F080B28718EE88B74246
:1029500001DD0420ECE70D608B80CC8008812B69C1
:102960001A44CA6000200861E2E70320E0E7032080
:10297000DEE789B10B4688B1816989B110B41A4488
:10298000C488A2420EDC00691844814202D85DF876
:10299000044B70470020FAE7002070470020704782
:1029A000002070470020F2E738B505460C460122AA
:1029B000FFF7DFFF58B1024621462B695B5C23B16C
:1029C000EB88994205D20131F7E7104638BD002067
:1029D00038BD002038BD08B54369188810F00CFADE
:1029E00008BD08B54369588810F006FA08BD00B361
:1029F00038B50546F9B10AB9032038BD072A01D810
:102A0000062038BD0C46296082800820E88010F03E
:102A1000F3F920802C68012010F0EEF960802C681A
:102A20004FF4805010F0E8F9A0802B680020D88087
:102A300038BD03207047032038BD0346C08811F01D
:102A4000030F04D0033189B221F0030189B201449C
:102A500089B29A88914205D880081A6802EB8000F2
:102A6000D980704700207047F8B505460C4643688A
:102A7000188810F0C1F9064621462868FFF7DDFFE7
:102A8000074668B114F0030F04D00334A4B224F055
:102A90000304A4B230196C6880B210F0ADF9208044
:102AA0003846F8BDF8B504460D4616464368188802
:102AB00010F0A2F9074631462046FFF7D5FF04463D
:102AC00020B11DB1384610F097F928802046F8BD96
:102AD00048B32DE9F843074639B3984616460C46E5
:102AE00003F10805ADB22946FFF7A7FF8146F8B10B
:102AF00027606060284610F07FF9A9F8000065683B
:102B0000304610F079F968806568404610F074F935
:102B1000A88063680020D88063680833A360E06001
:102B20002061BDE8F883032070470320BDE8F883E7
:102B30000620BDE8F88370B50E461D460423FFF756
:102B4000C7FF044608B1204670BDB668284610F09D
:102B500053F9308000237380F5E778B138B5044627
:102B600002686AB10D46FFF77FFF58B1E060646804
:102B7000284610F041F9E080002038BD032070475E
:102B8000032038BD062038BD38B500B122B971B177
:102B900000240C80204638BD1546FFF783FF04460D
:102BA0000028F7D02A4600212BF0E0FCF2E70024B1
:102BB000F0E770B50BB11E4622B971B100240C804C
:102BC000204670BD1546FFF7DFFF04460028F7D00A
:102BD0002A4631462BF0CCFBF2E70024F0E77AB12D
:102BE00070B515460C46064610462CF0C9FB82B25D
:102BF00001322B4692B221463046FFF7DAFF70BD14
:102C000011B10020088070470020704710B50C46B5
:102C1000FFF791FF034608B1184610BDBDF8081034
:102C20002046FFF79AFF0346F6E708B3F8B50446D7
:102C300001B30AB90320F8BD0BB90320F8BD12FB9C
:102C400003F7BFB217F0030F04D00337BFB227F06A
:102C50000307BFB220461E4615460C463A46FFF70C
:102C600093FF48B16580A680E780A0600020F8BD92
:102C7000032070470320F8BD0620F8BDF8B5B8B1B1
:102C80000C4615461E4699B1C2B1CEB112FB06F2F2
:102C900092B20431FFF778FF074638B1284610F0AA
:102CA000ABF82080304610F0A7F860803846F8BDB9
:102CB000044B054A1C2105482AF0BCFC0027F5E717
:102CC0000027F3E738560300C855030050560300A9
:102CD0002DE9F84348B10C46154606462AB121B104
:102CE0008B8843B90B20BDE8F8831E4B1E4A3A215E
:102CF0001E482AF09FFC4B8813B90320BDE8F883D7
:102D0000088810B90320BDE8F88310F075F807466D
:102D100020B1A38833B90420BDE8F8832E60A880D1
:102D2000BDE8F883608810B90420BDE8F88310F08E
:102D300063F8814617FB00F81FFA88F8A08810F0A6
:102D40005BF8424601463046FFF713FEA86030B1FB
:102D50002E60AF80A5F806900020BDE8F88304201F
:102D6000BDE8F88374560300F05503005056030085
:102D700008B570B1034602685AB182888A4214D9F4
:102D8000C08860B19B6853B111FB00F113FA81F068
:102D900008BD074B074A692107482AF04BFC074B3F
:102DA000044A6E2104482AF045FC002008BD00BFFB
:102DB000985603001456030050560300C0560300F3
:102DC000F0B589B000283BD004460088884203D87B
:102DD0000324204609B0F0BD20461E4615460A468B
:102DE00001A9FFF741FD04460028F2D1059B588850
:102DF00010F002F841F20133984219D00424002C5B
:102E0000E7D1059F1DB138890FF0F6FF28801EB16C
:102E100078890FF0F1FF30800E9B13B13B7B0E9A47
:102E200013700F9B002BD4D07B7B0F9A1370D0E7CD
:102E3000059B18880FF0E0FF0F28E0D80424DEE798
:102E40000324C6E7F0B589B0002800F09D80044651
:102E50000088884203D80324204609B0F0BD2046EC
:102E60001E4615460A4601A9FFF7FEFC0446002847
:102E7000F2D1059B58880FF0BFFF41F20233984210
:102E80002DD00424002CE7D1059F1DB138890FF007
:102E9000B3FF28801EB178890FF0AEFF3080B8896B
:102EA0000FF0AAFF054610F0010F20D10E9B13B1C1
:102EB00000230E9A13800F9B13B100230F9A136007
:102EC00015F0020F39D1109B13B10023109A138013
:102ED000119B002BC0D00023119A1360BCE7059B07
:102EE00018880FF089FF1F28CCD80424CAE7388A35
:102EF0000FF082FF06460E9B2BB110F0010F0CD194
:102F000000230E9A13800F9B002BD9D016F0020FCE
:102F100009D100230F9A1360D2E7788A0FF06CFF73
:102F20000E9B1880EFE778690FF06BFF174BA3FB40
:102F300000239B090F9A1360C2E7388B0FF05CFFE8
:102F40000546109B2BB110F0010F0DD10023109AF4
:102F50001380119B002B3FF47FAF15F0020F09D1B6
:102F60000023119A136077E7788B0FF045FF109BD1
:102F70001880EEE7F8690FF044FF044BA3FB002331
:102F80009B09119A136067E7032465E7D34D62102C
:102F9000F0B587B0002840D005888D4203D80324BF
:102FA000204607B0F0BD002A39D01E4615460A4615
:102FB0002946FFF759FC04460028F1D12B695888AF
:102FC0000FF01AFF41F2033398421ED00424002C64
:102FD000E6D12F691EB138890FF00EFF30800C9BAF
:102FE00023B178890FF008FF0C9B18800D9B002BF4
:102FF000D6D001A9284600F05FFB04460028CFD1B7
:10300000BDF808300D9A1380CAE72B6918880FF0B5
:10301000F3FE0F28DBD80424D9E70324C0E70324F8
:10302000BEE708B500F0F8FF08BDF0B587B000288E
:103030003ED005888D4203D80324204607B0F0BD5A
:103040001E4615460A462946FFF70EFC0446002890
:10305000F3D12B6958880FF0CFFE41F20433984228
:103060001ED00424002CE8D12F691EB138890FF03E
:10307000C3FE30800C9B23B178890FF0BDFE0C9B02
:1030800018800D9B002BD8D001A9284600F014FB16
:1030900004460028D1D1BDF808300D9A1380CCE742
:1030A0002B6918880FF0A8FE0F28DBD80424D9E775
:1030B0000324C2E7F8B500283CD0044600888842C3
:1030C00002D803242046F8BD002A35D020461E46EB
:1030D00015460A462946FFF7C7FB04460028F1D1EA
:1030E0002B6958880FF088FE41F20733984219D0B7
:1030F0000424002CE6D12F691EB138890FF07CFE24
:103100003080069B23B178890FF076FE069B1880ED
:10311000079B002BD6D0AB6918880FF06DFE079B7C
:103120001880CFE72B6918880FF066FE0F28E0D8CB
:103130000424DEE70324C5E70324C3E7002833D0D3
:103140002DE9F04104461F4690460D4686693088B9
:103150000FF052FEA84202D80320BDE8F081B088EB
:103160000FF04AFE236910B92420BDE8F08100EB7E
:10317000C5015C18B8F1000F04D0585A0FF03CFE9E
:10318000A8F800001FB160880FF036FE3880069B5B
:1031900013B12379069A1370079B3BB16379079AA1
:1031A00013700020BDE8F081032070470020BDE8C7
:1031B000F081F0B587B000283ED005888D4203D855
:1031C0000324204607B0F0BD1E4615460A46294690
:1031D000FFF74AFB04460028F3D12B6958880FF00B
:1031E0000BFE41F2053398421ED00424002CE8D196
:1031F0002F691EB138890FF0FFFD30800C9B23B181
:1032000078890FF0F9FD0C9B18800D9B002BD8D00E
:1032100001A9284600F050FA04460028D1D1BDF893
:1032200008300D9A1380CCE72B6918880FF0E4FD65
:103230000F28DBD80424D9E70324C2E710B582B0F5
:10324000049C009400F08CFF02B010BD10B582B059
:10325000049C009401F002F802B010BDF0B587B0F4
:1032600000283ED005888D4203D80324204607B0AD
:10327000F0BD1E4615460A462946FFF7F5FA0446F4
:103280000028F3D12B6958880FF0B6FD41F20633C0
:1032900098421ED00424002CE8D12F691EB1388931
:1032A0000FF0AAFD30800C9B23B178890FF0A4FDAC
:1032B0000C9B18800D9B002BD8D001A9284600F04C
:1032C000FBF904460028D1D1BDF808300D9A1380CF
:1032D000CCE72B6918880FF08FFD0F28DBD804246A
:1032E000D9E70324C2E7F8B500283CD0044600889B
:1032F000884202D803242046F8BD002A35D0204653
:103300001E4615460A462946FFF7AEFA044600282F
:10331000F1D12B6958880FF06FFD41F208339842C4
:1033200019D00424002CE6D12F691EB138890FF082
:1033300063FD3080069B23B178890FF05DFD069B0D
:103340001880079B002BD6D0AB6918880FF054FD6E
:10335000079B1880CFE72B6918880FF04DFD0F28C9
:10336000E0D80424DEE70324C5E70324C3E708B359
:1033700030B58BB01AB9032108460BB030BD0BB97C
:103380000321F9E79A4201D90321F5E71D461446C6
:103390000B460022009241F2033203A900F0ACFC7C
:1033A00001460028E8D12A46214603A800F0C4FCC3
:1033B0000146E1E703210846704708B330B58BB0FA
:1033C0001AB9032108460BB030BD0BB90321F9E748
:1033D0009A4201D90321F5E71D4614460A46BDF875
:1033E00038300093002303A900F0CEFC01460028EA
:1033F000E8D12A46214603A800F09EFC0146E1E7F9
:10340000032108467047F0B58BB018B31AB90326EC
:1034100030460BB0F0BDFBB11D4617460B4601927E
:103420000822009241F2093202A900F05DFD064631
:103430000028EDD10024BC42EAD204EB44039900F9
:10344000681883684268695A02A800F07DFD28B9AF
:103450000134F0E70326DBE70326D9E70646D7E782
:1034600081617047F0B58FB0002845D0002A45D063
:1034700014460A462388A18A00250195009103A9D4
:1034800000F0F2FC0646002839D1616803A800F07C
:103490000BFD0646002832D1089D208A0FF0ACFCB7
:1034A0002886089DA0680FF0ACFCA862089D608A81
:1034B0000FF0A2FC6886089DE0680FF0A2FCE862AD
:1034C000089D012385F8243002200FF095FCE88642
:1034D000089DA08A0FF090FCA886002508E00A9FAE
:1034E000A36933F815000FF087FC27F815000135A4
:1034F000A38A9D42F3D302E0032600E00326304670
:103500000FB0F0BD70B528B10C46064641B9032591
:10351000284670BD0A4B0B4A3F210B482AF08AF817
:103520000821FFF71AFB05460028F1D1F66820466E
:103530000FF062FC708000233380B380F380E7E7F4
:10354000B0570300EC560300C05703002DE9F047C5
:10355000E0B10E468046C468C4B100293BD0608803
:103560000FF04AFC814616FB00F7BFB2A3889BB957
:103570003A46211D4046FFF707FB054670B330462B
:103580000FF03AFC20802846BDE8F087164B174A1A
:103590005B2117482AF04EF820880FF02DFC824658
:1035A000D8F80450A0880FF027FC09FB0A00054456
:1035B00039464046FFF758FA90B13A46002128466E
:1035C0002AF0D4FF06EB0A0080B20FF015FC208031
:1035D0002846BDE8F0870020BDE8F087BDE8F08709
:1035E0000020BDE8F08700BFE45703000857030040
:1035F000C057030070B506460C46154606222946FC
:10360000FFF7B7F926602061031DE36000880FF023
:10361000F3FBA0800223E3800138400020810435C1
:10362000F3889D4201D90D2070BD002070BD0000BF
:1036300038B504693CB10D4620880FF0DDFBA84287
:1036400007D8002038BD064B064AF921064829F064
:10365000F1FF04EB4504A0880FF0CEFB38BD00BF9E
:10366000485603002C570300C057030070B50646A8
:103670001446FFF7DDFFC0B1054684B902220146BA
:103680003068FFF776F9044688B100880FF0B4FB84
:1036900028443368DB8898420BDC204670BD224604
:1036A00001463068FFF765F970BD002070BD00204D
:1036B00070BD002070BD000038B568B10D460446ED
:1036C00051B183697BB118880FF096FB02462946F9
:1036D0002046FFF78FFF38BD044B054A4FF4AB710E
:1036E000044829F0A7FF032038BD00BF705803002D
:1036F00044570300C05703002DE9F041D8B10D46EF
:1037000016460446B9B10421FFF727FA074678B9EF
:10371000E16800234B80012E14D9721E92000832FA
:1037200092B22046FFF730FA80462C6068605EB99E
:103730003846BDE8F081074B074A4FF4D47107487B
:1037400029F078FF0822ECE730460FF055FBA8F887
:103750000200EDE75058030068570300C05703000C
:103760002DE9F843A0B189469046064603687BB12F
:1037700044686CB160880FF03FFB074620880FF06B
:103780003BFB05465FB187420AD80620BDE8F883B7
:10379000114B124A4FF4FD71114829F04BFF88B9C3
:1037A00048460FF029FB04EB8506B08040460FF039
:1037B00023FBF080681C80B20FF01EFB20800020ED
:1037C000BDE8F88304213068FFF74EF90028E7D1FF
:1037D0000620BDE8F88300BF0C5803009057030093
:1037E000C057030041F20833984200F01A8100F2FA
:1037F000868041F20113984200F003813FD841F2E4
:103800000503984200F0F5801CD841F2020398426B
:1038100000F0EB800AD8B0F5805F00F0E48041F260
:103820000103984240F01D818F48704741F2030325
:10383000984200F0DC8041F20403984240F011818C
:103840008A48704741F20803984200F0D6800BD8AE
:1038500041F20603984200F0CE8041F207039842FD
:1038600040F0FF808248704741F20903984200F01F
:10387000C680B0F5885F40F0F4807E48704741F222
:103880000233984200F0C5801BD841F202239842CF
:1038900000F0BB800AD8B0F5905F00F0B48041F230
:1038A0000123984240F0DD8073487047B0F5985F7F
:1038B00000F0AD8041F20133984240F0D2806F4871
:1038C000704741F20533984200F0A7800BD841F2CF
:1038D0000333984200F09F8041F20433984240F055
:1038E000C0806748704741F20633984200F09780E5
:1038F00041F20733984240F0B4806248704741F289
:103900000343984200F09D8039D841F20E3398422B
:1039100000F091801BD841F20B33984200F0858073
:103920000AD841F2093398427DD041F20A339842D5
:1039300040F097805448704741F20C33984276D05B
:1039400041F20D33984240F08C8050487047B0F5FA
:10395000A05F72D009D841F20F33984269D041F28A
:10396000103398427DD14A48704741F20143984252
:1039700065D041F20243984273D146487047B0F592
:10398000004F66D016D841F2025398425DD008D855
:10399000B0F5A85F57D041F20153984261D13E483B
:1039A0007047B0F5804F52D044F20103984258D18D
:1039B0003A48704748F2030398424ED009D848F27B
:1039C0000103984247D048F20203984249D1344853
:1039D000704748F20403984241D048F205039842E8
:1039E0003FD13048704730487047304870473048C2
:1039F000704730487047304870473048704730480B
:103A000070473048704730487047304870473048FA
:103A100070473048704730487047304870473048EA
:103A200070473048704730487047304870473048DA
:103A300070473048704730487047304870473048CA
:103A400070473048704730487047304870473048BA
:103A500070473048704730487047304870473048AA
:103A600070473048704700BF98580300C45803009F
:103A7000F4580300245903005059030080590300EF
:103A8000D0590300305A03007C5A0300CC5A03007B
:103A9000385B03006C5B0300985B0300DC5B030096
:103AA000205C03006C5C030088580300A4580300EA
:103AB000B4580300D4580300E45803000459030029
:103AC000105903003459030044590300605903009E
:103AD0007059030094590300B0590300F0590300D2
:103AE000105A0300485A0300605A0300945A030016
:103AF000B05A0300F05A0300145B03004C5B030050
:103B0000585B0300805B03008C5B0300B05B030029
:103B1000C85B0300F05B0300105C0300385C03002B
:103B2000545C0300845C030005280ED8DFE800F035
:103B3000030F0507090B07487047074870470748F8
:103B4000704707487047074870470748704707485D
:103B5000704700BF885C0300A05C0300BC5C0300EE
:103B6000D85C0300F05C0300845C0300945C0300F9
:103B7000154B984218D00DD9144B984214D01BD82D
:103B8000A3F58F03A3F28C6398420DD0104B98429B
:103B900010D109E00F4B984206D007D90E4B98423E
:103BA00002D00E4B984205D1012070474BF6BC6302
:103BB0009842F9D000207047094B9842F4D0094B45
:103BC0009842F7D1F0E700BFC2EB0B00105E5F0038
:103BD00008AF2F00787D0100F0FA0200E1F5050042
:103BE00020BCBE0040787D01B0F5164F0ED007D83E
:103BF000B0F5165F0AD0B0F5964F07D00020704799
:103C0000B0F5614F02D0B0F5E13FF7D10120704728
:103C1000002303704A1C8354023101F01F0304E0A7
:103C2000FF234354013101F01F03002BF8D1084654
:103C300070470000F8B5264C2488B4F5027F01D9FE
:103C40000620F8BD234D2F78012F12D01E461546B1
:103C50001FB1022F19D01C20F8BD08B11C20F8BDDF
:103C600001221C4B1A70002E29D00798B0471C2047
:103C7000F8BD30B308550134A4B2154B1C80146054
:103C80000222144B1A701C20F8BD68B1085501348B
:103C9000A4B20F4B1C801460AEB1069BABB1984729
:103CA0000798B0471C20F8BD069B03B19847084B06
:103CB0001A882A600020074A10701880F8BD1C205E
:103CC000F8BD1C20F8BD1C20F8BD1C20F8BD00BFAD
:103CD0000C0E00200E0E002008B504482AF002FD4C
:103CE0000023034A1370034A138008BD045D0300D8
:103CF0000E0E00200C0E002038B538B10C4629B14C
:103D0000FEF719FF034638B1184638BD074B084A7D
:103D10002321084829F08EFCBDF8102004F114017D
:103D20002046FFF7E9FC0346EEE700BF845E030090
:103D3000245D0300A05E030008B518B11430FFF73E
:103D40000FFD08BD024B034A3821034829F072FCDD
:103D5000E45E0300445D0300A05E030010B538B1CB
:103D6000C4682CB108460FF047F86080002010BDF1
:103D7000024B034A6121034829F05CFC2C5E0300DE
:103D8000685D0300A05E030010B582B00C4600938E
:103D9000134641F21032FFF7AFFF034610B1184649
:103DA00002B010BDBDF810102046FFF7D7FF034644
:103DB000F5E72DE9F04182B005460C4617461E4650
:103DC000BDF824802C22002120462AF0CFFB40237E
:103DD00000933B46324621462846FEF717FF05462C
:103DE00018B1284602B0BDE8F081E0686061402665
:103DF000324600212AF0BAFB676930460EF0FCFF1C
:103E000038806669BDF820000EF0F6FF7080B8F1CA
:103E1000000FE6D06169082342463A312046FEF79A
:103E20002DFFA0620028DCD10625DAE730B583B08B
:103E30000C46BDF820500195BDF818500095FFF7CD
:103E4000B8FF054610B1284603B030BD61690223B2
:103E5000BDF81C2034312046FEF710FFE061002839
:103E6000F1D10625EFE7000010B584B078B1044623
:103E700069B1BDF81C000290BDF8180001900093D4
:103E800041F20D332046FFF7D1FF04B010BD034BC4
:103E9000034AC521034829F0CDFB00BFC85E0300DB
:103EA000945D0300A05E030010B540B1436933B1D7
:103EB00011B191F9002042B90020988010BD074B44
:103EC000074AD421074829F0B5FB0A46191DFEF719
:103ED00086FE08B1002010BD062010BD585E03000C
:103EE000C45D0300A05E030070B5BDF8146028B186
:103EF0000C4619B14EB90325284670BD0F4B104A28
:103F000040F2D9110F4829F095FBFEF714FE054643
:103F10000028F1D1BDF810102046FFF7F3FA05464E
:103F20000028E9D131462046FFF710FB606118B147
:103F3000A6610023E361DFE70625DDE76C5E030091
:103F4000E85D0300A05E03002DE9F04704461D462E
:103F50009046A2B192F90030A3B94FF00009A5B183
:103F600095F900309BB900229CB166698EB1A369B6
:103F70007BB1E769BB4213D80D20BDE8F0874FF055
:103F80000009ECE74FF00109E9E70022ECE7012224
:103F9000EAE71E4B1E4A4FF4FF711E4829F04AFB08
:103FA0004A4502D00320BDE8F08706EBC70A084661
:103FB0000EF022FF26F837000023AAF80230B9F1EC
:103FC000000F0AD10023AAF80430AAF80630E369EA
:103FD0000133E3610020BDE8F08742460AF10401A5
:103FE0002046FEF7FCFD68B12A460AF1060120468C
:103FF000FEF7F5FD0028EAD10023AAF804300620D8
:10400000BDE8F0870620BDE8F08700BFF05E030042
:10401000085E0300A05E03002DE9F0438DB0002888
:1040200000F095808046002A00F093801F461546D8
:104030000E4607A9FFF740FB0446002840F08A809F
:10404000BDF82030B34201D8032483E01C2231465E
:104050000DEB0200FFF70AFB064600287ED04088E1
:104060000EF0CAFE2880B08800282CD100236B6097
:10407000F08800282ED130890EF0BEFE688270894B
:104080000EF0BAFEA882B08900284BD10023AB61A4
:10409000308A0EF0B1FEA883B37CAB77F37CEB776C
:1040A000B08A002845D100232B62F08A002847D12E
:1040B00000236B62308B0EF09FFE2885708B0EF014
:1040C0009BFE688546E0D8F810900EF095FE4844B7
:1040D0006860CDE70EF090FE1023009301230246A6
:1040E00002A94046FEF71CFC28B100232B81EB609F
:1040F0002B823B80BFE7DDF81490B9F802000EF088
:104100007BFE2881D9F804000EF07BFEE860B9F848
:1041100008000EF071FE2882B9F80A000EF06CFE5D
:104120003880A8E7D8F810700EF066FE3844A86111
:10413000AEE7D8F810700EF05FFE38442862B4E79E
:10414000D8F810700EF058FE38446862B2E70324C5
:1041500000E0032420460DB0BDE8F0832424F9E7F5
:104160002DE9F04387B00E9E00286CD00546002E46
:104170006BD0994690460F4601A9FFF79DFA044679
:10418000002863D1BDF80830BB4201D803245DE0AC
:104190004022394601A8FFF769FA0746002859D09E
:1041A00040880EF029FE3080B888002843D10023D3
:1041B0007360F8880EF020FE308138890EF01CFE06
:1041C000708178890EF018FEB081F8680EF019FE43
:1041D000306138690EF015FE706197F8243033763F
:1041E00097F82630737697F82730B376B86A0EF0D2
:1041F00008FEF061F86A0EF004FE174BA3FB0023E3
:104200009B093362388E0EF0F7FDB084788E0EF085
:10421000F3FDF084B8F1000F04D0B88E0EF0ECFD81
:10422000A8F80000B9F1000F10D0788F0EF0E4FD6F
:10423000A9F800000AE00EF0DFFD01462846FEF76F
:10424000B3FB7060B5E7032400E00324204607B009
:10425000BDE8F0832424F9E7D34D62102DE9F04145
:1042600088B0002839D080461F4616460C4603A960
:10427000FFF722FA054688BBBDF81030A34201D8EB
:1042800003252BE04022214603A8FFF7EFF904465F
:1042900040B3408F0EF0B0FDB04201D803251DE0C1
:1042A0006A4604F13A014046FEF712FD0546A8B9F8
:1042B00031466846FEF75CFD044648B140680EF0A2
:1042C000A0FD386060880EF097FD0E9B188005E019
:1042D00000233B600E9A138000E00325284608B0B7
:1042E000BDE8F0812425F9E770B50C461546064671
:1042F00008B101B18AB91EB134B14DB1032070BD0E
:1043000011482AF0EFF9F7E710482AF0EBF9F4E743
:104310000F482AF0E7F9032070BD716032804888A9
:104320000EF06AFD072806D973681A7832725B7836
:104330007372002070BD73680822598805482AF0FE
:104340006FF9042070BD00BF185F0300405F0300D9
:10435000605F0300805F030028B131B143681B79BF
:104360000B70002070470320704700207047034601
:1043700078B142681079012801D0042070471B8869
:104380000B2B01D80420704729B1137A0B70002041
:1043900070470320704700207047034698B1A1B1D1
:1043A0000AB903207047072A01D806207047016028
:1043B00082800020D880086048601A68012111704E
:1043C0001B6858707047032070470320704708B37C
:1043D00070B50446C2880AB1052070BD06683279FE
:1043E0000AB1052070BD82880B2A01D8062070BD55
:1043F0000D46012333710C200EF0FEFC7080082066
:104400000EF0FAFCF08035720020707270810C237F
:10441000E38070BD03207047A8B32DE9F84304463C
:10442000C58815B10520BDE8F8830768387910B153
:104430000520BDE8F883A58803F10C00854202D26F
:104440000620BDE8F8831E4690460D4602233B71C8
:104450001FFA80F948460EF0CFFC78800C200EF051
:10446000CBFCF88028460EF0C7FC388100257D8102
:104470002068324641460C3029F07AFFA4F80690B5
:104480002846BDE8F883032070472DE9F047BDF8C2
:104490002460002839D00446C58815B10520BDE840
:1044A000F0870768387910B10520BDE8F087A58846
:1044B00006F11000854202D20620BDE8F08798463A
:1044C00015468A4603233B711FFA80F948460EF0D1
:1044D00093FC788010200EF08FFCF88050460EF090
:1044E0008BFC388128460EF087FC788140460EF020
:1044F00088FCF860206832460899103029F038FFAF
:10450000A4F806900020BDE8F0870320BDE8F087FE
:10451000A0B30346C08808B1052070472DE9F041DB
:104520001868047914B10520BDE8F0819D8802F176
:104530000804A54202D20620BDE8F0811C461546BB
:104540000E4605230371D4F8008002F10807BFB2BC
:1045500038460EF051FCA8F80200D4F8008008207C
:104560000EF04AFCA8F8060020682A4631460830BA
:1045700029F0FEFEE7800020BDE8F08103207047AF
:1045800000B587B004AB009305AB03AAFDF78DFE21
:10459000034610B90121034A1170184607B05DF8AF
:1045A00004FB00BF210E002000B585B003AB0093D3
:1045B0000DF10E0302AAFDF7B5FE034610B9012165
:1045C000024A1170184605B05DF804FB210E002068
:1045D00000B599B00023169315930CAB0A930DAB5D
:1045E00009930EAB08930FAB079310AB069311AB77
:1045F000059312AB049313AB039314AB029316AB66
:10460000019315AB009317AB0DF15E02FDF7E4F9D2
:10461000024690B9149B180E0A490870C3F307406C
:104620000949087009490B801399094B19600C99C5
:10463000084B19600121084B1970104619B05DF83C
:1046400004FB00BFBA0E0020BB0E0020E60E0020C7
:10465000C40E0020C00E0020260E002070B598B0B9
:1046600000231693159314931393129315AB0A9387
:104670000CAB09930DAB08930EAB07930FAB0693EE
:1046800010AB059311AB049314AB039312AB0293DD
:1046900016AB019313AB009317AB0DF15E02FDF760
:1046A00029FA044610BB129A1AB1124B10685168CD
:1046B00003C3149D55B1104E40220021304629F00D
:1046C00055FF3F22294630462AF01AFF0F9B190E4C
:1046D0000A4A1170C3F30741094A1170094A13804D
:1046E0000E9A094B1A600122084B1A70204618B026
:1046F00070BD00BFCC0E0020380E0020B80E002088
:10470000B90E0020E20E0020BC0E0020220E002078
:1047100000B58BB003AB00930DF10A030DF1260237
:10472000FDF715FB034618B9BDF80E20012A03D08A
:1047300018460BB05DF804FB0121014A1170F7E740
:10474000280E002000B585B00DF10A03019303ABDC
:10475000009302AB0DF10E02FDF76DFA05B05DF8A6
:1047600004FB000000B585B00DF10A03019303AB13
:10477000009302AB0DF10E02FDF7A3FA034610B948
:104780000121034A1170184605B05DF804FB00BF13
:10479000270E002070B590B000230C930B93099363
:1047A00009AB06930AAB05930BAB04930CAB0393D5
:1047B0000DAB02930EAB01930DF13A0300930FABD7
:1047C0000DF13E02FDF71CFB0446C0B90D9A0D4BDE
:1047D0001068516803C30B9D55B10B4E4022002158
:1047E000304629F0C3FE3F22294630462AF088FE93
:1047F000BDF83A20054B1A800122054B1A7020465D
:1048000010B070BDD40E0020780E0020E00E002005
:10481000230E002000B583B001AB0DF10602FDF7B9
:1048200072FB034610B90121024A1170184603B009
:104830005DF804FB240E002000B58DB006AB049398
:1048400007AB039308AB029309AB01930AAB009348
:104850000BAB0DF12E02FDF78EFB0DB05DF804FBE6
:1048600000B585B00DF10B03009303AB0DF10E0203
:10487000FDF7DCFB05B05DF804FB000070B598B0F7
:104880000DAB019310AB00930DF1420311AAFDF79C
:1048900015FE064650B9BDF838100A2902D829B1CC
:1048A000002529E03C4829F0BBFE0426304618B01C
:1048B00070BD9DF82C1000293ED19DF82D201D2A99
:1048C0003AD19DF82E20C12A36D1BDF81410334AB2
:1048D0001180334A1360334B0BAA92E8030018602F
:1048E0009980BDF818100A2938D8002951D1012221
:1048F0002D4B1A701544ADB2BDF838309D42D5D25B
:1049000006AB02930BAB019307AB00930DF11603BB
:1049100005AA294611A8FDF71EFE079B002BC8D04B
:104920000A2BC6D0642BC4D0B3F57A7FC1D0194608
:104930001E4829F075FE0FE09DF82D209DF82E30C1
:104940009DF82F009DF830409DF83150029501945C
:104950000090174829F064FE0426A7E7154829F0BF
:104960005FFEF9E70AAB029309AB019308AB009332
:104970000DF11A032246294611A8FDF74CFE089AAC
:104980000D4B1A600134A4B2BDF818309C42E9D333
:10499000ADE70024F8E700BF9C5F0300E40E0020B1
:1049A000C80E0020300E0020250E0020BC5F030042
:1049B000D45F0300086003002C0E002010B58EB0F9
:1049C00009AA002309930A930B9307AC0793089352
:1049D00006AB0593049403920DF1320302930DF19B
:1049E000330301930DF1310300930DAB0DF136024A
:1049F000FDF7D6FC034658B90121074A1170074A52
:104A000009991160064A0B991160064A0A991160CA
:104A100018460EB010BD00BF140E0020100E00206E
:104A2000180E00201C0E002000B58BB006AB0593BD
:104A300008AB04930DF1210303930DF122030293BC
:104A40000DF12303019307AB009309AB0DF126028F
:104A5000FCF7D1FE034630B99DF82210044A1170CC
:104A60000121044A117018460BB05DF804FB00BF29
:104A700004000020200E002000B587B00DF11103C6
:104A800002930DF1120301930DF11303009305AB93
:104A90000DF11602FCF708FF07B05DF804FB0020DB
:104AA000704700B58DB00DF12B03059309AB04934E
:104AB0000DF1260303930AAB029307AB019308ABF6
:104AC00000930BAB0DF12E02FCF752FD0DB05DF81B
:104AD00004FB00B591B00DF11603039306AB0293EE
:104AE00007AB019308AB00930DF1220309AAFCF771
:104AF0009EFD11B05DF804FB00B58FB00DF11203FF
:104B0000039305AB02930DF11603019306AB0093DB
:104B10000DF11A0307AAFCF7E9FD0FB05DF804FBDD
:104B20000020704700B585B00DF10A0301930DF127
:104B30000B03009303AB0DF10E02FEF741F905B034
:104B40005DF804FB00B589B004AB039306AB029398
:104B500005AB01930DF11A03009307AB0DF11E0293
:104B6000FEF770F909B05DF804FB000030B597B0AE
:104B70000DF15203019315AB00930DF1560302AAF8
:104B8000FEF706FA054648B9BDF85210022901D8C9
:104B9000002435E0374829F043FD0425284617B0A6
:104BA00030BD354829F03CFD0C994BF680339942D5
:104BB0004AD1BDF84C1004294BD8BDF84E10042939
:104BC0004CD8BDF82C10082909D00C2907D0102981
:104BD00005D0142903D0182901D0202943D1BDF8CC
:104BE0004020264B1A809DF84220254B1A709DF8D4
:104BF0004320244B1A700122234B1A700134A4B2B3
:104C0000BDF852309C42C9D214AB09AA214602A871
:104C1000FEF707FA60BB002CF0D1BDF840104B1F27
:104C20009BB2012BBDD90B29BBD00C29B9D00D29C2
:104C3000B7D0A1F122039BB21D2BB2D9A1F145033C
:104C40009BB2B92BB0D8ACE7104829F0E9FC042599
:104C5000A4E70F4829F0E4FC04259FE70D4829F05C
:104C6000DFFC04259AE70C4829F0DAFC042595E7D7
:104C7000054693E72860030044600300DC0E002033
:104C8000DF0E0020DE0E0020200E002060600300FA
:104C90007C60030094600300AC6003000020704758
:104CA0000020704700B58DB00DF12A0301930BABC6
:104CB00000930DF12E0303AAFEF7B7F90DB05DF8CE
:104CC00004FB00207047000070B598B00DF15A0346
:104CD000019317AB00930DF15E0305AAFEF769FA85
:104CE0000646002844D1BDF85A10042936D80025BC
:104CF000BDF85A309D423BD20CAB009303AB0DF193
:104D00000A02294605A8FEF799FA034678BB75B949
:104D1000BDF83820194B1A809DF84920184B1A709D
:104D20009DF84A20174B1A700122174B1A70BDF8D4
:104D30000A10042917D80024BDF80C309C421AD25E
:104D40000DF10E03009304AB2246294605A8FEF799
:104D50007DFA034658B90134A4B2EDE70B4829F0B7
:104D60005FFC042604E00A4829F05AFC04231E468E
:104D7000304618B070BD0135ADB2B9E7DC0E002089
:104D8000DF0E0020DE0E0020200E0020E460030075
:104D9000006103000020704700B58DB00DF12A03BB
:104DA00001930BAB00930DF12E0303AAFEF756FA05
:104DB0000DB05DF804FB000030B58DB00DF12A0395
:104DC00001930BAB00930DF12E0302AAFEF772F9CB
:104DD000054648B9BDF82A10022901D8002408E088
:104DE000164829F01DFC042528460DB030BD0134BD
:104DF000A4B2BDF82A309C42F6D209AB01930DF162
:104E0000250300930DF126030AAA214602A8FEF706
:104E100095F988B9002CEAD1BDF82620084B1A80F4
:104E20009DF82520074B1A709DF82420064B1A7018
:104E30000122064B1A70DAE70546D5E7C460030085
:104E4000DC0E0020DF0E0020DE0E0020200E0020F1
:104E500030B58DB00DF12A0301930BAB00930DF12A
:104E60002E0302AAFEF73FFA054648B9BDF82A10FC
:104E7000042901D8002408E0164829F0D1FB0425B4
:104E800028460DB030BD0134A4B2BDF82A309C4292
:104E9000F6D209AB01930DF1250300930DF1260322
:104EA0000AAA214602A8FEF749F988B9002CEAD1DE
:104EB000BDF82620084B1A809DF82520074B1A7054
:104EC0009DF82420064B1A700122064B1A70DAE76F
:104ED0000546D5E7E4600300DC0E0020DF0E00206D
:104EE000DE0E0020200E00200020704700207047BA
:104EF000F8B5069D089C234E36785EB310B1224F5C
:104F00003F78077011B121480078087012B120492C
:104F10000988118013B11F4A12681A6028462AF0C6
:104F20002FFA079B5F1EB84200DC074635B13A46B0
:104F30001949284629F01CFA0023EB551CB1174BE0
:104F400003CB2060616000220E4B1A70301C18BF2A
:104F50000120F8BD08B10027077009B100200870D2
:104F60000AB1002111800BB100221A6025B1079A05
:104F70000021284629F0FAFA002CE7D0002323600C
:104F80006360E3E7220E0020B80E0020B90E002077
:104F9000E20E0020BC0E0020380E0020CC0E0020B7
:104FA00070B4039D174C2478DCB110B1164E3678DE
:104FB000067011B115480078087012B114490988BB
:104FC000118013B1134A12681A6015B1124B1B6895
:104FD0002B6000220B4B1A70201C18BF012070BCE4
:104FE000704708B10026067009B1002008700AB1A8
:104FF000002111800BB100221A60002DECD000239B
:105000002B60E9E7260E0020BA0E0020BB0E002020
:10501000E60E0020C40E0020C00E00202DE9F04155
:1050200006460C46154698461A4B1F7817B368B1CA
:1050300019482AF0A5F9013CA04200DC04462246AA
:105040001549304629F094F9002333551DB1134B0F
:1050500003CB28606960B8F1000F03D0104B1B88A8
:10506000A8F8003000220B4B1A70381C18BF012022
:10507000BDE8F08118B10A46002129F077FA15B190
:1050800000232B606B60B8F1000FEED00023A8F86E
:105090000030EAE7230E0020780E0020D40E002016
:1050A000E00E0020034B187800221A70801A18BFF7
:1050B00001207047240E002030B4124C2478CCB16B
:1050C00010B1114D2D88058011B11048006808609D
:1050D00022B10F49086810608988918013B10D4A88
:1050E00012681A600022074B1A70201C18BF01209A
:1050F00030BC704708B1002303800029F5D000239D
:105100000B60F2E7250E0020E40E0020C80E002000
:10511000300E00202C0E002030B4164C2478DCB168
:1051200010B1154D2D88058021B11448007800F08C
:105130000100087022B11249097801F001011170D3
:1051400013B1104A12781A7000220A4B1A70201CF0
:1051500018BF012030BC704708B10025058009B197
:10516000002008700AB100211170002BEFD001223D
:105170001A70ECE7200E0020DC0E0020DF0E00206D
:10518000DE0E002004000020034B187800221A7065
:10519000801A18BF01207047270E0020034B187893
:1051A00000221A70801A18BF01207047210E0020BB
:1051B000034B187800221A70801A18BF012070471C
:1051C000280E002010B4114B1B78A3B110B1104C65
:1051D0002468046011B10F480068086012B10E49DC
:1051E000096811600021094A1170181C18BF0120BC
:1051F0005DF8044B704708B10024046009B1002039
:105200000860002AF1D000211160EEE7140E0020A2
:10521000100E0020180E00201C0E00200023034A50
:105220001360034A1360034A13607047EC0E0020BA
:10523000E80E0020F00E002010B504461AF04CFADB
:10524000034B1860034B1C600122034B1A6010BD16
:10525000EC0E0020F00E0020E80E00200023034A90
:105260001360034A1360034A13607047EC0E00207A
:10527000F00E0020E80E002008B51AF02DFA104BB1
:105280001B68984213D30022C31A4FF47A7000FBB4
:1052900003F00C4BA3FB003080090B4B1B6843B1A0
:1052A0000A4B1B68984206D23AB9002008BD012279
:1052B000EAE7002008BD012008BD012008BD00BFAD
:1052C000EC0E0020D34D6210E80E0020F00E0020FE
:1052D000024B187800221A70704700BFF40E0020AD
:1052E00008B54FF401720021044829F03FF94FF44A
:1052F00003720021024829F039F908BD000400605A
:105300007C25002070B58EB04FF40173A74AFCF7DE
:1053100003F982B262B901F0E5F8A54829F0E2F993
:105320000122A44B1A70FFF7DBFF00200EB070BD06
:105330009E490BA8FEF7D8FF40B101F0CBF89E487C
:1053400029F0D0F901229B4B1A70ECE70DF12B01EB
:105350000BA8FFF701F850B99DF82B30013B042B47
:1053600000F21C82DFE803F00C1E25296A0001F020
:10537000B1F8924829F0B6F901228E4B1A70D2E7A3
:1053800003A90BA8FEF7F3FF78B901F0B3F89DF875
:105390000C30013B052B08D800F074FE012001F011
:1053A000B7F802E0012001F055F8FFF799FF01205E
:1053B000BCE7012001F04EF8F7E7012001F04AF8C0
:1053C0004FF4FE727E496846FDF733FA18B10122A8
:1053D000784B1A70A7E701F075F8002203A9684618
:1053E000FDF742FA054600240FE021466846FFF724
:1053F000C7F80546F5B9BDF812301C44A4B22246E0
:1054000003A96846FDF730FA0546002DCDD1BDF859
:105410001410B1F5804FE8D044F20103994203D053
:10542000684829F0FDF8E5E721466846FFF7BCF833
:105430000546DFE701225F4B1A7074E7012001F097
:1054400009F84FF4FE725E496846FDF7F2F918B1AB
:105450000122584B1A7066E701F02CF8002203A9CC
:105460006846FDF701FA04460025C1E0FEF75CFB43
:10547000BDF81400FEF7B6F901224E4B1A7052E740
:1054800000F0D2FF864203D1002000F0D3FFC3E03A
:105490000122484B1A7046E741F20803994200F096
:1054A0000D8124D841F20403994200F0F58011D80F
:1054B00041F20103994200F0E38041F20303994273
:1054C00000F0E480B1F5805F00F080803E4829F074
:1054D000A7F880E041F20603994200F0E38000F271
:1054E000E78029466846FFF73DF9044673E0B1F5C9
:1054F000905F00F0F58012D8B1F5885F00F0E4808D
:1055000041F20113994200F0E58041F2090399420A
:10551000DCD129466846FFF7A3F904465BE041F277
:105520000223994200F0E880C0F0E080B1F5985F76
:10553000CCD129466846FFF7F3FA04464BE041F226
:105540000533994200F00E810CD841F203339942A1
:1055500000F0EA8000F2FA8029466846FFF7F2FA86
:10556000044638E041F20733994200F0078100F227
:105570000B8129466846FFF70FFC04462BE041F2F9
:105580000B33994200F0DC8000F2E6802946684641
:10559000FFF7AAFC04461EE041F21033994295D170
:1055A00029466846FFF7A2FC044614E000040060A8
:1055B0001C610300F40E00202C6103004061030015
:1055C000100400605461030090610300294668469E
:1055D000FEF7FEFF0446002C40F0DC80BDF81220F0
:1055E0002A4495B22A4603A96846FDF73DF90446C8
:1055F000002C7FF4DAAE03A8FDF7F3F900287FF45E
:1056000035AF03A8FDF7E7F90646BDF81400FEF72D
:10561000E9F8002E7FF434AFBDF81460B6F5885F6A
:1056200007D03046FEF7DEF8024631465D4828F0E6
:10563000F7FFBDF8141041F2013399426ED07FF6A6
:105640002BAF41F20933994274D07FF678AF41F223
:105650000D33994200F08C8091D9B1F5A05F51D003
:105660009AD941F20143994252D041F20243994200
:105670007FF42CAF29466846FFF73EFA0446AAE7B6
:1056800029466846FEF7EAFF0446A4E7294668462D
:10569000FFF73EF804469EE729466846FFF752F8B2
:1056A000044698E729466846FFF774F8044692E7EF
:1056B00029466846FFF7AEF804468CE72946684657
:1056C000FFF7BAF8044686E729466846FFF7D6F89A
:1056D000044680E729466846FFF770F904467AE7F2
:1056E00029466846FFF7A0F9044674E7294668464C
:1056F000FFF7C2F904466EE729466846FFF7CFF97F
:10570000044668E729466846FFF7CBF9044662E796
:1057100029466846FFF7DDF904465CE729466846F6
:10572000FFF700FA044656E729466846FFF71EFAD7
:10573000044650E729466846FFF7B0FA04464AE7B0
:1057400029466846FFF7ACFA044644E7294668460E
:10575000FFF7A8FA04463EE729466846FFF7B1FA84
:10576000044638E729466846FFF7AEFA044632E7B2
:1057700029466846FFF70EFB04462CE72946684693
:10578000FFF71AFB044626E729466846FFF760FB49
:10579000044620E70122044B1A70C4E50122024BA3
:1057A0001A70C0E57C610300F40E002030B585B0AE
:1057B000012000F03FFE4FF4FE721C496846FDF7E1
:1057C00016F9044610B1204605B030BD01216846E7
:1057D000FCF79BFF04460028F5D14FF401721449F1
:1057E00002A8FEF7DAFD04460028ECD1BDF8062039
:1057F0000E4902A8FEF78CFE04460028E3D10D4DA9
:105800002A46BDF80E100A48FBF764FE0146681EE2
:10581000FEF7FEF9054608B90224D4E781B206482E
:1058200000F0A6FD8542CED00224CCE790270020D0
:1058300088270020050600600406006030B58BB0A4
:10584000022000F0F7FD4FF4FE72224906A8FDF792
:10585000CEF8044610B120460BB030BD1E4B03936A
:105860001E4B04931E4B059300230193009303AB3F
:105870000422022106A8FCF758FF04460028EAD1BA
:105880004FF40172174908A8FEF787FD0446002867
:10589000E1D1BDF81E200F4908A8FEF739FE0446E5
:1058A0000028D8D1104D2A46BDF826100D48FBF728
:1058B00011FE0146681EFEF7ABF9054608B9022441
:1058C000C9E781B2094800F053FD8542C3D00224E4
:1058D000C1E700BF90270020212CFEA90000FFFF98
:1058E0000100FEA98827002005060060040600606C
:1058F00030B58BB0032000F09DFD4FF4FE722349BC
:1059000006A8FDF774F8044610B120460BB030BD70
:105910000123ADF800301E4B01931E4B029302226F
:10592000ADF80C201C49049105936B46032106A891
:10593000FDF769FD04460028E7D14FF401721749CD
:1059400008A8FEF72AFD04460028DED1BDF81E2077
:105950000E4908A8FEF7DCFD04460028D5D1104DFD
:105960002A46BDF826100D48FBF7B4FD0146681E17
:10597000FEF74EF9054608B90224C6E781B2094888
:1059800000F0F6FC8542C0D00224BEE7902700203C
:10599000C8610300CC610300DC610300882700209C
:1059A000050600600406006030B58DB0042000F0EC
:1059B00041FD4FF4FE72294908A8FDF718F8044686
:1059C00010B120460DB030BD1823ADF814300223BD
:1059D000ADF804302022ADF81620214A02920022B0
:1059E0000492ADF8183003920122ADF80020ADF812
:1059F0000230694601A8FDF733FD01AA042108A879
:105A0000FDF730FD04460028DBD14FF40172154943
:105A10000AA8FEF7C2FC04460028D2D1BDF8262011
:105A20000E490AA8FEF774FD04460028C9D10E4DA0
:105A30002A46BDF82E100B48FBF74CFD0146681EA8
:105A4000FEF7E6F8054608B90224BAE781B207482E
:105A500000F08EFC8542B4D00224B2E790270020EB
:105A6000B861030088270020050600600406006076
:105A700030B587B0052000F0DDFC4FF4FE721F4901
:105A800002A8FCF7B4FF044610B1204607B030BDB1
:105A90004FF48073009302231A46052102A8FDF7F4
:105AA0008CFC04460028F0D14FF40172144904A87C
:105AB000FEF773FC04460028E7D1BDF80E200F491D
:105AC00004A8FEF725FD04460028DED10D4D2A4628
:105AD000BDF816100A48FBF7FDFC0146681EFEF7EC
