:1000000000800220E133020045340200692302002F
:10001000453402004534020045340200000000006F
:10002000000000000000000000000000D1E301001B
:100030004534020000000000A1E4010005E50100D4
:1000400045340200453402004534020045340200C4
:10005000453402000000000045340200453402002F
:1000600045340200453402004534020045340200A4
:100070004534020045340200453402004534020094
:100080004534020045340200453402004534020084
:100090004534020045340200453402004534020074
:1000A0004534020045340200453402004534020064
:1000B0004534020045340200453402004534020054
:1000C000A1E8000045340200453402004534020036
:1000D00045340200D9E800004534020045340200EE
:1000E0004534020045340200E1E8000045340200D6
:1000F000453402000000000045340200453402008F
:10010000453402004534020045340200C5E80000D1
:10011000CFE80000453402004534020045340200B7
:1001200045340200453402004534020045340200E3
:1001300045340200000000004534020000000000C9
:100140004534020045340200E1DB010091DB01008F
:10015000453402000000000045340200453402002E
:1001600045340200453402004534020045340200A3
:100170004534020045340200453402004534020093
:1001800045340200453402004534020000000000FE
:100190004534020045340200453402004534020073
:1001A00059E8000045340200453402000000000018
:1001B0004534020045340200000000000000000049
:1001C000000000000000000000000000000000002F
:1001D00000000000453402004534020045340200AE
:1001E0004534020045340200453402004534020023
:1001F0004534020010B5054C237833B9044B13B1D4
:100200000448AFF300800123237010BD840C00204C
:1002100000000000C40306000C4B43B10C480D491C
:1002200010B5AFF300800C48036823B910BD0A482D
:10023000036833B97047094B002BF7D0BDE8104075
:100240001847064B002BF5D0184700BF00000000F0
:10025000C4030600880C0020800C00200000000071
:10026000154B002B08BF134B9D46A3F5803A002188
:100270008B460F461348144A121A2EF067FC0F4B98
:10028000002B00D098470E4B002B00D09847002041
:10029000002104000D000D48002802D00C4833F066
:1002A0001DFA2DF049FF200029000EF07FFD2DF0F2
:1002B000E1FC00BF000008000080022000000000F8
:1002C00000000000840C0020C4200220DD36030062
:1002D000E548030010B50A4C0021204621F03CFB04
:1002E00000231A461946204621F058FB012300221C
:1002F0001946204621F052FB0123C4F8F83010BD06
:100300000030044007EE900AF8EE677A9FED040A89
:1003100067EE807A9FED030A87EE800A704700BF80
:100320008B6CF24166269B4408B50322074B5A6545
:10033000064BD3F8F83013F4000FF9D10138034B12
:1003400053F8200080B2FFF7DDFF08BD0030044005
:1003500008B5032807D8DFE800F0141602040B489C
:1003600008BD0B4808BD0B4A0B490C482EF048FC51
:100370004FF0200383F31188BFF36F8FBFF34F8FCC
:10038000FEE7074808BD074808BD00BF003006402B
:100390000040064024570300D0560300F8560300DF
:1003A000001006400020064008B5032807D8DFE803
:1003B00000F0141602040B4808BD0B4808BD0B4A98
:1003C0000B490C482EF01CFC4FF0200383F31188DE
:1003D000BFF36F8FBFF34F8FFEE7074808BD074895
:1003E00008BD00BF0F00A0660600C0A6345703007A
:1003F000D0560300F85603000D0040660E006066FC
:10040000F8B50446FFF7A4FF374B53F824301969B9
:100410005E691A68082A3ED900251BE00022002ADE
:100420005BD01A69022A26D09F6847B13A4612F873
:10043000015B9A607F7845EA072501329A601A6964
:10044000002A03DD05621A69023A1A611A69002A54
:1004500043DD1969426912F4003FDFD1721A02EBE1
:10046000D272224F57F82470B7EB620F01D80022E6
:10047000D5E70122D3E79A68002AE0D093F820500C
:100480000DB11578DBE7174617F8015B9F605278CE
:1004900045EA0225D3E7002511E00022EAB19A6877
:1004A00012B112F8015B9A601A69002A03DD056235
:1004B0001A69013A1A611A69002A0EDD196942693E
:1004C00012F4003FE9D1721A084F57F82470BA426B
:1004D00001D30022E2E70122E0E7002900DDF8BDB8
:1004E000802122F060F9FAE7A40C0020C056030036
:1004F00038B50546FFF72CFF0D4B53F82540002378
:100500006371902122F04FF90A4B5B575A0903F0AF
:100510001F03012101FA03F32032074941F8223079
:10052000237E03B938BD0021E0691EF0BDFDF9E767
:10053000A40C0020BC56030000E100E070B50646A4
:100540004D4B53F82040FFF703FF05466369002B2E
:1005500039D02368082B29D912E094F820101BE029
:100560001370E268511CE160C3F307235370E36822
:100570000133E3606369023B63616369002B22DD41
:100580006B6913F4807F1ED12B6BE268002AF1D0D7
:1005900061690229E1D000210029E1D01370E9E767
:1005A0006369013B63616369002B0CDD6B6913F4C4
:1005B000807F08D12A6BE368002BF1D01A70E368C2
:1005C0000133E360ECE72369002B02DD3046FFF7DF
:1005D00017FF4FF48061284622F02CF9002839D00B
:1005E0002368082B29D912E094F820101BE013701F
:1005F000E268511CE160C3F307235370E3680133E1
:10060000E3606369023B63616369002B22DD6B6910
:1006100013F4807F1ED12B6BE268002AF1D0616950
:100620000229E1D000210029E1D01370E9E76369D4
:10063000013B63616369002B0CDD6B6913F4807F00
:1006400008D12A6BE368002BF1D01A70E3680133FC
:10065000E360ECE72369002B02DD00233BB970BDAA
:100660006369002B01DD0023F8E70123F6E730463C
:10067000FFF73EFFF3E700BFA40C002038B50446A7
:10068000FFF766FE194B53F824305A790AB104205B
:1006900038BD02F0FF011A68082A04D91A6912F05D
:1006A000010F00D00121E1B11A6901321A615A69C2
:1006B00001325A61012283F8202001255D714FF437
:1006C000906122F029F80A4B1B575A0903F01F03C7
:1006D0009D40084B43F822502046FFF791FE002032
:1006E00038BD002283F82020E7E700BFA40C0020DB
:1006F000BC56030000E100E008B503280DD9084A04
:10070000084909482EF07CFA4FF0200383F3118842
:10071000BFF36F8FBFF34F8FFEE7FFF70FFF08BDEB
:1007200010570300D0560300F85603002DE9F0439C
:1007300083B080460C4691461E46FFF709FE0546EB
:100740004046FFF731FE07462422002120462EF0C6
:10075000FDF9354B9F4249D003F5800301339F4299
:100760004AD0A3F5C003023B9F4239D0384620F05F
:1007700081FF99F8013023710322002101201EF02E
:10078000B9FAE06173682360284B43F82840337A54
:10079000012B38D0737A012B3CD00A2223683168B0
:1007A00000910021284621F025FE99F80230012B06
:1007B00032D004220121284621F09CFF1C4B53F823
:1007C000281001390A46284621F09DFFB37A2BB341
:1007D0002B6843F400532B60002003B0BDE8F08386
:1007E00000222021184620F0E3FEBFE700228021EE
:1007F0000D4820F0DDFEB9E700224FF400610D48FE
:1008000020F0D6FEB2E7737A012B01D00222C5E7B1
:100810000422C3E70C22C1E70022CBE72B6823F4B4
:1008200000532B60D8E700BF0E006066A40C0020C8
:10083000C05603000F00A066F8B504460F4D55F8EA
:100840002060FFF785FD0746902121F0ACFF0C4B9F
:100850001B575A0903F01F03012101FA03F3203249
:10086000084941F82230384621F008FFF0691EF0AF
:1008700089FE002045F82400F8BD00BFA40C00202C
:10088000BC56030000E100E02DE9F8430646884627
:1008900017461D46FFF75CFD1E4B53F826401DB959
:1008A00000242046BDE8F883814601232376C4F85E
:1008B0000880E760256165613046FFF7DFFE0428A8
:1008C00001D10424EDE74FF47A71089B01FB03F199
:1008D000114BA3FB01318909E0691EF01FFD0128BE
:1008E00016D00E482EF0EEF90023637103249021F8
:1008F000484621F058FF0A4B9B575A0903F01F0343
:10090000012101FA03F32032064941F82230C8E7F9
:100910000024ECE7A40C0020D34D6210A456030081
:10092000BC56030000E100E0012800D070474FF6FC
:10093000FF739942FAD12DE9F043374BDFF8F49079
:10094000C3F800904FF0080EC3F804E0334D9D60EB
:100950003C22DA60324A1A610C20586140329A61B6
:100960001C22DA612F4C1C624FF0000CC3F824C02B
:100970009C62C3F82CE01C634FF00408C3F8348079
:100980009C63D863284E1E6414225A649E64182106
:10099000D9642649196558659D65DA65244A1A6641
:1009A00024275F669E662827DF661E672C265E6703
:1009B0009C671024DC67C3F88020C3F88460C3F808
:1009C0008820C3F88C70C3F890103824C3F8944082
:1009D000C3F89890C3F89C00C3F8A050C3F8A400D3
:1009E000C3F8A850C3F8ACE0C3F8B0103020C3F887
:1009F000B400C3F8B810C3F8BC60C3F8C010C3F8A3
:100A0000C470C3F8C820C3F8CC80C3F8D020C3F8A2
:100A1000D4C0BDE8F08300BFB40C002040480040C3
:100A2000C0480040804900404049004080480040A4
:100A300000480040C0490040014B1860704700BFAB
:100A4000900D0020014B1868704700BF900D0020EA
:100A500010F0010F25D0234BD3F8A020D3F8A430F9
:100A60000021D15010F0020F23D01E4BD3F8A82044
:100A7000D3F8AC300021D15010F0040F21D0194B25
:100A8000D3F8B020D3F8B4300021D15010F0080FC3
:100A90001FD1144BD3F8B820D3F8BC300121D1506A
:100AA0007047104BD3F8A020D3F8A4300121D150C7
:100AB000D8E70C4BD3F8A820D3F8AC300121D150A3
:100AC000DAE7084BD3F8B020D3F8B4300121D15085
:100AD000DCE7044BD3F8B820D3F8BC300021D15068
:100AE000704700BFB40C002004280FDC38B558B1A3
:100AF0000138074B1D5C0C462846FFF7A9FF054B44
:100B00001D60054B1C6038BD0025F4E7704700BF31
:100B10004C570300940D00208C0D002038B9084B71
:100B2000D3F8C020D3F8C4300121D1507047044B12
:100B3000D3F8C020D3F8C4300021D150704700BF93
:100B4000B40C002038B505460C46FFF7E7FF024B12
:100B50001D60024B1C6038BD9C0D0020980D0020CC
:100B600008B54FF6FF710120FFF7DEFE08BD00005B
:100B700000B583B04FF080435922C3F800211622FC
:100B8000C3F800218822C3F80021D3F80031002BDC
:100B9000F0D021F02FF84FF4401021F033F80090FE
:100BA0001C4821F02FF80190009B13F0010F02D197
:100BB000B0F5FC2F1BD018482EF084F8009B23F0D2
:100BC000010300934FF4FC2301930221684621F0B6
:100BD00083F818B111482EF075F8FEE710482EF092
:100BE00071F821F039F801460E482EF009F821F08D
:100BF00033F80146B0F5FC2F07D04FF4FC220A4829
:100C00002DF0FEFF03B05DF804FB08482DF0F8FF5F
:100C1000F8E700BF04003000C45703000458030085
:100C200028580300485803007C580300CC580300A0
:100C300008B5FFF79DFF08BD2DE9F0410646B0F568
:100C4000FC2F12D38846174620F094FFB0B93446E3
:100C50000025F3199C421FD258F82510204621F098
:100C600001F890B904340135F3E74FF4FC22014652
:100C70000B482DF0C5FF0020BDE8F0813146094842
:100C80002DF0BEFF0020BDE8F081214606482DF082
:100C9000B7FF0020BDE8F0810120BDE8F08100BF72
:100CA000545703007C570300A057030008B50120E8
:100CB00022F084F808B9012008BD002008BD00001A
:100CC000F0B58DB017460021ADF82A10C4030123FA
:100CD00004930393029301930B23009308AB082220
:100CE000204622F0F7F92F4B089A9A4202D00020B2
:100CF0000DB0F0BD08343E4642F62875012304933A
:100D00000393029301930B23009333464FF48072B5
:100D10000021204622F0DEF904F5807406F5807685
:100D2000A5F58075FF2DE9D85DBB012304930393DE
:100D3000029301930B2300930DF11E030222002165
:100D4000601922F0C7F90BA80DF032FC082208A99F
:100D50000BA80DF030FC42F6287239460BA80DF0B6
:100D60002AFC0DF12A010BA80DF041FCBDF81E1064
:100D7000BDF82A20914212D00B482DF041FF0020EF
:100D8000B6E7012304930393029301930B2300938B
:100D900033462A460021204622F09CF9C5E70998EF
:100DA000A6E700BF5AA555AAB05A0300F0B5ADF2A8
:100DB0001C4D07460E460024B44222D24FF48065F3
:100DC0002A46002106A82DF0C1FE012304930393B7
:100DD000029301930B23009306AB2A460021E019EE
:100DE00022F078F9002206ABB2F5806F06D21968BE
:100DF000B1F1FF3F07D104320433F5E704F5806415
:100E0000DAE7012000E000200DF21C4DF0BD0000EB
:100E100030B583B00025032D11D8EC0301230093D6
:100E200052220021204622F0BFF84FF40041204614
:100E3000FFF7BCFF0446012801D10135EBE7012C87
:100E40000AD007482DF03EFF0023064A1360064AE9
:100E50001360204603B030BD04482DF033FFF3E7A4
:100E60005C5A0300A00D0020A40D00203C5A030092
:100E70002DE9F04383B08046012021F09FFFB8B9EF
:100E80000122032101A821F073FF9DF806309DF88F
:100E900005209DF804102B482DF0B2FE012022F011
:100EA0002DF829482DF0ACFE0027B9463C4608E055
:100EB000014626482DF0A4FEE2E725482DF0A0FECD
:100EC0002C46032C1AD8651C294622482DF098FE82
:100ED000424642F628712046FFF7F2FE064648B128
:100EE0008742EAD21C4B18601C482DF089FE374619
:100EF000A146E5E71A482DF083FEE1E7164B1A6894
:100F0000AAB109F10104214616482DF079FE164BCD
:100F10001C60032C01D900221A60424642F6287157
:100F20004846FFF7CDFE002003B0BDE8F083002265
:100F30000D4B1A600D482DF0C5FEFFF769FF01202B
:100F4000F2E700BF34590300605903000C59030055
:100F5000F8F2050078590300A40D00207C59030025
:100F60008059030084590300A00D0020A0590300FC
:100F700038B5054601220B4B1A60FFF779FF48B1DF
:100F800042F62872084B196828462DF0E1FC00242F
:100F9000204638BD044642F6287104482DF030FE44
:100FA000F6E700BFD00D0020A80D0020B8590300BF
:100FB00008B5034B1B6803B908BDFFF729FFFBE722
:100FC000D00D00202DE9F0478CB082463D4F3D68A2
:100FD000ED030026ADF8266001240094234652223A
:100FE0003146284621F0E0FF4FF400412846FFF744
:100FF000DDFEDFF8DC80D8F800302344C8F800308C
:1010000009A80DF0D5FA304B0A93D8F800300B93AD
:101010000394029401944FF00209CDF800900AABBA
:1010200008223146284622F003F8079608960494D1
:101030000394029401940B23009307AB08223146DA
:10104000284622F047F808220AA909A80DF0B3FAA9
:10105000039402940194CDF80090534642F628720E
:10106000314605F1080021F0E3FF42F628725146AF
:1010700009A80DF0A0FA05F53C5530350DF1260113
:1010800009A80DF0B4FA039402940194CDF80090ED
:101090000DF126034A463146284621F0C9FF39683A
:1010A000D8F800300422214408482DF0A9FD3B68FF
:1010B00023443B60032B01D93B461E6001200CB04A
:1010C000BDE8F087A00D00205AA555AA7C5A030060
:1010D000A40D002008B5034B1B6803B908BDFFF73A
:1010E00071FFFBE7D00D002030B583B000250F2D38
:1010F00013D805F12004E4030123009352220021B8
:10110000204621F051FF4FF400412046FFF74EFEEC
:101110000446012801D10135E9E7012C05D0054835
:101120002DF0D0FD204603B030BD03482DF0CAFDA0
:10113000F8E700BFF4590300E059030070B584B02C
:10114000164601F5801501240394029401940223AC
:10115000009303460021284621F06AFF32462946C3
:1011600002482DF04DFD204604B070BD105A03001A
:1011700070B5ADF5836D0C4600F580164FF48065B3
:101180002A46002106A82DF0E1FC012304930393D5
:10119000029301930B23009306AB2A4600213046AD
:1011A00021F098FF2146002206ABB2F5806F07D2EE
:1011B0001C680868844205D1043204330431F4E722
:1011C000012000E000200DF5836D70BD00B589B0F1
:1011D000012204920392029201920B2300930DF1DB
:1011E0001F03002100F5801021F074FF9DF81F00FF
:1011F00009B05DF804FB000008B50120FFF71CFBF7
:101200000028FAD1034B044A04490120FFF78EFA63
:1012100008BD00BFF05A0300E05A0300D40D0020BF
:1012200010B50D4C4FF4E131204622F019F80A2197
:10123000204622F0A3F8A36823F0F003A360A3687C
:1012400043F02003A3602022044B5A601121204662
:1012500022F001F810BD00BF0010074000E100E0DF
:10126000214BD969214A13680133136011F0110F22
:101270001BD11D4B9B6913F0710F33D071221A4B98
:101280009A6170471A4908681A4C2254096840F25A
:10129000FF32914202D0164B1B680133144A13608F
:1012A000154A1368013313600DE00F4B9B6913F46B
:1012B0008043DED110B40C4A1268D2B20E490968DC
:1012C000B1F5806FDED3084B9B6913F48043F2D0F5
:1012D000054B9B6913F0710F02D07122024B9A618A
:1012E0005DF8044B704700BF00100740F80D002068
:1012F000040E002000000060FC0D0020F0B5074641
:10130000012400262046334608E000F1010E013397
:1013100015540134E4B2FF2C0BD070468B420DD231
:10132000FD5C002DF1D194550133064601300124B6
:10133000F4E79455023076460124EFE79455F0BD6A
:10134000F0B58646002005468D421ED21EF8057077
:101350007C19A14201D2012F18D101350124BC42D0
:1013600009D2984214D01EF8056016540134E4B234
:1013700001300135F3E7FF2FE6D08D42E4D09842EB
:1013800008D0002414540130DEE7F0BD0020F0BD89
:101390000020F0BD0020F0BDF0B589B0002858D085
:1013A00004460088884203D80324204609B0F0BDD3
:1013B00020461E4615460A4601A901F069F9044671
:1013C0000028F2D1059B588811F0E4FFB0F5A05F2A
:1013D00037D00424002CE8D1059F1DB1388911F0C5
:1013E000D9FF28801EB1788911F0D4FF30800E9B80
:1013F00023B1F86811F0D3FF0E9B18600F9B23B147
:10140000386911F0CCFF0F9B1860109B23B1B88A8C
:1014100011F0C0FF109B1880119B23B1F88A11F0C6
:10142000B9FF119B1880129B23B1388B11F0B2FFCA
:10143000129B1880139B002BB7D0BB7E139A13709E
:10144000B3E7059B188811F0A5FF1B28C2D8042418
:10145000C0E70324A9E770B5002859D004460088E6
:10146000884202D80324204670BD20461E461546F9
:101470000A46294601F00CF904460028F3D12B69ED
:10148000588811F087FF41F2014398421ED004248E
:10149000002CE8D12D691EB1288911F07BFF308026
:1014A000049B23B1688911F075FF049B1880A889FB
:1014B00011F070FF064610F0010F0FD0059B6BB1C5
:1014C000286911F06CFF059B18600AE02B691888E9
:1014D00011F060FF1F28DBD80424D9E70023059A08
:1014E000136016F0020F07D0069B2BB1686911F04C
:1014F00056FF069B186002E00023069A1360079BC4
:10150000002BB0D0288B11F045FF079B1880AAE76D
:101510000324A8E770B500285AD004460088884202
:1015200002D80324204670BD20461E4615460A46B2
:10153000294601F0ADF804460028F3D12B695888FC
:1015400011F028FF41F2024398421ED00424002CDF
:10155000E8D12D691EB1288911F01CFF3080049B51
:1015600023B1688911F016FF049B1880A88911F037
:1015700011FF064610F0010F0FD0059B6BB1E889F3
:1015800011F008FF059B18800AE02B69188811F0FC
:1015900001FF1728DBD80424D9E70023059A13801C
:1015A00016F0020F07D0069B2BB1288A11F0F2FE2D
:1015B000069B188002E00023069A1380079B1B8875
:1015C000002BAFD0688A11F0E5FE079B1880A9E7D1
:1015D0000324A7E7F0B589B0E8B11E4614460B46D0
:1015E0000822009241F2014203A901F023FA0546C4
:1015F00090B9049F204611F0CDFEB88114F0010F80
:1016000004D100233B610023FB8105E0304611F04B
:10161000C6FE3861F7E70325284609B0F0BDF0B5EE
:1016200089B0002852D004460088884203D8032499
:10163000204609B0F0BD20461E4615460A4601A9BF
:1016400001F026F804460028F2D1059B588811F0D5
:10165000A1FEB0F5905F31D00424002CE8D1059FA5
:101660001DB1388911F096FE28801EB1788911F0DD
:1016700091FE30800E9B23B1F86811F090FE0E9B16
:1016800018600F9B13B13B7C0F9A1370109B13B122
:101690007B7C109A1370119B13B1BB7C119A137051
:1016A000129B13B1FB7C129A1370139B002BBFD0BB
:1016B000786911F074FE139B1860B9E7059B1888D0
:1016C00011F068FE1728C8D80424C6E70324AFE742
:1016D000F0B589B000284CD004460088884203D871
:1016E0000324204609B0F0BD20461E4615460A4692
:1016F00001A900F0CDFF04460028F2D1059B5888CF
:1017000011F048FE41F2012398422AD00424002C13
:10171000E7D1059F1DB1388911F03CFE28801EB12C
:10172000788911F037FE3080B88911F033FE0E9BB6
:101730002BB110F0010F02D0BB7B0E9A13700F9BE0
:101740002BB110F0020F02D0FB7B0F9A1370109B8D
:10175000002BC6D010F0040FC3D03B7C109A13703E
:10176000BFE7059B188811F015FE1328CFD8042475
:10177000CDE70324B5E7000070B588B0002837D066
:1017800015460B460822009241F2022203A901F0FD
:1017900051F9044668BB049E45B32B8813F0010F32
:1017A0001BD0AB78042B01D9032422E0B373AA78B1
:1017B000124B53F8222006F1100103A801F023F97F
:1017C000D0B1AA780D4B53F822002EF0D9F880B290
:1017D00011F0E0FD7082032002E000203082708270
:1017E0000023F37311F0D6FDB08102E00020F7E78B
:1017F0000324204608B070BD0624FAE7FC5A030013
:10180000F0B589B0002800F087800446008888423F
:1018100003D80324204609B0F0BD20461E461546D5
:101820000A4601A900F034FF04460028F2D1059BC6
:10183000588811F0AFFDB0F5805F5ED00424002C15
:10184000E8D1059F1DB1388911F0A4FD28801EB193
:10185000788911F09FFD30800E9B1BB107F10C03BE
:101860000E9A13600F9B3BB1B88A11F093FD0028CC
:101870004BD100230F9A1360109B23B1B86911F06C
:101880008EFD109B1860119B23B1F86911F087FD44
:10189000119B1860129B23B1386A11F080FD129BD6
:1018A0001860139B23B1786A11F079FD139B1860BF
:1018B000149B23B1B86A11F072FD149B1860159B3C
:1018C00023B1F86A11F06BFD159B1860169B23B1CC
:1018D000386B11F064FD169B1860179B23B1786B71
:1018E00011F05DFD179B1860189B002B92D0B86B10
:1018F00011F055FD189B18608CE7059B188811F0B6
:1019000049FD3B289BD8042499E7B88A11F042FD91
:1019100038440F9B1860AFE703247BE7F0B589B02C
:10192000002800F09A8004460088884203D80324E7
:10193000204609B0F0BD20461E4615460A4601A9BC
:1019400000F0A6FE04460028F2D1059B588811F04D
:1019500021FD41F20103984262D00424002CE7D11A
:10196000059F1DB1388911F015FD28801EB17889B9
:1019700011F010FD30800E9B1BB107F10C030E9A85
:1019800013600F9B3BB1B88A11F004FD00284FD1C2
:1019900000230F9A1360109B1BB107F11803109AD4
:1019A0001360119B3BB1F88A11F0F4FC002846D17A
:1019B0000023119A1360129B23B1386A11F0EFFCD7
:1019C000129B1860139B23B1786A11F0E8FC139BFB
:1019D0001860149B23B1B86A11F0E1FC149B1860E5
:1019E000159B23B1F86A11F0DAFC159B1860169B61
:1019F00023B1386B11F0D3FC169B1860179B23B1F1
:101A0000786B11F0CCFC179B1860189B002B8FD0C3
:101A1000388F11F0BFFCC8B90023189A136087E70C
:101A2000059B188811F0B6FC3B2897D8042495E74D
:101A3000B88A11F0AFFC38440F9B1860ABE7F88A06
:101A400011F0A8FC3844119B1860B4E7388F11F0EE
:101A5000A1FC3844189B18606AE7032468E7F0B5D6
:101A600089B000283FD004460088884203D8032468
:101A7000204609B0F0BD20461E4615460A4601A97B
:101A800000F006FE04460028F2D1059B588811F0AC
:101A900081FC41F2040398421DD00424002CE7D1BC
:101AA000059F1DB1388911F075FC28801EB1788919
:101AB00011F070FC30800E9B23B1B88911F06AFCE4
:101AC0000E9B18800F9B002BD2D0F88911F062FC7E
:101AD0000F9B1880CCE7059B188811F05BFC0F2842
:101AE000DCD80424DAE70324C2E7F0B589B0002883
:101AF0003FD004460088884203D80324204609B01A
:101B0000F0BD20461E4615460A4601A900F0C0FD5C
:101B100004460028F2D1059B588811F03BFC41F2A5
:101B2000050398421DD00424002CE7D1059F1DB168
:101B3000388911F02FFC28801EB1788911F02AFC19
:101B400030800E9B23B1B88911F024FC0E9B1880C5
:101B50000F9B002BD2D0F88911F01CFC0F9B188032
:101B6000CCE7059B188811F015FC0F28DCD804245D
:101B7000DAE70324C2E7F0B589B0002852D0044662
:101B80000088884203D80324204609B0F0BD2046CF
:101B90001E4615460A4601A900F07AFD04460028B3
:101BA000F2D1059B588811F0F5FB41F203039842EE
:101BB00030D00424002CE7D1059F1DB1388911F0E5
:101BC000E9FB28801EB1788911F0E4FB30800E9B80
:101BD000002BD9D0B88911F0DDFB0E9B1880F88955
:101BE00011F0D8FB0E9B5880386911F0D8FB0E9B82
:101BF0005860786911F0D3FB0E9B9860B86911F0BA
:101C0000CEFB0E9BD86007F11C030E9A136124379C
:101C10005761B9E7059B188811F0BCFB2B28C9D880
:101C20000424C7E70324AFE7F0B589B000287CD0CF
:101C300004460088884203D80324204609B0F0BD3A
:101C400020461E4615460A4601A900F021FD04461D
:101C50000028F2D1059B588811F09CFB41F2060345
:101C600098424AD00424002CE7D1059F1DB1388941
:101C700011F090FB28801EB1788911F08BFB308029
:101C80000E9B23B1B88911F085FB0E9B18800F9B2A
:101C900023B1F88911F07EFB0F9B1880109B1BB1BC
:101CA00007F11003109A1360119B3BB1388B11F0B0
:101CB00071FB034648B33B44119A1360129B3BB13E
:101CC000788B11F067FB034618B33B44129A1360FC
:101CD000139B3BB1B88B11F05DFB0346E8B13B446D
:101CE000139A1360149B002BA7D0F88B11F052FBB2
:101CF000B8B90023149A13609FE7059B188811F068
:101D000049FB1F28AFD80424ADE70023119A1360C4
:101D1000D4E70023129A1360DAE70023139A1360C2
:101D2000E0E70744149B1F6087E7032485E7F0B5CD
:101D300089B0002831D004460088884203D80324A3
:101D4000204609B0F0BD20461E4615460A4601A9A8
:101D500000F09EFC04460028F2D1059B588811F043
:101D600019FB41F2070398420FD00424002CE7D15D
:101D7000059F1DB1388911F00DFB2880002EDFD0A2
:101D8000788911F007FB3080DAE7059B188811F09D
:101D900001FB0B28EAD80424E8E70324D0E7F0B5D8
:101DA00089B0002854D004460088884203D8032410
:101DB000204609B0F0BD20461E4615460A4601A938
:101DC00000F066FC04460028F2D1059B588811F00B
:101DD000E1FA41F20803984232D00424002CE7D102
:101DE000059F1DB1388911F0D5FA28801EB1788978
:101DF00011F0D0FA30800E9B23B1F86811F0CFFAC1
:101E00000E9B18600F9B23B1386911F0C8FA0F9B25
:101E10001860109B23B1786911F0C1FA109B18600B
:101E2000119B23B1B86911F0BAFA119B1860129B8B
:101E3000002BBDD0F86911F0B2FA129B1860B7E719
:101E4000059B188811F0A6FA1F28C7D80424C5E7F7
:101E50000324ADE7F0B589B0002836D004460088E9
:101E6000884203D80324204609B0F0BD20461E4610
:101E700015460A4601A900F00BFC04460028F2D1E1
:101E8000059B588811F086FA41F20903984214D054
:101E90000424002CE7D1059F1DB1388911F07AFA8E
:101EA00028801EB1788911F075FA30800E9B002BC6
:101EB000D9D03B7B0E9A1370D5E7059B188811F09B
:101EC00069FA0F28E5D80424E3E70324CBE760B1DF
:101ED00000B589B00B46002200924FF4805203A94E
:101EE00000F0A8FD09B05DF804FB03207047F0B5D1
:101EF00089B0002800F0AF801F4614460B46202210
:101F0000009241F2030203A900F094FD0546002867
:101F100040F0A280049E204611F03CFAF081384641
:101F200011F03DFA30610E9811F039FA70610F9B93
:101F300023B31A685B68F26133621724109B2BB1DC
:101F40001A685B687262B36244F02004032011F0E7
:101F500021FA3083119B002B7AD0142206F11A014A
:101F600003A800F025FD074644F0080011F012FA1E
:101F7000B081119B986818B903256DE00724DDE74F
:101F800011F00DFA3861119B188811F003FA78806E
:101F9000119B1B88032B0BD0013B9BB2012B36D925
:101FA00040F2011000237B8111F0F4F9388053E0F6
:101FB000119B586801F0F0FC08B903254CE0119B17
:101FC000586811F0ECF9F860119B9A89531E9BB286
:101FD000012B01D903253FE03A71119BDA89531E89
:101FE0009BB2012B01D9032536E07A71119B1A8A25
:101FF000531E9BB2012B32D8BA71119B5A8A531EC1
:102000009BB2012B2DD8FA7140F29F10CAE7119BA9
:10201000586801F0FDFC08B903251DE0119B5868C4
:1020200011F0BDF9F860119BDA89531E9BB2012BA8
:1020300001D9032510E07A72119B9A89531E9BB235
:10204000022B01D9032507E03A7240F2E110A9E71B
:102050000023738300E00325284609B0F0BD032563
:10206000FAE70325F8E770B588B0E0B114460B46EF
:102070000422009241F2060203A900F0DBFC0546AF
:1020800090B9049E5CB1224606F10E0103A800F04F
:10209000BAFC60B1012011F07DF9B08104E00023A9
:1020A000B381F38100E00325284608B070BD062502
:1020B000FAE760B100B589B00B460022009241F208
:1020C000010203A900F0B6FC09B05DF804FB03208F
:1020D0007047F0B589B0002836D0044600888842A1
:1020E00003D80324204609B0F0BD20461E461546FD
:1020F0000A4601A900F0CCFA04460028F2D1059B5B
:10210000588811F047F9B0F5804F15D00424002C01
:10211000E8D1059F15B107F108032B601EB138699E
:1021200011F03DF930600E9B002BDBD0786911F087
:1021300036F90E9B1860D5E7059B188811F02AF92F
:102140001728E4D80424E2E70324CBE7F0B589B0EC
:10215000002837D004460088884203D8032420464C
:1021600009B0F0BD20461E4615460A4601A900F0FA
:102170008FFA04460028F2D1059B588811F00AF91D
:1021800044F20103984215D00424002CE7D1059FA6
:1021900015B107F108032B601EB1388A11F0FAF867
:1021A00030800E9B002BDAD0788A11F0F3F80E9B6A
:1021B0001880D4E7059B188811F0ECF81328E4D8B0
:1021C0000424E2E70324CAE7F0B589B0002800F050
:1021D000878004460088884203D80324204609B03B
:1021E000F0BD20461E4615460A4601A900F050FAE9
:1021F00004460028F2D1059B588811F0CBF841F233
:10220000011398423DD00424002CE7D1059F1DB155
:10221000388911F0BFF828801EB1788911F0BAF81A
:102220003080F86811F0BBF805460E9B13B13B7C7B
:102230000E9A13700F9B2BB115F0010F02D07B7C0F
:102240000F9A1370109B2BB115F0020F02D0BB7CBC
:10225000109A1370119B43B115F0040F19D115F0AA
:10226000080F1CD115F0100F1FD1129B13B115F0E0
:10227000200F20D115F0400F26D10023139A1360B0
:10228000ACE7059B188811F085F82728BCD80424F2
:10229000BAE7786911F083F8119B1860DFE7B86935
:1022A00011F07DF8119B5860DCE7F86911F077F8C0
:1022B000119B9860D9E7386A11F071F8129B186089
:1022C0000223129A9380D5E7B88C11F063F80028A6
:1022D000D3D0B88C11F05EF83844139B18607DE7BA
:1022E00003247BE770B5002847D004460088884265
:1022F00002D80324204670BD20461E4615460A46D5
:10230000294600F0C5F904460028F3D12B69588806
:1023100011F040F8B0F5885F27D00424002CE9D1F3
:102320002D691EB1288911F035F83080049B23B146
:10233000688911F02FF8049B1880059B002BD9D0D9
:10234000E86811F02CF8059B1860288A11F022F833
:10235000059B9880E88A11F01DF8059BD880A88B12
:1023600011F018F8059B1881C4E72B69188811F043
:1023700011F81F28D2D80424D0E70324BAE72DE9A6
:10238000F04788B0002855D004461E4617460D4633
:10239000D0F81080B8F8100010F0FCFFA84201D867
:1023A000032448E0B8F8140010F0F4FF8146B8F8B0
:1023B000100010F0EFFF8246B8F8120010F0EAFFAC
:1023C000022807D910F0030F04D0033080B220F0A8
:1023D000030080B2009053464A4603A9204600F00D
:1023E000B3F9044638BB069A05EB85018B00D51876
:1023F0001FB1D05A10F0CEFF38801EB1688810F09F
:10240000C9FF3080109B23B1686810F0C8FF109B93
:102410001860119B33B12B4653F8082F11990A60AD
:102420009B888B80129B33B1E88910F0B3FF129B1D
:10243000188000E00324204608B0BDE8F0872DE9AD
:10244000F04788B000286FD00746984691460D4661
:102450000669308A10F09EFFA84201D8032464E088
:10246000B08A10F097FF0446308A10F093FF82463E
:10247000708A10F08FFF022807D910F0030F04D0E4
:10248000033080B220F0030080B200905346224611
:1024900003A9384600F058F90446002845D105EB59
:1024A00085018B00069C1C44608A10F073FF054672
:1024B000E08910F06FFF0646208A10F06BFF0228BB
:1024C00007D910F0030F04D0033080B220F00300CE
:1024D00080B2009033462A4603A9384600F034F90A
:1024E000044610BB069B4FEA09129D18B8F1000F75
:1024F00004D0985A10F04EFFA8F80000109B23B1AA
:10250000686810F04CFF109B1860129B23B1E868BC
:1025100010F045FF129B1860119B33B1A86810F0B2
:102520003EFF119B186000E00324204608B0BDE880
:10253000F08760B100B589B00B46002200924FF4DD
:10254000885203A900F076FA09B05DF804FB032075
:102550007047F0B58BB017461D46182300930B4605
:1025600041F2011205A900F065FA0646C8B9069CB9
:10257000D7B1A77301270023E3734DB32868A8B927
:102580006868C8B9A868E8B9109B002B4BD008232D
:1025900001220DEB030105A800F05BFA034620B30E
:1025A0001E4630460BB0F0BD0027E4E710F0F7FE02
:1025B000206147F00207E3E710F0F1FE606147F0A9
:1025C0000407DFE710F0EBFEA06147F00807DBE748
:1025D000002010F0E4FE2061002010F0E0FE6061B9
:1025E000002010F0DCFEA061CEE7BDF80830E383E8
:1025F000082010F0CFFEA083049D109B186880B1C6
:102600009B880BB90323CBE710F0C9FE2860109B11
:10261000988810F0BFFEA8800023EB8047F01007D9
:1026200004E00323BCE70023E383A3830023638444
:10263000119B6BB11A4604F1200105A800F0E3F9E3
:1026400048B147F02007384610F0A4FEA081A8E763
:1026500000232384F7E70626A3E7A8B110B50446B4
:10266000A1B10AB9032010BD41600280088810F0B2
:1026700091FE072801D8042010BD6368988810F0E7
:1026800089FE2081002010BD03207047032010BD6B
:10269000002855D0F8B50646002953D012F0030F94
:1026A00001D00320F8BD15460C462060A280436887
:1026B0009A180A61585B10F06DFEE0802369588813
:1026C00010F068FE20812369988810F063FE608115
:1026D0002369D88810F05EFEA081E1886789CB1B52
:1026E0009BB21B1A083BE38111F0030F01D00420B9
:1026F000F8BD6A1833889A4201DD0420F8BD072925
:1027000001D80420F8BD17F0030F02D110F0030F19
:1027100006D0228948F205039A4201D00420F8BD70
:102720003B180833994201D20420F8BD23690833CD
:10273000636118B11F44A7610020F8BD0027FAE7C4
:10274000032070470320F8BDF0B4BDF8104000B37B
:10275000054601B313B90320F0BC70470CB9032040
:10276000FAE712F0030F01D00320F5E713FB04F0A2
:1027700080B28718EE88B74201DD0420ECE70D60D7
:102780008B80CC8008812B691A44CA6000200861C4
:10279000E2E70320E0E70320DEE789B10B4688B1DA
:1027A000816989B110B41A44C488A2420EDC006960
:1027B0001844814202D85DF8044B70470020FAE7C4
:1027C0000020704700207047002070470020F2E78B
:1027D00038B505460C460122FFF7DFFF58B1024627
:1027E00021462B695B5C23B1EB88994205D201310C
:1027F000F7E7104638BD002038BD002038BD08B5C9
:102800004369188810F0C6FD08BD08B543695888AB
:1028100010F0C0FD08BD00B338B50546F9B10AB9DE
:10282000032038BD072A01D8062038BD0C46296090
:1028300082800820E88010F0ADFD20802C68012007
:1028400010F0A8FD60802C684FF4805010F0A2FDBD
:10285000A0802B680020D88038BD0320704703205B
:1028600038BD0346C08811F0030F04D0033189B28C
:1028700021F0030189B2014489B29A88914205D8B6
:1028800080081A6802EB8000D980704700207047EA
:10289000F8B505460C464368188810F07BFD0646DF
:1028A00021462868FFF7DDFF074668B114F0030FE3
:1028B00004D00334A4B224F00304A4B230196C6829
:1028C00080B210F067FD20803846F8BDF8B50446A8
:1028D0000D4616464368188810F05CFD07463146E1
:1028E0002046FFF7D5FF044620B11DB1384610F051
:1028F00051FD28802046F8BD48B32DE9F84307462E
:1029000039B3984616460C4603F10805ADB2294680
:10291000FFF7A7FF8146F8B127606060284610F0F6
:1029200039FDA9F800006568304610F033FD688075
:102930006568404610F02EFDA88063680020D880AE
:1029400063680833A360E0602061BDE8F88303207A
:1029500070470320BDE8F8830620BDE8F88370B512
:102960000E461D460423FFF7C7FF044608B1204664
:1029700070BDB668284610F00DFD308000237380CE
:10298000F5E778B138B5044602686AB10D46FFF73D
:102990007FFF58B1E0606468284610F0FBFCE080DF
:1029A000002038BD03207047032038BD062038BD05
:1029B00038B500B122B971B100240C80204638BD71
:1029C0001546FFF783FF04460028F7D02A4600216A
:1029D0002CF0BCF8F2E70024F0E770B50BB11E460E
:1029E00022B971B100240C80204670BD1546FFF756
:1029F000DFFF04460028F7D02A4631462BF0A8FF17
:102A0000F2E70024F0E77AB170B515460C460646A9
:102A100010462CF0B5FF82B201322B4692B221460D
:102A20003046FFF7DAFF70BD11B100200880704713
:102A30000020704710B50C46FFF791FF034608B120
:102A4000184610BDBDF808102046FFF79AFF034650
:102A5000F6E708B3F8B5044601B30AB90320F8BD98
:102A60000BB90320F8BD12FB03F7BFB217F0030F39
:102A700004D00337BFB227F00307BFB220461E467B
:102A800015460C463A46FFF793FF48B16580A6808D
:102A9000E780A0600020F8BD032070470320F8BD48
:102AA0000620F8BDF8B5B8B10C4615461E4699B1DA
:102AB000C2B1CEB112FB06F292B20431FFF778FF39
:102AC000074638B1284610F065FC2080304610F0EB
:102AD00061FC60803846F8BD044B054A1C2105485E
:102AE0002BF09EF80027F5E70027F3E7A85B03002B
:102AF000385B0300C05B03002DE9F84348B10C4686
:102B0000154606462AB121B18B8843B90B20BDE892
:102B1000F8831E4B1E4A3A211E482BF081F84B8841
:102B200013B90320BDE8F883088810B90320BDE875
:102B3000F88310F02FFC074620B1A38833B9042096
:102B4000BDE8F8832E60A880BDE8F883608810B9DE
:102B50000420BDE8F88310F01DFC814617FB00F847
:102B60001FFA88F8A08810F015FC4246014630464E
:102B7000FFF713FEA86030B12E60AF80A5F8069075
:102B80000020BDE8F8830420BDE8F883E45B03007F
:102B9000605B0300C05B030008B570B103460268C8
:102BA0005AB182888A4214D9C08860B19B6853B1F7
:102BB00011FB00F113FA81F008BD074B074A6921A8
:102BC00007482BF02DF8074B044A6E2104482BF0E0
:102BD00027F8002008BD00BF085C0300845B0300E9
:102BE000C05B0300305C0300F0B589B000283BD027
:102BF00004460088884203D80324204609B0F0BD6B
:102C000020461E4615460A4601A9FFF741FD044627
:102C10000028F2D1059B588810F0BCFB41F201332B
:102C2000984219D00424002CE7D1059F1DB13889A2
:102C300010F0B0FB28801EB1788910F0ABFB30801B
:102C40000E9B13B13B7B0E9A13700F9B002BD4D0BD
:102C50007B7B0F9A1370D0E7059B188810F09AFBC6
:102C60000F28E0D80424DEE70324C6E7F0B589B0D6
:102C7000002800F09D8004460088884203D8032481
:102C8000204609B0F0BD20461E4615460A4601A959
:102C9000FFF7FEFC04460028F2D1059B588810F08F
:102CA00079FB41F2023398422DD00424002CE7D165
:102CB000059F1DB1388910F06DFB28801EB1788901
:102CC00010F068FB3080B88910F064FB054610F006
:102CD000010F20D10E9B13B100230E9A13800F9B7E
:102CE00013B100230F9A136015F0020F39D1109B16
:102CF00013B10023109A1380119B002BC0D0002326
:102D0000119A1360BCE7059B188810F043FB1F283D
:102D1000CCD80424CAE7388A10F03CFB06460E9B48
:102D20002BB110F0010F0CD100230E9A13800F9BD2
:102D3000002BD9D016F0020F09D100230F9A13608F
:102D4000D2E7788A10F026FB0E9B1880EFE77869AF
:102D500010F025FB174BA3FB00239B090F9A136070
:102D6000C2E7388B10F016FB0546109B2BB110F014
:102D7000010F0DD10023109A1380119B002B3FF4FB
:102D80007FAF15F0020F09D10023119A136077E786
:102D9000788B10F0FFFA109B1880EEE7F86910F0BE
:102DA000FEFA044BA3FB00239B09119A136067E70B
:102DB000032465E7D34D6210F0B587B0002840D0FA
:102DC00005888D4203D80324204607B0F0BD002AB1
:102DD00039D01E4615460A462946FFF759FC0446D7
:102DE0000028F1D12B69588810F0D4FA41F203334E
:102DF00098421ED00424002CE6D12F691EB13889D8
:102E000010F0C8FA30800C9B23B1788910F0C2FA18
:102E10000C9B18800D9B002BD6D001A9284600F0F2
:102E20005FFB04460028CFD1BDF808300D9A13800F
:102E3000CAE72B69188810F0ADFA0F28DBD80424F4
:102E4000D9E70324C0E70324BEE708B500F0F8FF84
:102E500008BDF0B587B000283ED005888D4203D864
:102E60000324204607B0F0BD1E4615460A462946F3
:102E7000FFF70EFC04460028F3D12B69588810F0A8
:102E800089FA41F2043398421ED00424002CE8D180
:102E90002F691EB1388910F07DFA30800C9B23B168
:102EA000788910F077FA0C9B18800D9B002BD8D0F6
:102EB00001A9284600F014FB04460028D1D1BDF832
:102EC00008300D9A1380CCE72B69188810F062FA4D
:102ED0000F28DBD80424D9E70324C2E7F8B500287B
:102EE0003CD004460088884202D803242046F8BD1E
:102EF000002A35D020461E4615460A462946FFF7C9
:102F0000C7FB04460028F1D12B69588810F042FA1B
:102F100041F20733984219D00424002CE6D12F69DE
:102F20001EB1388910F036FA3080069B23B17889BB
:102F300010F030FA069B1880079B002BD6D0AB69A7
:102F4000188810F027FA079B1880CFE72B6918889C
:102F500010F020FA0F28E0D80424DEE70324C5E7A8
:102F60000324C3E7002833D02DE9F04104461F466F
:102F700090460D468669308810F00CFAA84202D8B7
:102F80000320BDE8F081B08810F004FA236910B97D
:102F90002420BDE8F08100EBC5015C18B8F1000FFA
:102FA00004D0585A10F0F6F9A8F800001FB1608854
:102FB00010F0F0F93880069B13B12379069A13704C
:102FC000079B3BB16379079A13700020BDE8F0813D
:102FD000032070470020BDE8F081F0B587B00028DD
:102FE0003ED005888D4203D80324204607B0F0BDAB
:102FF0001E4615460A462946FFF74AFB04460028A6
:10300000F3D12B69588810F0C5F941F20533984285
:103010001ED00424002CE8D12F691EB1388910F08D
:10302000B9F930800C9B23B1788910F0B3F90C9B6F
:1030300018800D9B002BD8D001A9284600F050FA2B
:1030400004460028D1D1BDF808300D9A1380CCE792
:103050002B69188810F09EF90F28DBD80424D9E7D3
:103060000324C2E710B582B0049C009400F08CFFEA
:1030700002B010BD10B582B0049C009401F002F8BB
:1030800002B010BDF0B587B000283ED005888D4253
:1030900003D80324204607B0F0BD1E4615460A4655
:1030A0002946FFF7F5FA04460028F3D12B69588822
:1030B00010F070F941F2063398421ED00424002C1F
:1030C000E8D12F691EB1388910F064F930800C9B6B
:1030D00023B1788910F05EF90C9B18800D9B002BB2
:1030E000D8D001A9284600F0FBF904460028D1D128
:1030F000BDF808300D9A1380CCE72B69188810F0C2
:1031000049F90F28DBD80424D9E70324C2E7F8B52E
:1031100000283CD004460088884202D80324204678
:10312000F8BD002A35D020461E4615460A462946D7
:10313000FFF7AEFA04460028F1D12B69588810F049
:1031400029F941F20833984219D00424002CE6D121
:103150002F691EB1388910F01DF93080069B23B10C
:10316000788910F017F9069B1880079B002BD6D0A2
:10317000AB69188810F00EF9079B1880CFE72B6910
:10318000188810F007F90F28E0D80424DEE703249C
:10319000C5E70324C3E708B330B58BB01AB90321E0
:1031A00008460BB030BD0BB90321F9E79A4201D9AB
:1031B0000321F5E71D4614460B460022009241F21A
:1031C000033203A900F0ACFC01460028E8D12A46EE
:1031D000214603A800F0C4FC0146E1E703210846AC
:1031E000704708B330B58BB01AB9032108460BB04D
:1031F00030BD0BB90321F9E79A4201D90321F5E764
:103200001D4614460A46BDF838300093002303A932
:1032100000F0CEFC01460028E8D12A46214603A84A
:1032200000F09EFC0146E1E7032108467047F0B537
:103230008BB018B31AB9032630460BB0F0BDFBB102
:103240001D4617460B4601920822009241F20932B0
:1032500002A900F05DFD06460028EDD10024BC4225
:10326000EAD204EB44039900681883684268695AFB
:1032700002A800F07DFD28B90134F0E70326DBE762
:103280000326D9E70646D7E781617047F0B58FB0CE
:10329000002845D0002A45D014460A462388A18A32
:1032A00000250195009103A900F0F2FC06460028D4
:1032B00039D1616803A800F00BFD0646002832D121
:1032C000089D208A10F066F82886089DA06810F0F6
:1032D00066F8A862089D608A10F05CF86886089D10
:1032E000E06810F05CF8E862089D012385F824305E
:1032F000022010F04FF8E886089DA08A10F04AF8E6
:10330000A886002508E00A9FA36933F8150010F08D
:1033100041F827F815000135A38A9D42F3D302E056
:10332000032600E0032630460FB0F0BD70B528B18B
:103330000C46064641B90325284670BD0A4B0B4A88
:103340003F210B482AF06CFC0821FFF71AFB0546C9
:103350000028F1D1F668204610F01CF87080002398
:103360003380B380F380E7E7205D03005C5C0300FB
:10337000305D03002DE9F047E0B10E468046C46899
:10338000C4B100293BD0608810F004F8814616FBD8
:1033900000F7BFB2A3889BB93A46211D4046FFF70C
:1033A00007FB054670B330460FF0F4FF2080284637
:1033B000BDE8F087164B174A5B2117482AF030FC0E
:1033C00020880FF0E7FF8246D8F80450A0880FF05D
:1033D000E1FF09FB0A00054439464046FFF758FA69
:1033E00090B13A46002128462BF0B0FB06EB0A00CC
:1033F00080B20FF0CFFF20802846BDE8F087002084
:10340000BDE8F087BDE8F0870020BDE8F08700BF89
:10341000545D0300785C0300305D030070B5064620
:103420000C46154606222946FFF7B7F926602061AB
:10343000031DE36000880FF0ADFFA0800223E3804E
:103440000138400020810435F3889D4201D90D20C8
:1034500070BD002070BD000038B504693CB10D4658
:1034600020880FF097FFA84207D8002038BD064BF0
:10347000064AF92106482AF0D3FB04EB4504A0884C
:103480000FF088FF38BD00BFB85B03009C5C0300F1
:10349000305D030070B506461446FFF7DDFFC0B18E
:1034A000054684B9022201463068FFF776F90446E2
:1034B00088B100880FF06EFF28443368DB8898429B
:1034C0000BDC204670BD224601463068FFF765F9E7
:1034D00070BD002070BD002070BD002070BD0000D8
:1034E00038B568B10D46044651B183697BB118887F
:1034F0000FF050FF024629462046FFF78FFF38BDE8
:10350000044B054A4FF4AB7104482AF089FB0320B1
:1035100038BD00BFE05D0300B45C0300305D030014
:103520002DE9F041D8B10D4616460446B9B1042143
:10353000FFF727FA074678B9E16800234B80012E90
:1035400014D9721E9200083292B22046FFF730FA68
:1035500080462C6068605EB93846BDE8F081074B54
:10356000074A4FF4D47107482AF05AFB0822ECE7C7
:1035700030460FF00FFFA8F80200EDE7C05D030032
:10358000D85C0300305D03002DE9F843A0B1894603
:103590009046064603687BB144686CB160880FF0C2
:1035A000F9FE074620880FF0F5FE05465FB1874219
:1035B0000AD80620BDE8F883114B124A4FF4FD717A
:1035C00011482AF02DFB88B948460FF0E3FE04EBC2
:1035D0008506B08040460FF0DDFEF080681C80B2AA
:1035E0000FF0D8FE20800020BDE8F8830421306869
:1035F000FFF74EF90028E7D10620BDE8F88300BFA9
:103600007C5D0300005D0300305D030041F2083380
:10361000984200F01A8100F2868041F2011398422C
:1036200000F003813FD841F20503984200F0F58095
:103630001CD841F20203984200F0EB800AD8B0F5A2
:10364000805F00F0E48041F20103984240F01D8168
:103650008F48704741F20303984200F0DC8041F24A
:103660000403984240F011818A48704741F20803F0
:10367000984200F0D6800BD841F20603984200F041
:10368000CE8041F20703984240F0FF8082487047A5
:1036900041F20903984200F0C680B0F5885F40F01F
:1036A000F4807E48704741F20233984200F0C580B2
:1036B0001BD841F20223984200F0BB800AD8B0F533
:1036C000905F00F0B48041F20123984240F0DD8029
:1036D00073487047B0F5985F00F0AD8041F2013358
:1036E000984240F0D2806F48704741F205339842CB
:1036F00000F0A7800BD841F20333984200F09F807E
:1037000041F20433984240F0C0806748704741F26C
:103710000633984200F0978041F20733984240F018
:10372000B4806248704741F20343984200F09D80A4
:1037300039D841F20E33984200F091801BD841F203
:103740000B33984200F085800AD841F20933984241
:103750007DD041F20A33984240F097805448704738
:1037600041F20C33984276D041F20D33984240F04A
:103770008C8050487047B0F5A05F72D009D841F2F4
:103780000F33984269D041F2103398427DD14A48B4
:10379000704741F20143984265D041F2024398429A
:1037A00073D146487047B0F5004F66D016D841F245
:1037B000025398425DD008D8B0F5A85F57D041F2C7
:1037C0000153984261D13E487047B0F5804F52D0C6
:1037D00044F20103984258D13A48704748F2030333
:1037E00098424ED009D848F20103984247D048F297
:1037F0000203984249D13448704748F20403984282
:1038000041D048F2050398423FD1304870473048D4
:1038100070473048704730487047304870473048EC
:1038200070473048704730487047304870473048DC
:1038300070473048704730487047304870473048CC
:1038400070473048704730487047304870473048BC
:1038500070473048704730487047304870473048AC
:10386000704730487047304870473048704730489C
:10387000704730487047304870473048704730488C
:10388000704730487047304870473048704700BF35
:10389000085E0300345E0300645E0300945E030070
:1038A000C05E0300F05E0300405F0300A05F030002
:1038B000EC5F03003C600300A8600300DC600300D1
:1038C000086103004C61030090610300DC610300A8
:1038D000F85D0300145E0300245E0300445E0300F1
:1038E000545E0300745E0300805E0300A45E030068
:1038F000B45E0300D05E0300E05E0300045F0300DB
:10390000205F0300605F0300805F0300B85F030077
:10391000D05F0300046003002060030060600300C8
:1039200084600300BC600300C8600300F060030013
:10393000FC60030020610300386103006061030044
:1039400080610300A8610300C4610300F461030007
:1039500005280ED8DFE800F0030F0507090B07481C
:10396000704707487047074870470748704707483F
:103970007047074870470748704700BFF861030069
:10398000106203002C6203004862030060620300BF
:10399000F461030004620300154B984218D00DD95E
:1039A000144B984214D01BD8A3F58F03A3F28C6359
:1039B00098420DD0104B984210D109E00F4B98421D
:1039C00006D007D90E4B984202D00E4B984205D133
:1039D000012070474BF6BC639842F9D00020704735
:1039E000094B9842F4D0094B9842F7D1F0E700BF59
:1039F000C2EB0B00105E5F0008AF2F00787D010066
:103A0000F0FA0200E1F5050020BCBE0040787D011F
:103A1000B0F5164F0ED007D8B0F5165F0AD0B0F546
:103A2000964F07D000207047B0F5614F02D0B0F537
:103A3000E13FF7D101207047002303704A1C8354F3
:103A4000023101F01F0304E0FF234354013101F070
:103A50001F03002BF8D1084670470000F8B5264C2C
:103A60002488B4F5027F01D90620F8BD234D2F78B4
:103A7000012F12D01E4615461FB1022F19D01C204F
:103A8000F8BD08B11C20F8BD01221C4B1A70002E95
:103A900029D00798B0471C20F8BD30B30855013431
:103AA000A4B2154B1C8014600222144B1A701C2007
:103AB000F8BD68B108550134A4B20F4B1C801460E6
:103AC000AEB1069BABB198470798B0471C20F8BD34
:103AD000069B03B19847084B1A882A600020074AC2
:103AE00010701880F8BD1C20F8BD1C20F8BD1C20EB
:103AF000F8BD1C20F8BD00BF080E00200A0E0020F3
:103B000008B504482BF0DEF80023034A1370034A7B
:103B1000138008BD746203000A0E0020080E002006
:103B200038B538B10C4629B1FEF719FF034638B154
:103B3000184638BD074B084A232108482AF070F878
:103B4000BDF8102004F114012046FFF7E9FC0346FC
:103B5000EEE700BFF4630300946203001064030007
:103B600008B518B11430FFF70FFD08BD024B034A2A
:103B7000382103482AF054F854640300B462030067
:103B80001064030010B538B1C4682CB108460FF0BA
:103B900001FC6080002010BD024B034A61210348F4
:103BA0002AF03EF89C630300D8620300106403000F
:103BB00010B582B00C460093134641F21032FFF765
:103BC000AFFF034610B1184602B010BDBDF810108B
:103BD0002046FFF7D7FF0346F5E72DE9F04182B015
:103BE00005460C4617461E46BDF824802C220021AF
:103BF00020462AF0ABFF402300933B463246214645
:103C00002846FEF717FF054618B1284602B0BDE862
:103C1000F081E06860614026324600212AF096FF7C
:103C2000676930460FF0B6FB38806669BDF8200042
:103C30000FF0B0FB7080B8F1000FE6D06169082387
:103C400042463A312046FEF72DFFA0620028DCD123
:103C50000625DAE730B583B00C46BDF82050019553
:103C6000BDF818500095FFF7B8FF054610B128467B
:103C700003B030BD61690223BDF81C2034312046F9
:103C8000FEF710FFE0610028F1D10625EFE7000004
:103C900010B584B078B1044669B1BDF81C0002903B
:103CA000BDF818000190009341F20D332046FFF754
:103CB000D1FF04B010BD034B034AC521034829F0CE
:103CC000AFFF00BF38640300046303001064030007
:103CD00010B540B1436933B111B191F9002042B937
:103CE0000020988010BD074B074AD421074829F0CF
:103CF00097FF0A46191DFEF786FE08B1002010BD89
:103D0000062010BDC8630300346303001064030081
:103D100070B5BDF8146028B10C4619B14EB9032531
:103D2000284670BD0F4B104A40F2D9110F4829F0B8
:103D300077FFFEF714FE05460028F1D1BDF81010FC
:103D40002046FFF7F3FA05460028E9D13146204620
:103D5000FFF710FB606118B1A6610023E361DFE7A4
:103D60000625DDE7DC6303005863030010640300ED
:103D70002DE9F04704461D469046A2B192F9003065
:103D8000A3B94FF00009A5B195F900309BB9002205
:103D90009CB166698EB1A3697BB1E769BB4213D858
:103DA0000D20BDE8F0874FF00009ECE74FF0010966
:103DB000E9E70022ECE70122EAE71E4B1E4A4FF436
:103DC000FF711E4829F02CFF4A4502D00320BDE8B0
:103DD000F08706EBC70A08460FF0DCFA26F8370032
:103DE0000023AAF80230B9F1000F0AD10023AAF883
:103DF0000430AAF80630E3690133E3610020BDE82E
:103E0000F08742460AF104012046FEF7FCFD68B146
:103E10002A460AF106012046FEF7F5FD0028EAD100
:103E20000023AAF804300620BDE8F0870620BDE88C
:103E3000F08700BF60640300786303001064030030
:103E40002DE9F0438DB0002800F095808046002ACF
:103E500000F093801F4615460E4607A9FFF740FB6A
:103E60000446002840F08A80BDF82030B34201D8D3
:103E7000032483E01C2231460DEB0200FFF70AFB0E
:103E8000064600287ED040880FF084FA2880B0884B
:103E900000282CD100236B60F08800282ED13089B7
:103EA0000FF078FA688270890FF074FAA882B089EE
:103EB00000284BD10023AB61308A0FF06BFAA88346
:103EC000B37CAB77F37CEB77B08A002845D1002335
:103ED0002B62F08A002847D100236B62308B0FF0F1
:103EE00059FA2885708B0FF055FA688546E0D8F8A6
:103EF00010900FF04FFA48446860CDE70FF04AFA8F
:103F0000102300930123024602A94046FEF71CFC41
:103F100028B100232B81EB602B823B80BFE7DDF8CB
:103F20001490B9F802000FF035FA2881D9F804008E
:103F30000FF035FAE860B9F808000FF02BFA288284
:103F4000B9F80A000FF026FA3880A8E7D8F8107000
:103F50000FF020FA3844A861AEE7D8F810700FF0DF
:103F600019FA38442862B4E7D8F810700FF012FA42
:103F700038446862B2E7032400E0032420460DB011
:103F8000BDE8F0832424F9E72DE9F04387B00E9EC5
:103F900000286CD00546002E6BD0994690460F46FF
:103FA00001A9FFF79DFA0446002863D1BDF8083047
:103FB000BB4201D803245DE04022394601A8FFF747
:103FC00069FA0746002859D040880FF0E3F930809D
:103FD000B888002843D100237360F8880FF0DAF91D
:103FE000308138890FF0D6F9708178890FF0D2F9D5
:103FF000B081F8680FF0D3F9306138690FF0CFF96C
:10400000706197F82430337697F82630737697F8F6
:104010002730B376B86A0FF0C2F9F061F86A0FF092
:10402000BEF9174BA3FB00239B093362388E0FF0B8
:10403000B1F9B084788E0FF0ADF9F084B8F1000FCB
:1040400004D0B88E0FF0A6F9A8F80000B9F1000F5F
:1040500010D0788F0FF09EF9A9F800000AE00FF059
:1040600099F901462846FEF7B3FB7060B5E70324D3
:1040700000E00324204607B0BDE8F0832424F9E7DC
:10408000D34D62102DE9F04188B0002839D0804628
:104090001F4616460C4603A9FFF722FA054688BBC1
:1040A000BDF81030A34201D803252BE04022214661
:1040B00003A8FFF7EFF9044640B3408F0FF06AF909
:1040C000B04201D803251DE06A4604F13A0140469A
:1040D000FEF712FD0546A8B931466846FEF75CFDBD
:1040E000044648B140680FF05AF9386060880FF014
:1040F00051F90E9B188005E000233B600E9A138057
:1041000000E00325284608B0BDE8F0812425F9E742
:1041100070B50C461546064608B101B18AB91EB104
:1041200034B14DB1032070BD11482AF0CBFDF7E743
:1041300010482AF0C7FDF4E70F482AF0C3FD03201A
:1041400070BD7160328048880FF024F9072806D9C5
:1041500073681A7832725B787372002070BD73686E
:104160000822598805482AF04BFD042070BD00BF85
:1041700088640300B0640300D0640300F0640300AB
:1041800028B131B143681B790B70002070470320C0
:10419000704700207047034678B1426810790128C3
:1041A00001D0042070471B880B2B01D804207047D6
:1041B00029B1137A0B70002070470320704700204C
:1041C0007047034698B1A1B10AB903207047072A86
:1041D00001D806207047016082800020D8800860E6
:1041E00048601A68012111701B68587070470320DD
:1041F00070470320704708B370B50446C2880AB1FF
:10420000052070BD066832790AB1052070BD82882C
:104210000B2A01D8062070BD0D46012333710C20F6
:104220000FF0B8F8708008200FF0B4F8F080357205
:104230000020707270810C23E38070BD03207047F2
:10424000A8B32DE9F8430446C58815B10520BDE89B
:10425000F8830768387910B10520BDE8F883A58890
:1042600003F10C00854202D20620BDE8F8831E4609
:1042700090460D4602233B711FFA80F948460FF025
:1042800089F878800C200FF085F8F88028460FF028
:1042900081F8388100257D812068324641460C3006
:1042A0002AF056FBA4F806902846BDE8F8830320C0
:1042B00070472DE9F047BDF82460002839D0044646
:1042C000C58815B10520BDE8F0870768387910B1B9
:1042D0000520BDE8F087A58806F11000854202D2CE
:1042E0000620BDE8F087984615468A4603233B71B1
:1042F0001FFA80F948460FF04DF8788010200FF033
:1043000049F8F88050460FF045F8388128460FF0FC
:1043100041F8788140460FF042F8F8602068324654
:10432000089910302AF014FBA4F806900020BDE88C
:10433000F0870320BDE8F087A0B30346C08808B12A
:10434000052070472DE9F0411868047914B1052063
:10435000BDE8F0819D8802F10804A54202D2062042
:10436000BDE8F0811C4615460E4605230371D4F8BE
:10437000008002F10807BFB238460FF00BF8A8F82A
:104380000200D4F8008008200FF004F8A8F8060016
:1043900020682A46314608302AF0DAFAE780002001
:1043A000BDE8F0810320704700B587B004AB0093EF
:1043B00005AB03AAFDF78DFE034610B90121034AA0
:1043C0001170184607B05DF804FB00BF1D0E0020F9
:1043D00000B585B003AB00930DF10E0302AAFDF703
:1043E000B5FE034610B90121024A1170184605B006
:1043F0005DF804FB1D0E002000B599B00023169354
:1044000015930CAB0A930DAB09930EAB08930FAB4E
:10441000079310AB069311AB059312AB049313AB48
:10442000039314AB029316AB019315AB009317AB38
:104430000DF15E02FDF7E4F9024690B9149B180EE7
:104440000A490870C3F307400949087009490B80FD
:104450001399094B19600C99084B19600121084BFD
:104460001970104619B05DF804FB00BFB60E0020AD
:10447000B70E0020E20E0020C00E0020BC0E00206F
:10448000220E002070B598B0002316931593149354
:104490001393129315AB0A930CAB09930DAB0893CE
:1044A0000EAB07930FAB069310AB059311AB0493C0
:1044B00014AB039312AB029316AB019313AB0093AF
:1044C00017AB0DF15E02FDF729FA044610BB129AF4
:1044D0001AB1124B1068516803C3149D55B1104EA8
:1044E0004022002130462AF031FB3F222946304647
:1044F0002BF006FB0F9B190E0A4A1170C3F30741FC
:10450000094A1170094A13800E9A094B1A60012258
:10451000084B1A70204618B070BD00BFC80E0020AE
:10452000340E0020B40E0020B50E0020DE0E002058
:10453000B80E00201E0E002000B58BB003AB009318
:104540000DF10A030DF12602FDF715FB034618B91C
:10455000BDF80E20012A03D018460BB05DF804FB0D
:104560000121014A1170F7E7240E002000B585B043
:104570000DF10A03019303AB009302AB0DF10E02A0
:10458000FDF76DFA05B05DF804FB000000B585B0DD
:104590000DF10A03019303AB009302AB0DF10E0280
:1045A000FDF7A3FA034610B90121034A117018461A
:1045B00005B05DF804FB00BF230E002070B590B07D
:1045C00000230C930B93099309AB06930AAB059355
:1045D0000BAB04930CAB03930DAB02930EAB0193A7
:1045E0000DF13A0300930FAB0DF13E02FDF71CFBFA
:1045F0000446C0B90D9A0D4B1068516803C30B9D5A
:1046000055B10B4E4022002130462AF09FFA3F223E
:10461000294630462BF074FABDF83A20054B1A8033
:104620000122054B1A70204610B070BDD00E00203C
:10463000740E0020DC0E00201F0E002000B583B099
:1046400001AB0DF10602FDF772FB034610B9012123
:10465000024A1170184603B05DF804FB200E0020DA
:1046600000B58DB006AB049307AB039308AB029380
:1046700009AB01930AAB00930BAB0DF12E02FDF7D2
:104680008EFB0DB05DF804FB00B585B00DF10B039A
:10469000009303AB0DF10E02FDF7DCFB05B05DF8F6
:1046A00004FB000070B598B00DAB019310AB009304
:1046B0000DF1420311AAFDF715FE064650B9BDF8EB
:1046C00038100A2902D829B1002529E03C482AF0EF
:1046D00097FA0426304618B070BD9DF82C100029BA
:1046E0003ED19DF82D201D2A3AD19DF82E20C12AB9
:1046F00036D1BDF81410334A1180334A1360334B5E
:104700000BAA92E8030018609980BDF818100A29D6
:1047100038D8002951D101222D4B1A701544ADB261
:10472000BDF838309D42D5D206AB02930BAB019356
:1047300007AB00930DF1160305AA294611A8FDF752
:104740001EFE079B002BC8D00A2BC6D0642BC4D0FA
:10475000B3F57A7FC1D019461E482AF051FA0FE00E
:104760009DF82D209DF82E309DF82F009DF83040AB
:104770009DF8315002950194009017482AF040FAB4
:104780000426A7E715482AF03BFAF9E70AAB02939B
:1047900009AB019308AB00930DF11A032246294699
:1047A00011A8FDF74CFE089A0D4B1A600134A4B213
:1047B000BDF818309C42E9D3ADE70024F8E700BF0C
:1047C0000C650300E00E0020C40E00202C0E00201B
:1047D000210E00202C65030044650300786503006A
:1047E000280E002010B58EB009AA002309930A9361
:1047F0000B9307AC0793089306AB059304940392BD
:104800000DF1320302930DF1330301930DF13103E6
:1048100000930DAB0DF13602FDF7D6FC034658B9F7
:104820000121074A1170074A09991160064A0B993C
:104830001160064A0A99116018460EB010BD00BFFB
:10484000100E00200C0E0020140E0020180E002068
:1048500000B58BB006AB059308AB04930DF12103B3
:1048600003930DF1220302930DF12303019307AB90
:10487000009309AB0DF12602FCF7D1FE034630B9D7
:104880009DF82210044A11700121044A1170184643
:104890000BB05DF804FB00BF040000201C0E0020DC
:1048A00000B587B00DF1110302930DF112030193CE
:1048B0000DF11303009305AB0DF11602FCF708FF91
:1048C00007B05DF804FB0020704700B58DB00DF116
:1048D0002B03059309AB04930DF1260303930AAB55
:1048E000029307AB019308AB00930BAB0DF12E02C3
:1048F000FCF752FD0DB05DF804FB00B591B00DF171
:104900001603039306AB029307AB019308AB009326
:104910000DF1220309AAFCF79EFD11B05DF804FB1E
:1049200000B58FB00DF11203039305AB02930DF1A7
:104930001603019306AB00930DF11A0307AAFCF7C7
:10494000E9FD0FB05DF804FB0020704700B585B0AD
:104950000DF10A0301930DF10B03009303AB0DF16D
:104960000E02FEF741F905B05DF804FB00B589B011
:1049700004AB039306AB029305AB01930DF11A034D
:10498000009307AB0DF11E02FEF770F909B05DF858
:1049900004FB000030B597B00DF15203019315AB45
:1049A00000930DF1560302AAFEF706FA054648B930
:1049B000BDF85210022901D8002435E037482AF00A
:1049C0001FF90425284617B030BD35482AF018F9DC
:1049D0000C994BF6803399424AD1BDF84C1004290A
:1049E0004BD8BDF84E1004294CD8BDF82C1008291E
:1049F00009D00C2907D0102905D0142903D0182973
:104A000001D0202943D1BDF84020264B1A809DF8C3
:104A10004220254B1A709DF84320244B1A70012226
:104A2000234B1A700134A4B2BDF852309C42C9D253
:104A300014AB09AA214602A8FEF707FA60BB002CB6
:104A4000F0D1BDF840104B1F9BB2012BBDD90B29F3
:104A5000BBD00C29B9D00D29B7D0A1F122039BB24C
:104A60001D2BB2D9A1F145039BB2B92BB0D8ACE74D
:104A700010482AF0C5F80425A4E70F482AF0C0F82A
:104A800004259FE70D482AF0BBF804259AE70C4857
:104A90002AF0B6F8042595E7054693E798650300E4
:104AA000B4650300D80E0020DB0E0020DA0E0020D3
:104AB0001C0E0020D0650300EC65030004660300B3
:104AC0001C660300002070470020704700B58DB0C1
:104AD0000DF12A0301930BAB00930DF12E0303AAF2
:104AE000FEF7B7F90DB05DF804FB00207047000039
:104AF00070B598B00DF15A03019317AB00930DF107
:104B00005E0305AAFEF769FA0646002844D1BDF8FF
:104B10005A10042936D80025BDF85A309D423BD2A0
:104B20000CAB009303AB0DF10A02294605A8FEF772
:104B300099FA034678BB75B9BDF83820194B1A802D
:104B40009DF84920184B1A709DF84A20174B1A708F
:104B50000122174B1A70BDF80A10042917D8002437
:104B6000BDF80C309C421AD20DF10E03009304AB39
:104B70002246294605A8FEF77DFA034658B90134B6
:104B8000A4B2EDE70B482AF03BF8042604E00A48FB
:104B90002AF036F804231E46304618B070BD0135A1
:104BA000ADB2B9E7D80E0020DB0E0020DA0E0020EF
:104BB0001C0E00205466030070660300002070473E
:104BC00000B58DB00DF12A0301930BAB00930DF1ED
:104BD0002E0303AAFEF756FA0DB05DF804FB0000A1
:104BE00030B58DB00DF12A0301930BAB00930DF19D
:104BF0002E0302AAFEF772F9054648B9BDF82A103D
:104C0000022901D8002408E0164829F0F9FF0425FC
:104C100028460DB030BD0134A4B2BDF82A309C4204
:104C2000F6D209AB01930DF1250300930DF1260394
:104C30000AAA214602A8FEF795F988B9002CEAD104
:104C4000BDF82620084B1A809DF82520074B1A70C6
:104C50009DF82420064B1A700122064B1A70DAE7E1
:104C60000546D5E734660300D80E0020DB0E002091
:104C7000DA0E00201C0E002030B58DB00DF12A0395
:104C800001930BAB00930DF12E0302AAFEF73FFA3E
:104C9000054648B9BDF82A10042901D8002408E0C7
:104CA000164829F0ADFF042528460DB030BD01346B
:104CB000A4B2BDF82A309C42F6D209AB01930DF1A3
:104CC000250300930DF126030AAA214602A8FEF748
:104CD00049F988B9002CEAD1BDF82620084B1A8082
:104CE0009DF82520074B1A709DF82420064B1A705A
:104CF0000122064B1A70DAE70546D5E75466030031
:104D0000D80E0020DB0E0020DA0E00201C0E002042
:104D10000020704700207047F8B5069D089C234E80
:104D200036785EB310B1224F3F78077011B1214839
:104D30000078087012B120490988118013B11F4A08
:104D400012681A6028462AF01BFE079B5F1EB842B5
:104D500000DC074635B13A461949284629F0F8FDE6
:104D60000023EB551CB1174B03CB20606160002280
:104D70000E4B1A70301C18BF0120F8BD08B1002777
:104D8000077009B1002008700AB1002111800BB131
:104D900000221A6025B1079A0021284629F0D6FE84
:104DA000002CE7D0002323606360E3E71E0E0020A1
:104DB000B40E0020B50E0020DE0E0020B80E00203C
:104DC000340E0020C80E002070B4039D174C2478C8
:104DD000DCB110B1164E3678067011B11548007866
:104DE000087012B114490988118013B1134A12686E
:104DF0001A6015B1124B1B682B6000220B4B1A7006
:104E0000201C18BF012070BC704708B10026067036
:104E100009B1002008700AB1002111800BB10022F5
:104E20001A60002DECD000232B60E9E7220E002051
:104E3000B60E0020B70E0020E20E0020C00E0020AB
:104E4000BC0E00202DE9F04106460C46154698465A
:104E50001A4B1F7817B368B119482AF091FD013C2D
:104E6000A04200DC044622461549304629F070FD78
:104E7000002333551DB1134B03CB28606960B8F193
:104E8000000F03D0104B1B88A8F8003000220B4BFA
:104E90001A70381C18BF0120BDE8F08118B10A460D
:104EA000002129F053FE15B100232B606B60B8F18F
:104EB000000FEED00023A8F80030EAE71F0E002014
:104EC000740E0020D00E0020DC0E0020034B18785A
:104ED00000221A70801A18BF01207047200E00208F
:104EE00030B4124C2478CCB110B1114D2D8805800E
:104EF00011B110480068086022B10F4908681060BD
:104F00008988918013B10D4A12681A600022074BFC
:104F10001A70201C18BF012030BC704708B1002354
:104F200003800029F5D000230B60F2E7210E00205A
:104F3000E00E0020C40E00202C0E0020280E0020C1
:104F400030B4164C2478DCB110B1154D2D88058095
:104F500021B11448007800F00100087022B1124914
:104F6000097801F00101117013B1104A12781A701A
:104F700000220A4B1A70201C18BF012030BC704759
:104F800008B10025058009B1002008700AB1002190
:104F90001170002BEFD001221A70ECE71C0E0020DC
:104FA000D80E0020DB0E0020DA0E002004000020C6
:104FB000034B187800221A70801A18BF012070471E
:104FC000230E0020034B187800221A70801A18BF95
:104FD000012070471D0E0020034B187800221A7024
:104FE000801A18BF01207047240E002010B4114B06
:104FF0001B78A3B110B1104C2468046011B10F48A4
:105000000068086012B10E49096811600021094A60
:105010001170181C18BF01205DF8044B704708B1CF
:105020000024046009B100200860002AF1D00021AA
:105030001160EEE7100E00200C0E0020140E002070
:10504000180E00200023034A1360034A1360034A2A
:1050500013607047E80E0020E40E0020EC0E0020E4
:1050600010B504461AF000FE034B1860034B1C6099
:105070000122034B1A6010BDE80E0020EC0E002048
:10508000E40E00200023034A1360034A1360034A1E
:1050900013607047E80E0020EC0E0020E40E0020A4
:1050A00008B51AF0E1FD104B1B68984213D300229B
:1050B000C31A4FF47A7000FB03F00C4BA3FB0030D3
:1050C00080090B4B1B6843B10A4B1B68984206D200
:1050D0003AB9002008BD0122EAE7002008BD0120FE
:1050E00008BD012008BD00BFE80E0020D34D6210AE
:1050F000E40E0020EC0E0020024B187800221A70FB
:10510000704700BFF00E002008B54FF40172002177
:10511000044829F01BFD4FF403720021024829F0D6
:1051200015FD08BD000400609025002070B58EB00C
:105130004FF40173A74AFCF703F982B262B901F098
:10514000E5F8A54829F0BEFD0122A44B1A70FFF72F
:10515000DBFF00200EB070BD9E490BA8FEF7D8FF04
:1051600040B101F0CBF89E4829F0ACFD01229B4BE9
:105170001A70ECE70DF12B010BA8FFF701F850B9FD
:105180009DF82B30013B042B00F21C82DFE803F07A
:105190000C1E25296A0001F0B1F8924829F092FD11
:1051A00001228E4B1A70D2E703A90BA8FEF7F3FF7A
:1051B00078B901F0B3F89DF80C30013B052B08D805
:1051C00000F074FE012001F0B7F802E0012001F0C8
:1051D00055F8FFF799FF0120BCE7012001F04EF8D8
:1051E000F7E7012001F04AF84FF4FE727E49684665
:1051F000FDF733FA18B10122784B1A70A7E701F0D6
:1052000075F8002203A96846FDF742FA0546002416
:105210000FE021466846FFF7C7F80546F5B9BDF827
:1052200012301C44A4B2224603A96846FDF730FAA6
:105230000546002DCDD1BDF81410B1F5804FE8D052
:1052400044F20103994203D0684829F0D9FCE5E70C
:1052500021466846FFF7BCF80546DFE701225F4BB1
:105260001A7074E7012001F009F84FF4FE725E49EC
:105270006846FDF7F2F918B10122584B1A7066E73B
:1052800001F02CF8002203A96846FDF701FA044654
:105290000025C1E0FEF75CFBBDF81400FEF7B6F98F
:1052A00001224E4B1A7052E700F0D2FF864203D122
:1052B000002000F0D3FFC3E00122484B1A7046E7FC
:1052C00041F20803994200F00D8124D841F2040311
:1052D000994200F0F58011D841F20103994200F0A3
:1052E000E38041F20303994200F0E480B1F5805F6E
:1052F00000F080803E4829F083FC80E041F2060304
:10530000994200F0E38000F2E78029466846FFF703
:105310003DF9044673E0B1F5905F00F0F58012D8D6
:10532000B1F5885F00F0E48041F20113994200F08A
:10533000E58041F209039942DCD129466846FFF72E
:10534000A3F904465BE041F20223994200F0E880B1
:10535000C0F0E080B1F5985FCCD129466846FFF7F0
:10536000F3FA04464BE041F20533994200F00E8116
:105370000CD841F20333994200F0EA8000F2FA803F
:1053800029466846FFF7F2FA044638E041F207334F
:10539000994200F0078100F20B8129466846FFF729
:1053A0000FFC04462BE041F20B33994200F0DC8005
:1053B00000F2E68029466846FFF7AAFC04461EE094
:1053C00041F21033994295D129466846FFF7A2FC75
:1053D000044614E0000400608C660300F00E002018
:1053E0009C660300B066030010040060C4660300FE
:1053F0000067030029466846FEF7FEFF0446002CBE
:1054000040F0DC80BDF812202A4495B22A4603A958
:105410006846FDF73DF90446002C7FF4DAAE03A898
:10542000FDF7F3F900287FF435AF03A8FDF7E7F99E
:105430000646BDF81400FEF7E9F8002E7FF434AFFD
:10544000BDF81460B6F5885F07D03046FEF7DEF889
:10545000024631465D4829F0D3FBBDF8141041F2F5
:10546000013399426ED07FF62BAF41F20933994256
:1054700074D07FF678AF41F20D33994200F08C8002
:1054800091D9B1F5A05F51D09AD941F20143994227
:1054900052D041F2024399427FF42CAF294668462C
:1054A000FFF73EFA0446AAE729466846FEF7EAFFF8
:1054B0000446A4E729466846FFF73EF804469EE7FF
:1054C00029466846FFF752F8044698E72946684699
:1054D000FFF774F8044692E729466846FFF7AEF8EE
:1054E00004468CE729466846FFF7BAF8044686E783
:1054F00029466846FFF7D6F8044680E729466846FD
:10550000FFF770F904467AE729466846FFF7A0F9E5
:10551000044674E729466846FFF7C2F904466EE779
:1055200029466846FFF7CFF9044668E729466846EA
:10553000FFF7CBF9044662E729466846FFF7DDF935
:1055400004465CE729466846FFF700FA044656E73A
:1055500029466846FFF71EFA044650E72946684682
:10556000FFF7B0FA04464AE729466846FFF7ACFA67
:10557000044644E729466846FFF7A8FA04463EE792
:1055800029466846FFF7B1FA044638E729466846D7
:10559000FFF7AEFA044632E729466846FFF70EFBEE
:1055A00004462CE729466846FFF71AFB044626E71F
:1055B00029466846FFF760FB044620E70122044BBA
:1055C0001A70C4E50122024B1A70C0E5EC660300B4
:1055D000F00E002030B585B0012000F03FFE4FF402
:1055E000FE721C496846FDF716F9044610B12046C4
:1055F00005B030BD01216846FCF79BFF044600283A
:10560000F5D14FF40172144902A8FEF7DAFD044601
:105610000028ECD1BDF806200E4902A8FEF78CFE4A
:1056200004460028E3D10D4D2A46BDF80E100A4865
:10563000FBF764FE0146681EFEF7FEF9054608B951
:105640000224D4E781B2064800F0A6FD8542CED000
:105650000224CCE7A42700209C2700200506006038
:105660000406006030B58BB0022000F0F7FD4FF467
:10567000FE72224906A8FDF7CEF8044610B1204676
:105680000BB030BD1E4B03931E4B04931E4B059372
:1056900000230193009303AB0422022106A8FCF728
:1056A00058FF04460028EAD14FF40172174908A8B0
:1056B000FEF787FD04460028E1D1BDF81E200F4902
:1056C00008A8FEF739FE04460028D8D1104D2A4616
:1056D000BDF826100D48FBF711FE0146681EFEF7C7
:1056E000ABF9054608B90224C9E781B2094800F0C0
:1056F00053FD8542C3D00224C1E700BFA427002088
:10570000212CFEA90000FFFF0100FEA99C2700201C
:10571000050600600406006030B58BB0032000F081
:105720009DFD4FF4FE72234906A8FDF774F8044668
:1057300010B120460BB030BD0123ADF800301E4B38
:1057400001931E4B02930222ADF80C201C490491D8
:1057500005936B46032106A8FDF769FD0446002862
:10576000E7D14FF40172174908A8FEF72AFD044655
:105770000028DED1BDF81E200E4908A8FEF7DCFD8A
:1057800004460028D5D1104D2A46BDF826100D48F4
:10579000FBF7B4FD0146681EFEF74EF9054608B951
:1057A0000224C6E781B2094800F0F6FC8542C0D069
:1057B0000224BEE7A4270020386703003C670300EB
:1057C0004C6703009C27002005060060040600606B
:1057D00030B58DB0042000F041FD4FF4FE72294930
:1057E00008A8FDF718F8044610B120460DB030BDEA
:1057F0001823ADF814300223ADF804302022ADF8A0
:105800001620214A029200220492ADF81830039229
:105810000122ADF80020ADF80230694601A8FDF77D
:1058200033FD01AA042108A8FDF730FD0446002835
:10583000DBD14FF4017215490AA8FEF7C2FC0446F9
:105840000028D2D1BDF826200E490AA8FEF774FD23
:1058500004460028C9D10E4D2A46BDF82E100B482B
:10586000FBF74CFD0146681EFEF7E6F8054608B951
:105870000224BAE781B2074800F08EFC8542B4D01A
:105880000224B2E7A4270020286703009C270020F9
:10589000050600600406006030B587B0052000F002
:1058A000DDFC4FF4FE721F4902A8FCF7B4FF04466A
:1058B00010B1204607B030BD4FF48073009302232F
:1058C0001A46052102A8FDF78CFC04460028F0D1F9
:1058D0004FF40172144904A8FEF773FC0446002833
:1058E000E7D1BDF80E200F4904A8FEF725FD0446B8
:1058F0000028DED10D4D2A46BDF816100A48FBF7E8
:10590000FDFC0146681EFEF797F8054608B902241B
:10591000CFE781B2064800F03FFC8542C9D002249F
:10592000C7E700BFA42700209C27002005060060D1
:105930000406006030B58FB0062000F08FFC4FF4F5
:10594000FE7227490AA8FCF766FF044610B12046FC
:105950000FB030BD0322ADF81420224B0693224B2A
:1059600007930223ADF82030ADF82230ADF8243093
:10597000ADF8263005AB0393002302930193009307
:1059800006210AA8FCF7B3FA04460028DFD14FF439
:10599000017216490CA8FEF714FC04460028D6D163
:1059A000BDF82E200E490CA8FEF7C6FC04460028C0
:1059B000CDD10F4D2A46BDF836100C48FBF79EFCA2
:1059C0000146681EFEF738F8054608B90224BEE70E
:1059D00081B2084800F0E0FB8542B8D00224B6E767
:1059E000A427002008AF2F00944106009C27002028
:1059F000050600600406006030B585B0072000F0A1
:105A00002DFC4FF4FE721E496846FCF704FF044665
:105A100010B1204605B030BD4AF6444301220721AB
:105A20006846FBF7D7FD04460028F2D14FF4017217
:105A3000144902A8FEF7C5FB04460028E9D1BDF8C9
:105A400006200F4902A8FEF777FC04460028E0D1A3
:105A50000D4D2A46BDF80E100A48FBF74FFC0146D3
:105A6000681EFDF7E9FF054608B90224D1E781B2B7
:105A7000064800F091FB8542CBD00224C9E700BF65
:105A8000A42700209C270020050600600406006073
:105A900030B589B0082000F0E1FB4FF4FE721F49D9
:105AA00004A8FCF7B8FE044610B1204609B030BD8A
:105AB0000123ADF804308DF8063001AA082104A8AE
:105AC000FBF75AFE04460028EFD14FF40172144947
:105AD00006A8FEF776FB04460028E6D1BDF816209E
