:10000000008002204D060000BD060000BD06000075
:10001000BD060000BD060000BD0600000000000097
:10002000000000000000000000000000BD0600000D
:10003000BD06000000000000BD060000BD06000077
:1000400010B5054C237833B9044B13B10448AFF312
:1000500000800123237010BD780000200000000004
:10006000301100000C4B43B10C480D4910B5AFF3F3
:1000700000800C48036823B910BD0A48036833B9EF
:100080007047094B002BF7D0BDE810401847064BCE
:10009000002BF5D0184700BF000000003011000011
:1000A0007C0000207400002000000000154B002B95
:1000B00008BF134B9D46A3F5803A00218B460F469F
:1000C0001348144A121A00F06CFF0F4B002B00D09B
:1000D00098470E4B002B00D09847002000210400C9
:1000E0000D000D48002802D00C48AFF3008000F04E
:1000F00029FF2000290000F041F900F00FFF00BFA8
:100100000000080000800220000000000000000045
:1001100078000020E0100020000000000000000037
:10012000F0B5C0F30B0485B007460D4616462CB15A
:100130001A4800F019F9002005B0F0BD00F028FBC6
:1001400008B11748F5E70197164C174F0290029B2C
:10015000B34201D30120EFE7019B0198029B55F8C0
:10016000231000F077FB08B11048E2E7019800F097
:100170004BFB0390029A039B55F822209A4205D02C
:10018000236838460133236000F0EEF8019B043306
:100190000193029B01330293D9E700BFD00F000007
:1001A000F90F000094000020211000000D10000045
:1001B00010B5012000F070FD044620B1044800F0A5
:1001C000D3F8032010BD012000F0E8FD204610BD4B
:1001D000301000007FB50123049303930293019331
:1001E0000B2300934022034600214FF4801000F0BF
:1001F0000DFE07B05DF804FB7FB501230493039364
:100200000293019300F580100B2300934FF480526A
:100210000B464030002100F0F9FD07B05DF804FB0B
:1002200000B589B001220B2300930492039202923D
:1002300001920DF11F03002100F5801000F0E6FD92
:100240009DF81F0009B05DF804FB0000064B1A463C
:1002500099690902FCD40A28186004D193691B0229
:10026000FCD40D231360704700000740354A136823
:1002700010B523F0F003344C1360236843F00103FE
:100280002360012000F02AFA236923F00703236189
:100290002E4B2364042000F021FA236923F0070386
:1002A00043F00203236111236363A36843F48033A3
:1002B000A3604FF080440E20E36B23F47F03E363DD
:1002C000E36B43F4CC03E36300F0FAF9236C204AB8
:1002D00003F07F432364236C43F0331343F44C5304
:1002E0002364536A43F004035362936A23F47F63E5
:1002F00023F00F0343F4AA6343F00503936202F56E
:100300003E5253689BB243F480335360D36823F466
:10031000E023D360D36843F48013D360936C23F05D
:10032000F85323F4803343F0006343F48033936441
:10033000A2F53F52136823F0F00343F0500313601B
:1003400010BD00BF40410040000200401E420800B6
:1003500080400040024B0322DA60024A5A62704732
:10036000000007406600003010B5441E14F9010F6C
:1003700000B910BDFFF76AFFF8E700002DE9F34769
:100380004FF08043592416208821C3F80041C3F858
:100390000001C3F80011D3F80021002AF5D0FFF7BF
:1003A00065FFFFF7D7FF6E48FFF7DEFF3120FFF74D
:1003B0004DFF2E20FFF74AFF3020FFF747FF0A20AE
:1003C000FFF744FFFFF7F4FE0546002840F0938056
:1003D000644C2046FFF7FEFEE269634B9A4240F010
:1003E000AE80E368013B033300F2A980A76801A84F
:1003F00000F0ECF82B46E268394601A800F0E9F875
:100400000DF1060101A800F01EF9228BBDF806309F
:100410009A4240F090805548554EDFF88C81FFF7A6
:10042000A3FF00F0E9F9534AD4F80890136843F0A9
:1004300008031360E368B5EB133F09EB053A16D9DF
:1004400001A800F0C3F80123E268394601A800F0D2
:10045000C0F80DF1060101A800F0F5F8228BBDF8F7
:1004600006309A4240D04448FFF77EFFFEE74349FA
:100470005046FFF7C1FE4FF4806240495046FFF7F7
:100480004FFE00282ED15820FFF7E0FE3378DA0720
:100490004CBF00230123C8F80030337813F0020F5B
:1004A000374B14BF002201221A60337813F0040F77
:1004B000344B14BF002201221A60337813F0080F66
:1004C000314B14BF002201221A6033785B00DBB28B
:1004D00033703378102B08BF012305F1010508BFE5
:1004E0003370A7E72E20CFE7224A136823F00803D2
:1004F000136000F011F92548FFF736FF244A93698D
:100500005B02FCD572B600F077F9224B22491B68DA
:100510000A22B3FBF2F300220A60164A2E20D060B2
:100520004FF48040506001205B00106113F1FF33F5
:1005300007D20B6008E01948FFF716FFDBE7184801
:10054000FAE710690028F1D10B681BB11548FFF7D5
:100550000BFFFEE700F0E0F800F0AEF9FEE700BFA9
:10056000401000009C100020572910575510000023
:100570000000002000C00040601000009C0000202F
:1005800048480040B0480040AC480040A31000007C
:100590000000074008000020DC100020751000005B
:1005A00089100000B71000004C480040036810B5E7
:1005B00083EA0121082241F221044B00090448BFCB
:1005C0006340013A1946F8D1036010BD002303804F
:1005D00070472DE9F74F02AD9B46038845F8043D6F
:1005E00007468846914601F1400A00244C4504D351
:1005F000019B3B8003B0BDE8F08FBBF1000F09D138
:1006000004EB0A00FFF70CFE01462846FFF7CEFF79
:100610000134EBE708EB040000F0F6F80646C1B23F
:100620002846FFF7C3FFC6F307212846FFF7BEFFA2
:10063000C6F307412846FFF7B9FF310E2846FFF7FA
:10064000B5FF0434D2E703880B8070471449154A7C
:10065000154B9A42BEBF51F8040B42F8040BF8E761
:10066000124859210160162101608821016010485B
:10067000416841F4804141600E48416841F0020107
:100680004160416841F00401416000F00DFC0A48FE
:1006900045F6A5210160054800210160FFF706FD30
:1006A0003C11000000000020780000200001004004
:1006B000000200400070004024000040FEE700BF40
:1006C000830F9B0003F1804300F01F02D3F8041254
:1006D000012090400843C3F8040270470B4B0C4ABA
:1006E0001B6810B500210B4C11605B08216D30EACE
:1006F000010102D143B9012301E0013BF6D14FF0E2
:10070000FF311160184610BD0123FBE708000020EF
:100710009800002000020040024A136823F0010301
:100720001360704700C000401549164A00230B6053
:100730002223D3604FF400135360134B93600123C3
:100740001361124B0A201B68B3FBF0F39B00013BC3
:10075000581C002805DC002B08DC4FF0FF30086037
:100760007047D2F8C000C007F1D4F4E7054B186811
:1007700010F04000F4D01A6842F040021A60ECE732
:10078000DC10002000C0004003AA55000800002033
:1007900016490023B0F5001F0B6001D1FFF7C4BF5D
:1007A000134A2223D360012350601361114B0A20A6
:1007B0001B68B3FBF0F39B00013B581C002805DCD1
:1007C000002B08DC4FF0FF3008607047D2F8C00003
:1007D000C007F1D4F4E7064B186810F04000F4D0DD
:1007E0001A6842F040021A60ECE700BFDC100020FB
:1007F00000C0004008000020024A136843F00103D3
:100800001360704700C000400F4A104900230B607E
:10081000D3600123506013610D4B0A201B68B3FBAA
:10082000F0F35B00013B581C002805DC002B08DCC2
:100830004FF0FF3008607047D2F8C000C007F1D415
:10084000F4E7014B9868704700C00040DC100020BE
:100850000800002010B5154C154A00232360212301
:10086000D3600123506091601361124B0A211B6811
:10087000B3FBF1F321465B00013B581C002805DC6B
:10088000002B08DC4FF0FF30086010BDD2F8C0002C
:10089000C007F1D4F4E7064B186C10F04000F4D018
:1008A0001A6C42F040021A64ECE700BFDC10002032
:1008B00000C00040080000204FF08042936843F0E1
:1008C0000203936070470000F7B5304D07460C46B1
:1008D00000266FF003010CB903B0F0BD0F2C4FD808
:1008E0000B2C4FD8072C4FD8032C25D90123B8192E
:1008F0001A46013A02F1080E50F804CB45F82EC012
:10090000002AF6D12A6822F440022A602A6842F4BA
:10091000F8522A602A6801FB034406EB830622F49E
:10092000C042013B42EA43332B606B6843F0010352
:100930006B606B68DB07FCD4631E022BCBD82246AE
:10094000B91901A800F022FB019B2B622B6823F44C
:1009500040032B602B682644E40223F4F853A4F5EB
:1009600080741C432C602B6823F4C0432B606B689D
:1009700043F001036B606C6814F00104FBD1A8E73D
:100980000423B4E70323B2E70223B0E7007000407A
:100990002DE9F341324C07460D4600266FF0030067
:1009A00015B902B0BDE8F0810F2D2BD80B2D50D812
:1009B000072D50D8032D50D86B1E022BF0D823687A
:1009C00023F4400323602268EB02A3F5807322F432
:1009D000F85213432360236823F4C0432360636801
:1009E00043F001036360636813F00108FBD102A9BF
:1009F000236941F8043D2A46B81900F0C7FA2E448D
:100A00004546CBE70423226822F440022260226894
:100A100042F4F852226021685A1E21F4C04141EA92
:100A200042322260626842F0010262606268D2076C
:100A3000FCD4B9191A46013A02F1040E54F82EE01A
:100A400041F804EB002AF6D100FB035506EB8306C0
:100A5000B2E70323D7E70223D5E70123D3E700BF9B
:100A600000700040034A136823F4421343F4004328
:100A70001360704700700040022805D004280BD096
:100A8000012808D1FFF7EEBF074A136823F4421389
:100A900043F4841313607047034A136823F442132A
:100AA00043F40213F6E700BF0070004037B500289A
:100AB00002AD14BF0623042305F8043D084C636807
:100AC00023F0100363600846FFF7D6FF0121284694
:100AD000FFF7FAFE636843F01003636003B030BDB4
:100AE00000700040022809D004280ED0012804D14B
:100AF000094A136823F4421313607047064A1368C7
:100B000023F4421343F48013F6E7034A136823F4F3
:100B1000421343F40013EFE70070004013B50123C4
:100B20000A4C8DF805008DF80430636823F010033B
:100B300063600846FFF7A0FF022101A8FFF7C4FE8B
:100B4000636843F01003636002B010BD00700040A2
:100B500013B501238DF8043003788DF805300A4C65
:100B600043788DF80630636823F01003636008460D
:100B7000FFF782FF032101A8FFF7A6FE636843F099
:100B80001003636002B010BD00700040F7B502AD05
:100B9000352305F8043D0D4C636823F010036360B2
:100BA000074608460E46FFF767FF01212846FFF774
:100BB0008BFE3046FFF796FF01213846FFF7E8FE2F
:100BC000636843F01003636003B0F0BD0070004041
:100BD000F7B502AD052305F8043D0D4C636823F01D
:100BE00010036360074608460E46FFF745FF0121E4
:100BF0002846FFF769FE3046FFF774FF01213846AB
:100C0000FFF7C6FE636843F01003636003B0F0BDF6
:100C100000700040F7B50C4E074600244FF47A757B
:100C20003368B3FBF5F39C4203D34FF0FF3003B0BE
:100C3000F0BD01A83946FFF7CBFF9DF8040010F086
:100C40000100F4D00134EBE7080000202DE9F34166
:100C500002AD9F2305F8043D0E4C636823F010039A
:100C600063600746104616468846FFF705FF0121D8
:100C70002846FFF729FE3046FFF734FF4146384645
:100C8000FFF786FE636843F01003636002B0BDE8BF
:100C9000F08100BF007000402DE9F3413D4C6368D6
:100CA00002AD23F020034FF06608636005F8088D5D
:100CB000636823F010036360236823F4421343F452
:100CC00002132360012106462846FFF7FDFD6368F5
:100CD000992743F0100363608DF80070636823F078
:100CE00010036360236823F4421343F40213236068
:100CF00001212846FFF7E8FD636843F010036360B5
:100D00008DF80080636823F010036360236823F488
:100D1000421343F40043236001212846FFF7D4FD2A
:100D2000636843F0100363608DF80070636823F01C
:100D300010036360236823F4421343F400432360E9
:100D400001212846FFF7C0FD636843F0100363608C
:100D500056B101210846FFF7A9FE00200121FFF747
:100D6000DDFE0120FFF756FF032101A80122FFF756
:100D70006DFF094C9DF804104FF0FF300023E25C3A
:100D80000133914208BF0020052BF8D102B0BDE825
:100D9000F08100BF007000400100002013B5024642
:100DA000044603216846FFF751FF9DF80030EF2B02
:100DB0002AD19DF80130402B26D19DF80230162B08
:100DC00022D1214601A8FFF703FF21460DF10500BE
:100DD000FFF7DCFE9DF80530214623F0400301209B
:100DE0008DF80530FFF762FE214601A8FFF7B0FE3F
:100DF0002046FFF70FFF214601A8FFF7E9FE214635
:100E00000DF10500FFF7C2FE02B010BD2DE9FF4154
:100E10009046244A1F46536823F01003536004ACE5
:100E20009DF8283004F8103D05460B980E46FFF754
:100E300023FE01212046FFF747FD2A0C2B0A36B37B
:100E4000290E8DF800108DF801208DF802308DF8F4
:100E5000035004210C98FFF70FFE2046FFF734FDE6
:100E600000210B460E9A914219D12046FFF72CFD26
:100E70000D98FFF737FE41463846FFF789FD094ACE
:100E8000536843F01003536004B0BDE8F0818DF85F
:100E900000208DF801308DF802500321DAE7635409
:100EA0000131DFE700700040174AD2F8883043F480
:100EB0007003C2F88830154AD36C23F00F0343F057
:100EC0000803D364124BD3F8982042F48022C3F86D
:100ED00098209A6842F002029A600E4AD2F80411F1
:100EE00001F0F731C2F80411D2F8081101F0F7311E
:100EF000C2F808119A6822F002029A60064A136842
:100F000023F0F0031360704700ED00E000C00040E4
:100F100000020040001004404041004008B5074B6B
:100F2000044613B10021AFF30080054B1868836AB3
:100F300003B19847204600F03DF800BF00000000D4
:100F4000CC10000070B50D4E0D4CA41BA410002554
:100F5000A54209D10B4E0C4C00F02EF8A41BA41096
:100F60000025A54205D170BD56F8253098470135BA
:100F7000EEE756F8253098470135F2E76C0000207F
:100F80006C0000206C0000207000002010B5431E93
:100F90000A44914200D110BD11F8014B03F8014FF2
:100FA000F7E702440346934200D1704703F8011B60
:100FB000F9E70000FEE700BFF8B500BFF8BC08BCC9
:100FC0009E467047F8B500BFF8BC08BC9E46704707
:100FD0004D75737420626520617420346B42206209
:100FE0006F756E6461727920666F7220466C6173F2
:100FF000682077726974650A00466C6173682045E1
:1010000072617365206661696C65640A00466C6193
:101010007368205772697465206661696C65640A3B
:1010200000566572696679204661696C65640A00DC
:1010300053504920466C617368206661696C0A00F0
:101040000A424F4F544C4F414445522056657273EB
:10105000696F6E2000435243204D415443480A00BB
:101060004150524F4D20435243204D49532D4D4145
:101070005443480A004669726D7761726520435295
:1010800043204552524F520A004E6F206E65772022
:101090006669726D776172652064657465637465F5
:1010A000640A000A0A4C61756E6368696E672041C4
:1010B00050502E2E2E0A00566563746F72205265B2
:1010C0002D6D6170204661696C0A00000C000020E3
:1010D0000000000000000000000000000000000010
:1010E0000000000000000000000000000000000000
:1010F00000000000000000000000000000000000F0
:1011000000000000000000000000000000000000DF
:1011100000000000000000000000000000000000CF
:1011200000000000000000000000000000000000BF
:0411300000000000BB
:0811340078EFFF7F01000000CD
:10113C0001EFC21C7F010000001BB7000000000083
:10114C00F010000010110000D01000000000000092
:10115C000000000000000000000000000000000083
:10116C000000000000000000000000000000000073
:10117C000000000000000000000000000000000063
:10118C000000000000000000000000000000000053
:10119C0000000000000000000000000065000000DE
:0811AC004100000000000000FA
:040000030000064DA6
:00000001FF
